:020000040800F2
:10000000B004002045010008ED1400087911000833
:10001000E9140008B1010008E11700080000000021
:100020000000000000000000000000004D15000866
:10003000B5010008000000001D150008811500082A
:100040005F0100085F0100085F0100085F01000810
:100050005F0100085F0100085F0100085F01000800
:100060005F0100085F0100085F0100085F010008F0
:100070005F0100085F0100085F0100085F010008E0
:100080005F0100085F0100085F0100085F010008D0
:100090005F0100085F0100085F0100085F010008C0
:1000A0005F0100085F0100085F0100085F010008B0
:1000B0005F0100085F0100085F0100085F010008A0
:1000C0005F0100085F0100085F0100085F01000890
:1000D0005F010008D11700085F0100085F010008F8
:1000E0005F0100085F0100085F0100085F01000870
:1000F0005F0100085F0100085F0100085F01000860
:100100005F0100085F0100085F0100085F0100084F
:100110005F0100085F0100085F0100085F0100083F
:100120005F0100085F0100085F0100085F0100082F
:10013000DFF80CD000F02AF80048004759180008F2
:10014000B00400200648804706480047FEE7FEE767
:10015000FEE7FEE7FEE7FEE7FEE7FEE7FEE7FEE777
:10016000E115000831010008D2B201E000F8012BCE
:10017000491EFBD270470022F6E710B513460A4627
:1001800004461946FFF7F0FF204610BD064C074D08
:1001900006E0E06840F0010394E807009847103457
:1001A000AC42F6D3FFF7C8FFBC290008DC290008E1
:1001B000FEE700007047000070470000014690F81D
:1001C0002100022813D10868D1E90FC3026822F088
:1001D0000E020260026822F001020260012000FAB1
:1001E00003F2CCF8042081F82100002002E0042072
:1001F00088630120002281F82020704780B590F8A4
:100200002110022927D1026840F2040C1368C4F2BD
:10021000020C23F00E03136013680CF17C018A4278
:1002200023F0010111601AD940F20841C4F2020121
:100230008A4247D040F21C41C4F202018A4245D0B2
:1002400040F23041C4F202018A4243D14FF480733C
:10025000CCF8003457E004218163012080BD4321A4
:10026000C4F202018A420EDD6B21C4F202018A420D
:100270001BDC4421C4F202018A4239D05821C4F265
:1002800002018A4231E00821C4F202018A4232D0DE
:100290001C21C4F202018A4232D03021C4F2020190
:1002A0008A4222D14FF480722BE06C21C4F2020109
:1002B0008A4222D08021C4F202018A4215D14FF035
:1002C00080721EE00123CCF800341CE01023CCF82F
:1002D000003418E00CF588614FF480338A4208BF7F
:1002E0004FF48053CCF800340DE04FF4803208E036
:1002F0004FF4805205E0012203E04FF4801200E049
:100300001022CCF80020416B4FF48072028401B1BE
:100310008847002080BD0000B0B5044600F004F915
:10032000054640F20400C2F200000078611C18BFCC
:10033000044400BF00F0F8F8401BA042FAD3B0BD5F
:100340002DE9F04F83B00C68002C00F0EA80A0F19A
:100350008042A2F5843240F2004E4FEAB22241F6CA
:100360000047C4F2010E0092C4F2010706220025E4
:100370004FF001094FF0000B4FF0000AB84208BFE0
:100380000522019209E000BF0C680BF1010B34FA61
:100390000BF205F1040500F0C48009FA0BF814EA29
:1003A000080CF1D04C684FF6FF72C1F21002944273
:1003B00010DC122C50D8DFE804F0330A41454F4FCF
:1003C0004F4F4F4F4F4F4F4F4F4F4F484C00D1F86B
:1003D0000CA041E04FF6FF72C1F2210294420FDC03
:1003E0000022C1F2110294421AD00022C1F212027C
:1003F000944215D00022C1F22102944210D02BE089
:100400000022C1F2220294420AD00022C1F231023B
:10041000944205D00022C1F2320294421CD100BFA6
:100420008C6844B1012C14BFC0F81480C0F810804F
:100430004FF0080A10E04FF0040A0DE0CC6804F118
:10044000080A09E04FF0000A06E0CC6804F1040A4B
:1004500002E0CC6804F10C0A2C460746BCF5807F0C
:1004600024BF203C04373A680F2303FA04F6B24352
:100470000AFA04F422433A60CA79D2067FF584AFBF
:1004800041F21804C4F2020422684FF6084842F010
:10049000010222602268CFF6FF7802F00102029288
:1004A000029A2BF00302724452F8084005F00C0641
:1004B00003FA06F7009BBC43019F052B38BF1F467C
:1004C00007FA06F6344342F808404C68E203DEF8C7
:1004D000002054BF22EA0C0742EA0C07A203CEF820
:1004E0000070DEF8042054BF22EA0C0742EA0C0731
:1004F000E202CEF80470DEF8082054BF22EA0C07AE
:1005000042EA0C07A20240F20C44CEF80870C4F292
:100510000104226854BF22EA0C0242EA0C02226063
:1005200032E703B0BDE8F08F40F2A800C2F200004D
:1005300000687047F0B581B0B0B3044690F83D0054
:1005400028B9002084F83C00204600F055F924200A
:1005500084F83D002068016821F001010160016814
:1005600041F400410160016821F40041016000F0A4
:10057000BDFA48F28041C0F21E0140F600126568E3
:1005800088424FF00001C0F23D0248F2A16C4FF0EA
:10059000000338BF01219042C0F2010C38BF012393
:1005A000654538BF0B4613B1012001B0F0BD4DF6D3
:1005B0008361C4F21B31A0FB011221684FEA924E05
:1005C0004B684FF4967623F03F0343EA92434B6027
:1005D00044F6D3530F6A0EFB06F6C1F26203A6FB84
:1005E000033627F03F03B709654538BF970C7A1CDF
:1005F0001A430A62CA6948F2A0674CF6FF73C0F258
:100600000107BD4222EA030C0AD801386A00B0FB98
:10061000F2F001306FF31F30042898BF04202BE064
:10062000A368A0F1010E9BB119206843BEFBF0F056
:100630000422013062F31F30000512D09BB1192053
:100640006843BEFBF0F00422013062F31F3011E07A
:1006500005EB4500BEFBF0F001306FF31F300005E5
:10066000ECD1012008E005EB4500BEFBF0F00130C5
:100670006FF31F3040F4004040EA0C00C861086886
:10068000D4E9072320F0C0001043184308608868AD
:1006900048F2FF3204F10C0790438CCF184310430B
:1006A000A6698860C86820F0FF0038433043C860FE
:1006B000086840F00100086000202021206484F8D0
:1006C0003D10206384F83E0001B0F0BD2DE9F043F9
:1006D00083B0994616460F460446FFF725FF94F867
:1006E0003D1020290ED102210546C0F210012046FE
:1006F00001221923009500F0E9FD18B994F83C0097
:10070000012803D1022003B0BDE8F0830121226853
:1007100084F83C101368DDE90B080A99DB0703D164
:10072000136843F001031360136823F4006313603C
:10073000212284F83D20402284F83E2000222264B9
:1007400061626085608D394620850020CFF6FF709C
:10075000E062204632464B46CDF80080019500F01D
:1007600025FD30B3012003B0BDE8F08320464146AB
:100770002A4600F02BFE28BB606A2168034613F866
:10078000012B0A61228D6362571E2785638D3F040A
:10079000A3F1010363854B6918BF13F0040308D06C
:1007A000437802300B616062901E2085608D0138B5
:1007B0006085208D0028D9D1204641462A4600F088
:1007C00055FD40B1206C0428CCD12068016841F46B
:1007D00000710160C6E72068016841F400710160A2
:1007E000202084F83D00002084F83E0084F83C007E
:1007F00003B0BDE8F083000010B586B0016845F68F
:100800000000C4F2000081424FF00001CDE9041164
:10081000CDE9021101D006B010BD41F21804C4F2B6
:100820000204216800F5344041F00801216021688C
:1008300001F00801019101994FF4406102911221E8
:1008400003910321059102A9FFF77AFD606840F446
:1008500080006060606800F480000190019806B03C
:1008600010BD000040F2040040F2A801C2F20000F6
:10087000C2F2000100780A68104408607047000066
:1008800080B542F20000C4F20200016841F010019C
:100890000160032000F066F8002000F005F800F089
:1008A0002BF8002080BD0000B0B540F20402C2F277
:1008B000000240F200011278C2F200014FF47A7394
:1008C0000968B3FBF2F20446B1FBF2F1084600F00E
:1008D000E7FA0F2C4FF001050CD858B94FF0FF3054
:1008E00021460022002500F02DF840F20800C2F257
:1008F000000004602846B0BD82B041F21800C4F286
:1009000002000168022241F001010160016801F06A
:10091000010101910199416841F0805141604068B5
:1009200000F08050009000980420C4F2010001689B
:1009300062F31A61016002B07047000080B500F0F8
:1009400051FF80BD70B514460D46064600F05AFFB3
:100950002946224600F0CCFD0146304600F05AFF01
:1009600070BD000080B500F067FF80BD2DE9F04349
:1009700081B0002800F0898042F20008C4F2020829
:100980000446D8F800000D4600F0070088420CD25B
:10099000D8F8000020F007002843C8F80000D8F875
:1009A000000000F00700A8426FD1206841F204095E
:1009B0008107C4F2020917D5410705D5D9F80010FF
:1009C00041F4E061C9F80010010705D5D9F800101D
:1009D00041F46051C9F80010D9F80010A26821F064
:1009E000F0011143C9F80010C00745D1D8F8000044
:1009F00000F00700A8420CD9D8F8000020F007004A
:100A00002843C8F80000D8F8000000F00700A8420A
:100A10003BD12068410707D5D9F80010E26821F4DE
:100A2000E0611143C9F80010000708D5D9F80000AB
:100A3000216920F4605040EAC100C9F8000000F0CC
:100A400079F8D9F8001041F6AA42C1F30311C0F6B3
:100A50000002515C40F2000220FA01F140F208006D
:100A6000C2F200000068C2F200021160FFF71CFF32
:100A7000002001B0BDE8F0836068022809D0012899
:100A800029D159F8041C890307D4012001B0BDE81D
:100A9000F08359F8041C8901F7D5D9F8001021F02A
:100AA00003010843C9F80000FFF73EFD064641F286
:100AB000883700BFD9F80000616800F00C00B0EB87
:100AC000810F93D0FFF730FD801BB842F2D903208D
:100AD00001B0BDE8F08359F8041C8907D5D5DCE7DF
:100AE00040F20000C2F200000068704780B5FFF7D6
:100AF000F7FF41F20401C4F20201096841F6BA426B
:100B0000C1F30221C0F60002515CC84080BD000064
:100B100080B5FFF7E5FF41F20401C4F20201096864
:100B200041F6BA42C1F3C221C0F60002515CC8408E
:100B300080BD000041F2040CC4F2020CDCF800306D
:100B400003F00C00082841F20020C0F27A0018BF20
:100B50007047C3F383420AA18A5CD90305D440F6E7
:100B60000010C0F23D0050437047DCF8001008A3AD
:100B7000C1F34041595C5043B0FBF1F0704700BFF6
:100B800002030405060708090A0B0C0D0E0F1010CE
:100B9000010200002DE9F04182B0002800F0C4807D
:100BA0000446007841F20006C007C4F2020643D0B2
:100BB000706800F00C00042817D0706800F00C007A
:100BC000082802D17068C0030FD465682DB1B5F54F
:100BD000A02F10D0B5F5803F11D0306820F48030C0
:100BE0003060306820F480200CE03068800323D52A
:100BF000606808BB98E0306840F48020306030685E
:100C000040F480303060FFF78FFC002D054610D097
:100C10003068800310D4FFF787FC401B6428F7D9A5
:100C200004E100BFFFF780FC401B64284FF0030085
:100C300077D830688003F5D42078800718D570689D
:100C400010F00C0F07D0706800F00C00082826D1B7
:100C50007068C00323D43068800702D5206901285A
:100C600062D13068616920F0F80040EAC10030606C
:100C7000207800073DD5A06938B30020C4F2422097
:100C80000121C0F88014FFF74FFC0546706A800709
:100C90002DD4FFF749FC401B0228F7D9C6E0206994
:100CA000002840F20000C4F2422000F096800121AA
:100CB0000160FFF739FC054630688007D1D4FFF7A3
:100CC00033FC401B0228F7D9B0E00020C4F24220D8
:100CD0000021C0F88014FFF727FC0546706A8007E2
:100CE00007D5FFF721FC401B0228F7D99EE000F052
:100CF00017FC207840071BD4E5698DB1706800F0BF
:100D00000C00082847D1012D0ED07068216A00F42C
:100D100080328A4208D1616A00F47010884203D19F
:100D2000002002B0BDE8F081012002B0BDE8F081F2
:100D3000F06910F0805808D1F06940F08050F061FF
:100D4000F06900F080500190019847F20007C4F26A
:100D500000073868C00510D4386840F480703860E7
:100D6000FFF7E2FB054600BF3868C00505D4FFF772
:100D7000DBFB401B6428F7D958E0E5681DB1052D61
:100D80003CD0012D3ED0306A20F001003062306A44
:100D900020F0040039E00027C4F242270020386622
:100DA000FFF7C2FB022D05460CD100BF3068800161
:100DB00054D5FFF7B9FB401B02284FF00300F5D9CB
:100DC000AFE700BF30688001AAD5FFF7ADFB401B3D
:100DD00002284FF00300F5D9A3E700210160FFF7D7
:100DE000A3FB0546306880077FF542AFFFF79CFB09
:100DF000401B02284FF00300F4D992E7306A40F01C
:100E000004003062306A40F001003062FFF78CFB72
:100E1000002D054641F2883714D000BF306A8007A4
:100E200013D4FFF781FB401BB842F7D9032002B06F
:100E3000BDE8F081FFF778FB401BB8424FF003009C
:100E40003FF66FAF306A8007F4D4B8F1000F7FF43B
:100E500053AFF06920F08050F0614DE7206AB0F5A3
:100E6000803F05D17168A26821F40031114371609F
:100E70007168626A21F474111043084370600120A4
:100E80003866FFF751FB0446306880013FF548AFF4
:100E9000FFF74AFB001B02284FF00300F4D940E79C
:100EA00080B500F055FB80BD704700007047000022
:100EB000B0B582B0016805460868CA684C6900F0A0
:100EC0002F03202B02F0200305D123B1284600F088
:100ED000B3FB02B0B0BD5FEA007C1EBF04F0010EA0
:100EE00002F4907414EB0E0424D12B6B1040C20654
:100EF00017D5012B15D10020019008680190486892
:100F000001900198486940061CD4A88DEA8DEB8DAC
:100F1000002B1CBF801A5FEA004240F09A8002B0AA
:100F2000B0BD010636D44006F9D5284600F078FB5E
:100F300002B0B0BDC10718BF12F480712FD14107B4
:100F400033D439E0A86B0268526893B2002BE6D024
:100F5000AC8DA342E3D2EA858269202A16D0CA6802
:100F600022F48072CA604A6922F001024A614A6929
:100F700022F040024A61202285F83E2000222A63A6
:100F8000CA6822F01002CA60FFF718F9A88DE98D2F
:100F9000401A6FE0284600F0F1FB02B0B0BD296CAA
:100FA00041F001012964410706D5BEF1000F03D0CD
:100FB000296C41F002012964810706D5BEF1000FBA
:100FC00003D0296C41F004012964BCF1000F06D55F
:100FD0005EEA030103D0296C41F008012964296C01
:100FE00000299CD01040800602D5284600F024FB42
:100FF00028684069296C00F0400001F008014018A1
:1010000020D0284600F0F6FA28684169490614D530
:10101000416921F040014161A86B70B141F2E55195
:10102000C0F600014163FFF7E9F800283FF477AF0D
:10103000A86B416B884702B0B0BD2846FFF736FF6A
:1010400002B0B0BD2846FFF731FF0020286402B08F
:10105000B0BDCA6822F49072CA604A6922F00102E7
:101060004A61202285F83E2000222A63CA6822F0C5
:101070001002CA6081B22846FFF716FF02B0B0BD69
:10108000002804BF0120704710B5044690F83D00C9
:1010900028B9002084F83C00204600F021F82420E4
:1010A00084F83D002068C16821F40051C1602046E9
:1010B00000F01CFB2068016921F490410161416945
:1010C00021F02A014161C16841F40051C160002052
:1010D0002021206484F83D1084F83E1010BD0000EB
:1010E00070B586B040F60004C4F20104006804F54F
:1010F0004051002688420596CDE90366029601D04C
:1011000006B070BD41F21800C4F20200016802ADE1
:1011100041F480410160016801F48041019101992D
:10112000016841F0040101600068294600F00400F4
:10113000019001984FF40070029002200390032068
:1011400005902046FFF7FCF84FF48060CDE90206D9
:10115000204629460496FFF7F3F8252000210022B7
:10116000FFF7F0FB2520FFF7E9FB06B070BD00009C
:101170007047000070470000FEE7000002685169F8
:1011800049054FF000010FD56FF4806353612022B1
:10119000016380F83D2080F83E10026C42F00402AA
:1011A000026480F83C100121084670472DE9F043A5
:1011B00083B0044600680D4601680A9F0B9E41F407
:1011C000807199469046016020464FF0011100223F
:1011D0003B46009600F07AF850B120680068C005E0
:1011E00044BF4FF400702064032003B0BDE8F083D7
:1011F000206805F0FE0101610221C0F201012046D4
:101200003A46334600F09CF818B1012003B0BDE81F
:10121000F083002002902068324641690291806983
:10122000394602900298204600F0D0F840B1206C78
:101230000428EAD12068016841F400710160E4E704
:10124000B9F1010F0AD020684FEA18210161204648
:101250003946324600F0BAF80028E8D120685FFA33
:1012600088F10161002003B0BDE8F083F0B581B0E2
:10127000044600684069400724D415460E464F1CBA
:1012800004E000BF2068406940071BD42046FFF7F8
:1012900075FFA0B9002FF5D0FFF746F916B1401B36
:1012A000B042EFD900202021206384F83D1084F85B
:1012B0003E00216C41F02001216484F83C000120B3
:1012C00001B0F0BD002001B0F0BD00002DE9F047F5
:1012D000DDF820801D469146824601F47F078EB2DC
:1012E0005C1C00BFDAF80000B7F5803F14BF18306F
:1012F000143000683040801BB0FA80F04009484547
:101300001BD1002CEED0FFF70FF91DB1A0EB0800A8
:10131000A842E7D900202021CAF830008AF83D1001
:101320008AF83E00DAF8401041F02001CAF8401077
:101330008AF83C000120BDE8F0870020BDE8F08776
:101340002DE9F04104460068984643698FB203EAEC
:101350000701B94202D10020BDE8F0814169490589
:1013600012D41646551C00BF35B1FFF7DDF816B391
:10137000A0EB0800B0421ED8206841693940B9424C
:10138000E9D041694905EFD5016841F40071016078
:101390006FF48061416100202021206384F83D10BA
:1013A00084F83E00216C41F00401216484F83C0083
:1013B0000120BDE8F08100202021206384F83D1049
:1013C00084F83E00216C41F02001EEE7F0B581B0D9
:1013D000044600684069000624D415460E464F1C9A
:1013E00004E000BF2068406900061BD42046FFF7D8
:1013F000C5FEA0B9002FF5D0FFF796F816B1401B37
:10140000B042EFD900202021206384F83D1084F8F9
:101410003E00216C41F02001216484F83C00012051
:1014200001B0F0BD002001B0F0BD000083B041F27A
:101430001800C4F20200016841F020010160016857
:1014400001F0200102910299016841F00801016058
:10145000016801F0080101910199016841F004015E
:101460000160006800F004000090009803B070472D
:1014700080B540F2100045F60001C2F20000C4F24F
:10148000000148F2A06200234FF4804CC0F2010238
:1014900080E80E00C0E9033CC0E90533C0E907332A
:1014A000FFF748F8002818BFFEF786FE80BD000051
:1014B00080B540F2640043F60001C2F20000C4F2BD
:1014C000010100234FF00C0C4FF4E13280E80E00D4
:1014D000C0E90333C0E905C3C361FFF7D1FD0028AC
:1014E00018BFFEF769FE80BDFEE7000070470000F0
:1014F00000F0070080F00703042B28BF04234FF0FF
:10150000FF3C03380CFA03F338BF002099438140B5
:101510000CFA00F022EA0000084370477047000010
:1015200081B040F20000C2F20000006844F6D351DE
:10153000C1F26201A0FB0101480A009000BF0098BF
:10154000411E00280091F9D101B07047704700009A
:10155000B0B501380024B4EB106F1CBF0120B0BD42
:101560004EF21005CEF2000568604FF0FF300F21FB
:1015700000F050F90720AC6028602046B0BD0000A4
:1015800080B5FFF76FF980BD70B590B006AC20460E
:101590002821FEF7F0FD012006900A904FF4E0109C
:1015A00000254FF4803102260F9020460595CDE9A5
:1015B0000355CDE90155CDE90715CDE90D61FFF7DB
:1015C000E9FA0F20CDE901064FF48060CDE904056A
:1015D00001A802210395FFF7C9F910B070BD000002
:1015E0007047000080B5406A0021C185C184FFF7C3
:1015F0005DFC80BD0168CA6822F49072CA604A69C5
:1016000022F001024A61026B012A03D1CA6822F06A
:101610001002CA60202180F83E100021016370474B
:1016200080B50168CA6822F04002CA60202180F8B3
:101630003D10FFF79FFD80BD80B582B090F83E1051
:1016400022291ED18268B2F5805F02D1016900298A
:1016500040D0816AB2F5805F07D00AB9026922B131
:101660000268526802F07F0201E0026852680A7064
:101670000121826A11448162C18D01390A04C18548
:1016800001D002B080BD0168CA6822F02002CA60A1
:10169000CA6822F48072CA604A6922F001024A6173
:1016A000202280F83E20026B012A1BD10022026317
:1016B000CB6823F01003CB600B68DB0605D50192E5
:1016C0000A680192496801910199818DFFF7ECFB4D
:1016D00002B080BD0168826A49686FF35F211180A2
:1016E0000221C6E7FFF744FD02B080BD10B50446F5
:1016F0000068D4E902C22369016921F44051114311
:101700000161616943EA0C021143C26841F20C6352
:101710009A431143C1604169A26921F440711143A8
:1017200043F60002C4F201029042416102D0FFF789
:10173000DDF901E0FFF7ECF96268192148439100F7
:10174000B0FBF1F048F21F51C5F2EB11A0FB0123F1
:101750005A096FF0630302FB0300322303EB00100E
:10176000A0FB0101F02303EA5113206803EB0212EE
:10177000C1F343111144816010BD000090F83D1089
:10178000212923D18168B1F5805F01D1016931B18F
:10179000016A02684B1C03620978516007E0016A24
:1017A000036831F8022B6FF35F225A600162C18C2B
:1017B00001390A04C18418BF70470068C16821F06C
:1017C0008001C160C16841F04001C1607047000004
:1017D00080B540F26400C2F20000FFF769FB80BDF3
:1017E000FEE70000002848BF704700F01F010122FB
:1017F00002FA01F14EF200124009CEF2000242F864
:10180000201070474EF60C50CEF200000068C0F376
:10181000022070474EF6145300F00F02CEF2000380
:1018200009011A4400F16043B0F1FF3FC8BF03F55E
:1018300064421170704700004EF60C51CEF2000168
:101840000A684FF6FF031A4060F30A2242F08060F4
:1018500040F0FD700860704782B0FFF711F8FFF7A5
:1018600093FEFFF7E3FDFFF723FEFFF701FE00F015
:101870009BF842F23A570FF2940826A5C0F60007EB
:10188000FF2000F06BF84FF4FA60FEF745FD0020F2
:10189000002400F063F84FF4FA60FEF73DFD00BF4E
:1018A0002001E6B2C0B20021324600F0E9F8022E73
:1018B00004F10104F4D3002003214246012300F087
:1018C00041F9002004212A46022300F03BF94FF49D
:1018D000FA60FEF721FD00F023F84FF47A70FEF76E
:1018E0001BFD0020002180220823009700F0FEF855
:1018F0004FF47A70FEF710FD00F018F84FF47A708C
:10190000FEF70AFD00F01EF8BAE700BF7559616ED8
:101910006B69000048656C6C6F20576F726C6400D7
:1019200080B5002000F01AF880BD000080B58D2041
:1019300000F094F9102000F091F9AE2000F08EF93B
:1019400080BD000080B58D2000F088F9142000F0E3
:1019500085F9AF2000F082F980BD00002DE9F04349
:1019600083B042F63A1740F2100400264FF0FF0809
:101970004FF08009C0F60007C2F20004F5B2002063
:10198000294600F06BF82046782140220123CDE95A
:101990000079CDF80880FEF799FE072D06F10106C3
:1019A000ECD303B0BDE8F08380B54FF4FA70FEF7D6
:1019B000B3FCAE2000F052F9202000F04FF91020C7
:1019C00000F04CF9B02000F049F9C82000F046F9C9
:1019D000002000F043F9102000F040F9402000F012
:1019E0003DF9812000F03AF9FF2000F037F9A120FD
:1019F00000F034F9A62000F031F9A82000F02EF90B
:101A00003F2000F02BF9A42000F028F9D32000F0AB
:101A100025F9002000F022F9D52000F01FF9F02070
:101A200000F01CF9D92000F019F9222000F016F975
:101A3000DA2000F013F9122000F010F9DB2000F09A
:101A40000DF9202000F00AF98D2000F007F914208C
:101A500000F004F9AF2000F001F980BD10B5044694
:101A6000A1F15000C0B200F0F9F82009103000F0E8
:101A7000F5F804F00E00013000F0F0F810BD0000A1
:101A80002DE9F04784B014460D4606465701FFF78E
:101A9000E5FF41F6C249C0F6000909EB441040F2E7
:101AA00010044FF0100AC2F200044FF0FF08CDE915
:101AB000000A2046782140220123CDF80880FEF755
:101AC00005FE681CC1B23046FFF7C8FF07F11000E1
:101AD0004844CDE9000A2046782140220123CDF870
:101AE0000880FEF7F3FD04B0BDE8F0872DE9F04F64
:101AF00083B01BB39A4615468B4680464FF00009CB
:101B00000026FF2706EB0B00C1B24046FFF7A6FFF9
:101B10000C981FFA89F42044CDE9000540F210002A
:101B2000C2F200007821402201230297FEF7CEFD89
:101B30000136F0B2504504EB0509E3D303B0BDE82C
:101B4000F08F00002DE9F04F83B091460D46012B38
:101B500006464CD0022B7DD199F80000002879D0A0
:101B60004FF00008F1B22038782984BF01350026F3
:101B7000F7B25FFA80FBE9B238464FEA0B1AFFF77B
:101B80006DFF41F64A70C0F6000000EB0B1040F20A
:101B9000100B00900820C2F2000B019058467821EB
:101BA00040220123FF240294FF24FEF78FFD681CCE
:101BB000C1B23846FFF752FF41F64A710AF10800F8
:101BC000C0F6000108440090082001905846782192
:101BD000402201230294FEF779FD08F101085FFA23
:101BE00088F019F8000008360028BBD132E099F8D7
:101BF000000078B340F2100700244FF0FF0A4FF0C6
:101C0000060BC2F2000700BFA0F12008F0B27E2848
:101C100084BF01350026E9B2F0B2FFF71FFF5FFA7B
:101C200088F041F6225100EB4000C0F6000101EBC4
:101C30004000CDE9000B3846782140220123CDF841
:101C400008A0FEF743FD0134E0B219F800000636A3
:101C50000028D9D103B0BDE8F08F000080B584B072
:101C60008DF80F0001200DF10F01CDE9001040F2B9
:101C700010004FF0FF0CC2F2000078210022012377
:101C8000CDF808C0FEF722FD04B080BD02E008C810
:101C9000121F08C1002AFAD170477047002001E0E6
:101CA00001C1121F002AFBD1704700000000000094
:101CB00000000102030406070809000000000102F9
:101CC0000304000000F8F8484C4F4B4A4848F8F825
:101CD0000000000000FFFF44444444444444FFFF2C
:101CE0000000202424E4E42424243010FFFF10F01A
:101CF000F000081C1F0B0C0D4F6E341C0F23607F6F
:101D00003F0080C060F8FF070200FFFFE0703C1C4E
:101D100008000000007F7F0406033F7F40404078BA
:101D200078000000000000000000002F000000000C
:101D30000700070000147F147F1400242A7F2A1252
:101D40000062640813230036495522500000050341
:101D5000000000001C224100000041221C00001471
:101D6000083E08140008083E0808000000A06000B3
:101D70000008080808080000606000000020100843
:101D80000402003E5149453E0000427F40000042AF
:101D900061514946002141454B31001814127F1012
:101DA000002745454539003C4A4949300001710941
:101DB000050300364949493600064949291E0000F5
:101DC000363600000000563600000008142241009C
:101DD00000141414141400004122140800020151CC
:101DE000090600324959513E007C1211127C007FD5
:101DF00049494936003E41414122007F4141221C70
:101E0000007F49494941007F09090901003E4149D4
:101E1000497A007F0808087F0000417F41000020C8
:101E200040413F01007F08142241007F4040404074
:101E3000007F020C027F007F0408107F003E4141BA
:101E4000413E007F09090906003E4151215E007FA5
:101E5000091929460046494949310001017F01011C
:101E6000003F4040403F001F2040201F003F4038BF
:101E7000403F0063140814630007087008070061FE
:101E80005149454300007F41410000552A552A55DC
:101E9000000041417F000004020102040040404074
:101EA0004040000001020400002054545478007F98
:101EB0004844443800384444442000384444487F6F
:101EC00000385454541800087E0901020018A4A4D4
:101ED000A47C007F080404780000447D400000409A
:101EE00080847D00007F102844000000417F400076
:101EF000007C04180478007C08040478003844440A
:101F0000443800FC242424180018242418FC007CE5
:101F10000804040800485454542000043F4440205E
:101F2000003C4040207C001C2040201C003C4030F5
:101F3000403C004428102844001CA0A0A07C004481
:101F400064544C44141414141414000000000000D1
:101F500000000000000000000000000000F8000089
:101F60000000000000333000000000100C06100CD0
:101F70000600000000000000000040C07840C0786B
:101F80004000043F04043F040400007088FC083053
:101F90000000001820FF211E0000F008F000E018EB
:101FA000000000211C031E211E0000F008887000A4
:101FB00000001E2123241927211010160E000000F6
:101FC00000000000000000000000000000E0180415
:101FD0000200000000071820400000020418E00082
:101FE00000000040201807000000404080F08040C2
:101FF00040000202010F01020200000000F0000098
:1020000000000101011F01010100000000000000AB
:10201000000080B070000000000000000000000020
:1020200000000001010101010101000000000000A9
:102030000000003030000000000000000000806060
:102040001804006018060100000000E010080810E5
:10205000E000000F102020100F00001010F800000A
:1020600000000020203F20200000007008080888A1
:102070007000003028242221300000300888884871
:1020800030000018202020110E000000C02010F8A1
:10209000000000070424243F240000F80888880872
:1020A00008000019212020110E0000E01088881877
:1020B0000000000F112020110E0000380808C83859
:1020C00008000000003F0000000000708808088839
:1020D0007000001C222121221C0000E010080810C2
:1020E000E0000000312222110F00000000C0C000FB
:1020F0000000000000303000000000000080000000
:1021000000000000806000000000000080402010FF
:1021100008000001020408102000404040404040F8
:10212000400004040404040404000008102040805B
:102130000000002010080402010000704808080890
:10214000F0000000003036010000C030C828E81060
:10215000E0000718272423140B000000C038E0001B
:102160000000203C23020227382008F88888887065
:102170000000203F202020110E00C0300808080871
:102180003800071820202010080008F80808081058
:10219000E000203F202020100F0008F88888E80881
:1021A0001000203F20202320180008F88888E80825
:1021B0001000203F200003000000C030080808384D
:1021C000000007182020221E020008F8080000085E
:1021D000F808203F210101213F20000808F80808E5
:1021E00000000020203F2020000000000808F80820
:1021F0000800C08080807F00000008F888C0281890
:102200000800203F20012638200008F808000000C0
:102210000000203F20202020300008F8F800F8F8C7
:102220000800203F003F003F200008F830C00008B1
:10223000F808203F200007183F00E01008080810A9
:10224000E0000F10202020100F0008F808080808F0
:10225000F000203F210101010000E01008080810F3
:10226000E0000F18242438504F0008F88888888828
:102270007000203F2000030C302000708808080800
:1022800038000038202121221C00180808F808080E
:1022900018000000203F2000000008F80800000897
:1022A000F808001F202020201F000878880000C8A0
:1022B0003808000007380E010000F80800F8000890
:1022C000F800033C0700073C03000818688080689A
:1022D000180820302C03032C30200838C800C838D8
:1022E00008000000203F2000000010080808C8383F
:1022F00008002038262120201800000000FE0202DD
:1023000002000000007F40404000000C30C0000090
:102310000000000000010638C00000020202FE00BA
:102320000000004040407F00000000000402020264
:102330000400000000000000000000000000000099
:102340000000808080808080808000020204000085
:10235000000000000000000000000000808080807D
:1023600000000019242222223F2008F8008080006B
:102370000000003F112020110E000000008080802E
:102380000000000E11202020110000000080808835
:10239000F800000E112020103F2000008080808077
:1023A0000000001F222222221300008080F0888873
:1023B00088180020203F20200000000080808080BE
:1023C0008000006B94949493600008F800808080F3
:1023D0000000203F210000203F200080989800004E
:1023E00000000020203F202000000000008098987E
:1023F000000000C08080807F000008F8000080801E
:102400008000203F24022D302000000808F8000042
:1024100000000020203F20200000808080808080FD
:102420008000203F20003F20003F8080008080808F
:102430000000203F210000203F200000808080809D
:102440000000001F202020201F00808000808000CE
:10245000000080FFA12020110E000000008080807D
:102460008000000E112020A0FF80808080008080EE
:10247000800020203F21200001000000808080801B
:1024800080000033242424241900008080E0808010
:1024900000000000001F202000008080000000805D
:1024A0008000001F202020103F20808080000080BE
:1024B000808000010E3008060100808000800080CE
:1024C00080800F300C030C300F0000808000808073
:1024D00080000020312E0E3120008080800000809E
:1024E000808080818E70180601000080808080804E
:1024F00080000021302C2221300000000000807C70
:10250000020200000000003F404000000000FF0009
:10251000000000000000FF0000000002027C8000BC
:1025200000000040403F00000000000601010202E0
:10253000040400000000000000000003050911FF72
:10254000118905C300E000F000F800000000000061
:10255000004428FF11AA4400000000000000000011
:10256000000000000000000000000000000000006B
:10257000000000000000000000000000000000005B
:10258000000000000000000000000000000000004B
:10259000000000008301384482929274018300009D
:1025A00000000000007C44C7017D7D7D7D017D7DB4
:1025B0007D7D017D7D7D7D01FF000000000000012B
:1025C0000001000100010001000100000000000006
:1025D00000000001010000000000000000000000F9
:1025E00000000000000000000000000000000000EB
:1025F00000000000000000000000000000000000DB
:1026000000000000000000000000000000000000CA
:1026100000000000010100000000000001010000B6
:1026200000000000000000010101010101010101A1
:102630000101010101010101010000000000000091
:10264000000000404040404000006D6D6D6D6D0029
:10265000006060606060000040404040400000005A
:10266000000000000000000000000000000000006A
:10267000000000000000000000000000000000005A
:10268000000000000000000000000000000000004A
:10269000000000000000000000000000000000003A
:1026A000000000000000000000000000000000002A
:1026B000000000000000000000000000000000001A
:1026C000000000DBDBDBDBDB0000DBDBDBDBDB007C
:1026D00000DBDBDBDBDB0000DBDBDBDBDB0000DA92
:1026E000DADADADA0000D8D8D8D8D80000C0C0C00A
:1026F000C0C00000C0C0C0C0C00000C0C0C0C0C0DA
:102700000000C0C0C0C0C000008080808080000089
:1027100000000000000000000000000000000000B9
:1027200000000000000000000000000000000000A9
:102730000000000000000000000000000000000099
:10274000000000060606060600000606060606004D
:102750000006060606060000060606060600000637
:102760000606E66620000606860606000006060641
:102770000686000006060606060000868686868611
:1027800080808686068686C0C08686860606D0300D
:102790007606060606000006060606060000060681
:1027A00006060600000606060606000006060606E1
:1027B0000600000000000000000000000000000013
:1027C0000000000000000000000000000000000009
:1027D00000000000000000000000000000000000F9
:1027E00000000000601C00FE00010200C41820026E
:1027F0009E63B20E00FF8181FF00008040300F0019
:10280000000000FF0023EAAABFAAEA033F00FF007E
:1028100000000000000000000000000000000000B8
:1028200000000000000000000000000000000000A8
:102830000000000000000000000000000080808018
:102840000000000000808080000000000000000008
:102850000000000000000000000000000000000078
:1028600000000E0C08000001010101010000000140
:102870000000000100818080818081808080800153
:102880000101010000000100000001000101090C2C
:102890000E0000000000000000000000000000002A
:1028A0000000C0C0C0C0C0C0C0C0C0C0C0C0C0C0A8
:1028B000C0C0C0C0C0C0C0C0C000001E2140405049
:1028C000215E001E21404050215E000000000000FB
:1028D00000000000000000000000000000000000F8
:1028E00000000000000000000000000000000000E8
:1028F0000000000000FFFFC1C1FFFFC1C1FFFF00DA
:1029000000000000000000000000000000000000C7
:1029100000000000000000000000000000000000B7
:102920000000FFFF80FCF3EFF3FC80FF80EEEEEE93
:10293000F5FBFF9CBEB6B688FF000000000000005B
:102940000000000000000000000000000000000087
:102950000000000000000000000000000000000077
:102960000000000000000000000000000000000067
:102970000000000000000000000000000000000057
:102980000000000000000000000000000000000047
:102990000000000000000000000000000000000037
:1029A0000000000000000000000000000000000027
:1029B000000000000000000000000000E029000806
:1029C00000000020100000008C1C0008F029000806
:1029D00010000020A00400009C1C00080000000063
:1029E0000024F400010000001000000000000000BE
:0400000508000131BD
:00000001FF
