:020000040800F2
:10000000000D002045010008C924000875200008E3
:10001000C524000875040008AD2500080000000094
:10002000000000000000000000000000D1240008D3
:100030007904000800000000CD240008D524000841
:100040005F0100085F0100085F0100085F01000810
:100050005F0100085F0100085F0100085F01000800
:100060005F0100085F0100085F0100085F010008F0
:100070005F0100085F0100085F0100085F010008E0
:100080005F0100085F0100085F0100085F010008D0
:100090005F0100085F0100085F0100085F010008C0
:1000A0005F0100085F0100085F0100085F010008B0
:1000B0005F0100085F0100085F0100085F010008A0
:1000C0005F0100085F0100085F0100085F01000890
:1000D0005F010008A12500085F0100085F0100081A
:1000E0005F0100085F0100085F0100085F01000870
:1000F0005F0100085F0100085F0100085F01000860
:100100005F0100085F0100085F0100085F0100084F
:100110005F0100085F0100085F0100085F0100083F
:100120005F0100085F0100085F0100085F0100082F
:10013000DFF80CD000F006F9004800474D2B00080E
:10014000000D00200648804706480047FEE7FEE70E
:10015000FEE7FEE7FEE7FEE7FEE7FEE7FEE7FEE777
:10016000D924000831010008D2B201E000F8012BC7
:10017000491EFBD270470022F6E710B513460A4627
:1001800004461946FFF7F0FF204610BD80EA010241
:1001900010B502F00043400022D04A001FD0010EEB
:1001A00001EB1261C0F35600C2F3560240F40000A6
:1001B00042F40002A0FB022000047F39140400D0A6
:1001C000401C50EA124001D44000491EC2B20C0645
:1001D00004EBD010401C4008802A02D003E000202D
:1001E00010BD20F00100002900DA0020184310BDE6
:1001F00030B480EA010202F0004530F0004221F004
:10020000004013D090B1C30DD40DC2F31601C0F35A
:100210001600E41A41F4000140F400027D349142DA
:1002200001D3641C00E04900002C02DA30BC00203D
:1002300070474FF400000023914201D3891A034311
:1002400040084FEA4101F7D151B1914202D14FF03C
:10025000004105E002D24FF0010101E06FF0010121
:1002600003EBC450284430BC00F034B8962300227D
:10027000114600F038B800F0004220F00040C10DF7
:10028000C0F3160040F400007F2901DA0020704717
:10029000962903DCC1F19601C84001E096398840F7
:1002A000002AF4D04042704730B50B46014600208A
:1002B0002022012409E021FA02F59D4205D303FA28
:1002C00002F5491B04FA02F52844151EA2F10102A9
:1002D000F1DC30BD0029A8BF7047401C490008BFB1
:1002E00020F00100704710B4B0FA80FC00FA0CF066
:1002F00050EA010404BF10BC704749B1CCF120049E
:1003000021FA04F411FA0CF118BF0121214308432A
:10031000A3EB0C01CB1D4FEA00614FEA102042BF56
:10032000002010BC704700EBC35010440029A4BF4C
:1003300010BC7047401C490008BF20F0010010BCF1
:1003400070470000064C074D06E0E06840F00103EE
:1003500094E8070098471034AC42F6D3FFF7ECFE60
:100360005876000878760008B0B5044600688168C1
:10037000C90709D0816821F00101816000F08EFC7D
:1003800021688968C90701D10020B0BD054602E097
:100390008068C007F8D000F081FC411B2068032969
:1003A000F6D38168C907F3D0A06A40F01000A062BC
:1003B000E06A40F00100E0620120B0BDB0B582B05B
:1003C00004460020019021688A68D2074FD18868CE
:1003D00040F00100886040F21000C2F200000068A6
:1003E0004DF68361C4F21B31A0FB0101880C019022
:1003F0000198A0B1019801380190019878B1019855
:1004000001380190019850B101980138019001988C
:1004100028B101980138019001980028EAD100F034
:100420003DFC21688968C9071CD1054603E000BF6F
:100430008068C0071AD100F031FC411B20680329F5
:10044000F6D38168C907F3D1A06A40F01000A0621A
:10045000E06A40F00100E062002084F824000120FE
:1004600002B0B0BD002002B0B0BD00BF002002B09D
:10047000B0BD0000FEE700007047000070470000BC
:1004800070B582B004460020019094F82400012841
:1004900004D10225284602B070BD00BF012084F8B7
:1004A00024002046FFF760FF054600286ED1A06AB1
:1004B00041F2021188430230A06240F21000C2F201
:1004C00000000668022000F0A5FEB6FBF0F0400038
:1004D00001900198A8B100BF0198013801900198DE
:1004E00078B1019801380190019850B10198013814
:1004F0000190019828B101980138019001980028D5
:10050000EAD12046FFF75AFF2068816841F00801D0
:10051000816000F0C3FB216851F8082F120711D544
:10052000064602E0816809070AD500F0B7FB811B87
:1005300020680B29F6D381680907F3D51EE000BFB8
:1005400000F10801086840F00400086000F0A6FB14
:1005500021688968490703D401206FF0030111E085
:10056000064602E080684007F6D500F097FB811B45
:1005700020680B29F6D381684907F3D5012510209F
:100580006FF01201A26A11400843A062002084F8B3
:100590002400284602B070BDB0B581B000220092A0
:1005A00090F82420012A03D10221084601B0B0BDF1
:1005B0004B680122062B80F8242023D8D0F800C0F5
:1005C00003EB830362465D1F1F2352F834EF03FAE7
:1005D00005F40B682EEA040E03FA05F444EA0E054E
:1005E000092B15602DD8DCF8102003EB43030725F9
:1005F00089689D40AA4399401143CCF8101000210E
:100600003FE000BFD0F800C00C2B624606D852F87D
:1006100030EF03EB8303A3F1230405E052F82CEF42
:1006200003EB8303A3F141041F2303FA04F50B68D2
:100630002EEA050E03FA04F444EA0E05092B1560B0
:10064000D1D903EB4305DCF80C201E3D0724896853
:10065000AC40A243A940114323F00102102ACCF878
:100660000C100DD142F20841C4F20101A1F10802BF
:1006700094450DD0816A41F020018162012100E0A2
:100680000021002280F82420084601B0B0BD00BF40
:100690000A68120230D40A68102B42F400020A6081
:1006A0002CD140F21001C2F2000109684DF68362BC
:1006B000C4F21B32A1FB0212910C01EB8101490033
:1006C00000910099E1B10099013900910099C9B1F7
:1006D0000099013900910099B1B100990139009157
:1006E000009999B1009901390091009900294FF0C2
:1006F0000001E8D1C5E700BF0021C2E70021C0E743
:100700000021BEE70021BCE70021BAE70021B8E7DD
:10071000002804BF0120704770B50646044656F80D
:10072000280F28B121688868C0070CD115E000BFE8
:100730000020E06284F82400204600F0A7F8216839
:100740008868C00709D0886820F00100886000F040
:10075000A5FA21688A68D20730D13068C00644D42F
:10076000A06A41F2021290430230A062E36981F074
:10077000804080F49E3083F44022104308BF4FF441
:100780000023D4E9010243EA000C531EB3FA83F3B9
:100790005D091346B2F5807F18BF2B02207D257BB3
:1007A00001284CEA450030D135B3A56A45F0200553
:1007B000A562E56A45F00105E56226E0054602E02E
:1007C0008868C007C9D000F069FA401B2168032877
:1007D000F6D38868C007F3D0A06A40F01000A0628A
:1007E000E06A40F00100E062A06A306840F0100169
:1007F0000120316070BD00BFD4F818C04EF600056E
:10080000CFF6FF7505EB4C352B434D68B2F5807F75
:1008100025F4694543EA05034B608B684FF2FD758B
:10082000CFF6E17503EA050343EA00038B6001D0CC
:10083000012A07D122690023CFF6F07303EB02529D
:1008400001E000BF0022CB6A23F470031A43CA629E
:10085000896840F6FE62CFF61F721140814207D1CF
:100860000020E062A16A012262F30101316070BDE3
:10087000A06A40F0100020F00200A06254F82C0F93
:1008800040F0010101202646316070BD80B586B080
:10089000014640F60000C4F20100096800F5E0528C
:1008A00091424FF00001CDE9041101D006B080BDA6
:1008B00041F21801C4F202010A6842F400720A60AF
:1008C0000A6802F400720192019A0A6842F0040276
:1008D0000A60096801F00401019101990221029165
:1008E0000321039102A900F0CFF806B080BD0000FB
:1008F000014690F82100022816D10868D1E90FC3FB
:10090000026822F00E020260026822F00102026018
:10091000012000FA03F2CCF8042081F82100002025
:10092000002281F8202070470420886301200022E3
:1009300081F820207047000080B590F8211002292E
:1009400028D1026840F2040C1368C4F2020C23F0B0
:100950000E03136013680CF17C018A4223F001013D
:1009600011601BD940F20841C4F202018A4249D009
:1009700040F21C41C4F202018A4247D040F23041A9
:10098000C4F202018A4245D14FF48073CCF800349E
:100990005DE000BF04218163012080BD4321C4F2DA
:1009A00002018A420EDD6B21C4F202018A421BDC85
:1009B0004421C4F202018A423CD05821C4F202010F
:1009C0008A4233E00821C4F202018A4236D01C2157
:1009D000C4F202018A4237D03021C4F202018A42B5
:1009E00024D14FF4807230E06C21C4F202018A42BB
:1009F00026D08021C4F202018A4217D14FF08072C2
:100A000023E000BF0123CCF8003420E01023CCF811
:100A100000341CE00CF588614FF480338A4208BF33
:100A20004FF48053CCF8003411E000BF4FF4803213
:100A30000BE000BF4FF4805207E000BF012204E04A
:100A40004FF4801201E000BF1022CCF80020416B6F
:100A50004FF48072028401B18847002080BD0000FD
:100A6000B0B5044600F01AF9054640F20400C2F29F
:100A700000000078611C18BF044400BF00F00EF9AC
:100A8000401BA042FAD3B0BD2DE9F04F82B0D1F89F
:100A900000C0BCF1000F00F0F180A0F1804241F6EF
:100AA0000045A2F58432C4F2010540F2004E4FEA3F
:100AB000B2240627A842C4F2010E08BF0527052C60
:100AC0004FF000044FF001084FF00F034FF0000A01
:100AD0004FF0000B38BF4FEAB22700970AE000BF83
:100AE000D1F800C00AF1010A3CFA0AF204F1040448
:100AF00000F0C48008FA0AF91CEA090FF0D04E6829
:100B00004FF6FF72C1F21002964211DC122E55D838
:100B1000DFE806F0340A44485454545454545454AE
:100B200054545454544C5000D1F80CB046E000BF1B
:100B30004FF6FF72C1F2210296420FDC0022C1F291
:100B4000110296421AD00022C1F21202964215D02A
:100B50000022C1F22102964210D02FE00022C1F201
:100B6000220296420AD00022C1F23102964205D0FA
:100B70000022C1F23202964220D100BF8A684AB1F7
:100B8000012A14BFC0F81490C0F810904FF0080B61
:100B900014E000BF4FF0040B10E000BFCA6802F180
:100BA000080B0BE04FF0000B08E000BFCA6802F131
:100BB000040B03E0CA6802F10C0B00BF2246064694
:100BC000BAF1080F24BF203A0436376803FA02F559
:100BD000AF430BFA02F23A433260CA79D2067FF58C
:100BE0007FAF41F21807C4F202073A684FF6084394
:100BF00042F001023A603A68CFF6FF7302F0010258
:100C00000192019A2AF0030272440F25D75804F08A
:100C10000C06B540AF43009D05FA06F63743D750A2
:100C20004E680F23F203DEF8002054BF22EA0902C7
:100C300042EA0902CEF80020DEF80420B70354BFD0
:100C400022EA090242EA0902CEF80420F702DEF89D
:100C5000082054BF22EA090242EA0902B70240F220
:100C60000C47CEF80820C4F201073A6854BF22EAC4
:100C7000090242EA09023A6032E700BF02B0BDE869
:100C8000F08F00008068084018BF01207047000006
:100C9000002A08BF090401617047000040F2F860B3
:100CA000C2F200000068704770B5B8B3044690F80F
:100CB0003D0028B9002084F83C00204600F0C4F92B
:100CC000242084F83D002068016821F001010160C2
:100CD000016841F400410160016821F400410160B4
:100CE00000F086FC48F28041C0F21E0140F600137D
:100CF000D4F804E088424FF00001C0F23D0348F20E
:100D0000A16C4FF0000238BF01219842C0F2010CE3
:100D100038BF0122E64538BF0A460AB1012070BD3E
:100D20004DF68361C4F21B31A0FB01122168950CC2
:100D30004B684FF4967623F03F0343EA92437543A2
:100D400044F6D3564B60C1F262060B6AA5FB065609
:100D5000B50923F03F03E64538BF950C6A1C1A43DA
:100D60000A62CA6948F2A0664CF6FF73C0F2010637
:100D7000B64522EA03020BD801384FEA4E03B0FB16
:100D8000F3F001306FF31F30042898BF04201EE0F9
:100D9000A368013863B119230EFB03F3B0FBF3F032
:100DA00001306FF31F3078B100F5804008E000BFDC
:100DB0000EEB4E03B0FBF3F001306FF31F3028B1A0
:100DC00000F5004003E000BF012000E001201043D7
:100DD000C8610868D4E9072320F0C0001043184315
:100DE0000860886848F2FF3204F10C0690434CCE4C
:100DF00018431043A5698860C86820F0FF0030439D
:100E00002843C860086840F00100086000202021E5
:100E1000206484F83D10206384F83E0070BD00001B
:100E20002DE9F04782B01E4617468A460446FFF772
:100E300035FF94F83D1020291ED1DDF82890054695
:100E400020688169890713D5FFF728FF401B1A28FE
:100E5000F6D300202021206384F83D1084F83E0062
:100E6000216C41F02001216484F83C0004E000BFC3
:100E700094F83C10012903D1022002B0BDE8F087AC
:100E8000012184F83C100168C90703D1016841F0D1
:100E900001010160016840F2020821F40061016073
:100EA000212184F83D10102184F83E100021216496
:100EB00067626685618DC0F201082185A8F1021183
:100EC000E162E16A11F5803F18BF012940F0968088
:100ED000016841F48071016019F101012DD0B9F16F
:100EE000000F23D14169C90731D1FFF7D7FE002098
:100EF0002021206384F83D1084F83E00216C41F0ED
:100F000020012164216884F83C000868C00544BFC2
:100F10004FF400702064012002B0BDE8F08700BFEC
:100F2000FFF7BCFE401B4845E1D820684169C9076E
:100F3000F6D00CE04169C90709D14169C90701BF71
:100F400041695FEAC17141695FEAC171F2D021690B
:100F5000B1F5804F02D10AF0FE0110E0062101EA4E
:100F6000DA11F031016108F1060120464A462B46AC
:100F700001F0E2F80028CED120685FFA8AF1016121
:100F8000204641464A462B4601F0D6F80028C2D1F9
:100F900000200190206841690191806901900198C9
:100FA00006E000BF204649462A4601F065F868BBC6
:100FB000208DC8B3204649462A4601F02BF928BBAC
:100FC000606A2168024612F8013B0B616262628D21
:100FD000013A6285228D571E27854B693F0418BF51
:100FE00013F00403DED0437802300B616062608D41
:100FF00001386085901E2085D4E700BF08293FF4A2
:1010000067AF216B12293FF463AF65E7206C0428BA
:101010007FF481AF2068016841F400710160012014
:1010200002B0BDE8F08700BF2068016841F400719C
:101030000160202084F83D00002084F83E0084F800
:101040003C0002B0BDE8F08710B586B045F600015F
:101050000068C4F2000100228842049202D006B067
:1010600010BD00BF41F21804C4F20204206840F031
:1010700008002060206800F00800019001984FF4FB
:1010800040600290122003900320059001F5344047
:1010900002A9FFF7F9FC606840F4800060606068B6
:1010A00000F480000190019806B010BD40F20400E9
:1010B00040F2F861C2F20000C2F2000100780A6852
:1010C000104408607047000080B542F20000C4F28E
:1010D0000200016841F010010160032000F08AF86D
:1010E000002000F005F800F027F8002080BD000087
:1010F00070B540F20406C2F2000640F210013278E8
:10110000C2F200014FF47A730968B3FBF2F20446AD
:10111000B1FBF2F1084600F099FC0F2C4FF00105ED
:1011200008D838B94FF0FF3021460022002500F0E2
:1011300035F87460284670BD82B041F21800C4F2E0
:1011400002000168022241F001010160016801F022
:10115000010101910199416841F08051416040686D
:1011600000F08050009000980420C4F20100016853
:1011700062F31A61016002B070470000002848BFA6
:10118000704700F01F01012202FA01F14EF2001235
:101190004009CEF2000242F82010704710B54EF61A
:1011A0000C5CCEF2000CDCF80030C3F3022E8EF0A3
:1011B0000704042C28BF0424BEF103034FF0FF3EB4
:1011C0000EFA04F438BF0023A14399400EFA03F34A
:1011D0009A4300F00F03043B1143634409010C33AD
:1011E00000F16042B0F1FF3FC8BF02F564431970DF
:1011F00010BD00004EF60C51CEF200010A684FF609
:10120000FF031A4060F30A2242F0806040F0FD7054
:101210000860704780B5411E0F294FF0000039D893
:10122000DFE801F00C2A3808383838083838383800
:101230003838383ABDE8804000F002BA41F2040084
:10124000C4F20200C16940F202320A40B2F5817F65
:1012500004BF4FF4004080BD01F44071B1F5407F00
:101260004CD0B1F5007F51D1006A49F6404180076A
:1012700001EAE07080BD00BF00F0CEF941F2040148
:10128000C4F2020109680222C1F3813102EB41017B
:10129000B0FBF1F080BD00BF41F20401C4F20201D5
:1012A0000A6851F8040CC0015CBF002080BDC2F385
:1012B000834017A3185CD20306D440F60012C0F294
:1012C0003D0250430CE000BF0A6815A3C2F3404240
:1012D0009A5C41F20023C0F27A03B3FBF2F250436E
:1012E0000968490248BF80BD4AF6AB214000CAF6F2
:1012F000AA21A0FB0101480880BD00BF50F8040CE2
:101300004FF22441800301EAE07080BD002080BDDF
:1013100002030405060708090A0B0C0D0E0F101036
:10132000010200002DE9F04182B00446007841F24C
:101330001C06C007C4F202064AD0306810F080587C
:1013400008D1306840F080503060306800F0805044
:101350000190019847F20007C4F200073868C00501
:1013600012D4386840F480703860FFF797FC054667
:101370003868C00508D4FFF791FC401B6428F7D9F2
:10138000032002B0BDE8F081706810F4407012D004
:10139000616801F4407188420DD0706840F24042AB
:1013A000C4F24222012320F4407113600023C007DD
:1013B000136071602AD17068616820F4407008433E
:1013C000B8F1000F706003D1306820F080503060B9
:1013D0002068810707D556F8181CA26821F44041FF
:1013E000114346F8181CC00604D4002002B0BDE822
:1013F000F08100BF56F8180C616920F480000843A2
:1014000046F8180C002002B0BDE8F081FFF746FC5A
:10141000054641F2883700BF70688007CBD4FFF7DC
:101420003DFC401BB8424FF00300F5D9EBE700004C
:101430002DE9F04381B0002800F0858042F20008D9
:10144000C4F202080446D8F800000D4600F0070078
:1014500088420CD2D8F8000020F007002843C8F8D2
:101460000000D8F8000000F00700A8426BD1206807
:1014700041F204098107C4F2020917D5410705D5D5
:10148000D9F8001041F4E061C9F80010010705D552
:10149000D9F8001041F46051C9F80010D9F80010D3
:1014A000A26821F0F0011143C9F80010C00741D132
:1014B000D8F8000000F00700A8420CD9D8F80000C6
:1014C00020F007002843C8F80000D8F8000000F01A
:1014D0000700A84237D12068410707D5D9F8001086
:1014E000E26821F4E0611143C9F80010000708D553
:1014F000D9F80000216920F4605040EAC100C9F821
:101500000000D9F8002002F00C00082841F2002069
:10151000C0F27A0050D144F66273C2F38341C0F640
:101520000003595CD2033BD440F60010C0F23D00EA
:10153000484341E0606802280AD001282AD159F8BE
:10154000041C890308D4012001B0BDE8F08300BF6A
:1015500059F8041C8901F6D5D9F8001021F00301CF
:101560000843C9F80000FFF799FB064641F28837A7
:10157000D9F80000616800F00C00B0EB810F97D043
:10158000FFF78CFB801BB842F2D9032001B0BDE805
:10159000F08300BF59F8041C8907D4D5DCE700BFED
:1015A000D9F8002044F64873C2F34042C0F6000365
:1015B0009A5C4843B0FBF2F0D9F8001044F64A7246
:1015C000C1F30311C0F60002515C40F2100220FA90
:1015D00001F140F20800C2F200000068C2F200020D
:1015E0001160FFF785FD002001B0BDE8F083000029
:1015F00040F2100041F20401C2F20000C4F2020104
:101600000068096844F65A72C1F30221C0F600026C
:10161000515CC8407047000040F2100041F20401E4
:10162000C2F20000C4F202010068096844F65A726E
:10163000C1F3C221C0F60002515CC84070470000EF
:1016400041F2040CC4F2020CDCF8003003F00C0090
:10165000082841F20020C0F27A0018BF704744F613
:101660006271C3F38342C0F600018A5CD90305D4DA
:1016700040F60010C0F23D0050437047DCF8001007
:1016800044F64873C1F34041C0F60003595C50432F
:10169000B0FBF1F0704700002DE9F04182B0002866
:1016A00068D00446007841F20006C007C4F2020682
:1016B00025D0706800F00C0004281BD0706800F082
:1016C0000C00082802D17068C00313D46068002899
:1016D00000F06881B0F5A02F00F07C81B0F5803F6C
:1016E00000F07C81306820F480303060306820F475
:1016F000802076E13068800301D56068D0B320781F
:10170000800718D5706810F00C0F07D0706800F0D3
:101710000C0008286ED17068C0036BD43068800755
:1017200002D52069012825D13068616920F0F800D0
:1017300040EAC1003060207800071FD420784007BD
:1017400032D4E56995B1706800F00C00082840F0CB
:101750008F80012D0ED07068216A00F480328A4299
:1017600008D1616A00F47010884203D1002002B0F1
:10177000BDE8F081012002B0BDE8F081A069002839
:1017800062D00020C4F242200121C0F88014FFF78B
:1017900085FA0546706A800700F18C80FFF77EFAB3
:1017A000401B0228F6D92AE1F06910F0805808D1D0
:1017B000F06940F08050F061F06900F080500090D6
:1017C000009847F20007C4F200073868C00529D422
:1017D000386840F480703860FFF760FA054600BF53
:1017E0003868C0051ED4FFF759FA401B6428F7D9A2
:1017F00005E100BF2069002840F20000C4F2422049
:1018000000F0828001210160FFF748FA054600BF21
:10181000306880073FF588AFFFF740FA401B022889
:10182000F6D9ECE0E068002800F08080052800F0A0
:101830009780012800F09880306A20F00100306223
:10184000306A20F0040092E00020C4F2422000211F
:10185000C0F88014FFF722FA054600BF706A8007BF
:101860007FF56CAFFFF71AFA401B0228F6D9C6E0E5
:101870000027C4F2422700203866FFF70FFA022D36
:1018800005460BD13068800140F1BE80FFF706FAB3
:10189000401B02284FF00300F4D968E7306880014C
:1018A0007FF564AFFFF7FAF9401B02284FF0030001
:1018B000F4D95CE740F21000C2F20000006844F680
:1018C000D351C1F26201A0FB0101480A019000BF9F
:1018D00000BF0198411E002801913FF42FAF00BFC7
:1018E0000198411E002801913FF428AF00BF0198E4
:1018F000411E002801913FF421AF00BF0198411E15
:1019000000280191E4D119E700210160FFF7C6F931
:10191000054600BF306880077FF50DAFFFF7BEF9C1
:10192000401B02284FF00300F4D920E7306A20F072
:1019300001003062306A20F004003062FFF7AEF937
:10194000054641F2883700BF306A800720D5FFF78F
:10195000A5F9401BB8424FF00300F5D907E700BFD7
:10196000306A40F004003062306A40F001003062BA
:10197000FFF794F9054641F2883700BF306A8007C7
:1019800006D4FFF78BF9401BB842F7D937E000BF08
:10199000B8F1000F7FF4D5AEF06920F08050F0610F
:1019A000CFE600BF306820F480303060306820F42B
:1019B00080203060FFF772F9054600BF3068800371
:1019C0007FF59DAEFFF76AF9401B64284FF00300D6
:1019D000F4D9CCE6306840F480203060306840F4C0
:1019E00080303060FFF75AF9054600BF3068800349
:1019F0003FF585AEFFF752F9401B6428F6D9032066
:101A000002B0BDE8F08100BF206AB0F5803F05D18B
:101A10007168A26821F40031114371607168626AD3
:101A200021F4741110430843706001203866FFF7F9
:101A300035F90446306880013FF598AEFFF72EF97E
:101A4000001B02284FF00300F4D990E6411E00204D
:101A5000B0EB116F1CBF012070474EF21002CEF2A6
:101A6000000251604EF62351CEF20001F0230B70BC
:101A700007219060116070477047000070470000B8
:101A8000B0B582B0026805461068D168546900F0AC
:101A90002F03202B01F0200306D12BB1284602B0E2
:101AA000BDE8B04000F020BD5FEA007C1EBF04F03E
:101AB000010E01F4907414EB0E042DD12B6B084031
:101AC000C10617D5012B15D1002001901068019097
:101AD0005068019001985069400625D4A88DE98D81
:101AE000EB8D002B1CBF401A5FEA004140F0CA801A
:101AF00002B0B0BD010645D44006F9D5D06820211A
:101B000020F04000D060284685F83D1002B0BDE8C6
:101B1000B04000F0ADBA00BFC40718BF11F4807424
:101B200042D1440746D44CE0A86B01684B689CB294
:101B3000002CDDD0A98D8C42DAD2EB858369202B75
:101B400017D0D16821F48071D160516921F0010171
:101B50005161516921F040015161202185F83E1009
:101B600000212963D16821F01001D160FEF7C0FE89
:101B7000A98DE88D081A81B2284602B0BDE8B040B0
:101B8000FFF77ABF95F83D002128B1D1A868B0F5DC
:101B9000805F03D12869002800F08C80286A411CEE
:101BA0002962007850608CE02C6C44F001042C64B5
:101BB000440706D5BEF1000F03D02C6C44F002049C
:101BC0002C64840706D5BEF1000F03D02C6C44F0C2
:101BD00004042C64BCF1000F06D553EA0E0303D0B5
:101BE0002B6C43F008032B642B6C002B3FF480AF6D
:101BF0000840800603D5284600F076FC2A68506924
:101C0000296C00F0400001F00801401832D0D06883
:101C100020F49070D060506920F001005061286B72
:101C2000012803D1D06820F01000D060202085F872
:101C30003E00002028635069400615D5506920F009
:101C400040005061A86B78B142F2DD41C0F600015E
:101C50004163FEF771FE00283FF44AAFA86B416B69
:101C600002B0BDE8B0400847284602B0BDE8B04029
:101C7000FFF704BF2846FFF701FF0020286402B0E9
:101C8000B0BD00BFD16821F49071D160516921F0DD
:101C900001015161202185F83E1000212963D1689E
:101CA00021F0100381B22846D36002B0BDE8B040F5
:101CB000FFF7E2BE286A30F8021B6FF35F21516024
:101CC0002862E88C01380104E8847FF411AFD06801
:101CD00020F08000D060D06840F04000D06002B0BA
:101CE000B0BD0000002804BF0120704710B50446B5
:101CF00090F83D0028B9002084F83C00204600F010
:101D00005FF8242084F83D002068D4E90212C368FB
:101D100023F40053C360036923F440531A43026160
:101D2000D4E904231143C268194341F20C639A4376
:101D30001143C1604169A26921F44071114343F626
:101D40000002C4F201029042416103D0FFF750FC4F
:101D500002E000BFFFF760FC626819214843910070
:101D6000B0FBF1F048F21F51C5F2EB11A0FB0123CB
:101D70005A096FF0630302FB0300322303EB0010E8
:101D8000A0FB0101F02303EA5113206803EB0212C8
:101D9000C1F3431111448160016921F49041016153
:101DA000416921F02A014161C16841F40051C160DB
:101DB00000202021206484F83D1084F83E1010BDDE
:101DC00070B586B0006844F20041C4F200010026FC
:101DD00088420596CDE9036602963FD043F600019E
:101DE000C4F20101884266D141F21800C4F2020037
:101DF000016840F6000441F4804101600168C4F2CA
:101E0000010401F4804101910199016802AD41F0A2
:101E1000040101600068294600F004000190019867
:101E20004FF400700290022003900320059020469A
:101E3000FEF72AFE4FF4806002900020CDE90300F7
:101E400020462946FEF720FE252000210022FFF72C
:101E5000A5F92520FFF792F906B070BD41F21800F0
:101E6000C4F20200416840F6000441F400314160D0
:101E70004168C4F2010401F4003101910199016843
:101E800002AD41F0040101600068294600F0040041
:101E900001900198042002900220039003200590F5
:101EA0002046FEF7F1FD0820CDE90206204629462E
:101EB0000496FEF7E9FD06B070BD00007047000013
:101EC0002DE9F04381B0044690F83D0020280DD163
:101ED0000F4600294FF0010000F092801646002ABC
:101EE00000F08E8094F83C00012803D1022001B05C
:101EF000BDE8F083012084F83C004FF00009212068
:101F00001D46C4F8409084F83D00FEF7C7FEA68445
:101F1000E684A1688046B1F5805F25D1206900285C
:101F20001CBF38464F463E46074684F83C90E08C3E
:101F300000B3681C20D0002D66D120680BE000BFE4
:101F400036F8021B00276FF35F214160E18C0139F5
:101F5000E184E18C81B30168090675D5002FEFD0CB
:101F600017F8011BF1E700BF002684F83C90E08CD5
:101F70000028DED120681FE0206802E00168090621
:101F800009D4016809065FBF01685FEA0161016861
:101F90005FEA0161F2D51FB117F8011B05E000BF30
:101FA00036F8021B00276FF35F214160E18C013995
:101FB000E184E18C0029E4D1016849061CD4002D9C
:101FC00042D0691C0ED10168490615D40168490642
:101FD0005CBF01685FEA41610ED401684906F2D531
:101FE0000AE000BFFEF75AFEA0EB08012068A942F4
:101FF0002AD800684006F5D5202084F83D0000204E
:1020000001B0BDE8F08300BF206800BF0168090689
:1020100008D4FEF743FEA0EB08012068A942F5D9D9
:1020200012E000BF17B117F8011B04E036F8021BDD
:1020300000276FF35F214160E18C0139E184E18C7D
:102040000029E3D1B8E700BFC16821F4D071C160B5
:10205000416921F001014161202084F83D0084F8AC
:102060003E00002084F83C00032001B0BDE8F0836E
:1020700070470000FEE7000070B50368044653F89F
:10208000140F400743D40E46F1B1701C30D100BF8D
:10209000186840053ED41868400738D418684005D1
:1020A00038D41868400732D41868400532D418680C
:1020B00040072CD4186840052CD4186840074FF00E
:1020C000000048BF70BDE3E71868400522D4FEF762
:1020D000E5FD00202021206384F83D1084F83E00B7
:1020E000216C41F02001216484F83C00012070BD86
:1020F000154600BF186840050CD4FEF7CFFD401B05
:10210000B042E6D8236853F8140F4007F2D50020F8
:1021100070BD00BF6FF48060186000202021206334
:1021200084F83D1084F83E00216C41F004012164E4
:1021300084F83C00012070BDF0B581B01D460368F5
:10214000044658698FB23840B84203D1002001B02C
:10215000F0BD00BF16467AB3701C29D158694005FE
:1021600040D458693840B842F0D05869400539D455
:1021700058693840B842E9D05869400532D45869A6
:102180003840B842E2D0586940052BD458693840ED
:10219000B8424FF00000E1D139E000BFFEF77EFD0C
:1021A000401BB0420DD8236858693840B842CDD0A2
:1021B00058694005F2D515E05869400512D4FEF77C
:1021C0006DFD00202021206384F83D1084F83E003E
:1021D000216C41F02001216484F83C00012001B011
:1021E000F0BD00BF1868202140F4007018606FF443
:1021F000806058610020206384F83D1084F83E0020
:10220000216C41F00401216484F83C00012001B0FC
:10221000F0BD000070B50368044653F8140F0006C3
:1022200043D40E46F1B1701C30D100BF1868400590
:102230003ED41868000638D41868400538D41868A9
:10224000000632D41868400532D4186800062CD431
:10225000186840052CD4186800064FF0000048BFED
:1022600070BDE3E71868400522D4FEF717FD002093
:102270002021206384F83D1084F83E00216C41F059
:102280002001216484F83C00012070BD154600BF88
:10229000186840050CD4FEF701FD401BB042E6D89B
:1022A000236853F8140F0006F2D5002070BD00BF5C
:1022B0006FF48060186000202021206384F83D10B6
:1022C00084F83E00216C41F00401216484F83C0054
:1022D000012070BD10B584B040F2D40042F200413C
:1022E000C2F20000C4F2010100224FF46023012475
:1022F00002730275C361C0E9001282600461FEF7D7
:1023000007FA002818BFFEF7B9F80520039040F23D
:10231000D400C2F2000001A9CDE90144FEF73CF966
:10232000002818BFFEF7AAF804B010BD2DE9F0434D
:1023300085B04FF0000841F21800CDF81080C4F2CB
:102340000200016840F6004441F01001016001689C
:10235000C4F2010401F0100100910099016800220B
:1023600041F02001016001684FF0B80901F020013F
:1023700000910099016841F004010160016801F0D9
:10238000040100910099016841F0080101600068B2
:10239000B82100F00800009000982046FEF778FC75
:1023A0004FF4005001ADCDE90108012704F580602C
:1023B00029460397FEF768FB0220A4F58066039088
:1023C00030462946CDE90178FEF75EFB6020CDE975
:1023D0000108304629460397FEF756FB0320049078
:1023E00020462946CDE901970397FEF74DFB4FF4B0
:1023F0004070CDE90108204629460397FEF744FBCB
:1024000005B0BDE8F083000080B540F2041045F649
:102410000001C2F20000C4F2000141F68022002354
:102420004FF4804CC0F2060280E80E00C0E9033C85
:10243000C0E90533C0E90733FEF736FC002808BFC2
:1024400080BDBDE88040FEF719B8000080B540F2BD
:10245000581043F60001C2F20000C4F2010100234B
:102460004FF00C0C4FF4E13280E80E00C0E903336A
:10247000C0E905C3C361FFF735FC002808BF80BD74
:10248000BDE88040FDF7FABF80B540F29C1044F2F1
:102490000041C2F20000C4F2000100234FF00C0C16
:1024A0004FF4E13280E80E00C0E90333C0E905C310
:1024B000C361FFF717FC002808BF80BDBDE880405E
:1024C000FDF7DCBFFEE7000070470000704700002A
:1024D00070470000FEF7EABD70470000406A002127
:1024E000C185C184FFF7CABA81B090F83E10222995
:1024F00020D18368B3F5805F08D10169002941D0FC
:1025000000F128010A6803685B680AE0014651F897
:10251000282F13B90369002BF5D003685B6803F01B
:102520007F0313700A6801320A60C18D01390A0401
:10253000C18501D001B070470168CA6822F020024D
:10254000CA60CA6822F48072CA604A6922F0010235
:102550004A61202280F83E20026B012A1CD1002211
:102560000263CB6823F01003CB600B68DB0605D554
:1025700000920A680092496800910099818D01B02B
:10258000FFF77ABA0168826A49686FF35F2122F81F
:10259000021B8262C9E700BF01B0FFF78FBC0000D9
:1025A00040F25810C2F20000FFF76ABAFEE70000DE
:1025B00010B540F2B004C2F20004A08870B100214E
:1025C00003E000BF0131814208D2CA07FAD1A068F6
:1025D000425C02F055024254A088F3E740F2E0105A
:1025E000C2F2000001F048F9A08868B1002102E0C1
:1025F0000131814208D2CA07FAD0A068425C02F0D9
:10260000AA024254A088F3E740F2E010C2F20000B0
:1026100001F032F9A088A0B100200021A2684B1C73
:102620005054A28893420CD28B1C934209D2A268C8
:10263000CB1C0A449070A288934202D2043191428A
:10264000ECD340F2E010C2F2000001F015F9A288CC
:10265000B2B10020002100BF4B1C934210D2A268EF
:102660008B1C0A445070A288934209D2CB1C93421F
:1026700006D2A2680A44D070A28804319142EBD3FA
:1026800040F2E010C2F20000BDE8104001F0F4B8E2
:1026900010B582B0019040F2581001ACC2F20000B7
:1026A00021460122FF23FFF70BFC40F29C10C2F2EF
:1026B000000021460122FF23FFF702FC019802B02F
:1026C00010BD00002DE9F04381B001EB4105044647
:1026D00000EB8500416845F24E00C0F6000002F0B4
:1026E0000BFBFFF765FF14F82500082850D8DFE83A
:1026F00000F0054F474F534F4F4F5F0000F096F9E2
:102700000138022859D340F2E01440F2B00645F2F5
:1027100078050027C2F20004C2F20006C0F60005E8
:1027200005E000BF00F082F90138022845D3002FF0
:10273000F8D1204600F032FD2046002101F0A6F835
:10274000F17820460C222B4600F078FF204601212C
:10275000012701F09BF8F178204618222B4600F063
:102760006DFF2046022101F091F8F17820462422E5
:102770002B4600F063FF204601F07EF8D2E700BF51
:10278000FFF716FF40F2B000C2F2000001214170D5
:1027900001B0BDE8F08300BFFFF70AFF40F2B000D0
:1027A000C2F200000221417001B0BDE8F08300BF19
:1027B00000F03CF90138022804D201B0BDE8F04332
:1027C000FFF7F6BE40F2E0140026C2F200040FF25A
:1027D00064080FF26C091EA721A504E000F026F999
:1027E00001380228E9D3002EF8D1204600F0D6FCAB
:1027F00020460121012601F049F8204602210C2241
:10280000434600F01BFF204602211C224B4600F0ED
:1028100015FF204602212C223B4600F00FFF2046E8
:1028200002213C222B4600F009FF204601F024F84B
:10283000D4E700BF4D4355203A2053544D33320066
:10284000464C415348203A203531324B420000007B
:102850005352414D203A203235364B4200000000A1
:10286000525443205352414D203A2031364B4200BE
:102870002DE9F04F81B001EB410600EB86050446DF
:10288000696845F24E00C0F6000002F035FA14F80F
:102890002600032880F0B68040F2B006C2F200069F
:1028A000B08840B3002000BFB1680A5C02F0550256
:1028B0000A54B188421C8A421DD2B16801444A7848
:1028C00002F0AA024A70B188821C8A4213D2B1680F
:1028D00001448A7802F055028A70B188C21C8A428B
:1028E00009D2B1680144CA78043002F0AA02CA7061
:1028F000B1888842D8D340F2E014C2F200042046E6
:1029000000F0BAFF287840F20C0740F2000840F2CD
:102910000009C2F20007C4F22018C4F260294FF087
:10292000040B0FF2041AB07012E000BF96F9020017
:1029300006F112053A5C2846514602F0EDF92046B0
:1029400051212C222B4600F079FE204600F094FF06
:1029500000F06CF8012805D0032809D002280ED118
:1029600059E000BF96F90200395C41B1013905E038
:1029700096F90200395C092901D801313954204601
:102980001021102260231F25009500F013FC204623
:10299000022100F07BFF2046112111225E231D251C
:1029A000009500F007FC2046012100F06FFF204653
:1029B000122124223C230825009500F07BFC96F987
:1029C0000200385CFDF752FC4146FDF711FC494618
:1029D000FDF7DCFBFDF74FFC0346204614212622C1
:1029E000CDF800B000F0E6FB96F9020002289DD871
:1029F0000AA151F82030204616211E2200F01EFEAA
:102A000094E700BF07D1FFF7D3FD40F2B000C2F258
:102A100000000021417001B0BDE8F08FDE500008D9
:102A2000965000086D5000082564000070B582B013
:102A300040F60046C4F2010606F580604FF40051EE
:102A4000FEF720F940F2B005C2F20005B0FA80F0BE
:102A5000697B4409A1422C7316D045F2280045F247
:102A6000AB0245F2F503C0F60000C0F60002C0F666
:102A7000000340F203116C73009402F03DF9287BCF
:102A800010B101245DE000BF30464FF48071FEF7C5
:102A9000F9F8B0FA80F0E97B4409A142AC7315D093
:102AA00045F2280045F2AB0245F2F503C0F60000FE
:102AB000C0F60002C0F6000340F20311EC7300946C
:102AC00002F01AF9A87B08B102243AE030464FF42C
:102AD0000071FEF7D7F8B0FA80F0697C4609B14280
:102AE0002E7415D045F2280045F2AB0245F2F503ED
:102AF000C0F60000C0F60002C0F6000340F2031169
:102B00006E74009602F0F8F8287C08B1032418E0EF
:102B1000E87C0024AC74A8B145F2280045F2AB0271
:102B200045F2F503C0F60000C0F60002C0F600034F
:102B300040F20311EC74009402F0DEF8A87C08B1B6
:102B400004242C70204602B070BD000096B0FEF741
:102B5000BBFA4FF4FA70FDF783FF00240120CDE9A2
:102B60001144CDE90F440C9010904FF4E0104FF455
:102B70008031022515900CA80B94CDE90944CDE9CC
:102B80000744CDE90544CDE90344CDE90144CDE94D
:102B90000D14CDE91351FEF77FFD0F20CDE9070598
:102BA0004FF48060CDE90A0407A802210994FEF7DA
:102BB0003FFC4FF40040039001A80195FEF7B2FBE3
:102BC000FFF7B4FBFFF742FCFFF71EFCFFF75CFCCE
:102BD000FFF780FB40F2D400C2F20000FDF750FC8A
:102BE00040F2E014C2F20004204600F0BBFA40F6C6
:102BF0000045C4F2010505F580604FF40051FEF771
:102C000041F8B0FA80F040F2B0064009C2F2000686
:102C10007073307328464FF48071FEF733F8B0FAC2
:102C200080F04009F073B07328464FF40071FEF74E
:102C300029F8B0FA80F0400945F2441170743074FC
:102C4000C0F60001204600F027FE206894F83820E6
:102C5000007C616B504340F21404C000C2F20004D7
:102C60003425B160B08000BF717801FB0540694335
:102C700061588847F8E700002DE9F04782B08246A6
:102C8000008A58B9DAF80800416840F2E010C2F250
:102C9000000000F0B3FD0830AAF81000FFF7C6FEF0
:102CA000002800F08F80032834D001286AD145F233
:102CB0006000C0F6000002F035F99AF831000028F3
:102CC00000F080809AF830204AF6AB210138002AC3
:102CD000CAF6AA218AF8310000F0DE819AF80E3097
:102CE000013ADFB2A7FB0176BAF818708AF83020F3
:102CF000FA1AAAF81A20720802EB4207DB1B012716
:102D00001B0618BF07EB5602AAF81C200AF11E0288
:102D1000DAE100BF45F25A00C0F6000002F002F905
:102D20009AF80C109AF83100013981424ADD9AF87C
:102D30000D209AF83010013A01308A428AF83100A9
:102D400040F378819AF80E204AF6AB27D3B2CAF640
:102D5000AA27A3FB0737BAF8183001318AF83010D8
:102D60009918AAF81A10790801EB4103D21A012325
:102D7000120618BF03EB5701AAF81C100AF11E0136
:102D800074E100BF45F25300C0F6000002F0CAF83B
:102D9000DAF8047040F2B004C2F200043FB1DAF88D
:102DA00008009AF831109AF80C202378B847607818
:102DB00040F21401C2F20001342200FB0210012192
:102DC00080F832109AF83200002800F0C8819AF892
:102DD000160068B1BAF91000BAF91210884217DA71
:102DE000BAF81420104402B28A42C8BF084617E05D
:102DF00000209AF81E1001BB00219AF82E20002A0C
:102E00003FD100229AF82630002B5ED100237CE0CF
:102E100008DDBAF81420801A02B28A42B8BF084608
:102E2000AAF8100089B280B2401A18BF01208AF8AF
:102E300016009AF81E100029DED0BAF91810BAF957
:102E40001A20914208DABAF81C3019440BB29342A6
:102E5000C8BF114608E000BF08DDBAF81C30C91A27
:102E60000BB29342B8BF1146AAF8181092B289B2B9
:102E7000891A18BF01218AF81E109AF82E20002AFC
:102E8000BFD0BAF92820BAF92A309A4208DABAF83B
:102E90002C703A4417B29F42C8BF1A4608E000BFE0
:102EA00008DDBAF82C70D21B17B29F42B8BF1A4681
:102EB000AAF828209BB292B2D21A18BF01228AF82F
:102EC0002E209AF82630002BA0D0BAF92030BAF97B
:102ED0002270BB4208DABAF8246033441EB2BE4204
:102EE000C8BF3B4608E000BF08DDBAF824609B1B62
:102EF0001EB2BE42B8BF3B46AAF82030BFB29BB25A
:102F0000DB1B18BF01238AF826300843104318BF83
:102F1000012018438AF8320040F2E010C2F20000AB
:102F200000F03CF9BAF928109AF80E209AF80C70C3
:102F300091FBF2F3D8B287422CD95A43511A0E06AC
:102F4000B6F1804F26DA00EB40016FF0070240F245
:102F5000E01802EB8107451C4FF00C09C2F2000893
:102F6000DAF8080009EB26613844C3688AB24046A3
:102F7000042100F063FB9AF80C0085420AD29AF80B
:102F80000E000C3700EB26600606B6F1804F05F107
:102F90000105E5DB40F2E015C2F2000528467E217E
:102FA00000224023002700F051FB0024FEB22846F7
:102FB0007D21324600F048FA28467F21324600F053
:102FC00043FA01349AF80C109AF80F30E0B28842B4
:102FD0001F44EBD940F2E015BAF82020C2F20005F8
:102FE00028467D2100F032FBBAF820209AF80F30F5
:102FF00028467F2100F02AFB2846022100F046FCEB
:10300000BAF810009AF80E10BAF818200830012704
:10301000009183B228460021019700F035FA284636
:10302000012100F033FC284602B0BDE8F04700F073
:1030300023BC00BF9AF80E10BAF828204AF6AB2736
:10304000CBB2CAF6AA27A3FB07370A44AAF82A205C
:103050007A0802EB4203C91A09060AF12E014FF061
:10306000010318BF03EB5702AAF82C209AF80F208F
:103070004AF6AB27D3B2CAF6AA27A3FB0737BAF89A
:10308000203001250D709918AAF82210790801EB5B
:103090004103D21A28E000BF9AF80E20BAF828306F
:1030A000D7B2A7FB01769B1AAAF82A30730803EB64
:1030B0004307D21B12060AF12E024FF0010718BF78
:1030C00007EB5603AAF82C309AF80F300125DFB22F
:1030D000A7FB0117BAF820101570C91AAAF8221018
:1030E000790801EB41029A1A120618BF05EB570145
:1030F000AAF82410DAF80810C0B200EB400001EB87
:103100008000416840F2E010BAF91040C2F20000BD
:103110008AF8265000F072FB01B2091B45F25653A3
:1031200048BF49420AB2C5F2555382FB0323AAF8AD
:10313000120003EBD37000EB4002891A09B2AAF81F
:1031400010400029C8BF0130AAF814008AF81650B0
:103150008AF832509AF8320000287FF438AE02B074
:10316000BDE8F08710B545F2381144F2DD6244F64F
:10317000B933C0F60001C0F60002C0F600030446F1
:1031800000F02EFC204601F051FA2046002101F00B
:1031900059FA2046BDE81040AFF3008080B50168C1
:1031A00090F83820097C406B5143C900FCF7E3FFDD
:1031B00080BD00002DE9F04381B0089C0E46074613
:1031C0005818A11898461FFA81FC83B23846314638
:1031D0001546CDF800C000F019FB002818BF002CE0
:1031E0000FD04FF0000900BFAAB23846314643461F
:1031F000CDF8009000F0A8F8013C200405F101058D
:10320000F2D101B0BDE8F0832DE9F04F87B014464C
:103210005F1C9B46CE1AD21A06917B1839198FB2C1
:10322000B1B292B29BB20590009700F0EFFA00287D
:103230003DD0109F0598069B00215A4600940197A7
:1032400000F016FCBBF1000F31D04FF6FE70ABEB77
:103250004B0101304E00CBF1010A4FF001084FF055
:10326000000900B2CDE90304039A0FFA8AF09042F4
:103270006FEAE030834409F101090FFA88F006F1A2
:103280000201C4BF8A440E4600F1020800941FFAEE
:103290008BF71FFA89F50598069B109C29463A463C
:1032A000C244019400F0E4FB049CBD42DCD307B0AF
:1032B000BDE8F08F2DE9F04F81B0DDF8288006469B
:1032C00003EB010A08EB0200994684B21FFA8AF365
:1032D000304617460D46009400F098FA88B3002453
:1032E000304629463A464B46009400F02DF8B8F196
:1032F000020F26D3A8F1020B5FEA0B4007F101078A
:1033000017D0BCB21FFA8BF84FF0010C304629469B
:1033100022464346CDF800C000F016F8AAF101009D
:1033200081B23046224643460124009400F00CF856
:103330005F440024BAB2304629464B46009400F060
:1033400003F801B0BDE8F08FF0B581B0002B79D063
:1033500090F88C50002D75D0069C012B06D0032CC4
:1033600036D0022C02D1C91A013101E0E50731D172
:10337000B0F84C50954265D8B0F84E50954261D99E
:10338000B0F84840B0F84AE08DB2EE18B7B27545D3
:10339000A44638BF8C46B74208BF8C4675453346B5
:1033A0001FFA8CF138BFAEF10103B74208BF3B46AC
:1033B000714547D29DB2A54244D9A14238BFA44627
:1033C000754588BF73464FF0000E614630E000BF80
:1033D000D21A0132B0F848708F4233D8B0F84A7030
:1033E0008F422FD9B0F84C40B0F84EE095B2EE18AD
:1033F000B7B27545A44638BF9446B74208BF944655
:10340000754533461FFA8CF238BFAEF10103B7425F
:1034100008BF3B46724515D29DB2A54212D9A242C1
:1034200038BFA446754588BF73464FF0010E62460B
:10343000046BA3EB0C03A4689BB289B292B2CDF8E3
:1034400000E0A04701B0F0BD80B582B0B0F84C30CC
:10345000934217D8B0F84E30934213D9B0F84830A1
:103460008B420FD8B0F84A308B420BD990F88C3091
:1034700043B1036B4FF0000ED3F808C00123CDF821
:1034800000E0E04702B080BD2DE9F04F89B006466C
:10349000129803EB010900EB020A1FFA89F598461E
:1034A0001FFA8AFB30462B4617460C46CDF800B073
:1034B00000F0ACF9002800F0BE800695139D07943B
:1034C0002A19E919E843CDF820801FFA82F88CB256
:1034D000CDF810B009EB000B0AEB000992464FF053
:1034E000020C05913046414622462B46CDF800C0DD
:1034F000FFF78AFE1FFA8BFB4FF0010C304659464E
:1035000022462B46CDF800C0FFF77EFE1FFA89F455
:103510004FF0040C3046414622462B46CDF800C001
:10352000FFF772FE4FF0080C30465946DDF820B028
:1035300022462B46CDF800C0FFF766FEABEB050038
:10354000401B81B2032951D30AF10101023805F170
:10355000010A0394019008440AEB07028CB295B269
:1035600083B2304621463A461FFA8AF80293009504
:1035700000F04CF9D04514D198B101984FF0000BF0
:103580001FFA80F8554600BFBAB23046214643467E
:10359000CDF800B0FFF7D8FE013D280407F1010780
:1035A000F2D1DDE90232049F30462146009700F057
:1035B0002DF9DDF820B0139D5FEA0A4118BF0028FD
:1035C00014D001984FF0000887B200BF1FFA89F2AB
:1035D000304621463B46CDF80080FFF7B5FEAAF104
:1035E000010A5FEA0A4009F10109EFD11298DDE909
:1035F0000637401B401B81B203291CD30599851E49
:103600004C1C28191FFA80FCA2B230463946CDF86E
:1036100000C000F0FBF870B14FF00008A2B23046D5
:1036200039465B46CDF80080FFF78EFE013D280449
:1036300004F10104F2D109B0BDE8F08F44F28D6CC1
:10364000C0F6000CC0F804C000F09ABA70B582B0A1
:10365000A3B3944690F88C2082B3B0F848208A42F5
:103660002CD8B0F84A208A4228D9B0F84C40B0F89B
:103670004EE003EB0C05AEB2E645224688BF62463B
:10368000AE4208BF6246E6452B4688BFAEF1010355
:10369000AE4208BF3346724510D21FFA83FCA445E0
:1036A0000CD9A24238BF2246066BF44588BF734648
:1036B000B6689B1A01259BB20095B04702B070BD59
:1036C000B0B5044600F012FD00284FF0000100F0F4
:1036D000928084F86C1094F8781020660B4602787B
:1036E000082922BF01302066A1F108034FF0FF3CFA
:1036F0000CFA01F194F879E022EA010184F86C30C7
:1037000084F86A100EEB03010278CDB2082DDDB209
:1037100022FA05F209D3451C2566C3F10803407857
:10372000DBB298400243083928460CFA0EF39A435C
:1037300094F8923094F87AE084F86E30B3FA83F318
:103740005B0984F86C1084F86B2084F86F3001EB0F
:103750000E030578DAB2082ACAB225FA02FC0AD3A7
:10376000421C2266C1F108014078C9B288404CEA87
:10377000000C083B1046AEF101024FF0FF31D2B20F
:103780004FF0807501FA0EF105FA02F294F87B50C1
:103790002CEA0101A1EB1261EA18D3B2082B84F8DC
:1037A000901022BF01302066083A94F87C1084F80B
:1037B0006C208B1890F800C0DDB2082DD5B22CFA21
:1037C00005FC09D3451C2566C2F108024078D2B237
:1037D00090404CEA000C083B4FF0FF308840013924
:1037E000C9B24FF080722CEA000002FA01F1A0EB9E
:1037F000116184F86C3048B2B0BD000044F28D62B3
:10380000C0F60002426000F04FBE000010B5B0F8F4
:103810004E40DDF808E0B0F84CC0944206D972453D
:103820000AD8F44524BF002010BD05E0F4454FF050
:10383000000C1ED272451CD9B0F84A20B0F84800DE
:103840008A420BD9002299424FF0000188BF012122
:10385000984238BF012241EA020010BD002299427D
:103860004FF0000188BF0121984238BF012202EACF
:10387000010C604610BD000010B5044600F0E8FDE4
:103880002046BDE8104000F0D7BE0000022988BFE6
:10389000012180F8921070472DE9F04F81B0044665
:1038A000806D88426AD0A16508780D4684F874005E
:1038B000487884F87500887884F87600C87884F8A9
:1038C0007700087984F87800487984F87900887955
:1038D00084F87A00C87984F87B00087A84F87C0040
:1038E000487A84F87D0091F90A9084F87E90C87A2D
:1038F00084F87F0091F90CA0084684F880A091F923
:103900000D6084F8816091F90E7084F8827091F9ED
:103910000FB084F883B091F91080112184F884806D
:1039200000F04EFCA4F886002846132100F048FC65
:10393000A4F888002846152100F042FCA4F88A006B
:1039400094F88D0084F88E6084F88F70B0B10128EF
:103950000AD15E45B8BF84F88EB047450EDD84F8C5
:103960008F8001B0BDE8F08F0AEB0900B042C8BFFC
:1039700084F88E005745C8BF84F88FA001B0BDE819
:10398000F08F000043F67141C0F60001C165704739
:10399000B0B50446049884F8382040F20112A4F827
:1039A000922002680025C4E90B302046A56584F802
:1039B000395084F86D5084F8915084F88D506163CB
:1039C00090470020CFF6FF70216B20656065496845
:1039D000204688472046FFF7D5FF84F87050B0BDD9
:1039E000B0B582B09C4613460C4644F66D2144F6B1
:1039F000F902C0F60001C0F600020546CDF800C08D
:103A000000F026FE0DF1070000F01AFD9DF80720DA
:103A100044F2C9130146C0F6000328460094FFF79C
:103A2000B7FF02B0B0BD0000022B07D0012B09D0B8
:103A3000002B14BF1044084480B27047401A80B273
:103A4000704700BF801A80B270470000022B07D079
:103A5000012B09D0002B14BF401A104480B27047CC
:103A6000801A80B2704700BF084480B270470000DF
:103A70002DE9F04381B0DDE90885994617460E46E9
:103A8000E907044630D1A80746D4280711D509EB29
:103A900006007A1C81B293B220464246FFF7D6FD5B
:103AA00009EB0700721C81B293B220464246FFF731
:103AB000CDFD68075CBF01B0BDE8F083A9EB06004F
:103AC0007A1C81B293B220464246FFF7BFFDA9EBB4
:103AD0000700721C81B293B22046424601B0BDE895
:103AE000F043FFF7B3BD00BF09EB0600A8EB0702E8
:103AF0007B1C81B292B29BB22046FFF7A7FD09EB77
:103B00000700A8EB0602731C81B292B29BB220465A
:103B1000FFF79CFDA807B8D5A9EB0600A8EB0702A4
:103B20007B1C81B292B29BB22046FFF78FFDA9EBBE
:103B30000700A8EB0602731C81B292B29BB220462A
:103B4000FFF784FD2807B4D5A1E7000010B582B0C7
:103B5000B0F83EE0DDF810C0C46AA2EB0E0292B2EB
:103B6000CDF800C0A04702B010BD000080B582B003
:103B7000DDF810C0CDF800C0FFF7E8FF02B080BD4F
:103B80002DE9F04F81B01F4692460D4606464FF68E
:103B9000FF7801F0ADF872683978304690474045BB
:103BA0005ED0A8F101017C1C4FF000091FFA81FBD7
:103BB00008E000BF8144726814F8011B304690474A
:103BC00040454FD087B25F45F5D096F870205046FB
:103BD000032A29461DD8DFE802F003090F1700BFAA
:103BE000F16D304688475044294612E0F16D304669
:103BF0008847291A0CE000BFF16D30468847AAEBD0
:103C00000000294605E000BFF16D304688474119A4
:103C10005046A6F86410A6F866003046394600F013
:103C200065FA48B10146304600F024F896F8701065
:103C3000032906D9BEE700BF002096F870100329BB
:103C4000B8D8DFE801F007090B0300BFAAEB000AB0
:103C5000B0E700BF0544ADE78244ABE72D1AA9E702
:103C60004FF000091FFA89F001B0BDE8F08F0000A5
:103C7000002070472DE9F04F8BB00022016680F8DC
:103C80006C2090F878700B784FF0FF32082F31BF1E
:103C90003D4601310166A7F1080502FA07F723EA5C
:103CA000070E90F8793080F86C5080F86AE05F1960
:103CB0000E78FCB2082CECB2824626FA04F60AD33F
:103CC0004C1CCAF86040C5F108054978EDB2A9401E
:103CD0000E43083F21469A409AF8923026EA0200A5
:103CE0009AF87A208AF86E30B3FA83F35B098AF87F
:103CF0006C708AF86B008AF86F30BC180B78E6B2EB
:103D0000082EFEB223FA06FC03900BD34E1CCAF811
:103D10006060C7F108074978FFB2B9404CEA010C6E
:103D2000083C31469AF87B708AF86C403D190E7851
:103D3000EBB2082BE3B226FA03F60AD3C4F1080368
:103D40004C1CCAF860404978DBB299400E43083DEC
:103D500021469AF87C008AF86C50029028440B782F
:103D6000C4B2082CECB24FFA8EF923FA04F409D34A
:103D7000C5F108034D1CCAF860504978DBB2994080
:103D80000C4308380194B9F1010F8AF86C00C0F2B5
:103D900099814FF0FF30511E7B1E00FA02F2C9B22A
:103DA0004FF08075B840DBB22CEA020205FA01F14F
:103DB00026EA000005FA03F3A2EB1161C0EB1362DF
:103DC000039B9AF87060D21ABAF8640057B24DB2E9
:103DD00029463A463346FFF727FE8046BAF8660082
:103DE00029463A463346AAF86480FFF72FFE032E91
:103DF000AAF86600CDF828A00CD8DFE806F0030F7B
:103E0000192300BF03995FFA89F249B208EB020354
:103E100001441FE0434601461CE000BF039908F13E
:103E2000010349B2A3EB01085FFA89F1014411E0F3
:103E30005FFA89F108F10103A3EB010803994AB283
:103E400006E000BF03995FFA89F249B208EB01036B
:103E5000411C881A0A9C8FB21FFA88F182B29BB269
:103E600020460097FFF7D2FC002800F02B8194F841
:103E70006C30266E00254FF0000C2746A4F86850E1
:103E800005E000BF039840B2834580F21781E14608
:103E900097F876C03278BE4603EB0C07A846D8B236
:103EA000FDB2082D22FA00F20AD3751CCEF860503C
:103EB000C3F108037078DBB298400243083F2E46F6
:103EC0009EF877308EF86C70D9193578CCB2082C02
:103ED000FCB225FA04F509D3741CCEF86040C7F192
:103EE00008077078FFB2B840054308394FF0FF3437
:103EF00004FA0CF022EA000A04FA03F025EA0000B2
:103F000077464546CC4604908EF86C10CDF814A048
:103F100007E000BFDDF814A0C807274684F86C301E
:103F2000B0D097F86D00E8B197F86A005FFA8AF2AE
:103F3000A0EB0C01CBB293425DD8AAEB010A5FFA69
:103F40008AF1814205F1010508D300BFAAEB000AFE
:103F50005FFA8AF1814205F10105F7D24FF0000CBA
:103F600049E000BF002097F86A10A1EB0C04E8BB01
:103F70000CE000BF97F86D00AAEB040A01354FF082
:103F8000000C97F86A10A1EB0C0478BB97F87090BE
:103F9000E0B20890B7F866004FFA8CF66FB231467F
:103FA0003A464B465FFA8AFB09956546FFF74EFD98
:103FB0000A998046B1F864103A46084631460A9F8D
:103FC0004B46FFF731FD0146089897F86F2083456F
:103FD000204638BF504687F89220C3B23846424642
:103FE000CDF80090FFF7B0F9AC46099DE0B25FFA5A
:103FF0008AF18142BED2049B0AEB0C0287F868204A
:1040000087F8695097F86A00D9B2A0EB02095FFA05
:1040100089F097F87060099181420A990890CA4620
:10402000B7F8640054B24FFA85FBB1F86670984651
:1040300038BF9A46069221465A463346FFF7F4FCAB
:10404000079038460A9F21465A463346FFF7FEFC42
:1040500097F86E10024687F8921007995FFA8AF374
:1040600038460096FFF770F9DDE90810884205D35D
:104070004346A8EB090301350022C3E706983E6ECC
:1040800008EB000C97F86C2087F868C087F8695037
:104090003178531C3C46DFB2082F21FA02F1FFF4BD
:1040A00039AF701C2066C2F108037778DBB207FADB
:1040B00003F31943D31F06462CE700BF97F86E00A1
:1040C00087F8920002994FF0FF30019A8840013939
:1040D00022EA0000C9B24FF0807202FA01F1A0EBAF
:1040E000116040B20BB0BDE8F08F000070B50C4617
:1040F000816DFF2C01F1170104D8612C3AD3B0F87F
:1041000088003BE0B0F88A000E18354628460021AA
:1041100000F056F806442846022100F051F8A0426B
:1041200005F10405F2D33088000400BA002841D01C
:10413000A04241D0B078315A090409BAD1B3A142A2
:10414000064439D0B078315A090409BA91B3A14272
:10415000064431D0B078315A090409BA51B3A142AA
:10416000064429D0B178705A0E44000400BA0028E1
:10417000DED11FE0412C02D3B0F88600014448781C
:10418000C0B10A78A24219D00144487890B10A78A7
:10419000A24213D00144487860B10A78A2420DD0FF
:1041A0000144487830B10A78A24207D001444878E7
:1041B0000028E6D1002070BDF01C70BD881C70BDC9
:1041C000405A00BA000C70472DE9F04102F0070494
:1041D000012690F89250A640022DB44628BF4FF019
:1041E000000CB5F1010E18BFB646056822F00706AF
:1041F0002D7C476B7543DDF81880ADB23D44B8F1B6
:10420000000F294418D013F00306A3F1010500F0B4
:10421000A9800C7844EA0C0484EA0E07541C14F0BC
:1042200007040F701CD04FEA4C0C4FEA4E0E012EC3
:1042300023D12B4696E000BF13F00302A3F1010047
:1042400038D00C78012A44EA0C0484EA0E0401F800
:10425000014B25D1034680B20328C0F0EF802DE04A
:10426000478F4FF00108394490F89270012F98BFA2
:10427000C44618BFC646012EDBD00C7844EA0C04B5
:1042800084EA0E07941C14F007040F7036D04FEA2E
:104290004C0C4FEA4E0E022E3DD1023B62E000BFB5
:1042A0000C78022A44EA0C0484EA0E0401F8014B5B
:1042B00042D1023B80B20328C0F0C080081F00BF7B
:1042C00010F8041F043B41EA0C0181EA0E01017061
:1042D0004178827841EA0C0181EA0E01C47841708C
:1042E00042EA0C0181EA0E01817044EA0C0181EA84
:1042F0000E011A04C170E3D1A0E000BF478F4FF058
:104300000108394490F89270012F98BFC44618BF35
:10431000C646022EC1D00C78033244EA0C0484EA6B
:104320000E040C7012F00704A3F1030310D04FEA3F
:104330004C0C4FEA4E0E15E00A78033B42EA0C02A1
:1043400082EA0E0201F8012B80B2032876D3B5E78A
:10435000428F0126114490F89220012A98BFB4465A
:1043600018BFB646AAB2032A38BFBDE8F0810122C1
:104370000CE000BF458F90F892602944012E98BF51
:10438000944618BF9646043B1D0457D00D78661C12
:1043900045EA0C0585EA0E0576070D7004D04FEA54
:1043A0004C0C4FEA4E0E08E0458F90F8926029447D
:1043B000012E98BF944618BF96460D78A61C45EA74
:1043C0000C0585EA0E0576070D7005D04FEA4C0CFA
:1043D0004FEA4E0E09E000BF458F90F892602944E5
:1043E000012E98BF944618BF96460D78E61C45EA04
:1043F0000C0585EA0E0576070D7005D04FEA4C0CCA
:104400004FEA4E0E09E000BF458F90F892602944B4
:10441000012E98BF944618BF96460D78043445EA9D
:104420000C0585EA0E0514F007040D70A2D04FEAC2
:104430004C0C4FEA4E0E043B1D04A7D1BDE8F081A1
:10444000014640F274200822C2F200000A70704750
:104450002DE9F04F81B0834690F8388000689BF8D2
:10446000396090F81190002501274FF6F87A03E0A3
:10447000DBF8000008350137037CDBF8340005FB6E
:1044800003F101EA0A014418F2B2584600210094EF
:1044900000F0B8F80136F0B2484538BF4745E7D3D9
:1044A00001B0BDE8F08F00002DE9F0474FF0000AA1
:1044B0000D4604464FF6FF7880F86AA000F018FC1D
:1044C000626829782046904740451FD0A8F1010135
:1044D0006F1C00254FF0C0098EB24FF0000A06E0B5
:1044E000626817F8011B20469047404511D081B201
:1044F000B142F5D02046FFF7E3F80546AA44B9F1EA
:10450000C00F08BF94F89090EAE700BF4FF0C009D1
:10451000002594F86A0070B140B2AAEB0501084486
:1045200094F990104FFA89F200EB010A012AA4BF16
:104530005FFA89F082441FFA8AF0BDE8F087000034
:10454000B0B590F838100568CB00838795F810C097
:1045500090F8393095F811E04FEACC0CDA005C188D
:10456000A0F83AC0C287744588BFAEEB0301194476
:10457000C900A0F84020A0F8421069694164B0BDAC
:1045800070B582B00446216CB0F84400E164B4F820
:104590005010B4F85420B4F85230B4F856500026F5
:1045A000A4F84A002046A4F848600095FFF72EF9C9
:1045B00020B3B4F84810B4F850000122814284F8C6
:1045C0008C2038BFA4F84800B4F84A10B4F8520060
:1045D000814288BFA4F84A00B4F84C10B4F85400E3
:1045E000814238BFA4F84C00B4F84E10B4F856001D
:1045F000814288BFA4F84E0002B070BD84F88C6080
:1046000002B070BD80B582B0DDF810C0D0F808E00F
:104610008DF805108DF806208DF804306B460F21BB
:104620000122CDF800C0F04702B080BDD0F808C02C
:104630000A21002200236047D0F808C01021002280
:1046400000236047D0F808C00A460B2100236047CA
:1046500010B54FF47F44DDF808C0A0F82340FF24D4
:104660004FF0000E80F8284000F10804C0F800E088
:1046700080F826E084E80E50BDE81040AFF30080DB
:10468000D0F808C0092100220023604700294FF616
:10469000FF7008BF70470A2918BF0846704700001E
:1046A000D0F810C0192100220023604780B582B0E5
:1046B0008DF807100DF10702012100F003F802B098
:1046C00080BD0000D0F810C013460A46172160478D
:1046D000D0F810C01821002200236047F0B581B047
:1046E00014390C294FF0000037D8DFE801F03536D7
:1046F0003607171F363636363636350040F2F46C3C
:10470000C2F2000C9CF800E0002A18BF002B27D151
:104710000EEB02008CF800001EE000BF40F2F460D7
:10472000C2F200000021017016E000BF40F2F46008
:10473000C2F20000037840F2041040F27462FF27D6
:10474000C2F20000C2F2000278210097FCF768FB79
:1047500010B1002001B0F0BD012001B0F0BD00BFDC
:1047600040F27460C2F200007044984210D9991867
:1047700081420DD9104412F00303A2F1010417D0B5
:1047800011F8015D012B00F8015D17D123462AE0E5
:1047900012F00301A2F101040CD01D4615F8017BB3
:1047A0000646012906F8017B10D13046214634E047
:1047B000134618E01D4611462FE000BF11F8015DB9
:1047C000022B00F8015D09D1931E0CE05D780229EF
:1047D00045701DD1911E9D1C02301EE011F8013D57
:1047E00000F8013DD31E032CFFF492AF04390238C8
:1047F000CC78043B44708C7800F804494C7800F87D
:10480000034E11F8044900F8024EF1D180E700BFD1
:104810009E78D11EDD1C86700330032CFFF478AF28
:104820002B1F043813F8044F043900F8044F5C7848
:1048300044709C788470DC78C470F3D168E7000021
:10484000D0F80CC01921002200236047D0F80CC01A
:104850000A46162100236047D0F80CC00A461521ED
:1048600000236047D0F80CC013460A461721604762
:10487000F0B581B00E4604460DF103050AE000BF15
:10488000A1F11800022817D2E66820460022002372
:10489000B0473E46374617F8011B1729F0DCA1F157
:1048A0001500022814D27278E768204600238DF89C
:1048B0000320B8470236EDE7FE2915D1727820466D
:1048C00029218DF8032000F0F7F90236E2E700BF56
:1048D000172909D1707801218DF8030020462A4656
:1048E000FFF7C0FF0236D5E701B0F0BDD0F80CC02D
:1048F0001821002200236047F0B581B01439052942
:1049000000F2788004461E461546DFE801F00315E4
:104910002F37596394F824001421FF2804BF78200E
:1049200084F82400D4F810C020462A46334601B04B
:10493000BDE8F040604700BF40F2F566C2F20006F5
:104940003078012802D12046FFF7AAFE2046FFF763
:10495000BFFE20460021FFF7A9FE20462946FFF7AB
:10496000A5FE0120307001B0F0BD00BF20462946F1
:10497000FFF79CFE012001B0F0BD00BF40F2F567DB
:10498000C2F200073878012802D12046FFF788FEDE
:10499000192D0AD320461821324600F091F9183D0E
:1049A000E8B2182806F11806F4D8E9B220463246D3
:1049B00000F086F900203870012001B0F0BD00BF82
:1049C00040F2F560C2F2000000210170012001B048
:1049D000F0BD00BF40F2F565C2F20005287801285D
:1049E00002D12046FFF75CFE00202870012001B0B4
:1049F000F0BD00BF002001B0F0BD000010B5D0F840
:104A000014C02821002200230446E047D4F80CC03B
:104A10002046142100220023E04720464B2101229A
:104A200000F04AF9206829210279204600F044F973
:104A300020464B21002200F03FF92068292102790D
:104A4000204600F039F920464B21012200F034F9CC
:104A50002068292142792046BDE8104000F02CB999
:104A60008A7C016080F8222070470000B0B50D46B6
:104A7000044600F01FF808B10120B0BD092D0DD08B
:104A80000A2D15D12046FFF7B9FF47F20161C0F6A4
:104A900000012046FFF7ECFE0120B0BD47F2406167
:104AA000C0F600012046FFF7DBFF0120B0BD00BFCC
:104AB0000020B0BD2DE9F0410B39044604294FF028
:104AC000000088BFBDE8F0811546DFE801F003650E
:104AD000132335002046002D07BF47F23661C0F68C
:104AE000000147F23B61C0F60001FFF7C1FE012063
:104AF000BDE8F081002D51D047F2FA51C0F6000117
:104B00002046FFF7B5FE2068C07C84F82200012013
:104B1000BDE8F0812046FFF7E9FE20468121FFF73E
:104B20009BFE20462946FFF791FE2046FFF788FEB0
:104B30000120BDE8F08100BF20461E46FFF7D6FEEB
:104B4000707994F8221001EBC007204640215FFAEB
:104B500087F8FFF781FE4FEA181000F11001204698
:104B6000FFF77AFE07F00F012046FFF76FFEB079DE
:104B700040F0B0012046FFF769FE00BF307932688F
:104B8000C000C1B22046FFF76DFE013D2806F5D1F9
:104B90002046FFF755FE0120BDE8F08147F2F351B2
:104BA000C0F600012046FFF763FE2068807C84F891
:104BB00022000120BDE8F08180B529392A2900F2C0
:104BC0007580DFE801F01D236F736C73737373736B
:104BD00073737373737373737373737373737373A5
:104BE0007373737373737373736C6C7373171717B7
:104BF000170000BF002180F82710012080BD00BFF2
:104C00000120FBF72DFF012080BD00BF002000BF69
:104C100000BF00BF00BF00BF00BF00BF00BF00BF9C
:104C200000BF00BF00BF00BF00BF00BF00BF00BF8C
:104C300000BF00BF00BF00BF00BF00BF00BF00BF7C
:104C400000BF00BF00BF00BF00BF00BF00BF00BF6C
:104C500000BF00BF00BF00BF00BF00BF00BF00BF5C
:104C600000BF00BF00BF00BF00BF00BF00BF00BF4C
:104C700000BF00BF00BF00BF00BF00BF00BF00BF3C
:104C800000BF00BF00BF00BF00BF00BF40F03F013A
:104C900000BFB1F59F7F00F1400000BFB8D90120EF
:104CA00080BD00BF012000BF80BD00BF012180F892
:104CB0002710012080BD0000D0F814C000236047F9
:104CC000F0B581B017460D460646FFF701FD3046A8
:104CD0004021FFF7EBFC3469304617212A463B465A
:104CE000A047304601B0BDE8F040FFF7D9BC000056
:104CF000002180F8261070470FB4054B10B503A9AA
:104D0000044A029800F02CF810BC5DF814FB000077
:104D100091260008000000200FB4084B10B504A92C
:104D200002AA039800F01CF8044602A9002000F033
:104D3000F3F8204610BC5DF814FB0000194F000882
:104D400002E008C8121F08C1002AFAD17047704754
:104D5000002001E001C1121F002AFBD170470000B2
:104D60002DE9FF4F8BB09A460F460546002606E018
:104D700025280BD052460D9990476D1C761C28783B
:104D80000028F5D10FB03046BDE8F08F0024A046D2
:104D90000122604900E0044315F8013F203B02FA7C
:104DA00003F00842F7D128782E2817D115F8010F03
:104DB00044F004042A280ED06FF02F022878A0F1C6
:104DC000300109290AD808EB880102EB410100EB08
:104DD00001086D1CF2E757F8048B6D1C28786928D0
:104DE0003ED006DC0028CDD063280BD0642804D147
:104DF00036E0732810D075284BD052460D99904755
:104E0000761C85E017F8040B8DF8000000208DF863
:104E10000100E946012003E057F8049B4FF0FF3002
:104E200061074FF0000401D40AE0641C44450DDA28
:104E30008442FADB19F804100029F6D106E0641C5C
:104E40008442FCDB19F804100029F8D1264404E060
:104E500019F8010B52460D999047641EF8D257E09D
:104E600001CF4FF00A0B002802DA40422D2102E068
:104E7000210504D52B218DF82410012103E0E10741
:104E800005D02021F7E70DF1200908910CE0002161
:104E9000F9E701CF4FF00A0BF9E75946FBF704FA9F
:104EA00001F1300209F8012D0028F6D1ADEB09001F
:104EB00000F1200B600701D44FF00108D84502DD56
:104EC000A8EB0B0000E000208046002406E009A8C3
:104ED0005246005D0D999047641C761C08988442E8
:104EE000F5DB04E0302052460D999047761CB8F16E
:104EF0000001A8F10108F5DC05E019F8010B5246A4
:104F00000D999047761CBBF10001ABF1010BF4DC6D
:104F10006D1C34E7092801000A68531C0B601070EF
:104F20007047000010B5044601E0FDF7B1FB14F82E
:104F3000010B04490028F8D1BDE810400A20FDF714
:104F4000A7BB0000000000200102000000000000DC
:104F50000000010203040607080900000000010226
:104F6000030402030405060708090A0B0C0D0E0FC3
:104F700010100000000000000151000800000000B7
:104F800001000000B4500008000000000200000012
:104F900012510008000000000300000084500008C7
:104FA0000000000000000000665000080000000043
:104FB00002000000E95000080000000004000000AA
:104FC00017510008000000000500000022510008F1
:104FD000000000000600000007510008000000006B
:104FE00007000000D2500008000000000800000088
:104FF0002E5100080000000000000000BF50000813
:105000000000000001000000A150000800000000A6
:10501000020000008A5000080000000003000000A9
:10502000CB500008000000005B206C696E653A20E0
:105030002564207C2066756E6374696F6E3A202546
:1050400073205D202573203D2025640D0A00257303
:105050000D0A006F746865720D006E6578740D003E
:10506000707265760D004D61696E55490045646941
:1050700074696E67204B640048656C6C6F20576FD5
:10508000726C64005368617265002D4465726976C4
:1050900061746976650045646974696E67204B695F
:1050A000002D496E74656772616C006B65795F7382
:1050B00063616E00436F6C6C656374696F6E002D85
:1050C00050726F706F7274696F6E00526574757292
:1050D0006E002D506C617920566964656F004564DF
:1050E0006974696E67204B70002B504944204564F9
:1050F00069746F72006B6579735B695D2E6375729D
:10510000004C696B6573002D5465787420456469A3
:105110007400536C6F74002D49636F6E2054657377
:1051200074002D43686172742054657374007B2091
:1051300041626F7574207D0041450008814500087B
:105140006D3B00089B00030204040304050C0D00E2
:10515000FE08FE0AFF016102CE04172005004C0B79
:10516000210791468B53002207347D8BC814230EF0
:1051700096C49BA86558A25E86256A01240FA53CAB
:10518000AB6CA92899A8254A658B002510963C9BF5
:1051900028E9A225619A4449172D01260E8544ABC2
:1051A0002C8992AC322551A404270631FE8A0128AD
:1051B0000BB33DAB244AA26E5116290CB33D8B2C88
:1051C000CAA22E5112012A0C7544AB4AE5A02C4DFF
:1051D00011002B0B7744BCB8360C595C032C0732FA
:1051E0003E0B45012D0615648B412E0621C60A0192
:1051F0002F0CC43CBBA6AC9495B21A00300A85446F
:105200009B25F32D5900310985448BB14F83003222
:105210000B85449B250B6B6D8300330C85448B21E0
:105220000D93350C0705340E86C43B2D89BA64C92D
:1052300030A60900350D85448B2109C3210DC341DA
:1052400001360D85449B250C8724B3250B00370BB5
:1052500085448B41AC85595802380D85449B25D334
:105260009225B3250B00390D85449B25B32543A812
:10527000250B003A06614409493B09823E8B2156C1
:1052800014003C089544CBAC6B073D08355C8B4162
:105290001D043E0995448BB45B47003F0D95449B2C
:1052A00025D3C248CBA130024014A73CACAD9248F4
:1052B0005A22294A45A9488992651300410E87441C
:1052C000BC384DC2242B0D4AAA06420D86C48B4120
:1052D00009C561098DC302430C86C49B2109D58E83
:1052E000C99000440D87448C410A93D4633248002E
:1052F000450A85448B63388CC541460B85448B63D6
:105300003824612300470D86C49B2109D5DA28265D
:105310008300480B86C48BD0380CA26300490883F5
:10532000448A25EA654A08A334AAFEB4004B0D85D9
:10533000448B4C4A4A9A9644952C4C0985448BB030
:105340008F83004D1087440C6DC8968A5291222994
:1053500052D5004E0D86C48B70532229D14663006E
:105360004F0C8744ACAD92BA26593601500C854497
:105370008B21C96C83121601510D973CACAD92BACA
:105380002659B62700521086C48B21CA922CC99286
:10539000216A4BC200530C85449B414CD7301C14EE
:1053A00000540987448C4316F70D550A86C48BD0E8
:1053B0008FC99000560F87448C544DB228AB844956
:1053C0001A6700571189448D2CD332ADD229694A0E
:1053D000DA8A5904580D86C48B504CA24C8B5A4221
:1053E00031590B87448C34C92A69DC0D5A0A874429
:1053F0008C43DAE761085B09B33E8B21EA4F035C1B
:105400000CA53C8B300DD3300DD3305D09B33D8BF3
:10541000A93F0D015E083574AB2CA9055F06153C4C
:105420008B41600732FD8A240A610C65449B254B41
:10543000064D4B8600620C85448B301C92CC6D501F
:1054400000630864C49A216B1C640B8544CBCAA01A
:10545000B9254300650B65449B251B86301D0266FC
:105460000983449A69883A01670C85349B41734BE0
:1054700086305900680B85448B301C92CC5B0069E8
:105480000781448964186A08A2B4992CE9656B0DF8
:1054900085448BB09494B424AA64016C0781448938
:1054A00083006D0E67448C45892229922229920A35
:1054B0006E0965448B21C9BC056F0A65449B257341
:1054C0004B1600700C85348B21C9DC06250C01714C
:1054D0000B85349B41734B86B000720863448A216C
:1054E000EA04730C65449B254BD4244B1600740AC4
:1054F00083448A281AA23601750965448BCC5B3235
:1055000004760C65448B4C4B4A49164600770E676F
:10551000448C289222A5A2748BB204780B65448B2C
:105520002CA9556A5A00790D85348B4C4B4A491683
:105530006661067A0A65448B41CCDA06017B0BA3CF
:105540003CAA24AA64515B007C07B1BE8A07017D96
:105550000BA33C8A2CAA25514B047E0726DC1BC9D1
:1055600002800F95442BA9920D51364461142900F5
:105570000000000C593909C9706B0AA4FFFF201301
:10558000081B658E07014E000A2B647E28190E0247
:105590004E0A17BB3CDE1CCBB11CCBB141CEB11CBB
:1055A000CBB11C4B8783004E0B16AB3C8E0735C727
:1055B000724C87921C89F228CFB11C4B014E0D19F9
:1055C000BB3C8E0739C7722887943889C2288BB2B2
:1055D00050CCB11C4B014E2A16BA3DCE1CCA91725A
:1055E00016466D9998433994433994024E2D16B955
:1055F0003DCE1C098743966999960D07AD982339CE
:1056000012024E3A19B93D9E284E72241C8E59281A
:105610006551924549942659A42A004E3B16BB3C3D
:10562000CE1C4C87839A6339160FE71CCBB17438B4
:10563000084E4815BB3CDE1CCBA11CCAD2B0772853
:105640004B4BC321CA034E4B17BB3CCE1C8C873B34
:1056500094433994433994233A12C5E1304E5F1B89
:10566000BB3CDE1CCBA3488B966CC892292B25B57E
:10567000A81885519E0D83004E661ABB3CCE2C0E99
:10568000956150C22CCEA2E120A6611A46499AC566
:1056900031004E8612B93D8EF7B29E2339922339DE
:1056A0001227790A4E8B17BB3CDE7438488D516D3A
:1056B0003867C97050B36838E7C80A4E8E17BB3CCC
:1056C0009EE19C6339960E0735C7722CC7722C4732
:1056D00056004E9114BB3CAE61C8B90F07318772BA
:1056E000AC5A1B6E71024E9218BB3C8E0731C772CA
:1056F0006C50C3344CC370D8B11CCB8683004E9B16
:105700001CBB3CBE288F5A945A124949294B12257A
:105710001BC221878721878783004EA417BB3CDEED
:105720007438E87896D6922C09B33CC9A11C31AAEA
:10573000034EBA16BB3CDE1CCBB11CCBB11CCBA1BB
:105740002447EA595AD2054ECE16BB3CBE721667A4
:105750007116677196268D495B4B1696034ED61DC2
:10576000BB3CBE729646492D4A2665489A925A9489
:10577000D4A2448C92A831CA06014EE518BA3DFE67
:10578000288E6A5116D5A272548B9230129362966B
:1057900089014EEA1CBB3CBE28CF922C89922C0971
:1057A00023294B4AC52C09AB59124659250D4EECFD
:1057B0001DBB3CAE7A962C519225513AA5499426B0
:1057C000519A446912A549942651284EF61ABB3CB9
:1057D000BE72528D923419A6AD12A6C93044611A18
:1057E000A6611A66004EFD1CBB3CBE308D92308B0C
:1057F000B2288B94548906AD9495B2521665954C97
:10580000014F181BBB3CBEA8186551160F172D4C35
:10581000323553A3248D92A81295C4014F1A17BB99
:105820003CDE1C4AF22C2D2983A2330DD71C0AC35F
:105830006150004F2018BB3CBE729646C31486CA06
:105840003028591C0D539C55C26A094F461BBB3C5E
:10585000BE1C4B062DCA4A59240D4A292B65A54169
:10586000CBB11C4B86214F5C1ABB3CBE2447EAD10E
:105870003025D5294CB2212B67713648599C8500BB
:105880004F601CBB3CBE2447EAD1302569226649E3
:1058900094D4A2A49644252D2A46350D4FDD1CBB79
:1058A0003CBE641093AC94950649CC926418A23027
:1058B000CDC628A9255163064FE11CBB3CBE28CFAD
:1058C000D26418A21C9206A58E45839663D1A0458A
:1058D0005969500050A821BB3C1E314A2A839426A6
:1058E000D1320C4A1626D11025895489862851A216
:1058F0004AD438240050CF1FBB3CBE680893284CC4
:105900008621524A89340C49564A945A254C94AD02
:10591000524A4C00514518BA3DDE703884399265C0
:10592000C320464918C5519A45B5681D51461ABA53
:105930003DBE288B5A4A4994446A944A53124552B0
:10594000358B92309207516517BB3C3E1DCCB11C84
:10595000CBA12447EA599CA5B53CC9A100516C18BC
:10596000BB3CFE388BC36A186551166A3916C5618F
:10597000380C629A00517315BB3CAEB4160EE71C8E
:105980004B87439C43499EA5255D517616BB3CBE83
:10599000E270CCE241CEE241CEB2E1A0554B7A02B8
:1059A000518516BA3DCE1C4A8783166AA1662A29FC
:1059B00061A2233A220F518C1EBB3C9E2119A24AA0
:1059C000D412B544C97050A2246A895AA296A82557
:1059D0004AA2490151FA16BB3CDE382B65A5AC340E
:1059E0009CD33014433114C3E10151FB16BB3CDEA0
:1059F0001C8B87738EA5C3418DB35256CA4AC3050B
:105A0000520618BB3CBE729616D32C4F926148C208
:105A10002CCED2B01A891A0052071BBB3CAE1C8B8D
:105A200086298CA2291AC2A81855A29294455935E4
:105A3000AC290052201BBB3C8E6553BA285D942EC6
:105A4000C32151BA285D942E4A9BD2A658065230E3
:105A50001DBB3C8E43568ED2A41625C3A0D4C224AF
:105A600019A4240B932CCE866C480752361DBB3CE0
:105A7000BE382926C9B02452980C83520B9364581F
:105A80003A259DB2A4A2150752371DBB3C9E614B1F
:105A9000C22C1996A62C296549322C15A545E9A2D8
:105AA000F4946C6136524D1BBA3DAE308DB2E1902C
:105AB000834352AA9486A454290D49A91625CA02E3
:105AC000526A1ABB3CBEDA7050A2301A92A8258ADC
:105AD00086246AD3E1E11A469B0452A118BB3CBE5E
