:020000040800F2
:10000000400C002045010008FD1E0008011B0008EF
:10001000F91E0008D9040008E11F000800000000D4
:10002000000000000000000000000000051F0008A4
:10003000DD04000800000000011F0008091F00087F
:100040005F0100085F0100085F0100085F01000810
:100050005F0100085F0100085F0100085F01000800
:100060005F0100085F0100085F0100085F010008F0
:100070005F0100085F0100085F0100085F010008E0
:100080005F0100085F0100085F0100085F010008D0
:100090005F0100085F0100085F0100085F010008C0
:1000A0005F0100085F0100085F0100085F010008B0
:1000B0005F0100085F0100085F0100085F010008A0
:1000C0005F0100085F0100085F0100085F01000890
:1000D0005F010008D51F00085F0100085F010008EC
:1000E0005F0100085F0100085F0100085F01000870
:1000F0005F0100085F0100085F0100085F01000860
:100100005F0100085F0100085F0100085F0100084F
:100110005F0100085F0100085F0100085F0100083F
:100120005F0100085F0100085F0100085F0100082F
:10013000DFF80CD000F0BEF900480047012B0008A2
:10014000400C00200648804706480047FEE7FEE7CF
:10015000FEE7FEE7FEE7FEE7FEE7FEE7FEE7FEE777
:100160000D1F00083101000840EA01039B0703D07E
:1001700009E008C9121F08C0042AFAD203E011F8E6
:10018000013B00F8013B521EF9D27047D2B201E0A8
:1001900000F8012B491EFBD270470022F6E710B58C
:1001A00013460A4604461946FFF7F0FF204610BDE5
:1001B000F0B480EA0102D40F4200B2EB410F02D248
:1001C0000246084611464A0042D0C30DDDB2C1F3D3
:1001D000C752AD1A202D35DAC1F3160141F40002E1
:1001E00004B15242C5F1200602FA06F12A41104438
:1001F000B3EBD05F23D0C4B1012DA0EBC35009DC19
:10020000F0BC4FF0004202EAC352DBB200F500003E
:1002100000F0F8B8400000F1807000EBC350A0F18E
:10022000807040EAD170490009E0490841EAC07194
:10023000A0EBC35000F50000400800EBC350F0BC39
:1002400000F0D7B86142012202EB4101001BF6E742
:10025000F0BC704781F00041AAE780F00040A7E7BA
:1002600080EA010210B502F00043400022D04A00AB
:100270001FD0010E01EB1261C0F35600C2F356020B
:1002800040F4000042F40002A0FB022000047F3989
:10029000140400D0401C50EA124001D44000491E12
:1002A000C2B20C0604EBD010401C4008802A02D0D9
:1002B00003E0002010BD20F00100002900DA00203A
:1002C000184310BD30B480EA010202F0004530F05E
:1002D000004221F0004013D090B1C30DD40DC2F301
:1002E0001601C0F31600E41A41F4000140F40002C4
:1002F0007D34914201D3641C00E04900002C02DAF5
:1003000030BC002070474FF400000023914201D31D
:10031000891A034340084FEA4101F7D151B1914294
:1003200002D14FF0004105E002D24FF0010101E09F
:100330006FF0010103EBC450284430BC00F059B801
:10034000002801DBC0F10040002901DBC1F10041C0
:10035000814201D30120704700207047002801DB53
:10036000C0F10040002901DBC1F10041814201D907
:100370000120704700207047C10F80EAE0700844F8
:10038000CA079623002100F03DB8962300221146AB
:1003900000F038B800F0004220F00040C10DC0F37A
:1003A000160040F400007F2901DA002070479629EA
:1003B00003DCC1F19601C84001E096398840002A6B
:1003C000F4D04042704730B50B4601460020202251
:1003D000012409E021FA02F59D4205D303FA02F552
:1003E000491B04FA02F52844151EA2F10102F1DCB2
:1003F00030BD0029A8BF7047401C490008BF20F04D
:100400000100704710B4B0FA80FC00FA0CF050EA1A
:10041000010404BF10BC704749B1CCF1200421FA9B
:1004200004F411FA0CF118BF012121430843A3EB96
:100430000C01CB1D4FEA00614FEA102042BF0020A3
:1004400010BC704700EBC35010440029A4BF10BC7F
:100450007047401C490008BF20F0010010BC7047E5
:10046000420005D0C0F3C7525242914201DC002045
:10047000704700EBC150704710B541000CD0C0F37D
:10048000C751962908DC7E2909DC06DB410204D02D
:1004900000F0004040F07E5010BD002010BDC1F1C2
:1004A0009604C4F1200100FA01F1E040FFF7A1FF3A
:1004B000A04010BD064C074D06E0E06840F0010387
:1004C00094E8070098471034AC42F6D3FFF734FEA7
:1004D000487B0008687B0008FEE7000070470000CA
:1004E00070470000014690F82100022816D10868E4
:1004F000D1E90FC3026822F00E020260026822F006
:1005000001020260012000FA03F2CCF8042081F815
:1005100021000020002281F82020704704208863F9
:100520000120002281F820207047000080B590F85B
:100530002110022928D1026840F2040C1368C4F289
:10054000020C23F00E03136013680CF17C018A4245
:1005500023F0010111601BD940F20841C4F20201ED
:100560008A4249D040F21C41C4F202018A4247D07B
:1005700040F23041C4F202018A4245D14FF4807307
:10058000CCF800345DE000BF04218163012080BD10
:100590004321C4F202018A420EDD6B21C4F2020142
:1005A0008A421BDC4421C4F202018A423CD0582119
:1005B000C4F202018A4233E00821C4F202018A42F5
:1005C00036D01C21C4F202018A4237D03021C4F255
:1005D00002018A4224D14FF4807230E06C21C4F2CF
:1005E00002018A4226D08021C4F202018A4217D138
:1005F0004FF0807223E000BF0123CCF8003420E0EC
:100600001023CCF800341CE00CF588614FF48033E3
:100610008A4208BF4FF48053CCF8003411E000BF89
:100620004FF480320BE000BF4FF4805207E000BF70
:10063000012204E04FF4801201E000BF1022CCF848
:100640000020416B4FF48072028401B18847002082
:1006500080BD0000B0B5044600F01AF9054640F22E
:100660000800C2F200000078611C18BF044400BFFB
:1006700000F00EF9401BA042FAD3B0BD2DE9F04FB7
:1006800082B0D1F800C0BCF1000F00F0F180A0F101
:10069000804241F60045A2F58432C4F2010540F2E1
:1006A000004E4FEAB2240627A842C4F2010E08BF4A
:1006B0000527052C4FF000044FF001084FF00F0301
:1006C0004FF0000A4FF0000B38BF4FEAB2270097F7
:1006D0000AE000BFD1F800C00AF1010A3CFA0AF2B0
:1006E00004F1040400F0C48008FA0AF91CEA090FB6
:1006F000F0D04E684FF6FF72C1F21002964211DC44
:10070000122E55D8DFE806F0340A444854545454A5
:100710005454545454545454544C5000D1F80CB0C4
:1007200046E000BF4FF6FF72C1F2210296420FDC95
:100730000022C1F2110296421AD00022C1F2120226
:10074000964215D00022C1F22102964210D02FE02D
:100750000022C1F2220296420AD00022C1F23102E6
:10076000964205D00022C1F23202964220D100BF4B
:100770008A684AB1012A14BFC0F81490C0F81090DA
:100780004FF0080B14E000BF4FF0040B10E000BF67
:10079000CA6802F1080B0BE04FF0000B08E000BF45
:1007A000CA6802F1040B03E0CA6802F10C0B00BF37
:1007B00022460646BAF1080F24BF203A04363768AD
:1007C00003FA02F5AF430BFA02F23A433260CA79F8
:1007D000D2067FF57FAF41F21807C4F202073A68EC
:1007E0004FF6084342F001023A603A68CFF6FF73D1
:1007F00002F001020192019A2AF0030272440F25CD
:10080000D75804F00C06B540AF43009D05FA06F634
:100810003743D7504E680F23F203DEF8002054BF51
:1008200022EA090242EA0902CEF80020DEF804209A
:10083000B70354BF22EA090242EA0902CEF80420B3
:10084000F702DEF8082054BF22EA090242EA090250
:10085000B70240F20C47CEF80820C4F201073A680C
:1008600054BF22EA090242EA09023A6032E700BFB5
:1008700002B0BDE8F08F00008068084018BF01207A
:1008800070470000002A08BF09040161704700009A
:1008900040F23C60C2F200000068704770B5B8B327
:1008A000044690F83D0028B9002084F83C0020461A
:1008B00000F0C4F9242084F83D002068016821F08C
:1008C00001010160016841F400410160016821F407
:1008D0000041016000F0FEFB48F28041C0F21E01C1
:1008E00040F60013D4F804E088424FF00001C0F253
:1008F0003D0348F2A16C4FF0000238BF012198423D
:10090000C0F2010C38BF0122E64538BF0A460AB1E1
:10091000012070BD4DF68361C4F21B31A0FB0112B2
:100920002168950C4B684FF4967623F03F0343EA19
:100930009243754344F6D3564B60C1F262060B6A8C
:10094000A5FB0656B50923F03F03E64538BF950CD5
:100950006A1C1A430A62CA6948F2A0664CF6FF7321
:10096000C0F20106B64522EA03020BD801384FEA6D
:100970004E03B0FBF3F001306FF31F30042898BF33
:1009800004201EE0A368013863B119230EFB03F3B2
:10099000B0FBF3F001306FF31F3078B100F5804009
:1009A00008E000BF0EEB4E03B0FBF3F001306FF335
:1009B0001F3028B100F5004003E000BF012000E037
:1009C00001201043C8610868D4E9072320F0C00063
:1009D000104318430860886848F2FF3204F10C069F
:1009E00090434CCE18431043A5698860C86820F036
:1009F000FF0030432843C860086840F001000860E9
:100A000000202021206484F83D10206384F83E00FB
:100A100070BD00002DE9F04782B01E4617468A4699
:100A20000446FFF735FF94F83D1020291ED1DDF86C
:100A30002890054620688169890713D5FFF728FFAC
:100A4000401B1A28F6D300202021206384F83D1093
:100A500084F83E00216C41F02001216484F83C00C0
:100A600004E000BF94F83C10012903D1022002B039
:100A7000BDE8F087012184F83C100168C90703D163
:100A8000016841F001010160016840F2020821F4AF
:100A900000610160212184F83D10102184F83E108E
:100AA0000021216467626685618DC0F2010821859D
:100AB000A8F10211E162E16A11F5803F18BF012936
:100AC00040F09680016841F48071016019F10101E4
:100AD0002DD0B9F1000F23D14169C90731D1FFF7FA
:100AE000D7FE00202021206384F83D1084F83E00CA
:100AF000216C41F020012164216884F83C000868E1
:100B0000C00544BF4FF400702064012002B0BDE86E
:100B1000F08700BFFFF7BCFE401B4845E1D82068C6
:100B20004169C907F6D00CE04169C90709D141699B
:100B3000C90701BF41695FEAC17141695FEAC171DB
:100B4000F2D02169B1F5804F02D10AF0FE0110E028
:100B5000062101EADA11F031016108F106012046AF
:100B60004A462B4601F02EF80028CED120685FFAC5
:100B70008AF10161204641464A462B4601F022F89F
:100B80000028C2D10020019020684169019180694C
:100B90000190019806E000BF204649462A4600F031
:100BA000B1FF68BB208DC8B3204649462A4601F0F4
:100BB00077F828BB606A2168024612F8013B0B6196
:100BC0006262628D013A6285228D571E27854B69CC
:100BD0003F0418BF13F00403DED0437802300B61EA
:100BE0006062608D01386085901E2085D4E700BF6B
:100BF00008293FF467AF216B12293FF463AF65E723
:100C0000206C04287FF481AF2068016841F40071F2
:100C10000160012002B0BDE8F08700BF20680168D4
:100C200041F400710160202084F83D00002084F828
:100C30003E0084F83C0002B0BDE8F08710B586B0F5
:100C400045F600010068C4F20001002288420492C7
:100C500002D006B010BD00BF41F21804C4F2020475
:100C6000206840F008002060206800F00800019033
:100C700001984FF4406002901220039003200590E9
:100C800001F5344002A9FFF7F9FC606840F48000E8
:100C90006060606800F480000190019806B010BDAB
:100CA00040F2080040F23C61C2F20000C2F20001D2
:100CB00000780A68104408607047000080B542F26E
:100CC0000000C4F20200016841F01001016003203D
:100CD00000F08AF8002000F005F800F027F8002066
:100CE00080BD000070B540F20806C2F2000640F276
:100CF00010013278C2F200014FF47A730968B3FB35
:100D0000F2F20446B1FBF2F1084600F0E5FB0F2CCD
:100D10004FF0010508D838B94FF0FF3021460022C6
:100D2000002500F035F87460284670BD82B041F2AD
:100D30001800C4F202000168022241F001010160C2
:100D4000016801F0010101910199416841F0805170
:100D50004160406800F08050009000980420C4F288
:100D60000100016862F31A61016002B0704700007F
:100D7000002848BF704700F01F01012202FA01F16C
:100D80004EF200124009CEF2000242F820107047E5
:100D900010B54EF60C5CCEF2000CDCF80030C3F35C
:100DA000022E8EF00704042C28BF0424BEF1030396
:100DB0004FF0FF3E0EFA04F438BF0023A1439940E0
:100DC0000EFA03F39A4300F00F03043B114363440C
:100DD00009010C3300F16042B0F1FF3FC8BF02F5DA
:100DE0006443197010BD00004EF60C51CEF20001A4
:100DF0000A684FF6FF031A4060F30A2242F080604F
:100E000040F0FD70086070472DE9F04182B0044663
:100E1000007841F21C06C007C4F202064AD03068CE
:100E200010F0805808D1306840F080503060306851
:100E300000F080500190019847F20007C4F20007CB
:100E40003868C00512D4386840F480703860FFF705
:100E50001FFD05463868C00508D4FFF719FD401B83
:100E60006428F7D9032002B0BDE8F081706810F45F
:100E7000407012D0616801F4407188420DD07068F2
:100E800040F24042C4F24222012320F44071136038
:100E90000023C007136071602AD17068616820F474
:100EA00040700843B8F1000F706003D1306820F043
:100EB000805030602068810707D556F8181CA2685A
:100EC00021F44041114346F8181CC00604D4002008
:100ED00002B0BDE8F08100BF56F8180C616920F43B
:100EE0008000084346F8180C002002B0BDE8F081ED
:100EF000FFF7CEFC054641F2883700BF70688007D7
:100F0000CBD4FFF7C5FC401BB8424FF00300F5D926
:100F1000EBE700002DE9F04381B0002800F0858068
:100F200042F20008C4F202080446D8F800000D4658
:100F300000F0070088420CD2D8F8000020F007002B
:100F40002843C8F80000D8F8000000F00700A842C5
:100F50006BD1206841F204098107C4F2020917D558
:100F6000410705D5D9F8001041F4E061C9F8001037
:100F7000010705D5D9F8001041F46051C9F80010F7
:100F8000D9F80010A26821F0F0011143C9F800104F
:100F9000C00741D1D8F8000000F00700A8420CD9E2
:100FA000D8F8000020F007002843C8F80000D8F85F
:100FB000000000F00700A84237D12068410707D59C
:100FC000D9F80010E26821F4E0611143C9F800107B
:100FD000000708D5D9F80000216920F4605040EAE4
:100FE000C100C9F80000D9F8002002F00C00082860
:100FF00041F20020C0F27A0050D145F2AA13C2F3A8
:101000008341C0F60003595CD2033BD440F6001084
:10101000C0F23D00484341E0606802280AD0012840
:101020002AD159F8041C890308D4012001B0BDE875
:10103000F08300BF59F8041C8901F6D5D9F80010D7
:1010400021F003010843C9F80000FFF721FC064620
:1010500041F28837D9F80000616800F00C00B0EB6D
:10106000810F97D0FFF714FC801BB842F2D9032000
:1010700001B0BDE8F08300BF59F8041C8907D4D53E
:10108000DCE700BFD9F8002045F29013C2F34042DC
:10109000C0F600039A5C4843B0FBF2F0D9F80010A8
:1010A00045F29212C1F30311C0F60002515C40F206
:1010B000100220FA01F140F20C00C2F200000068B8
:1010C000C2F200021160FFF70DFE002001B0BDE882
:1010D000F083000040F2100041F20401C2F200006F
:1010E000C4F202010068096845F2A212C1F30221AC
:1010F000C0F60002515CC8407047000040F210008A
:1011000041F20401C2F20000C4F202010068096861
:1011100045F2A212C1F3C221C0F60002515CC840E0
:10112000704700002DE9F04182B0002868D00446E5
:10113000007841F20006C007C4F2020625D07068AC
:1011400000F00C0004281BD0706800F00C00082888
:1011500002D17068C00313D46068002800F0688171
:10116000B0F5A02F00F07C81B0F5803F00F07C81CD
:10117000306820F480303060306820F4802076E1E0
:101180003068800301D56068D0B32078800718D517
:10119000706810F00C0F07D0706800F00C00082881
:1011A0006ED17068C0036BD43068800702D52069A7
:1011B000012825D13068616920F0F80040EAC100BB
:1011C0003060207800071FD42078400732D4E569CA
:1011D00095B1706800F00C00082840F08F80012D58
:1011E0000ED07068216A00F480328A4208D1616AA8
:1011F00000F47010884203D1002002B0BDE8F081F5
:10120000012002B0BDE8F081A069002862D0002072
:10121000C4F242200121C0F88014FFF739FB0546D3
:10122000706A800700F18C80FFF732FB401B0228B8
:10123000F6D92AE1F06910F0805808D1F06940F041
:101240008050F061F06900F080500090009847F203
:101250000007C4F200073868C00529D4386840F494
:1012600080703860FFF714FB054600BF3868C00582
:101270001ED4FFF70DFB401B6428F7D905E100BF22
:101280002069002840F20000C4F2422000F0828071
:1012900001210160FFF7FCFA054600BF30688007B6
:1012A0003FF588AFFFF7F4FA401B0228F6D9ECE0CF
:1012B000E068002800F08080052800F09780012871
:1012C00000F09880306A20F001003062306A20F02F
:1012D000040092E00020C4F242200021C0F88014F3
:1012E000FFF7D6FA054600BF706A80077FF56CAF3E
:1012F000FFF7CEFA401B0228F6D9C6E00027C4F259
:10130000422700203866FFF7C3FA022D05460BD1AD
:101310003068800140F1BE80FFF7BAFA401B022816
:101320004FF00300F4D968E7306880017FF564AFBF
:10133000FFF7AEFA401B02284FF00300F4D95CE738
:1013400040F21000C2F20000006844F6D351C1F22E
:101350006201A0FB0101480A019000BF00BF019893
:10136000411E002801913FF42FAF00BF0198411E9C
:10137000002801913FF428AF00BF0198411E0028CA
:1013800001913FF421AF00BF0198411E0028019157
:10139000E4D119E700210160FFF77AFA054600BFA2
:1013A000306880077FF50DAFFFF772FA401B022807
:1013B0004FF00300F4D920E7306A20F001003062DA
:1013C000306A20F004003062FFF762FA054641F20D
:1013D000883700BF306A800720D5FFF759FA401BD5
:1013E000B8424FF00300F5D907E700BF306A40F07C
:1013F00004003062306A40F001003062FFF748FAC2
:10140000054641F2883700BF306A800706D4FFF7EF
:101410003FFA401BB842F7D937E000BFB8F1000FE0
:101420007FF4D5AEF06920F08050F061CFE600BFC8
:10143000306820F480303060306820F480203060E4
:10144000FFF726FA054600BF306880037FF59DAEA2
:10145000FFF71EFA401B64284FF00300F4D9CCE6D6
:10146000306840F480203060306840F48030306074
:10147000FFF70EFA054600BF306880033FF585AEE2
:10148000FFF706FA401B6428F6D9032002B0BDE836
:10149000F08100BF206AB0F5803F05D17168A26875
:1014A00021F40031114371607168626A21F4741192
:1014B00010430843706001203866FFF7E9F90446DD
:1014C000306880013FF598AEFFF7E2F9001B022873
:1014D0004FF00300F4D990E6411E0020B0EB116FED
:1014E0001CBF012070474EF21002CEF20002516084
:1014F0004EF62351CEF20001F0230B7007219060CD
:10150000116070477047000070470000B0B582B0AE
:10151000026805461068D168546900F02F03202B3B
:1015200001F0200306D12BB1284602B0BDE8B0403F
:1015300000F0F4BC5FEA007C1EBF04F0010E01F471
:10154000907414EB0E042DD12B6B0840C10617D5F7
:10155000012B15D100200190106801905068019076
:1015600001985069400625D4A88DE98DEB8D002B9C
:101570001CBF401A5FEA004140F0CA8002B0B0BD13
:10158000010645D44006F9D5D068202120F040005E
:10159000D060284685F83D1002B0BDE8B04000F0AC
:1015A000ADBA00BFC40718BF11F4807442D144071C
:1015B00046D44CE0A86B01684B689CB2002CDDD08F
:1015C000A98D8C42DAD2EB858369202B17D0D168A4
:1015D00021F48071D160516921F00101516151699B
:1015E00021F040015161202185F83E10002129633E
:1015F000D16821F01001D160FEF774FFA98DE88D4C
:10160000081A81B2284602B0BDE8B040FFF77ABFA1
:1016100095F83D002128B1D1A868B0F5805F03D1CD
:101620002869002800F08C80286A411C2962007813
:1016300050608CE02C6C44F001042C64440706D507
:10164000BEF1000F03D02C6C44F002042C6484071C
:1016500006D5BEF1000F03D02C6C44F004042C64BA
:10166000BCF1000F06D553EA0E0303D02B6C43F0F8
:1016700008032B642B6C002B3FF480AF08408006DE
:1016800003D5284600F04AFC2A685069296C00F00E
:10169000400001F00801401832D0D06820F490706A
:1016A000D060506920F001005061286B012803D1FF
:1016B000D06820F01000D060202085F83E00002087
:1016C00028635069400615D5506920F040005061EC
:1016D000A86B78B141F61171C0F600014163FEF7C5
:1016E00025FF00283FF44AAFA86B416B02B0BDE86C
:1016F000B0400847284602B0BDE8B040FFF704BF3D
:101700002846FFF701FF0020286402B0B0BD00BFEB
:10171000D16821F49071D160516921F001015161CA
:10172000202185F83E1000212963D16821F01003A3
:1017300081B22846D36002B0BDE8B040FFF7E2BEF8
:10174000286A30F8021B6FF35F2151602862E88C31
:1017500001380104E8847FF411AFD06820F08000E4
:10176000D060D06840F04000D06002B0B0BD000052
:10177000002804BF0120704710B5044690F83D00D2
:1017800028B9002084F83C00204600F05FF82420AF
:1017900084F83D002068D4E90212C36823F40053A2
:1017A000C360036923F440531A430261D4E904235C
:1017B0001143C268194341F20C639A431143C1605B
:1017C0004169A26921F44071114343F60002C4F259
:1017D00001029042416103D0FFF77CFC02E000BFB0
:1017E000FFF78CFC6268192148439100B0FBF1F0CF
:1017F00048F21F51C5F2EB11A0FB01235A096FF00B
:10180000630302FB0300322303EB0010A0FB010182
:10181000F02303EA5113206803EB0212C1F34311D2
:1018200011448160016921F490410161416921F015
:101830002A014161C16841F40051C16000202021AA
:10184000206484F83D1084F83E1010BD70B586B059
:10185000006844F20041C4F2000100268842059667
:10186000CDE9036602963FD043F60001C4F20101C0
:10187000884266D141F21800C4F20200016840F6C5
:10188000000441F4804101600168C4F2010401F4E4
:10189000804101910199016802AD41F004010160AC
:1018A0000068294600F00400019001984FF4007090
:1018B000029002200390032005902046FEF7DEFEF2
:1018C0004FF4806002900020CDE9030020462946B5
:1018D000FEF7D4FE252000210022FFF759FA25202B
:1018E000FFF746FA06B070BD41F21800C4F20200DC
:1018F000416840F6000441F4003141604168C4F29F
:10190000010401F4003101910199016802AD41F037
:10191000040101600068294600F00400019001986C
:101920000420029002200390032005902046FEF739
:10193000A5FE0820CDE90206204629460496FEF7BA
:101940009DFE06B070BD0000704700002DE9F04319
:1019500081B0044690F83D0020280DD10F460029A3
:101960004FF0010000F092801646002A00F08E80B1
:1019700094F83C00012803D1022001B0BDE8F083B7
:10198000012084F83C004FF0000921201D46C4F8D6
:10199000409084F83D00FEF77BFFA684E684A168B2
:1019A0008046B1F5805F25D1206900281CBF3846EC
:1019B0004F463E46074684F83C90E08C00B3681CD6
:1019C00020D0002D66D120680BE000BF36F8021B46
:1019D00000276FF35F214160E18C0139E184E18CE4
:1019E00081B30168090675D5002FEFD017F8011BE8
:1019F000F1E700BF002684F83C90E08C0028DED19F
:101A000020681FE0206802E00168090609D4016827
:101A100009065FBF01685FEA016101685FEA016171
:101A2000F2D51FB117F8011B05E000BF36F8021B05
:101A300000276FF35F214160E18C0139E184E18C83
:101A40000029E4D1016849061CD4002D42D0691C4C
:101A50000ED10168490615D4016849065CBF0168CA
:101A60005FEA41610ED401684906F2D50AE000BF81
:101A7000FEF70EFFA0EB08012068A9422AD80068F3
:101A80004006F5D5202084F83D00002001B0BDE8D7
:101A9000F08300BF206800BF0168090608D4FEF784
:101AA000F7FEA0EB08012068A942F5D912E000BFBB
:101AB00017B117F8011B04E036F8021B00276FF37B
:101AC0005F214160E18C0139E184E18C0029E3D19F
:101AD000B8E700BFC16821F4D071C160416921F04D
:101AE00001014161202084F83D0084F83E0000207F
:101AF00084F83C00032001B0BDE8F083704700008B
:101B0000FEE7000070B50368044653F8140F400761
:101B100043D40E46F1B1701C30D100BF18684005A7
:101B20003ED41868400738D41868400538D418687F
:101B3000400732D41868400532D4186840072CD4C6
:101B4000186840052CD4186840074FF0000048BFC3
:101B500070BDE3E71868400522D4FEF799FE002027
:101B60002021206384F83D1084F83E00216C41F070
:101B70002001216484F83C00012070BD154600BF9F
:101B8000186840050CD4FEF783FE401BB042E6D82F
:101B9000236853F8140F4007F2D5002070BD00BF32
:101BA0006FF48060186000202021206384F83D10CD
:101BB00084F83E00216C41F00401216484F83C006B
:101BC000012070BDF0B581B01D4603680446586918
:101BD0008FB23840B84203D1002001B0F0BD00BF41
:101BE00016467AB3701C29D15869400540D458690B
:101BF0003840B842F0D05869400539D45869384067
:101C0000B842E9D05869400532D458693840B842E2
:101C1000E2D0586940052BD458693840B8424FF09B
:101C20000000E1D139E000BFFEF732FE401BB042B8
:101C30000DD8236858693840B842CDD0586940055E
:101C4000F2D515E05869400512D4FEF721FE0020B8
:101C50002021206384F83D1084F83E00216C41F07F
:101C60002001216484F83C00012001B0F0BD00BFD8
:101C70001868202140F4007018606FF4806058618B
:101C80000020206384F83D1084F83E00216C41F070
:101C90000401216484F83C00012001B0F0BD000083
:101CA00070B50368044653F8140F000643D40E467B
:101CB000F1B1701C30D100BF186840053ED41868DF
:101CC000000638D41868400538D41868000632D4A5
:101CD0001868400532D4186800062CD418684005EE
:101CE0002CD4186800064FF0000048BF70BDE3E731
:101CF0001868400522D4FEF7CBFD00202021206388
:101D000084F83D1084F83E00216C41F020012164EC
:101D100084F83C00012070BD154600BF18684005DE
:101D20000CD4FEF7B5FD401BB042E6D8236853F84B
:101D3000140F0006F2D5002070BD00BF6FF4806064
:101D4000186000202021206384F83D1084F83E00B4
:101D5000216C41F00401216484F83C00012070BD35
:101D60002DE9F04385B04FF0000841F21800CDF89E
:101D70001080C4F20200016840F6004441F01001F6
:101D800001600168C4F2010401F0100100910099A2
:101D90000168002241F02001016001684FF0B8099C
:101DA00001F0200100910099016841F004010160F7
:101DB000016801F0040100910099016841F00801F7
:101DC00001600068B82100F00800009000982046EB
:101DD000FEF758FD4FF4005001ADCDE90108012791
:101DE00004F5806029460397FEF748FC0220A4F51D
:101DF0008066039030462946CDE90178FEF73EFC27
:101E00006020CDE90108304629460397FEF736FCED
:101E10000320049020462946CDE901970397FEF759
:101E20002DFC4FF44070CDE9010820462946039768
:101E3000FEF724FC05B0BDE8F083000080B540F259
:101E4000480045F60001C2F20000C4F2000141F66C
:101E5000802200234FF4804CC0F2060280E80E007E
:101E6000C0E9033CC0E90533C0E90733FEF716FDBE
:101E7000002808BF80BDBDE88040FEF731BB0000F0
:101E800080B540F29C0043F60001C2F20000C4F2AB
:101E9000010100234FF00C0C4FF4E13280E80E00FA
:101EA000C0E90333C0E905C3C361FFF761FC002843
:101EB00008BF80BDBDE88040FEF712BB80B540F290
:101EC000E00044F20041C2F20000C4F2000100232D
:101ED0004FF00C0C4FF4E13280E80E00C0E9033300
:101EE000C0E905C3C361FFF743FC002808BF80BDFC
:101EF000BDE88040FEF7F4BAFEE70000704700003E
:101F00007047000070470000FEF7CABE704700002F
:101F1000406A0021C185C184FFF7F6BA81B090F80C
:101F20003E10222920D18368B3F5805F08D1016972
:101F3000002941D000F128010A6803685B680AE0C3
:101F4000014651F8282F13B90369002BF5D0036817
:101F50005B6803F07F0313700A6801320A60C18D69
:101F600001390A04C18501D001B070470168CA680F
:101F700022F02002CA60CA6822F48072CA604A69EC
:101F800022F001024A61202280F83E20026B012AE1
:101F90001CD100220263CB6823F01003CB600B68D6
:101FA000DB0605D500920A68009249680091009905
:101FB000818D01B0FFF7A6BA0168826A49686FF3A4
:101FC0005F2122F8021B8262C9E700BF01B0FFF760
:101FD000BBBC000040F29C00C2F20000FFF796BAC2
:101FE000FEE700007047000010B501464FF07E503C
:101FF000FEF730F901460446FEF732F90146204665
:10200000FEF72EF901464FF07E50FEF723F910BD82
:1020100080B50021CCF22011FEF722F902F0EEFF8C
:1020200001464FF07E50FEF715F980BDB0B504466D
:1020300000F0DAFC032809D002280DD0012830D1A5
:102040002046BDE8B04000F029BC00BF2046BDE8F6
:10205000B04000F005BC00BF607D21690001085C54
:10206000082813D0092818BFB0BD94F874000021C7
:10207000A1EBD00004F17805FEF77EF90146284671
:102080000122012500F0A4F92570B0BD00F012FA7C
:1020900040F21800C2F200000021017040680121E6
:1020A0000170B0BD10B5044600F09EFC032809D0B5
:1020B00002280DD0012818BF10BD2046BDE81040F1
:1020C00000F0A0BF2046BDE8104000F05BBF00BF9D
:1020D00094F82100216900EB400011F8200001383C
:1020E000052812D800F0E6F994F82100216900EBE8
:1020F000400011F9200040F21801C2F200010870FE
:1021000001EB80004068012101700120207010BDAA
:1021100010B5044600F068FC032809D002280DD051
:10212000012820D12046BDE8104000F06BBF00BF61
:102130002046BDE8104000F025BF00BF94F8210004
:10214000216900EB400011F82000082818BF10BDDD
:1021500000F0B0F940F21800C2F200000021017056
:1021600040680121017010BD80B500F03DFC0028E1
:1021700008BF80BD00F09EF940F21800C2F20000D6
:102180000021017040680121017080BD80B500F020
:102190002BFC002808BF80BD00F08CF940F218002D
:1021A000C2F200000021017040680121017080BD71
:1021B00080B500F019FC002808BF80BD00F07AF956
:1021C00040F21800C2F200000021017040680121B5
:1021D000017080BD80B500F007FC002808BF80BDFD
:1021E00007A002F0ABFF00F065F940F21800C2F260
:1021F00000000021017040680121017080BD00BF16
:1022000068656C6C6F0D000010B540F22414C2F2CA
:102210000004204600F0F0FF2046012101F070FB91
:102220000EA3204602210C2201F00AFA0EA320463A
:1022300002211C2201F004FA0FA3204602212C22C5
:1022400001F0FEF910A3204602213C2201F0F8F92A
:102250002046BDE8104001F03BBB00BF4D43552078
:102260003A2053544D333200464C415348203A20D3
:102270003531324B420000005352414D203A20325A
:1022800035364B4200000000525443205352414D1A
:10229000203A2031364B420010B540F22414C2F2ED
:1022A0000004204600F0A8FF2046BDE8104001F0E1
:1022B0000FBB0000B0B540F22414C2F20004204667
:1022C00000F09AFF2046002101F01AFB45F2575515
:1022D000C0F60005204604210C222B4601F0B0F97F
:1022E0002046012101F00CFB2046042118222B4638
:1022F00001F0A6F92046022101F002FB204604214C
:1023000024222B4601F09CF92046BDE8B04001F0A4
:10231000DFBA000010B540F22414C2F200042046D7
:1023200000F06AFF2046BDE8104001F0D1BA00007D
:1023300080B5DDE902CEBCF1000F08BF4FF0010C03
:10234000017041F6E571C0F60001002A18BF114680
:102350000022C0E901134FF07E51C0E9033243610E
:1023600080F818C080F819C0C161028480F822206A
:102370004262A0F828E080BDB0B50446C0E9021270
:1023800010461D46FDF766FF217820614A0703D4F9
:1023900000200123002203E0207E4FF07E52FF2325
:1023A0006076880784F82230E2610DD4C807284699
:1023B00008BF0120002D08BF01200907208444BF69
:1023C00040002084B0BD00BF4FF6FF702084B0BD38
:1023D00070B504464669C0681546FDF7E9FE31460A
:1023E000C4E90260FDF736FF217820614A0703D473
:1023F00000200123002203E0207E4FF07E52FF23C5
:102400006076880784F82230E2610DD4C807284638
:1024100008BF0120002D08BF01200907208444BF08
:102420004000208470BD00BF4FF6FF70208470BD57
:1024300070B5018C002908BF70BD0446407E94F839
:1024400022201044030660760AD0257EC0B2A8423E
:1024500016D14FF07E50E06104F10C0004E000BFA3
:102460000020E06104F10800006801396061207813
:102470002184000744BF504284F8220070BD00BF91
:10248000FDF783FF06462846FDF77FFF01463046ED
:10249000FDF718FFD4E901152669E0618847014678
:1024A0003046FDF7DDFE01462846FDF781FE6061FE
:1024B00070BD000010B540F24004C2F20004208854
:1024C00040B3002061680A5C02F055020A54811C86
:1024D000228889B291421DD26268535C03F0550391
:1024E0005354011D228889B2914213D26268535C11
:1024F00003F055035354811D228889B2914209D2B9
:1025000062680830535C80B203F05503535421884D
:102510008842D7D340F22410C2F2000001F0D8F96B
:102520002088022828D3012061680A5C02F0AA02F0
:102530000A54811C228889B291421DD26268535C80
:1025400003F0AA035354011D228889B2914213D289
:102550006268535C03F0AA035354811D228889B238
:10256000914209D262680830535C80B203F0AA033A
:10257000535421888842D7D340F22410C2F200007D
:1025800001F0A6F92088E8B10020002162685054CB
:102590008A1C238892B29A4214D2636898540A1D06
:1025A000238892B29A420DD2636898548A1D238878
:1025B00092B29A4206D2636808319854228889B24E
:1025C0009142E3D340F22410C2F2000001F080F9FE
:1025D000208802281ED30121002000BF62685054C9
:1025E0008A1C238892B29A4214D2636898540A1DB6
:1025F000238892B29A420DD2636898548A1D238828
:1026000092B29A4206D2636808319854228889B2FD
:102610009142E3D340F22410C2F20000BDE8104022
:1026200001F056B910B582B0019040F29C0001ACA7
:10263000C2F2000021460122FF23FFF787F940F292
:10264000E000C2F2000021460122FF23FFF77EF9DD
:10265000019802B010BD0000B0B5044600F0C4F906
:10266000C8B303281CD0012836D1607D98B3013847
:10267000607594F8740004F118054042FDF77CFE83
:102680000146284601220125FFF7A2FE216F04F131
:10269000440081F000410122FFF79AFE2570B0BD91
:1026A000217D607D01398142D8BFB0BD01306075A8
:1026B00094F8740004F11805FDF767FE01462846FA
:1026C00001220125FFF784FE216F04F1440001225D
:1026D000FFF77EFE2570B0BD2069617D00EB011023
:1026E000416802A0BDE8B04002F066BB25730D0A48
:1026F000000000002DE9F04F83B004464430FFF79E
:1027000097FE04F11800FFF793FE04F17800FFF73D
:102710008FFEB4F8640018B9208F002800F09A806A
:102720000120207040F22410C2F2000000F064FD8D
:1027300094F87460E56A3046FDF727FE01462846A6
:10274000FDF7C0FDFDF726FE002818BF0138217DEA
:102750005FFA80FB8B4574D20BFB06F0FDF70CFE95
:102760002946FDF777FDFDF715FE82464FEA0B1669
:10277000A1894FFA8AF0884263DA617D2E308B4559
:102780000CBFD4F88C50002502902069E18900EB41
:10279000060999F8097099F80880C81B00EBD070F9
:1027A0004010FDF7E9FD01462846FDF701FDFDF764
:1027B000F1FDD9F80C50CDF800800246029840F2A5
:1027C0002419C2F2000981B248463B46019500F047
:1027D00079FFA389E789484600213022009701F05C
:1027E00081F82069A58930444168484601F032F8F3
:1027F000281AA16D00EBD07800202769C4F2782058
:10280000FDF728FD05463046FDF7B6FD0146284692
:10281000FDF7CEFCFDF7BEFD0246B8194368C8F3CC
:102820004F01484600F00CFF484601F0EBF894F8E1
:102830007400217D0BF1010B82448B4506F11006DB
:1028400096D340F22410C2F2000003B0BDE8F04F6E
:1028500001F03EB8B4F89800002818BF012060E7E6
:10286000B0B5017D0446407D01398142D8BFB0BD7D
:102870000130607594F8740004F11805FDF785FDCA
:102880000146284601220125FFF7A2FD216F04F130
:1028900044000122FFF79CFD2570B0BDB0B5044691
:1028A000407D002808BFB0BD0138607594F8740001
:1028B00004F118054042FDF75FFD0146284601225C
:1028C0000125FFF785FD216F04F1440081F00041EF
:1028D0000122FFF77DFD2570B0BD0000F0B5ABB063
:1028E000002A044650D001278DF8087042F2F5679F
:1028F000C0F600073098002B18BF1F4642F25963FC
:10290000C0F600030397002818BF03468020C0F2DA
:1029100040008DF81C2002AD41F6E9720493CDE928
:102920000501002605F118000C27C0F60002002161
:1029300000238DF81D6000970196FFF7F9FC41F622
:10294000E57205F14400C0F6000200210023009763
:102950000196FFF7EDFC4FF083401E90302042F2CD
:1029600011028DF87C0005F17800C0F60002082104
:10297000002300970196FFF7DBFC20462946A4229E
:10298000FDF7F2FB2BB0F0BD2046A421FDF705FCBE
:102990002BB0F0BDB0B540F60044C4F2010404F51C
:1029A00080604FF40051FDF767FFB0FA80F040F20D
:1029B00038054009C2F20005A870687020464FF43F
:1029C0008071FDF759FFB0FA80F040092871E87076
:1029D00020464FF40071FDF74FFFB0FA80F0400938
:1029E000A8716871B0BD000070B582B040F60046B5
:1029F000C4F2010606F580604FF40051FDF73CFF7C
:102A000040F23805C2F20005B0FA80F0A978440916
:102A1000A1426C7014D045F2EC5045F2126245F2BE
:102A20001B63C0F60000C0F60002C0F600031E21C2
:102A3000AC70009402F0C0F9687808B101245BE042
:102A400030464FF48071FDF717FFB0FA80F0297916
:102A50004409A142EC7015D045F2EC5045F21262E7
:102A600045F21B63C0F60000C0F60002C0F600038A
:102A70001E212C71009402F09FF9E87810B1022415
:102A80003AE000BF30464FF40071FDF7F5FEB0FAB2
:102A900080F0A9794609B1426E7115D045F2EC502B
:102AA00045F2126245F21B63C0F60000C0F6000258
:102AB000C0F600031E21AE71009602F07DF9687920
:102AC00010B1032418E000BF287A0024EC71A0B1F3
:102AD00045F2EC5045F2126245F21B63C0F600006D
:102AE000C0F60002C0F600031E212C72009402F012
:102AF00063F9E87908B104242C70204602B070BD57
:102B0000ADF5267DFEF7DAF84FF4FA70FDF7A2FD79
:102B100000274FF480300225CDE96407CDE96A50E3
:102B20004FF4E01063AC4FF001086C902046CDE903
:102B30006877CDE966770797CDE90577CDE9037723
:102B4000CDE93077CDE92E77CDE92C77CDF88C81A2
:102B5000CDF89C81FEF7E6FA0F2003A9A1C14FF43E
:102B600080600DF10C09CDE9060748460221FEF709
:102B7000D1F94FF400402CAE2E9030462C95FEF744
:102B800043F9FFF7EDF8FFF77BF9FFF757F9FFF788
:102B900095F9FFF7FFFE01F059FB3DA08168406801
:102BA000A5913B4940F21805CDE9A3103BA08168EF
:102BB0004068A2913949C2F20005CDE9A0103AA0BF
:102BC000816840689F91384905F1100CCDE99D104E
:102BD00038A0816840689C9136499DAACDE99A1039
:102BE000A3A8A0A99AAB8CE80F0042F2A500C0F6FA
:102BF000000045F2FC110190C0F6000120460722BA
:102C00000423009700F03EFA42F21110C0F60000D3
:102C100045F250210190C0F6000130460422042301
:102C2000009700F02FFAC5E9014642F22D0645F261
:102C3000BC11C0F60006C0F600014846042200237D
:102C40000096FFF74BFE68682E1D1DA4C5F80C907A
:102C50002F7080F8008000BF95F9000056F8200022
:102C60008168884795F9000056F820000078002810
:102C7000F2D0204602F062FA95F9000056F82000E2
:102C8000077095F9000056F8200041688847E3E78F
:102C900001000000B5220008B12100080100000079
:102CA000992200088D21000801000000152300086A
:102CB000D521000801000000092200086921000850
:102CC00072657061696E740D0000000010B50446F5
:102CD000FFF78AFE002808BF10BD032806D0012890
:102CE0000AD12046BDE8104000F08CB92046BDE86E
:102CF000104000F047B900BF94F82100216900EBB3
:102D0000400001EB8000416802A0BDE8104002F0E5
:102D100053B800BF25730D0A000000002DE9F047ED
:102D200082B082462830FFF783FB0AF15400FFF798
:102D30007FFB0AF1B000FFF77BFB0AF18400FFF78D
:102D400077FBBAF8480038B9BAF8740020B9BAF875
:102D5000D000002800F0108101208AF8000040F225
:102D60002410C2F2000000F047FADAF8C460DAF882
:102D7000187030463946FDF7A5FAFDF70BFB9AF8B7
:102D8000141081423BD90546FDF7FFFA014638464B
:102D9000FDF766FA3146FDF75DFA064605EB45009C
:102DA000042140F2241801EB8007C2F2000800BFA2
:102DB000BAF80E00FDF7E9FA01463046FDF7C0FA11
:102DC000E8B9DAF824109AF822903046FDF7F0F9C5
:102DD000FDF7E0FADAF810100246CB5940464946B2
:102DE00000F02EFCDAF8181030460135FDF7E0F956
:102DF0009AF8141006468D4207F10C07D8D39AF8BA
:102E00008010BAF80E3040F22410C2F20000002206
:102E100000F01EFC9AF8140020B340F2241800259C
:102E2000C2F20008002600BF9AF88000441E304617
:102E3000FDF7B0FA0746A1B240463A4600F006FB5D
:102E40009AF880003A46411C404600F0FFFADAF852
:102E50001C103046FDF7ACF99AF8141001358D427C
:102E60000646E1D39AF88000BAF80E1040F2241812
:102E700001384A1EC2F2000881B292B2404600F008
:102E8000E5FA9AF88000BAF80E20411C501E82B272
:102E9000404600F0DBFADAF898709AF88090DAF899
:102EA0001C503846FDF776FA0646FDF76EFA0146E5
:102EB0003846FDF7CFF94FF07C51FDF74FFA014648
:102EC0000028284618BF4FF07E51FDF771F9A9F18F
:102ED0000107FDF75FFA0546B9B2404632462B4678
:102EE00000F0B6FB09F10101404632462B4600F0E6
:102EF000AFFB4046022100F003FDDAF86850284697
:102F0000FDF748FA06469AF82200DAF83C704000CD
:102F1000FDF732FA01463846FDF74AF9FDF73AFA6D
:102F2000DAF8187004463046FDF72FFA01462846B5
:102F3000FDF790F94FF07C51FDF710FA014600289B
:102F4000384618BF4FF07E51FDF732F9FDF722FAEF
:102F5000012700904046002132462346019700F0A9
:102F600095FA4046012100F0CBFC404602B0BDE896
:102F7000F04700F0ADBC00BFBAF8A400002818BFAD
:102F80000120EAE6F0B581B0017D044690F8210009
:102F90000139814234DD627D411C94F82000013A00
:102FA000824284F82110D1BF04F1B000013084F8CE
:102FB000200004F15400A16901220127FFF708FA5B
:102FC000E16904F184000122FFF702FA94F821007C
:102FD000216900EB400001EB8000416840F22410C1
:102FE000E56BC2F2000004F1280600F033FCFDF7A7
:102FF000CCF90246304629460123FFF7BDF9277078
:1030000001B0F0BDF0B581B0044690F82100B0B336
:1030100094F820100138002984F821000FBF04F132
:10302000B000481E84F8200004F15400A169012278
:1030300081F000410127FFF7CBF9E16904F1840039
:1030400081F000410122FFF7C3F994F821002169C2
:1030500000EB400001EB8000416840F22410E56B7A
:10306000C2F2000004F1280600F0F4FBFDF78DF930
:103070000246304629460123FFF77EF9277001B04A
:10308000F0BD00002DE9F043B9B0002A804600F001
:103090008F80154601220E46DDE94010002B08BF47
:1030A00001238DF8082042F61D52C0F600020029C7
:1030B00018BF0A4642F6CD41C0F60001039200282F
:1030C00018BF01468020C0F24000CDE90506184631
:1030D00004918DF81C508DF81D30FDF756F901460E
:1030E0004FF08540FDF7EEF808902846FDF74DF9C2
:1030F00001464FF08540FDF7E5F809904FF082401A
:103100000B90716840F22410002404250DF1080989
:10311000C2F20000ADF828408DF82A5009F12806C7
:1031200000F098FBFDF731F941F6E977C0F60007AA
:103130000346304600213A4600950194FFF7F8F81F
:1031400009F1540000213A46002300950194FFF74D
:10315000EFF87E208DF8880009F1840000213A46BE
:10316000002300950194FFF7E3F841F6E57209F1B9
:10317000B000C0F600020021002300950194FFF783
:10318000D7F80B9E08983146FDF764F84FF07C5154
:10319000FDF766F801463046FDF70AF80B90404609
:1031A0004946DC22FCF7E0FF39B0BDE8F08300BF00
:1031B0004046DC21FCF7F1FF39B0BDE8F0830000A8
:1031C00010B545F2286144F29D7244F67943C0F689
:1031D0000001C0F60002C0F60003044600F042FC05
:1031E000204601F083FA2046002101F08BFA2046A8
:1031F000BDE81040AFF3008080B5016890F838203A
:10320000097C406B5143C900FCF7C7FF80BD00003B
:103210002DE9F04F87B014465F1C9B46CE1AD21A98
:1032200006917B1839198FB2B1B292B29BB2059058
:10323000009700F017FB00283DD0109F0598069BD3
:1032400000215A460094019700F054FCBBF1000F96
:1032500031D04FF6FE70ABEB4B0101304E00CBF19D
:10326000010A4FF001084FF0000900B2CDE9030454
:10327000039A0FFA8AF090426FEAE030834409F132
:1032800001090FFA88F006F10201C4BF8A440E4614
:1032900000F1020800941FFA8BF71FFA89F50598D0
:1032A000069B109C29463A46C244019400F022FC39
:1032B000049CBD42DCD307B0BDE8F08FF0B581B00F
:1032C000002B79D090F88C50002D75D0069C012BE6
:1032D00006D0032C36D0022C02D1C91A013101E0EC
:1032E000E50731D1B0F84C50954265D8B0F84E5052
:1032F000954261D9B0F84840B0F84AE08DB2EE1876
:10330000B7B27545A44638BF8C46B74208BF8C4655
:10331000754533461FFA8CF138BFAEF10103B74251
:1033200008BF3B46714547D29DB2A54244D9A14250
:1033300038BFA446754588BF73464FF0000E6146FE
:1033400030E000BFD21A0132B0F848708F4233D853
:10335000B0F84A708F422FD9B0F84C40B0F84EE028
:1033600095B2EE18B7B27545A44638BF9446B74239
:1033700008BF9446754533461FFA8CF238BFAEF14C
:103380000103B74208BF3B46724515D29DB2A54224
:1033900012D9A24238BFA446754588BF73464FF084
:1033A000010E6246046BA3EB0C03A4689BB289B2C6
:1033B00092B2CDF800E0A04701B0F0BD2DE9F04F8A
:1033C00083B00F46824690F892905818511C1C46C4
:1033D0008DB283B2504639469046009500F042FACD
:1033E00080B36CB30C9DB9FA89F040094FF0010B22
:1033F0000026029019E000BF8AF89200B9B2504648
:10340000424601230096FFF759FF1BF07F004FF45F
:10341000FF7000EA4B0BA4F1010407F1010704BFA0
:1034200001354FF0010B20040AD028781BEA000F69
:103430004846E1D19AF8910000280298E5D1DBE7EF
:103440008AF8929003B0BDE8F08F000080B582B09A
:10345000B0F84C30934217D8B0F84E30934213D99D
:10346000B0F848308B420FD8B0F84A308B420BD9B5
:1034700090F88C3043B1036B4FF0000ED3F808C0C6
:103480000123CDF800E0E04702B080BD2DE9F04F08
:1034900089B00646129803EB010900EB020A1FFAF5
:1034A00089F598461FFA8AFB30462B4617460C468C
:1034B000CDF800B000F0D6F9002800F0BE800695E7
:1034C000139D07942A19E919E843CDF820801FFAC3
:1034D00082F88CB2CDF810B009EB000B0AEB0009B2
:1034E00092464FF0020C05913046414622462B464B
:1034F000CDF800C0FFF78CFE1FFA8BFB4FF0010CDC
:103500003046594622462B46CDF800C0FFF780FED4
:103510001FFA89F44FF0040C3046414622462B46F0
:10352000CDF800C0FFF774FE4FF0080C3046594646
:10353000DDF820B022462B46CDF800C0FFF768FE2C
:10354000ABEB0500401B81B2032951D30AF1010105
:10355000023805F1010A0394019008440AEB0702BE
:103560008CB295B283B2304621463A461FFA8AF8A9
:103570000293009500F076F9D04514D198B10198E6
:103580004FF0000B1FFA80F8554600BFBAB2304624
:1035900021464346CDF800B0FFF790FE013D2804D8
:1035A00007F10107F2D1DDE90232049F30462146DE
:1035B000009700F057F9DDF820B0139D5FEA0A414B
:1035C00018BF002814D001984FF0000887B200BF40
:1035D0001FFA89F2304621463B46CDF80080FFF7BE
:1035E0006DFEAAF1010A5FEA0A4009F10109EFD173
:1035F0001298DDE90637401B401B81B203291CD31A
:103600000599851E4C1C28191FFA80FCA2B2304671
:103610003946CDF800C000F025F970B14FF0000830
:10362000A2B2304639465B46CDF80080FFF746FE31
:10363000013D280404F10104F2D109B0BDE8F08F86
:1036400044F24D7CC0F6000CC0F804C000F0DABAB9
:1036500070B582B0A3B3944690F88C2082B3B0F8D2
:1036600048208A422CD8B0F84A208A4228D9B0F89B
:103670004C40B0F84EE003EB0C05AEB2E6452246F6
:1036800088BF6246AE4208BF6246E6452B4688BF09
:10369000AEF10103AE4208BF3346724510D21FFAA5
:1036A00083FCA4450CD9A24238BF2246066BF445E0
:1036B00088BF7346B6689B1A01259BB20095B04738
:1036C00002B070BD2DE9F04782B00A9C8A4681465F
:1036D0005818A11898468FB283B2484651461546ED
:1036E000009700F0BFF8002818BF002C11D008F197
:1036F00007000B9F80B2C608AAB24846514643460F
:103700000097FFF75BFE013C3744200405F10105FB
:10371000F2D102B0BDE8F087B0B5044600F028FD54
:1037200000284FF0000100F0928084F86C1094F8AB
:10373000781020660B460278082922BF01302066E7
:10374000A1F108034FF0FF3C0CFA01F194F879E085
:1037500022EA010184F86C3084F86A100EEB030150
:103760000278CDB2082DDDB222FA05F209D3451C4C
:103770002566C3F108034078DBB29840024308395C
:1037800028460CFA0EF39A4394F8923094F87AE0B3
:1037900084F86E30B3FA83F35B0984F86C1084F814
:1037A0006B2084F86F3001EB0E030578DAB2082A3B
:1037B000CAB225FA02FC0AD3421C2266C1F10801F2
:1037C0004078C9B288404CEA000C083B1046AEF184
:1037D00001024FF0FF31D2B24FF0807501FA0EF1C5
:1037E00005FA02F294F87B502CEA0101A1EB126178
:1037F000EA18D3B2082B84F8901022BF013020665B
:10380000083A94F87C1084F86C208B1890F800C06B
:10381000DDB2082DD5B22CFA05FC09D3451C25666E
:10382000C2F108024078D2B290404CEA000C083B4A
:103830004FF0FF3088400139C9B24FF080722CEA56
:10384000000002FA01F1A0EB116184F86C3048B27B
:10385000B0BD000044F24D72C0F60002426000F0BC
:1038600083BE000010B5B0F84E40DDF808E0B0F8B7
:103870004CC0944206D972450AD8F44524BF0020B2
:1038800010BD05E0F4454FF0000C1ED272451CD966
:10389000B0F84A20B0F848008A420BD90022994279
:1038A0004FF0000188BF0121984238BF012241EA50
:1038B000020010BD002299424FF0000188BF012193
:1038C000984238BF012202EA010C604610BD000098
:1038D00010B5044600F01CFE2046BDE8104000F084
:1038E0000BBF0000DDF800C0A0F85010016BA0F87D
:1038F00054204968A0F85230A0F856C0084700008C
:10390000022988BF012180F8921070472DE9F04FFD
:1039100081B00446806D88426AD0A16508780D4662
:1039200084F87400487884F87500887884F8760004
:10393000C87884F87700087984F87800487984F8A2
:103940007900887984F87A00C87984F87B00087A4D
:1039500084F87C00487A84F87D0091F90A9084F814
:103960007E90C87A84F87F0091F90CA0084684F80C
:1039700080A091F90D6084F8816091F90E7084F84F
:10398000827091F90FB084F883B091F91080112101
:1039900084F8848000F056FCA4F8860028461321A1
:1039A00000F050FCA4F888002846152100F04AFCDD
:1039B000A4F88A0094F88D0084F88E6084F88F70E3
:1039C000B0B101280AD15E45B8BF84F88EB0474532
:1039D0000EDD84F88F8001B0BDE8F08F0AEB09009E
:1039E000B042C8BF84F88E005745C8BF84F88FA086
:1039F00001B0BDE8F08F000043F6F541C0F60001CC
:103A0000C16570470021CFF6FF71026B016541650A
:103A100051680847B0B50446049884F8382040F24D
:103A20000112A4F8922002680025C4E90B30204658
:103A3000A56584F8395084F86D5084F8915084F865
:103A40008D50616390470020CFF6FF70216B206599
:103A500060654968204688472046FFF7CDFF84F817
:103A60007050B0BDB0B582B09C4613460C4644F6CB
:103A70002D3144F6B912C0F60001C0F60002054629
:103A8000CDF800C000F044FE0DF1070000F038FD55
:103A90009DF8072044F289230146C0F6000328461A
:103AA0000094FFF7B7FF02B0B0BD0000022B07D0B3
:103AB000012B09D0002B14BF1044084480B270477A
:103AC000401A80B2704700BF801A80B27047000071
:103AD000022B07D0012B09D0002B14BF401A104431
:103AE00080B27047801A80B2704700BF084480B22D
:103AF000704700002DE9F04381B0DDE90885994663
:103B000017460E46E907044630D1A80746D42807D1
:103B100011D509EB06007A1C81B293B220464246C9
:103B2000FFF796FD09EB0700721C81B293B22046A5
:103B30004246FFF78DFD68075CBF01B0BDE8F0832A
:103B4000A9EB06007A1C81B293B220464246FFF7E9
:103B50007FFDA9EB0700721C81B293B2204642465A
:103B600001B0BDE8F043FFF773BD00BF09EB0600ED
:103B7000A8EB07027B1C81B292B29BB22046FFF7F2
:103B800067FD09EB0700A8EB0602731C81B292B235
:103B90009BB22046FFF75CFDA807B8D5A9EB06004D
:103BA000A8EB07027B1C81B292B29BB22046FFF7C2
:103BB0004FFDA9EB0700A8EB0602731C81B292B27D
:103BC0009BB22046FFF744FD2807B4D5A1E70000CB
:103BD00010B582B0B0F83EE0DDF810C0C46AA2EBC8
:103BE0000E0292B2CDF800C0A04702B010BD000096
:103BF00080B582B0DDF810C0CDF800C0FFF7E8FF57
:103C000002B080BD2DE9F04F81B01F4692460D46AF
:103C100006464FF6FF7801F0CBF8726839783046E7
:103C2000904740455ED0A8F101017C1C4FF000098F
:103C30001FFA81FB08E000BF8144726814F8011B81
:103C40003046904740454FD087B25F45F5D096F853
:103C500070205046032A29461DD8DFE802F00309E8
:103C60000F1700BFF16D304688475044294612E0D7
:103C7000F16D30468847291A0CE000BFF16D3046DF
:103C80008847AAEB0000294605E000BFF16D3046E9
:103C9000884741195046A6F86410A6F866003046D9
:103CA000394600F065FA48B10146304600F024F884
:103CB00096F87010032906D9BEE700BF002096F8D9
:103CC00070100329B8D8DFE801F007090B0300BF23
:103CD000AAEB000AB0E700BF0544ADE78244ABE7BA
:103CE0002D1AA9E74FF000091FFA89F001B0BDE8CD
:103CF000F08F0000002070472DE9F04F8BB00022BC
:103D0000016680F86C2090F878700B784FF0FF32E5
:103D1000082F31BF3D4601310166A7F1080502FABF
:103D200007F723EA070E90F8793080F86C5080F896
:103D30006AE05F190E78FCB2082CECB2824626FAD3
:103D400004F60AD34C1CCAF86040C5F1080549784E
:103D5000EDB2A9400E43083F21469A409AF89230AE
:103D600026EA02009AF87A208AF86E30B3FA83F3D2
:103D70005B098AF86C708AF86B008AF86F30BC189F
:103D80000B78E6B2082EFEB223FA06FC03900BD3A2
:103D90004E1CCAF86060C7F108074978FFB2B94005
:103DA0004CEA010C083C31469AF87B708AF86C406A
:103DB0003D190E78EBB2082BE3B226FA03F60AD3CC
:103DC000C4F108034C1CCAF860404978DBB2994042
:103DD0000E43083D21469AF87C008AF86C50029008
:103DE00028440B78C4B2082CECB24FFA8EF923FAAF
:103DF00004F409D3C5F108034D1CCAF86050497892
:103E0000DBB299400C4308380194B9F1010F8AF8EC
:103E10006C00C0F299814FF0FF30511E7B1E00FAFA
:103E200002F2C9B24FF08075B840DBB22CEA020250
:103E300005FA01F126EA000005FA03F3A2EB11618D
:103E4000C0EB1362039B9AF87060D21ABAF8640050
:103E500057B24DB229463A463346FFF727FE804611
:103E6000BAF8660029463A463346AAF86480FFF756
:103E70002FFE032EAAF86600CDF828A00CD8DFE8A4
:103E800006F0030F192300BF03995FFA89F249B2C4
:103E900008EB020301441FE0434601461CE000BF5B
:103EA000039908F1010349B2A3EB01085FFA89F114
:103EB000014411E05FFA89F108F10103A3EB010865
:103EC00003994AB206E000BF03995FFA89F249B24A
:103ED00008EB0103411C881A0A9C8FB21FFA88F173
:103EE00082B29BB220460097FFF7BCFC002800F08E
:103EF0002B8194F86C30266E00254FF0000C27467D
:103F0000A4F8685005E000BF039840B2834580F2F2
:103F10001781E14697F876C03278BE4603EB0C076E
:103F2000A846D8B2FDB2082D22FA00F20AD3751CB9
:103F3000CEF86050C3F108037078DBB298400243BA
:103F4000083F2E469EF877308EF86C70D919357878
:103F5000CCB2082CFCB225FA04F509D3741CCEF8B7
:103F60006040C7F108077078FFB2B84005430839D0
:103F70004FF0FF3404FA0CF022EA000A04FA03F0CE
:103F800025EA000077464546CC4604908EF86C1032
:103F9000CDF814A007E000BFDDF814A0C80727463D
:103FA00084F86C30B0D097F86D00E8B197F86A00EB
:103FB0005FFA8AF2A0EB0C01CBB293425DD8AAEB78
:103FC000010A5FFA8AF1814205F1010508D300BFB9
:103FD000AAEB000A5FFA8AF1814205F10105F7D2E6
:103FE0004FF0000C49E000BF002097F86A10A1EBE9
:103FF0000C04E8BB0CE000BF97F86D00AAEB040AC4
:1040000001354FF0000C97F86A10A1EB0C0478BB57
:1040100097F87090E0B20890B7F866004FFA8CF607
:104020006FB231463A464B465FFA8AFB09956546C0
:10403000FFF74EFD0A998046B1F864103A460846EB
:1040400031460A9F4B46FFF731FD0146089897F825
:104050006F208345204638BF504687F89220C3B270
:1040600038464246CDF80090FFF728F9AC46099D46
:10407000E0B25FFA8AF18142BED2049B0AEB0C02E5
:1040800087F8682087F8695097F86A00D9B2A0EBE2
:1040900002095FFA89F097F87060099181420A99E4
:1040A0000890CA46B7F8640054B24FFA85FBB1F8DD
:1040B0006670984638BF9A46069221465A4633465D
:1040C000FFF7F4FC079038460A9F21465A463346CC
:1040D000FFF7FEFC97F86E10024687F892100799DA
:1040E0005FFA8AF338460096FFF7E8F8DDE9081032
:1040F000884205D34346A8EB090301350022C3E7F4
:1041000006983E6E08EB000C97F86C2087F868C0A4
:1041100087F869503178531C3C46DFB2082F21FAEA
:1041200002F1FFF439AF701C2066C2F10803777802
:10413000DBB207FA03F31943D31F06462CE700BF8F
:1041400097F86E0087F8920002994FF0FF30019ABD
:104150008840013922EA0000C9B24FF0807202FAA9
:1041600001F1A0EB116040B20BB0BDE8F08F000090
:1041700070B50C46816DFF2C01F1170104D8612C3C
:104180003AD3B0F888003BE0B0F88A000E18354604
:104190002846002100F056F806442846022100F087
:1041A00051F8A04205F10405F2D33088000400BAAA
:1041B000002841D0A04241D0B078315A090409BA50
:1041C000D1B3A142064439D0B078315A090409BAB2
:1041D00091B3A142064431D0B078315A090409BAEA
:1041E00051B3A142064429D0B178705A0E4400045C
:1041F00000BA0028DED11FE0412C02D3B0F88600BF
:1042000001444878C0B10A78A24219D001444878E4
:1042100090B10A78A24213D00144487860B10A787C
:10422000A2420DD00144487830B10A78A24207D0AA
:10423000014448780028E6D1002070BDF01C70BD14
:10424000881C70BD405A00BA000C704710B540F28F
:104250002414C2F200042046FEF7B2FF45F2346196
:10426000C0F600012046FFF751FB206894F8383073
:10427000007C616B40F240025843C2F20002C00071
:104280005160108010BD00002DE9F04102F00704DC
:10429000012690F89250A640022DB44628BF4FF058
:1042A000000CB5F1010E18BFB646056822F00706EE
:1042B0002D7C476B7543DDF81880ADB23D44B8F1F5
:1042C000000F294418D013F00306A3F1010500F0F4
:1042D000A9800C7844EA0C0484EA0E07541C14F0FC
:1042E00007040F701CD04FEA4C0C4FEA4E0E012E03
:1042F00023D12B4696E000BF13F00302A3F1010087
:1043000038D00C78012A44EA0C0484EA0E0401F83F
:10431000014B25D1034680B20328C0F0EF802DE089
:10432000478F4FF00108394490F89270012F98BFE1
:10433000C44618BFC646012EDBD00C7844EA0C04F4
:1043400084EA0E07941C14F007040F7036D04FEA6D
:104350004C0C4FEA4E0E022E3DD1023B62E000BFF4
:104360000C78022A44EA0C0484EA0E0401F8014B9A
:1043700042D1023B80B20328C0F0C080081F00BFBA
:1043800010F8041F043B41EA0C0181EA0E010170A0
:104390004178827841EA0C0181EA0E01C4784170CB
:1043A00042EA0C0181EA0E01817044EA0C0181EAC3
:1043B0000E011A04C170E3D1A0E000BF478F4FF097
:1043C0000108394490F89270012F98BFC44618BF75
:1043D000C646022EC1D00C78033244EA0C0484EAAB
:1043E0000E040C7012F00704A3F1030310D04FEA7F
:1043F0004C0C4FEA4E0E15E00A78033B42EA0C02E1
:1044000082EA0E0201F8012B80B2032876D3B5E7C9
:10441000428F0126114490F89220012A98BFB44699
:1044200018BFB646AAB2032A38BFBDE8F081012200
:104430000CE000BF458F90F892602944012E98BF90
:10444000944618BF9646043B1D0457D00D78661C51
:1044500045EA0C0585EA0E0576070D7004D04FEA93
:104460004C0C4FEA4E0E08E0458F90F892602944BC
:10447000012E98BF944618BF96460D78A61C45EAB3
:104480000C0585EA0E0576070D7005D04FEA4C0C39
:104490004FEA4E0E09E000BF458F90F89260294424
:1044A000012E98BF944618BF96460D78E61C45EA43
:1044B0000C0585EA0E0576070D7005D04FEA4C0C09
:1044C0004FEA4E0E09E000BF458F90F892602944F4
:1044D000012E98BF944618BF96460D78043445EADD
:1044E0000C0585EA0E0514F007040D70A2D04FEA02
:1044F0004C0C4FEA4E0E043B1D04A7D1BDE8F081E1
:10450000014640F2B8100822C2F200000A7070475B
:104510002DE9F04F81B0834690F8388000689BF811
:10452000396090F81190002501274FF6F87A03E0E2
:10453000DBF8000008350137037CDBF8340005FBAD
:1045400003F101EA0A014418F2B25846002100942E
:1045500000F0B8F80136F0B2484538BF4745E7D318
:1045600001B0BDE8F08F00002DE9F0474FF0000AE0
:104570000D4604464FF6FF7880F86AA000F018FC5C
:10458000626829782046904740451FD0A8F1010174
:104590006F1C00254FF0C0098EB24FF0000A06E0F4
:1045A000626817F8011B20469047404511D081B240
:1045B000B142F5D02046FFF7AFF80546AA44B9F15D
:1045C000C00F08BF94F89090EAE700BF4FF0C00911
:1045D000002594F86A0070B140B2AAEB05010844C6
:1045E00094F990104FFA89F200EB010A012AA4BF56
:1045F0005FFA89F082441FFA8AF0BDE8F087000074
:10460000B0B590F838100568CB00838795F810C0D6
:1046100090F8393095F811E04FEACC0CDA005C18CC
:10462000A0F83AC0C287744588BFAEEB03011944B5
:10463000C900A0F84020A0F8421069694164B0BDEB
:1046400070B582B00446216CB0F84400E164B4F85F
:104650005010B4F85420B4F85230B4F85650002634
:10466000A4F84A002046A4F848600095FFF7FAF83D
:1046700020B3B4F84810B4F850000122814284F805
:104680008C2038BFA4F84800B4F84A10B4F852009F
:10469000814288BFA4F84A00B4F84C10B4F8540022
:1046A000814238BFA4F84C00B4F84E10B4F856005C
:1046B000814288BFA4F84E0002B070BD84F88C60BF
:1046C00002B070BD80B582B0DDF810C0D0F808E04F
:1046D0008DF805108DF806208DF804306B460F21FB
:1046E0000122CDF800C0F04702B080BDD0F808C06C
:1046F0000A21002200236047D0F808C010210022C0
:1047000000236047D0F808C00A460B210023604709
:1047100010B54FF47F44DDF808C0A0F82340FF2413
:104720004FF0000E80F8284000F10804C0F800E0C7
:1047300080F826E084E80E50BDE81040AFF300801A
:10474000D0F808C0092100220023604700294FF655
:10475000FF7008BF70470A2918BF0846704700005D
:10476000D0F810C0192100220023604780B582B024
:104770008DF807100DF10702012100F003F802B0D7
:1047800080BD0000D0F810C013460A4617216047CC
:10479000D0F810C01821002200236047F0B581B086
:1047A00014390C294FF0000037D8DFE801F0353616
:1047B0003607171F363636363636350040F2386C37
:1047C000C2F2000C9CF800E0002A18BF002B27D191
:1047D0000EEB02008CF800001EE000BF40F23860D3
:1047E000C2F200000021017016E000BF40F2386004
:1047F000C2F20000037840F2480040F2B852FF27AE
:10480000C2F20000C2F2000278210097FCF702F920
:1048100010B1002001B0F0BD012001B0F0BD00BF1B
:1048200040F2B850C2F200007044984210D9991872
:1048300081420DD9104412F00303A2F1010417D0F4
:1048400011F8015D012B00F8015D17D123462AE024
:1048500012F00301A2F101040CD01D4615F8017BF2
:104860000646012906F8017B10D13046214634E086
:10487000134618E01D4611462FE000BF11F8015DF8
:10488000022B00F8015D09D1931E0CE05D7802292E
:1048900045701DD1911E9D1C02301EE011F8013D96
:1048A00000F8013DD31E032CFFF492AF0439023807
:1048B000CC78043B44708C7800F804494C7800F8BC
:1048C000034E11F8044900F8024EF1D180E700BF11
:1048D0009E78D11EDD1C86700330032CFFF478AF68
:1048E0002B1F043813F8044F043900F8044F5C7888
:1048F00044709C788470DC78C470F3D168E7000061
:10490000D0F80CC01921002200236047D0F80CC059
:104910000A46162100236047D0F80CC00A4615212C
:1049200000236047D0F80CC013460A4617216047A1
:10493000F0B581B00E4604460DF103050AE000BF54
:10494000A1F11800022817D2E668204600220023B1
:10495000B0473E46374617F8011B1729F0DCA1F196
:104960001500022814D27278E768204600238DF8DB
:104970000320B8470236EDE7FE2915D172782046AC
:1049800029218DF8032000F0F7F90236E2E700BF95
:10499000172909D1707801218DF8030020462A4695
:1049A000FFF7C0FF0236D5E701B0F0BDD0F80CC06C
:1049B0001821002200236047F0B581B01439052981
:1049C00000F2788004461E461546DFE801F0031524
:1049D0002F37596394F824001421FF2804BF78204E
:1049E00084F82400D4F810C020462A46334601B08B
:1049F000BDE8F040604700BF40F23966C2F20006F1
:104A00003078012802D12046FFF7AAFE2046FFF7A2
:104A1000BFFE20460021FFF7A9FE20462946FFF7EA
:104A2000A5FE0120307001B0F0BD00BF2046294630
:104A3000FFF79CFE012001B0F0BD00BF40F23967D6
:104A4000C2F200073878012802D12046FFF788FE1D
:104A5000192D0AD320461821324600F091F9183D4D
:104A6000E8B2182806F11806F4D8E9B22046324612
:104A700000F086F900203870012001B0F0BD00BFC1
:104A800040F23960C2F2000000210170012001B043
:104A9000F0BD00BF40F23965C2F200052878012858
:104AA00002D12046FFF75CFE00202870012001B0F3
:104AB000F0BD00BF002001B0F0BD000010B5D0F87F
:104AC00014C02821002200230446E047D4F80CC07B
:104AD0002046142100220023E04720464B210122DA
:104AE00000F04AF9206829210279204600F044F9B3
:104AF00020464B21002200F03FF92068292102794D
:104B0000204600F039F920464B21012200F034F90B
:104B10002068292142792046BDE8104000F02CB9D8
:104B20008A7C016080F8222070470000B0B50D46F5
:104B3000044600F01FF808B10120B0BD092D0DD0CA
:104B40000A2D15D12046FFF7B9FF47F6F121C0F62F
:104B500000012046FFF7ECFE0120B0BD47F63031E2
:104B6000C0F600012046FFF7DBFF0120B0BD00BF0B
:104B70000020B0BD2DE9F0410B39044604294FF067
:104B8000000088BFBDE8F0811546DFE801F003654D
:104B9000132335002046002D07BF47F62631C0F607
:104BA000000147F62B31C0F60001FFF7C1FE0120DE
:104BB000BDE8F081002D51D047F6EA21C0F6000192
:104BC0002046FFF7B5FE2068C07C84F82200012053
:104BD000BDE8F0812046FFF7E9FE20468121FFF77E
:104BE0009BFE20462946FFF791FE2046FFF788FEF0
:104BF0000120BDE8F08100BF20461E46FFF7D6FE2B
:104C0000707994F8221001EBC007204640215FFA2A
:104C100087F8FFF781FE4FEA181000F110012046D7
:104C2000FFF77AFE07F00F012046FFF76FFEB0791D
:104C300040F0B0012046FFF769FE00BF30793268CE
:104C4000C000C1B22046FFF76DFE013D2806F5D138
:104C50002046FFF755FE0120BDE8F08147F6E3212D
:104C6000C0F600012046FFF763FE2068807C84F8D0
:104C700022000120BDE8F08180B529392A2900F2FF
:104C80007580DFE801F01D236F736C7373737373AA
:104C900073737373737373737373737373737373E4
:104CA0007373737373737373736C6C7373171717F6
:104CB000170000BF002180F82710012080BD00BF31
:104CC0000120FBF7C7FC012080BD00BF002000BF12
:104CD00000BF00BF00BF00BF00BF00BF00BF00BFDC
:104CE00000BF00BF00BF00BF00BF00BF00BF00BFCC
:104CF00000BF00BF00BF00BF00BF00BF00BF00BFBC
:104D000000BF00BF00BF00BF00BF00BF00BF00BFAB
:104D100000BF00BF00BF00BF00BF00BF00BF00BF9B
:104D200000BF00BF00BF00BF00BF00BF00BF00BF8B
:104D300000BF00BF00BF00BF00BF00BF00BF00BF7B
:104D400000BF00BF00BF00BF00BF00BF40F03F0179
:104D500000BFB1F59F7F00F1400000BFB8D901202E
:104D600080BD00BF012000BF80BD00BF012180F8D1
:104D70002710012080BD0000D0F814C00023604738
:104D8000F0B581B017460D460646FFF701FD3046E7
:104D90004021FFF7EBFC3469304617212A463B4699
:104DA000A047304601B0BDE8F040FFF7D9BC000095
:104DB000002180F8261070470FB4054B10B503A9E9
:104DC000044A029800F03EF810BC5DF814FB0000A5
:104DD00025260008000000204100080218BF04201A
:104DE0000A0E18BF40F001004FF07F4232EA010185
:104DF00008BF40F00200012808BF052070470121CC
:104E0000FBF72EBB61214FF0E040FBF729BB6FF0B1
:104E10005E010807FBF724BB02E008C8121F08C1A7
:104E2000002AFAD170477047002001E001C1121F2B
:104E3000002AFBD17047000001490860704700005C
:104E4000040000202DE9FF4F8BB09A460F4605461F
:104E5000002606E025280BD052460D9990476D1C80
:104E6000761C28780028F5D10FB03046BDE8F08FC9
:104E70000024A0460122604900E0044315F8013FE8
:104E8000203B02FA03F00842F7D128782E2817D1E8
:104E900015F8010F44F004042A280ED06FF02F02F9
:104EA0002878A0F1300109290AD808EB880102EB23
:104EB000410100EB01086D1CF2E757F8048B6D1CF3
:104EC000287869283ED006DC0028CDD063280BD096
:104ED000642804D136E0732810D075284BD0524690
:104EE0000D999047761C85E017F8040B8DF80000AB
:104EF00000208DF80100E946012003E057F8049BEB
:104F00004FF0FF3061074FF0000401D40AE0641C49
:104F100044450DDA8442FADB19F804100029F6D171
:104F200006E0641C8442FCDB19F804100029F8D167
:104F3000264404E019F8010B52460D999047641E6F
:104F4000F8D257E001CF4FF00A0B002802DA4042B6
:104F50002D2102E0210504D52B218DF824100121FB
:104F600003E0E10705D02021F7E70DF120090891C2
:104F70000CE00021F9E701CF4FF00A0BF9E75946A1
:104F8000FBF721FA01F1300209F8012D0028F6D1D2
:104F9000ADEB090000F1200B600701D44FF00108D0
:104FA000D84502DDA8EB0B0000E00020804600247D
:104FB00006E009A85246005D0D999047641C761CD6
:104FC00008988442F5DB04E0302052460D99904762
:104FD000761CB8F10001A8F10108F5DC05E019F82C
:104FE000010B52460D999047761CBBF10001ABF1C5
:104FF000010BF4DC6D1C34E7092801002DE9F041B8
:1050000004464FF019404449002500EB4400884213
:1050100042D802212046FBF723FAFBF72DFA074678
:10502000FBF7B8F906466FF001013846FBF718FAAE
:105030002146FBF712F904463849FBF711F93849C4
:10504000FBF7B6F82146FBF70BF93649FBF7B0F84A
:105050002146FBF705F93449FBF7AAF82146FBF78F
:10506000FFF80146314806F00304784450F8240064
:10507000FBF7F6F82E49794451F82410FBF798F81D
:105080002C49794451F82410FBF792F8B11085BBF4
:10509000BDE8F041FBF7E4B94FF0FF4131EA04000D
:1050A00018D04FF0CE41B1EB440F84BF4FF07E508B
:1050B000BDE8F0812049B1EB440F28BF0125A8D2FB
:1050C0000220FFF7B9FE14F0004F0ED0BDE8F0410A
:1050D000FFF79DBE204614F5000F04BF0020BDE879
:1050E000F081BDE8F041FFF78ABEBDE8F041FFF76F
:1050F00089BEFBF7B5F9040012BFB4F1FF4F0220DF
:10510000FFF79AFE2046FFF767FE042808BFFFF767
:105110007EFE2046BDE8F0810000F01E81A41D3C0B
:10512000206E633DEFFD753E1772313F12010000A6
:10513000F6000000DA00000000002C8610B50446DE
:1051400001E0FDF76FFA14F8010B04490028F8D1CB
:10515000BDE810400A20FDF765BA000000000020FD
:105160000000803F0030983F0000B53F0040D73F2F
:1051700000000000320A7E397F661E395B991F39B4
:105180000000803FF037983FF304B53FFD44D73F20
:1051900001020000000000000000010203040607F5
:1051A00008090000000001020304020304050607C9
:1051B00008090A0B0C0D0E0F10100000090000006A
:1051C000B555000824230000ED5300080800000036
:1051D0007F55000824250000345300080900000012
:1051E000C655000824240000805200080800000072
:1051F00063550008242400009C54000803000000AC
:10520000505500080000000001000000A9550008EA
:105210000000000002000000CB5500080000000064
:1052200004000000D6550008000000000500000042
:10523000BB55000800000000FF0000009D5500085D
:105240000000000006000000E25500080000000019
:10525000000000008A550008000000000000000067
:1052600075550008000000000000000069550008A6
:105270000000000008000000965500080000000033
:10528000000000000000801F000000F0FF0100008F
:10529000FCFF070000FFFF0F0080FFFF1F00C0FFA3
:1052A000FF7F00E007007C00F00300FC00F003003B
:1052B000FC01F8FFF1FF01F8FFF1FF03F87FC0FFE9
:1052C00003FC1F00FF03FC0700FE07FC0701FC07AF
:1052D000FCC331F807FCE1F1F807FCF1F1F007FC41
:1052E000F1F1F007FCF1F1F107FCF1F1F107FCF14C
:1052F000F1F103F8F1F1F103F8FFF1FF03F8FFF129
:10530000FF01F0FFF1FF01F0FFF1FF00E0FFF17F8F
:1053100000C0FFFF7F0080FFFF3F0000FFFF0F0086
:1053200000FCFF070000F0FF010000001F0000006C
:10533000000000000000000000000000000000006D
:105340000E000000001F000000801F000000803FD2
:10535000000000C03F000000C03F000000C07F0010
:105360000000E0FF000000F0FF010000FCFF030070
:10537000E0FFFFFF00FCFFFFFF07FEFFFFFF07FC52
:10538000FFFFFF07FCFFFFFF03F8FFFFFF01F0FF38
:10539000FFFF00E0FFFF7F00C0FFFF3F0080FFFF37
:1053A0003F0000FFFF1F0000FFFF1F0000FFFF0F77
:1053B0000000FFFF0F0000FFFF0F0000FFFF0F00C6
:1053C00000FFFF0F0000FFFF1F0000FFFF1F008016
:1053D000FFF01F00803FC01F00801F001F0000075C
:1053E000001C000000000000000000000000001C85
:1053F000000000003E000000007E000000007E0073
:105400000000007F000000007F000000007F00001F
:1054100000807F000000807F000000C07F0000004F
:10542000E07F000000F87F0000F0F8FFFF01FCF8CB
:10543000FFFF07FCF8FFFF07FEF8FFFF07FEF8FF7E
:10544000FF07FEF8FFFF07FEF8FFFF07FEF8FFFF6C
:1054500007FEF8FFFF03FEF8FFFF03FEF8FFFF0360
:10546000FEF8FFFF03FEF8FFFF01FEF8FFFF01FE5D
:10547000F8FFFF01FEF8FFFF01FEF8FFFF00FEF856
:10548000FFFF00FCF8FF7F00FCF8FF3F00F8F8FF8B
:105490001F000000000000000000000000000000ED
:1054A000000000000000000000000000000C0000F0
:1054B00000001C000000003C00000000FC00000098
:1054C00000FC01000000FC03000000FC07000000DD
:1054D000FC0F000000FE1F0000F8FF3F0000FFFF70
:1054E000FF00C0FFFFFF01E0FFFFFF03F0FFFFFF32
:1054F00007F0FFFFFF0FF8FFFFFF0FFCFFFFFF07A5
:10550000FCFFFFFF03FEFFFFFF01FEFFFFFF00FFA9
:1055100003FE3F00FF00FC1F003F00FC0F001F00C8
:10552000FC07000700FC03000300FC01000100FC75
:10553000000000003C000000001C000000000C0007
:10554000000000000000000000000000000000005B
:105550004D61696E55490048656C6C6F20576F72DC
:105560006C64005368617265002D446572697661F0
:1055700074697665002D496E74656772616C0043CD
:105580006F6C6C656374696F6E002D50726F706F15
:105590007274696F6E0052657475726E002D506C76
:1055A000617920566964656F002B50494420456439
:1055B00069746F72004C696B6573002D5465787463
:1055C000204564697400536C6F74002D49636F6EDD
:1055D0002054657374002D436861727420546573A0
:1055E00074007B2041626F7574207D005B206C69C4
:1055F0006E653A202564207C2066756E6374696F41
:105600006E3A202573205D202573203D2025640DF2
:105610000A006B65795F7363616E006B6579735B1C
:10562000695D2E637572000001460008414600085E
:10563000F13B00089B00030204040304050C0D0069
:10564000FE08FE0AFF016102CE04172005004C0B84
:10565000210791468B53002207347D8BC814230EFB
:1056600096C49BA86558A25E86256A01240FA53CB6
:10567000AB6CA92899A8254A658B002510963C9B00
:1056800028E9A225619A4449172D01260E8544ABCD
:105690002C8992AC322551A404270631FE8A0128B8
:1056A0000BB33DAB244AA26E5116290CB33D8B2C93
:1056B000CAA22E5112012A0C7544AB4AE5A02C4D0A
:1056C00011002B0B7744BCB8360C595C032C073205
:1056D0003E0B45012D0615648B412E0621C60A019D
:1056E0002F0CC43CBBA6AC9495B21A00300A85447A
:1056F0009B25F32D5900310985448BB14F8300322E
:105700000B85449B250B6B6D8300330C85448B21EB
:105710000D93350C0705340E86C43B2D89BA64C938
:1057200030A60900350D85448B2109C3210DC341E5
:1057300001360D85449B250C8724B3250B00370BC0
:1057400085448B41AC85595802380D85449B25D33F
:105750009225B3250B00390D85449B25B32543A81D
:10576000250B003A06614409493B09823E8B2156CC
:1057700014003C089544CBAC6B073D08355C8B416D
:105780001D043E0995448BB45B47003F0D95449B37
:1057900025D3C248CBA130024014A73CACAD9248FF
:1057A0005A22294A45A9488992651300410E874427
:1057B000BC384DC2242B0D4AAA06420D86C48B412B
:1057C00009C561098DC302430C86C49B2109D58E8E
:1057D000C99000440D87448C410A93D46332480039
:1057E000450A85448B63388CC541460B85448B63E1
:1057F0003824612300470D86C49B2109D5DA282669
:105800008300480B86C48BD0380CA2630049088300
:10581000448A25EA654A08A334AAFEB4004B0D85E4
:10582000448B4C4A4A9A9644952C4C0985448BB03B
:105830008F83004D1087440C6DC8968A529122299F
:1058400052D5004E0D86C48B70532229D146630079
:105850004F0C8744ACAD92BA26593601500C8544A2
:105860008B21C96C83121601510D973CACAD92BAD5
:105870002659B62700521086C48B21CA922CC99291
:10588000216A4BC200530C85449B414CD7301C14F9
:1058900000540987448C4316F70D550A86C48BD0F3
:1058A0008FC99000560F87448C544DB228AB844961
:1058B0001A6700571189448D2CD332ADD229694A19
:1058C000DA8A5904580D86C48B504CA24C8B5A422C
:1058D00031590B87448C34C92A69DC0D5A0A874434
:1058E0008C43DAE761085B09B33E8B21EA4F035C26
:1058F0000CA53C8B300DD3300DD3305D09B33D8BFF
:10590000A93F0D015E083574AB2CA9055F06153C57
:105910008B41600732FD8A240A610C65449B254B4C
:10592000064D4B8600620C85448B301C92CC6D502A
:1059300000630864C49A216B1C640B8544CBCAA025
:10594000B9254300650B65449B251B86301D026607
:105950000983449A69883A01670C85349B41734BEB
:1059600086305900680B85448B301C92CC5B0069F3
:105970000781448964186A08A2B4992CE9656B0D03
:1059800085448BB09494B424AA64016C0781448943
:1059900083006D0E67448C45892229922229920A40
:1059A0006E0965448B21C9BC056F0A65449B25734C
:1059B0004B1600700C85348B21C9DC06250C017157
:1059C0000B85349B41734B86B000720863448A2177
:1059D000EA04730C65449B254BD4244B1600740ACF
:1059E00083448A281AA23601750965448BCC5B3240
:1059F00004760C65448B4C4B4A49164600770E677B
:105A0000448C289222A5A2748BB204780B65448B37
:105A10002CA9556A5A00790D85348B4C4B4A49168E
:105A20006661067A0A65448B41CCDA06017B0BA3DA
:105A30003CAA24AA64515B007C07B1BE8A07017DA1
:105A40000BA33C8A2CAA25514B047E0726DC1BC9DC
:105A500002800F95442BA9920D5136446114290000
:105A60000000000C593909C9706B0AA4FFFF20130C
:105A7000081B658E07014E000A2B647E28190E0252
:105A80004E0A17BB3CDE1CCBB11CCBB141CEB11CC6
:105A9000CBB11C4B8783004E0B16AB3C8E0735C732
:105AA000724C87921C89F228CFB11C4B014E0D1904
:105AB000BB3C8E0739C7722887943889C2288BB2BD
:105AC00050CCB11C4B014E2A16BA3DCE1CCA917265
:105AD00016466D9998433994433994024E2D16B960
