:020000040800F2
:10000000D00D002045010008FD2A0008A92600089F
:10001000F92A0008D5090008E12B000800000000BB
:10002000000000000000000000000000052B000898
:10003000D909000800000000012B0008092B000866
:100040005F0100085F0100085F0100085F01000810
:100050005F0100085F0100085F0100085F01000800
:100060005F0100085F0100085F0100085F010008F0
:100070005F0100085F0100085F0100085F010008E0
:100080005F0100085F0100085F0100085F010008D0
:100090005F0100085F0100085F0100085F010008C0
:1000A0005F0100085F0100085F0100085F010008B0
:1000B0005F0100085F0100085F0100085F010008A0
:1000C0005F0100085F0100085F0100085F01000890
:1000D0005F010008D52B00085F0100085F010008E0
:1000E0005F0100085F0100085F0100085F01000870
:1000F0005F0100085F0100085F0100085F01000860
:100100005F0100085F0100085F0100085F0100084F
:100110005F0100085F0100085F0100085F0100083F
:100120005F0100085F0100085F0100085F0100082F
:10013000DFF80CD000F00AFB00480047A1320008AD
:10014000D00D00200648804706480047FEE7FEE73E
:10015000FEE7FEE7FEE7FEE7FEE7FEE7FEE7FEE777
:100160000D2B000831010008D2B201E000F8012B8C
:10017000491EFBD270470022F6E710B513460A4627
:1001800004461946FFF7F0FF204610BD80EA010241
:1001900010B502F00043400022D04A001FD0010EEB
:1001A00001EB1261C0F35600C2F3560240F40000A6
:1001B00042F40002A0FB022000047F39140400D0A6
:1001C000401C50EA124001D44000491EC2B20C0645
:1001D00004EBD010401C4008802A02D003E000202D
:1001E00010BD20F00100002900DA0020184310BDE6
:1001F00030B480EA010202F0004530F0004221F004
:10020000004013D090B1C30DD40DC2F31601C0F35A
:100210001600E41A41F4000140F400027D349142DA
:1002200001D3641C00E04900002C02DA30BC00203D
:1002300070474FF400000023914201D3891A034311
:1002400040084FEA4101F7D151B1914202D14FF03C
:10025000004105E002D24FF0010101E06FF0010121
:1002600003EBC450284430BC00F081B8C10F80EAD1
:10027000E0700844CA079623002100F081B8962355
:100280000022114600F07CB800F0004220F000404F
:10029000C10DC0F3160040F400007F2901DA0020F0
:1002A0007047962903DCC1F19601C84001E09639F8
:1002B0008840002AF4D04042704700F0004230F0FD
:1002C00000400AD0C10D01F56071C0F3160042EA8A
:1002D0000151C20840071143704700200146704792
:1002E00030B50B46014600202022012409E021FA06
:1002F00002F59D4205D303FA02F5491B04FA02F503
:100300002844151EA2F10102F1DC30BD2DE9F05F99
:100310000546002092469B46884606468146402474
:100320001BE0284641464746224600F030FA534635
:100330005A46C01A914110D311461846224600F081
:1003400017FA2D1A67EB01084F46224601200021BB
:1003500000F00EFA17EB00094E41201EA4F1010433
:10036000DFDC484631462A464346BDE8F09F002977
:10037000A8BF7047401C490008BF20F0010070472B
:1003800010B4B0FA80FC00FA0CF050EA010404BF8B
:1003900010BC704749B1CCF1200421FA04F411FAE1
:1003A0000CF118BF012121430843A3EB0C01CB1D25
:1003B0004FEA00614FEA102042BF002010BC704796
:1003C00000EBC35010440029A4BF10BC7047401C70
:1003D000490008BF20F0010010BC70472DE9FE4F16
:1003E000804681EA0300C00F0C46009021F00041D6
:1003F00023F00045B8EB0200A94105D24046214652
:1004000090461C460B46024623F00040104347D05E
:10041000270DC7F30A00C3F30A510290401A019056
:1004200040286BDAC3F3130040F4801B0098924617
:1004300020B10023D2EB030A63EB0B0B0198594662
:10044000C0F14002504600F093F906460D46504672
:100450005946019A00F0ABF910EB08006141002405
:1004600087EA115284EAE7731A4340D0009A62B3D4
:10047000019A012A4FEA075215DC001B61EB0201C9
:100480004FF0004202EA0752CDE90042001C41F55C
:10049000801132462B4600F0ABF903B0BDE8F08F77
:1004A00040462146F9E7001B61EB0201001C41F5C3
:1004B000801300185B412018A2F5001747EB0301D9
:1004C00040EAD570B6196D4111E06D084FEA360665
:1004D00045EAC0754FEA0752001B61EB0201001CA0
:1004E00041F5801149084FEA300000195141324668
:1004F0002B4603B0BDE8F04F00F06BB90098012225
:1005000040000023D0EB020263EBE0730098214629
:100510004FEAE074B8EB000061EB0401E9E783F017
:1005200000435BE781F0004158E72DE9FE4F81EA87
:10053000030404F0004421F0004100944FF0000B4C
:1005400023F0004350EA01045ED052EA03045BD07A
:10055000C3F30A54C1F30A552C44A4F2F3340194B2
:10056000A0FB0254C1F3130141F48011C3F3130340
:1005700043F4801301FB024400FB034E840A970AF4
:1005800044EA815447EA8357A4FB076802958D0A21
:1005900005FB07854FEA932C04FB0C542705029DAD
:1005A0004FEA065847EA1637B5EB08056EEB070C1D
:1005B000870E920E47EA811742EA8312A7FB0201D7
:1005C000B6EB0B0164EB00042B0D43EA0C335E1811
:1005D00044EB1C50DA465146E7FB0201C5F3130415
:1005E0004FEA0B3343EA14534FEA0432019C43EAC7
:1005F0000603A4F10C040294009CCDE900B400F0C1
:10060000F7F803B0BDE8F08F00200146F9E72DE9C7
:10061000F04D81EA030404F0004B21F0004514463C
:100620004FF0000A23F0004150EA050220D054EABE
:1006300001021DD0C5F30A570246C5F31303C1F3E7
:100640001300C1F30A5640F4801543F48013A7EB5E
:100650000608101BD64608F2FD3873EB050002D3DE
:1006600008F1010801E092185B41B8F1000F03DACC
:1006700000200146BDE8F08D00204FF480110646B1
:1006800084460EE0171B73EB050705D3121B63EBC3
:10069000050306434CEA010C49084FEA3000921862
:1006A0005B4150EA0107EDD152EA030012D082EA21
:1006B000040083EA0501084305D0101BAB4106D2B4
:1006C0000122002306E000224FF0004302E06FF019
:1006D000010253101AEB06004CEB085110EB0A0014
:1006E00041EB0B01BDE8F04D00F073B8C1F30A52C5
:1006F000C1F3130140F2FF3341F480119A4202DA50
:1007000000200146704740F233439A42A2F233423E
:1007100002DC524200F03BB800F02AB830B5041EAB
:1007200071F1000404DB4FF00044404264EB01012E
:10073000141E73F1000405DB1C464FF000435242C7
:1007400063EB0403994208BF904230BD064C074D4D
:1007500006E0E06840F0010394E807009847103491
:10076000AC42F6D3FFF7E8FC289300084893000852
:10077000202A04DB203A00FA02F100207047914061
:10078000C2F1200320FA03F3194390407047202A56
:1007900004DB203A21FA02F00021704721FA02F32B
:1007A000D040C2F120029140084319467047202AE8
:1007B00006DBCB17203A41FA02F043EAE07306E089
:1007C00041FA02F3D040C2F1200291400843194699
:1007D000704710B5141E73F1000408DA401C41F193
:1007E000000192185B411A4301D120F0010010BDB5
:1007F0002DE9F04D92469B4611B1B1FA81F202E02B
:10080000B0FA80F220329046FFF7B2FF04460F465E
:1008100040EA0A0041EA0B0153465A46084313D006
:10082000114653EA010019D0C8F140025046FFF7C3
:10083000AEFF05460E46504659464246FFF798FF22
:10084000084305D0012004E020463946BDE8F08D7C
:100850000020054346EAE0762C4337430A986305B7
:10086000E40AA0EB08000022FD0A44EA47540A30DB
:1008700002D500200146E9E7010510196941DDE9CB
:10088000084500196941BDE8F04DA2E730B58C1864
:1008900010F8012B12F00F0301D110F8013B1209DF
:1008A00006D110F8012B03E010F8015B01F8015BA1
:1008B0005B1EF9D101E001F8013B521EFBD1A142C0
:1008C000E6D3002030BD0000B0B504460068816862
:1008D000C90709D0816821F00101816000F0F8FCAE
:1008E00021688968C90701D10020B0BD054602E032
:1008F0008068C007F8D000F0EBFC411B206803299A
:10090000F6D38168C907F3D0A06A40F01000A06256
:10091000E06A40F00100E0620120B0BDB0B582B0F5
:1009200004460020019021688A68D2074FD1886868
:1009300040F00100886040F21000C2F20000006840
:100940004DF68361C4F21B31A0FB0101880C0190BC
:100950000198A0B1019801380190019878B10198EF
:1009600001380190019850B1019801380190019827
:1009700028B101980138019001980028EAD100F0CF
:10098000A7FC21688968C9071CD1054603E000BFA0
:100990008068C0071AD100F09BFC411B2068032926
:1009A000F6D38168C907F3D1A06A40F01000A062B5
:1009B000E06A40F00100E062002084F82400012099
:1009C00002B0B0BD002002B0B0BD00BF002002B038
:1009D000B0BD0000FEE70000704700007047000057
:1009E00070B582B004460020019094F824000128DC
:1009F00004D10225284602B070BD00BF012084F852
:100A000024002046FFF760FF054600286ED1A06A4B
:100A100041F2021188430230A06240F21000C2F29B
:100A200000000668022000F00FFFB6FBF0F0400067
:100A300001900198A8B100BF019801380190019878
:100A400078B1019801380190019850B101980138AE
:100A50000190019828B1019801380190019800286F
:100A6000EAD12046FFF75AFF2068816841F008016B
:100A7000816000F02DFC216851F8082F120711D574
:100A8000064602E0816809070AD500F021FC811BB7
:100A900020680B29F6D381680907F3D51EE000BF53
:100AA00000F10801086840F00400086000F010FC44
:100AB00021688968490703D401206FF0030111E020
:100AC000064602E080684007F6D500F001FC811B75
:100AD00020680B29F6D381684907F3D5012510203A
:100AE0006FF01201A26A11400843A062002084F84E
:100AF0002400284602B070BDB0B581B0002200923B
:100B000090F82420012A03D10221084601B0B0BD8B
:100B10004B680122062B80F8242023D8D0F800C08F
:100B200003EB830362465D1F1F2352F834EF03FA81
:100B300005F40B682EEA040E03FA05F444EA0E05E8
:100B4000092B15602DD8DCF8102003EB4303072593
:100B500089689D40AA4399401143CCF810100021A8
:100B60003FE000BFD0F800C00C2B624606D852F818
:100B700030EF03EB8303A3F1230405E052F82CEFDD
:100B800003EB8303A3F141041F2303FA04F50B686D
:100B90002EEA050E03FA04F444EA0E05092B15604B
:100BA000D1D903EB4305DCF80C201E3D07248968EE
:100BB000AC40A243A940114323F00102102ACCF813
:100BC0000C100DD142F20841C4F20101A1F108025A
:100BD00094450DD0816A41F020018162012100E03D
:100BE0000021002280F82420084601B0B0BD00BFDB
:100BF0000A68120230D40A68102B42F400020A601C
:100C00002CD140F21001C2F2000109684DF6836256
:100C1000C4F21B32A1FB0212910C01EB81014900CD
:100C200000910099E1B10099013900910099C9B191
:100C30000099013900910099B1B1009901390091F1
:100C4000009999B1009901390091009900294FF05C
:100C50000001E8D1C5E700BF0021C2E70021C0E7DD
:100C60000021BEE70021BCE70021BAE70021B8E778
:100C70000068C06C70470000002804BF0120704766
:100C800070B50646044656F8280F28B121688868D2
:100C9000C0070CD115E000BF0020E06284F82400FA
:100CA000204600F0A7F821688868C00709D0886846
:100CB00020F00100886000F00BFB21688A68D207F1
:100CC00030D13068C00644D4A06A41F20212904389
:100CD0000230A062E36981F0804080F49E3083F4AA
:100CE0004022104308BF4FF40023D4E9010243EA35
:100CF000000C531EB3FA83F35D091346B2F5807FEF
:100D000018BF2B02207D257B01284CEA450030D1FD
:100D100035B3A56A45F02005A562E56A45F00105F1
:100D2000E56226E0054602E08868C007C9D000F009
:100D3000CFFA401B21680328F6D38868C007F3D098
:100D4000A06A40F01000A062E06A40F00100E0629A
:100D5000A06A306840F010010120316070BD00BF12
:100D6000D4F818C04EF60005CFF6FF7505EB4C35EC
:100D70002B434D68B2F5807F25F4694543EA0503AE
:100D80004B608B684FF2FD75CFF6E17503EA050302
:100D900043EA00038B6001D0012A07D122690023B6
:100DA000CFF6F07303EB025201E000BF0022CB6AE2
:100DB00023F470031A43CA62896840F6FE62CFF6D4
:100DC0001F721140814207D10020E062A16A012216
:100DD00062F30101316070BDA06A40F0100020F0A4
:100DE0000200A06254F82C0F40F0010101202646B9
:100DF000316070BD80B586B0014640F60000C4F297
:100E00000100096800F5E05291424FF00001CDE980
:100E1000041101D006B080BD41F21801C4F20201F4
:100E20000A6842F400720A600A6802F400720192D1
:100E3000019A0A6842F004020A60096801F004019C
:100E400001910199022102910321039102A900F06D
:100E500035F906B080BD000010B5044690F82400B6
:100E6000012804BF022010BD012084F82400204680
:100E7000FFF754FD20B1002184F8241010BD00BFFD
:100E800042F2044C2068A16AC4F2010C40F2013223
:100E900091430CF57F7201F580719042A16233D0CD
:100EA000A16A21F48011A1624168490504D5A16AB3
:100EB000012363F30D31A162A16A0023C9044FF03D
:100EC000000144BFE16A21F00601E1626FF0020116
:100ED00084F824300160816801F46021B1F5602F4D
:100EE00006D190420AD1DCF8001011F4702F05D021
:100EF000816841F480118160002010BD816841F457
:100F0000A0018160002010BDDCF8001011F4702FEA
:100F1000C6D0A16A41F48011A162DCF80010490535
:100F2000C5D4C9E7014690F82100022816D1086807
:100F3000D1E90FC3026822F00E020260026822F0BB
:100F400001020260012000FA03F2CCF8042081F8CB
:100F500021000020002281F82020704704208863AF
:100F60000120002281F820207047000080B590F811
:100F70002110022928D1026840F2040C1368C4F23F
:100F8000020C23F00E03136013680CF17C018A42FB
:100F900023F0010111601BD940F20841C4F20201A3
:100FA0008A4249D040F21C41C4F202018A4247D031
:100FB00040F23041C4F202018A4245D14FF48073BD
:100FC000CCF800345DE000BF04218163012080BDC6
:100FD0004321C4F202018A420EDD6B21C4F20201F8
:100FE0008A421BDC4421C4F202018A423CD05821CF
:100FF000C4F202018A4233E00821C4F202018A42AB
:1010000036D01C21C4F202018A4237D03021C4F20A
:1010100002018A4224D14FF4807230E06C21C4F284
:1010200002018A4226D08021C4F202018A4217D1ED
:101030004FF0807223E000BF0123CCF8003420E0A1
:101040001023CCF800341CE00CF588614FF4803399
:101050008A4208BF4FF48053CCF8003411E000BF3F
:101060004FF480320BE000BF4FF4805207E000BF26
:10107000012204E04FF4801201E000BF1022CCF8FE
:101080000020416B4FF48072028401B18847002038
:1010900080BD0000B0B5044600F01AF9054640F2E4
:1010A0000800C2F200000078611C18BF044400BFB1
:1010B00000F00EF9401BA042FAD3B0BD2DE9F04F6D
:1010C00082B0D1F800C0BCF1000F00F0F180A0F1B7
:1010D000804241F60045A2F58432C4F2010540F297
:1010E000004E4FEAB2240627A842C4F2010E08BF00
:1010F0000527052C4FF000044FF001084FF00F03B7
:101100004FF0000A4FF0000B38BF4FEAB2270097AC
:101110000AE000BFD1F800C00AF1010A3CFA0AF265
:1011200004F1040400F0C48008FA0AF91CEA090F6B
:10113000F0D04E684FF6FF72C1F21002964211DCF9
:10114000122E55D8DFE806F0340A4448545454545B
:101150005454545454545454544C5000D1F80CB07A
:1011600046E000BF4FF6FF72C1F2210296420FDC4B
:101170000022C1F2110296421AD00022C1F21202DC
:10118000964215D00022C1F22102964210D02FE0E3
:101190000022C1F2220296420AD00022C1F231029C
:1011A000964205D00022C1F23202964220D100BF01
:1011B0008A684AB1012A14BFC0F81490C0F8109090
:1011C0004FF0080B14E000BF4FF0040B10E000BF1D
:1011D000CA6802F1080B0BE04FF0000B08E000BFFB
:1011E000CA6802F1040B03E0CA6802F10C0B00BFED
:1011F00022460646BAF1080F24BF203A0436376863
:1012000003FA02F5AF430BFA02F23A433260CA79AD
:10121000D2067FF57FAF41F21807C4F202073A68A1
:101220004FF6084342F001023A603A68CFF6FF7386
:1012300002F001020192019A2AF0030272440F2582
:10124000D75804F00C06B540AF43009D05FA06F6EA
:101250003743D7504E680F23F203DEF8002054BF07
:1012600022EA090242EA0902CEF80020DEF8042050
:10127000B70354BF22EA090242EA0902CEF8042069
:10128000F702DEF8082054BF22EA090242EA090206
:10129000B70240F20C47CEF80820C4F201073A68C2
:1012A00054BF22EA090242EA09023A6032E700BF6B
:1012B00002B0BDE8F08F00008068084018BF012030
:1012C00070470000002A08BF090401617047000050
:1012D00040F2C870C2F200000068704770B5B8B341
:1012E000044690F83D0028B9002084F83C002046D0
:1012F00000F0C4F9242084F83D002068016821F042
:1013000001010160016841F400410160016821F4BC
:101310000041016000F086FC48F28041C0F21E01ED
:1013200040F60013D4F804E088424FF00001C0F208
:101330003D0348F2A16C4FF0000238BF01219842F2
:10134000C0F2010C38BF0122E64538BF0A460AB197
:10135000012070BD4DF68361C4F21B31A0FB011268
:101360002168950C4B684FF4967623F03F0343EACF
:101370009243754344F6D3564B60C1F262060B6A42
:10138000A5FB0656B50923F03F03E64538BF950C8B
:101390006A1C1A430A62CA6948F2A0664CF6FF73D7
:1013A000C0F20106B64522EA03020BD801384FEA23
:1013B0004E03B0FBF3F001306FF31F30042898BFE9
:1013C00004201EE0A368013863B119230EFB03F368
:1013D000B0FBF3F001306FF31F3078B100F58040BF
:1013E00008E000BF0EEB4E03B0FBF3F001306FF3EB
:1013F0001F3028B100F5004003E000BF012000E0ED
:1014000001201043C8610868D4E9072320F0C00018
:10141000104318430860886848F2FF3204F10C0654
:1014200090434CCE18431043A5698860C86820F0EB
:10143000FF0030432843C860086840F0010008609E
:1014400000202021206484F83D10206384F83E00B1
:1014500070BD00002DE9F04782B01E4617468A464F
:101460000446FFF735FF94F83D1020291ED1DDF822
:101470002890054620688169890713D5FFF728FF62
:10148000401B1A28F6D300202021206384F83D1049
:1014900084F83E00216C41F02001216484F83C0076
:1014A00004E000BF94F83C10012903D1022002B0EF
:1014B000BDE8F087012184F83C100168C90703D119
:1014C000016841F001010160016840F2020821F465
:1014D00000610160212184F83D10102184F83E1044
:1014E0000021216467626685618DC0F20108218553
:1014F000A8F10211E162E16A11F5803F18BF0129EC
:1015000040F09680016841F48071016019F1010199
:101510002DD0B9F1000F23D14169C90731D1FFF7AF
:10152000D7FE00202021206384F83D1084F83E007F
:10153000216C41F020012164216884F83C00086896
:10154000C00544BF4FF400702064012002B0BDE824
:10155000F08700BFFFF7BCFE401B4845E1D820687C
:101560004169C907F6D00CE04169C90709D1416951
:10157000C90701BF41695FEAC17141695FEAC17191
:10158000F2D02169B1F5804F02D10AF0FE0110E0DE
:10159000062101EADA11F031016108F10601204665
:1015A0004A462B4601F0E2F80028CED120685FFAC7
:1015B0008AF10161204641464A462B4601F0D6F8A1
:1015C0000028C2D100200190206841690191806902
:1015D0000190019806E000BF204649462A4601F0E6
:1015E00065F868BB208DC8B3204649462A4601F0FD
:1015F0002BF928BB606A2168024612F8013B0B6197
:101600006262628D013A6285228D571E27854B6981
:101610003F0418BF13F00403DED0437802300B619F
:101620006062608D01386085901E2085D4E700BF20
:1016300008293FF467AF216B12293FF463AF65E7D8
:10164000206C04287FF481AF2068016841F40071A8
:101650000160012002B0BDE8F08700BF206801688A
:1016600041F400710160202084F83D00002084F8DE
:101670003E0084F83C0002B0BDE8F08710B586B0AB
:1016800045F600010068C4F200010022884204927D
:1016900002D006B010BD00BF41F21804C4F202042B
:1016A000206840F008002060206800F008000190E9
:1016B00001984FF44060029012200390032005909F
:1016C00001F5344002A9FFF7F9FC606840F480009E
:1016D0006060606800F480000190019806B010BD61
:1016E00040F2080040F2C871C2F20000C2F20001EC
:1016F00000780A68104408607047000080B542F224
:101700000000C4F20200016841F0100101600320F2
:1017100000F08AF8002000F005F800F027F800201B
:1017200080BD000070B540F20806C2F2000640F22B
:1017300010013278C2F200014FF47A730968B3FBEA
:10174000F2F20446B1FBF2F1084600F099FC0F2CCE
:101750004FF0010508D838B94FF0FF30214600227C
:10176000002500F035F87460284670BD82B041F263
:101770001800C4F202000168022241F00101016078
:10178000016801F0010101910199416841F0805126
:101790004160406800F08050009000980420C4F23E
:1017A0000100016862F31A61016002B07047000035
:1017B000002848BF704700F01F01012202FA01F122
:1017C0004EF200124009CEF2000242F8201070479B
:1017D00010B54EF60C5CCEF2000CDCF80030C3F312
:1017E000022E8EF00704042C28BF0424BEF103034C
:1017F0004FF0FF3E0EFA04F438BF0023A143994096
:101800000EFA03F39A4300F00F03043B11436344C1
:1018100009010C3300F16042B0F1FF3FC8BF02F58F
:101820006443197010BD00004EF60C51CEF2000159
:101830000A684FF6FF031A4060F30A2242F0806004
:1018400040F0FD700860704780B5411E0F294FF0D1
:10185000000039D8DFE801F00C2A38083838380899
:10186000383838383838383ABDE8804000F002BAA5
:1018700041F20400C4F20200C16940F202320A409F
:10188000B2F5817F04BF4FF4004080BD01F4407188
:10189000B1F5407F4CD0B1F5007F51D1006A49F6D7
:1018A0004041800701EAE07080BD00BF00F0CEF942
:1018B00041F20401C4F2020109680222C1F381313C
:1018C00002EB4101B0FBF1F080BD00BF41F2040129
:1018D000C4F202010A6851F8040CC0015CBF002088
:1018E00080BDC2F3834017A3185CD20306D440F630
:1018F0000012C0F23D0250430CE000BF0A6815A37D
:10190000C2F340429A5C41F20023C0F27A03B3FB77
:10191000F2F250430968490248BF80BD4AF6AB2144
:101920004000CAF6AA21A0FB0101480880BD00BF03
:1019300050F8040C4FF22441800301EAE07080BDAE
:10194000002080BD02030405060708090A0B0C0DE0
:101950000E0F1010010200002DE9F04182B0044684
:10196000007841F21C06C007C4F202064AD0306873
:1019700010F0805808D1306840F0805030603068F6
:1019800000F080500190019847F20007C4F2000770
:101990003868C00512D4386840F480703860FFF7AA
:1019A00097FC05463868C00508D4FFF791FC401B3A
:1019B0006428F7D9032002B0BDE8F081706810F404
:1019C000407012D0616801F4407188420DD0706897
:1019D00040F24042C4F24222012320F440711360DD
:1019E0000023C007136071602AD17068616820F419
:1019F00040700843B8F1000F706003D1306820F0E8
:101A0000805030602068810707D556F8181CA268FE
:101A100021F44041114346F8181CC00604D40020AC
:101A200002B0BDE8F08100BF56F8180C616920F4DF
:101A30008000084346F8180C002002B0BDE8F08191
:101A4000FFF746FC054641F2883700BF7068800703
:101A5000CBD4FFF73DFC401BB8424FF00300F5D953
:101A6000EBE700002DE9F04381B0002800F085800D
:101A700042F20008C4F202080446D8F800000D46FD
:101A800000F0070088420CD2D8F8000020F00700D0
:101A90002843C8F80000D8F8000000F00700A8426A
:101AA0006BD1206841F204098107C4F2020917D5FD
:101AB000410705D5D9F8001041F4E061C9F80010DC
:101AC000010705D5D9F8001041F46051C9F800109C
:101AD000D9F80010A26821F0F0011143C9F80010F4
:101AE000C00741D1D8F8000000F00700A8420CD987
:101AF000D8F8000020F007002843C8F80000D8F804
:101B0000000000F00700A84237D12068410707D540
:101B1000D9F80010E26821F4E0611143C9F800101F
:101B2000000708D5D9F80000216920F4605040EA88
:101B3000C100C9F80000D9F8002002F00C00082804
:101B400041F20020C0F27A0050D146F60613C2F3EB
:101B50008341C0F60003595CD2033BD440F6001029
:101B6000C0F23D00484341E0606802280AD00128E5
:101B70002AD159F8041C890308D4012001B0BDE81A
:101B8000F08300BF59F8041C8901F6D5D9F800107C
:101B900021F003010843C9F80000FFF799FB06464E
:101BA00041F28837D9F80000616800F00C00B0EB12
:101BB000810F97D0FFF78CFB801BB842F2D903202E
:101BC00001B0BDE8F08300BF59F8041C8907D4D5E3
:101BD000DCE700BFD9F8002046F6EC03C2F3404230
:101BE000C0F600039A5C4843B0FBF2F0D9F800104D
:101BF00046F6EE02C1F30311C0F60002515C40F25A
:101C0000100220FA01F140F20C00C2F2000000685C
:101C1000C2F200021160FFF785FD002001B0BDE8AF
:101C2000F083000040F2100041F20401C2F2000013
:101C3000C4F202010068096846F6FE02C1F30221FF
:101C4000C0F60002515CC8407047000040F210002E
:101C500041F20401C2F20000C4F202010068096806
:101C600046F6FE02C1F3C221C0F60002515CC84034
:101C70007047000041F2040CC4F2020CDCF80030A2
:101C800003F00C00082841F20020C0F27A0018BFCF
:101C9000704746F60611C3F38342C0F600018A5C22
:101CA000D90305D440F60010C0F23D005043704700
:101CB000DCF8001046F6EC03C1F34041C0F6000327
:101CC000595C5043B0FBF1F0704700002DE9F04142
:101CD00082B0002868D00446007841F20006C007B0
:101CE000C4F2020625D0706800F00C0004281BD056
:101CF000706800F00C00082802D17068C00313D48B
:101D00006068002800F06881B0F5A02F00F07C81A9
:101D1000B0F5803F00F07C81306820F48030306086
:101D2000306820F4802076E13068800301D5606857
:101D3000D0B32078800718D5706810F00C0F07D04A
:101D4000706800F00C0008286ED17068C0036BD476
:101D50003068800702D52069012825D13068616983
:101D600020F0F80040EAC1003060207800071FD45E
:101D70002078400732D4E56995B1706800F00C0016
:101D8000082840F08F80012D0ED07068216A00F481
:101D900080328A4208D1616A00F47010884203D10F
:101DA000002002B0BDE8F081012002B0BDE8F08162
:101DB000A069002862D00020C4F242200121C0F8AE
:101DC0008014FFF785FA0546706A800700F18C8061
:101DD000FFF77EFA401B0228F6D92AE1F06910F0DD
:101DE000805808D1F06940F08050F061F06900F04F
:101DF00080500090009847F20007C4F2000738684E
:101E0000C00529D4386840F480703860FFF760FA64
:101E1000054600BF3868C0051ED4FFF759FA401BBD
:101E20006428F7D905E100BF2069002840F20000CE
:101E3000C4F2422000F0828001210160FFF748FADD
:101E4000054600BF306880073FF588AFFFF740FACE
:101E5000401B0228F6D9ECE0E068002800F0808002
:101E6000052800F09780012800F09880306A20F063
:101E700001003062306A20F0040092E00020C4F2D9
:101E800042200021C0F88014FFF722FA054600BF67
:101E9000706A80077FF56CAFFFF71AFA401B0228C3
:101EA000F6D9C6E00027C4F2422700203866FFF7C3
:101EB0000FFA022D05460BD13068800140F1BE803B
:101EC000FFF706FA401B02284FF00300F4D968E739
:101ED000306880017FF564AFFFF7FAF9401B0228F4
:101EE0004FF00300F4D95CE740F21000C2F20000AA
:101EF000006844F6D351C1F26201A0FB0101480A17
:101F0000019000BF00BF0198411E002801913FF4DD
:101F10002FAF00BF0198411E002801913FF428AF68
:101F200000BF0198411E002801913FF421AF00BF7E
:101F30000198411E00280191E4D119E700210160B8
:101F4000FFF7C6F9054600BF306880077FF50DAF83
:101F5000FFF7BEF9401B02284FF00300F4D920E739
:101F6000306A20F001003062306A20F004003062F4
:101F7000FFF7AEF9054641F2883700BF306A8007A7
:101F800020D5FFF7A5F9401BB8424FF00300F5D963
:101F900007E700BF306A40F004003062306A40F06A
:101FA00001003062FFF794F9054641F2883700BF1F
:101FB000306A800706D4FFF78BF9401BB842F7D987
:101FC00037E000BFB8F1000F7FF4D5AEF06920F024
:101FD0008050F061CFE600BF306820F48030306080
:101FE000306820F480203060FFF772F9054600BFAA
:101FF000306880037FF59DAEFFF76AF9401B6428C7
:102000004FF00300F4D9CCE6306840F48020306013
:10201000306840F480303060FFF75AF9054600BF61
:10202000306880033FF585AEFFF752F9401B642806
:10203000F6D9032002B0BDE8F08100BF206AB0F5F8
:10204000803F05D17168A26821F4003111437160AD
:102050007168626A21F474111043084370600120B2
:102060003866FFF735F90446306880013FF598AED1
:10207000FFF72EF9001B02284FF00300F4D990E679
:10208000411E0020B0EB116F1CBF012070474EF2C3
:102090001002CEF2000251604EF62351CEF2000142
:1020A000F0230B70072190601160704770470000AB
:1020B00070470000B0B582B0026805461068D1686C
:1020C000546900F02F03202B01F0200306D12BB11F
:1020D000284602B0BDE8B04000F020BD5FEA007CB9
:1020E0001EBF04F0010E01F4907414EB0E042DD108
:1020F0002B6B0840C10617D5012B15D1002001908C
:10210000106801905068019001985069400625D4EC
:10211000A88DE98DEB8D002B1CBF401A5FEA0041B2
:1021200040F0CA8002B0B0BD010645D44006F9D5E2
:10213000D068202120F04000D060284685F83D106E
:1021400002B0BDE8B04000F0ADBA00BFC40718BF90
:1021500011F4807442D1440746D44CE0A86B016866
:102160004B689CB2002CDDD0A98D8C42DAD2EB8575
:102170008369202B17D0D16821F48071D160516917
:1021800021F001015161516921F04001516120218B
:1021900085F83E1000212963D16821F01001D1603B
:1021A000FEF7C0FEA98DE88D081A81B2284602B05C
:1021B000BDE8B040FFF77ABF95F83D002128B1D1C6
:1021C000A868B0F5805F03D12869002800F08C80F2
:1021D000286A411C2962007850608CE02C6C44F025
:1021E00001042C64440706D5BEF1000F03D02C6C0B
:1021F00044F002042C64840706D5BEF1000F03D01E
:102200002C6C44F004042C64BCF1000F06D553EA96
:102210000E0303D02B6C43F008032B642B6C002BB4
:102220003FF480AF0840800603D5284600F076FCD6
:102230002A685069296C00F0400001F0080140183C
:1022400032D0D06820F49070D060506920F0010046
:102250005061286B012803D1D06820F01000D060B5
:10226000202085F83E00002028635069400615D5DF
:10227000506920F040005061A86B78B142F61131EE
:10228000C0F600014163FEF771FE00283FF44AAF3B
:10229000A86B416B02B0BDE8B0400847284602B0C9
:1022A000BDE8B040FFF704BF2846FFF701FF00205C
:1022B000286402B0B0BD00BFD16821F49071D16034
:1022C000516921F001015161202185F83E10002162
:1022D0002963D16821F0100381B22846D36002B08F
:1022E000BDE8B040FFF7E2BE286A30F8021B6FF38A
:1022F0005F2151602862E88C01380104E8847FF492
:1023000011AFD06820F08000D060D06840F040006D
:10231000D06002B0B0BD0000002804BF01207047AB
:1023200010B5044690F83D0028B9002084F83C0020
:10233000204600F05FF8242084F83D002068D4E9AE
:102340000212C36823F40053C360036923F44053AB
:102350001A430261D4E904231143C268194341F2CC
:102360000C639A431143C1604169A26921F4407131
:10237000114343F60002C4F201029042416103D0CE
:10238000FFF750FC02E000BFFFF760FC6268192114
:1023900048439100B0FBF1F048F21F51C5F2EB1138
:1023A000A0FB01235A096FF0630302FB03003223F1
:1023B00003EB0010A0FB0101F02303EA5113206896
:1023C00003EB0212C1F3431111448160016921F44E
:1023D00090410161416921F02A014161C16841F4E4
:1023E0000051C16000202021206484F83D1084F851
:1023F0003E1010BD70B586B0006844F20041C4F2D2
:102400000001002688420596CDE9036602963FD07A
:1024100043F60001C4F20101884266D141F218007E
:10242000C4F20200016840F6000441F480410160FA
:102430000168C4F2010401F480410191019901682D
:1024400002AD41F0040101600068294600F004007B
:10245000019001984FF40070029002200390032035
:1024600005902046FEF72AFE4FF48060029000207F
:10247000CDE9030020462946FEF720FE2520002155
:102480000022FFF7A5F92520FFF792F906B070BDED
:1024900041F21800C4F20200416840F6000441F421
:1024A000003141604168C4F2010401F4003101913E
:1024B0000199016802AD41F00401016000682946FC
:1024C00000F0040001900198042002900220039083
:1024D000032005902046FEF7F1FD0820CDE9020615
:1024E000204629460496FEF7E9FD06B070BD0000BF
:1024F000704700002DE9F04381B0044690F83D009C
:1025000020280DD10F4600294FF0010000F09280E5
:102510001646002A00F08E8094F83C00012803D172
:10252000022001B0BDE8F083012084F83C004FF0A8
:10253000000921201D46C4F8409084F83D00FEF7B4
:10254000C7FEA684E684A1688046B1F5805F25D1E8
:10255000206900281CBF38464F463E46074684F88F
:102560003C90E08C00B3681C20D0002D66D1206820
:102570000BE000BF36F8021B00276FF35F214160BC
:10258000E18C0139E184E18C81B30168090675D5DC
:10259000002FEFD017F8011BF1E700BF002684F8E9
:1025A0003C90E08C0028DED120681FE0206802E02B
:1025B0000168090609D4016809065FBF01685FEA7E
:1025C000016101685FEA0161F2D51FB117F8011BD3
:1025D00005E000BF36F8021B00276FF35F21416062
:1025E000E18C0139E184E18C0029E4D101684906DC
:1025F0001CD4002D42D0691C0ED10168490615D4A7
:10260000016849065CBF01685FEA41610ED4016858
:102610004906F2D50AE000BFFEF75AFEA0EB08011A
:102620002068A9422AD800684006F5D5202084F801
:102630003D00002001B0BDE8F08300BF206800BF6E
:102640000168090608D4FEF743FEA0EB08012068E4
:10265000A942F5D912E000BF17B117F8011B04E039
:1026600036F8021B00276FF35F214160E18C0139CE
:10267000E184E18C0029E3D1B8E700BFC16821F40F
:10268000D071C160416921F001014161202084F8CD
:102690003D0084F83E00002084F83C00032001B097
:1026A000BDE8F08370470000FEE7000070B50368E6
:1026B000044653F8140F400743D40E46F1B1701C82
:1026C00030D100BF186840053ED41868400738D4A0
:1026D0001868400538D41868400732D41868400597
:1026E00032D4186840072CD4186840052CD41868D8
:1026F00040074FF0000048BF70BDE3E71868400591
:1027000022D4FEF7E5FD00202021206384F83D104F
:1027100084F83E00216C41F02001216484F83C00E3
:10272000012070BD154600BF186840050CD4FEF7A7
:10273000CFFD401BB042E6D8236853F8140F400782
:10274000F2D5002070BD00BF6FF4806018600020DB
:102750002021206384F83D1084F83E00216C41F074
:102760000401216484F83C00012070BDF0B581B003
:102770001D460368044658698FB23840B84203D1F9
:10278000002001B0F0BD00BF16467AB3701C29D1FD
:102790005869400540D458693840B842F0D058696B
:1027A000400539D458693840B842E9D058694005E5
:1027B00032D458693840B842E2D0586940052BD429
:1027C00058693840B8424FF00000E1D139E000BF0D
:1027D000FEF77EFD401BB0420DD823685869384093
:1027E000B842CDD058694005F2D515E0586940058A
:1027F00012D4FEF76DFD00202021206384F83D10E7
:1028000084F83E00216C41F02001216484F83C00F2
:10281000012001B0F0BD00BF1868202140F4007015
:1028200018606FF4806058610020206384F83D10C8
:1028300084F83E00216C41F00401216484F83C00DE
:10284000012001B0F0BD000070B50368044653F8E4
:10285000140F000643D40E46F1B1701C30D100BFF6
:10286000186840053ED41868000638D4186840053A
:1028700038D41868000632D41868400532D4186875
:1028800000062CD4186840052CD4186800064FF0B8
:10289000000048BF70BDE3E71868400522D4FEF78A
:1028A00017FD00202021206384F83D1084F83E00AD
:1028B000216C41F02001216484F83C00012070BDAE
:1028C000154600BF186840050CD4FEF701FD401BFB
:1028D000B042E6D8236853F8140F0006F2D5002062
:1028E00070BD00BF6FF4806018600020202120635D
:1028F00084F83D1084F83E00216C41F0040121640D
:1029000084F83C00012070BD10B584B040F2A410E2
:1029100042F20041C2F20000C4F2010100224FF471
:102920006023012402730275C361C0E90012826052
:102930000461FEF7A1F9002818BFFEF74FF8052043
:10294000039040F2A410C2F2000001A9CDE90144B5
:10295000FEF7D2F8002818BFFEF740F804B010BD0B
:102960002DE9F04385B04FF0000841F21800CDF892
:102970001080C4F20200016840F6004441F01001EA
:1029800001600168C4F2010401F010010091009996
:102990000168002241F02001016001684FF0B80990
:1029A00001F0200100910099016841F004010160EB
:1029B000016801F0040100910099016841F00801EB
:1029C00001600068B82100F00800009000982046DF
:1029D000FEF778FC4FF4005001ADCDE90108012766
:1029E00004F5806029460397FEF768FB0220A4F5F2
:1029F0008066039030462946CDE90178FEF75EFBFC
:102A00006020CDE90108304629460397FEF756FBC2
:102A10000320049020462946CDE901970397FEF74D
:102A20004DFB4FF44070CDE901082046294603973D
:102A3000FEF744FB05B0BDE8F083000080B540F22E
:102A4000D41045F60001C2F20000C4F2000141F6C4
:102A5000802200234FF4804CC0F2060280E80E0072
:102A6000C0E9033CC0E90533C0E90733FEF736FC93
:102A7000002808BF80BDBDE88040FDF7AFBF000063
:102A800080B540F2282043F60001C2F20000C4F2F3
:102A9000010100234FF00C0C4FF4E13280E80E00EE
:102AA000C0E90333C0E905C3C361FFF735FC002863
:102AB00008BF80BDBDE88040FDF790BF80B540F203
:102AC0006C2044F20041C2F20000C4F20001002375
:102AD0004FF00C0C4FF4E13280E80E00C0E90333F4
:102AE000C0E905C3C361FFF717FC002808BF80BD1C
:102AF000BDE88040FDF772BFFEE7000070470000B0
:102B00007047000070470000FEF7EABD7047000004
:102B1000406A0021C185C184FFF7CABA81B090F82C
:102B20003E10222920D18368B3F5805F08D1016966
:102B3000002941D000F128010A6803685B680AE0B7
:102B4000014651F8282F13B90369002BF5D003680B
:102B50005B6803F07F0313700A6801320A60C18D5D
:102B600001390A04C18501D001B070470168CA6803
:102B700022F02002CA60CA6822F48072CA604A69E0
:102B800022F001024A61202280F83E20026B012AD5
:102B90001CD100220263CB6823F01003CB600B68CA
:102BA000DB0605D500920A680092496800910099F9
:102BB000818D01B0FFF77ABA0168826A49686FF3C4
:102BC0005F2122F8021B8262C9E700BF01B0FFF754
:102BD0008FBC000040F22820C2F20000FFF76ABA62
:102BE000FEE7000010B540F26814C2F20004E0886D
:102BF00070B1002103E000BF0131814208D2CA0751
:102C0000FAD1A068425C02F055024254E088F3E732
:102C100040F2B020C2F2000001F00CFFE08868B181
:102C2000002102E00131814208D2CA07FAD0A0682F
:102C3000425C02F0AA024254E088F3E740F2B0207E
:102C4000C2F2000001F0F6FEE088A0B100200021F1
:102C5000A2684B1C5054E28893420CD28B1C9342C6
:102C600009D2A268CB1C0A449070E288934202D237
:102C700004319142ECD340F2B020C2F2000001F0E6
:102C8000D9FEE288B2B10020002100BF4B1C934264
:102C900010D2A2688B1C0A445070E288934209D279
:102CA000CB1C934206D2A2680A44D070E288043159
:102CB0009142EBD340F2B020C2F20000BDE81040D8
:102CC00001F0B8BE10B582B0019040F2282001ACEE
:102CD000C2F2000021460122FF23FFF70BFC40F265
:102CE0006C20C2F2000021460122FF23FFF702FC04
:102CF000019802B010BD000080B5FFF773FF40F2ED
:102D00006810C2F200000021017040F21400C2F20B
:102D100000000121017280BD2DE9F04F81B0044611
:102D2000FFF760FFE07CE16800EB400011F8202035
:102D300040F21401C2F2000101F108064FF001094E
:102D4000082A4FF000005ED801F148050124DFE8B1
:102D500002F0055A565A434F535A470000F010FAF2
:102D60000138022841D340F2B02446F647550027E7
:102D7000C2F20004C0F6000505E000BF00F000FA52
:102D80000138022831D3002FF8D1204601F0F8F89D
:102D90002046002101F066FE204604210C222B462D
:102DA00001F000FD20460121012701F05BFE2046D5
:102DB000042118222B4601F0F5FC2046022101F0E7
:102DC00051FE2046042124222B4601F0EBFC204634
:102DD00001F030FED2E700BF01F1880502240EE0C9
:102DE00000F0CEF90138022818D20024354606E05A
:102DF00001F58475042402E001F1C8050324FFF7FE
:102E0000F1FE20462E4640F26811C2F20001087021
:102E100086F8009001B0BDE8F08F00BF40F2B0240A
:102E20000027C2F200040FF268080FF2700A0FF2D6
:102E30007C0B22A505E000BF00F0A2F901380128B3
:102E4000D3D9002FF8D1204601F09AF8204601216D
:102E5000012701F007FE204602210C22434601F023
:102E6000A1FC204602211C22534601F09BFC204677
:102E700002212C225B4601F095FC204602213C22D7
:102E80002B4601F08FFC204601F0D4FDD4E700BFB3
:102E90004D4355203A2053544D333200464C415354
:102EA00048203A203531324B420000005352414D08
:102EB000203A203235364B42000000005254432065
:102EC0005352414D203A2031364B42002DE9F04F0C
:102ED00081B00646C07CF16800EB400011F820008C
:102EE000032880F0BD8040F26815C2F20005E88832
:102EF00038B30020A9680A5C02F055020A54E98838
:102F0000421C8A421DD2A96801444A7802F0AA02F2
:102F10004A70E988821C8A4213D2A96801448A78DF
:102F200002F055028A70E988C21C8A4209D2A96857
:102F30000144CA78043002F0AA02CA70E9888842C3
:102F4000D8D340F2B024C2F20004204601F072FD52
:102F5000F07CF16800EB400011F8200040F204061C
:102F600040F20008C2F200064FF0080AC4F26028DE
:102F70004FF0040B0FF21819E87011E0E87805F132
:102F80001A07304442783846494603F01BF8204679
:102F900051212C223B4601F005FC204601F04AFD60
:102FA00000F0EEF8012805D0032809D002280FD13F
:102FB00065E000BFE8783044417849B1013906E066
:102FC000E878327830444178914201D20131417041
:102FD00020461021102260231F27009700F0DCFFFD
:102FE0002046022101F03EFD2046112111225E23E0
:102FF0001D27009700F0D0FF2046012101F032FD8F
:103000002046122124223C23CDF800A001F09AF89A
:10301000E87830444078FDF732F9317807460846C1
:10302000FDF72DF901463846FDF7E2F84146FDF778
:10303000ADF8FDF729F90346204614212622CDF8E4
:1030400000B000F0A9FF95F90300022896D80DA161
:1030500051F82030204616211E2201F0A3FB8DE7F7
:103060000DD1FFF7BFFD40F26810C2F20000002151
:10307000017040F21400C2F200000121017201B09F
:10308000BDE8F08FAE6D0008656D00083C6D00086E
:103090002564000010B5044600F072F8032819D02A
:1030A00002282DD0012818BF10BD40F26810C2F2CE
:1030B00000004178E07CB9B340F25811C2F200013F
:1030C0000A5C202A4AD0612A40D0412A14BF013A22
:1030D0007A224EE040F26810C2F200004178E07CB3
:1030E000B1B340F25811C2F200010A5C202A3FD06D
:1030F0005A2A2BD07A2A14BF0132412239E000BF6C
:10310000207CE17C814213D1FFF76CFD40F2681016
:10311000C2F200000021017040F21400C2F200006F
:1031200008300121017010BDD0B1013819E000BF95
:1031300040F26810C2F20000417881F00101417054
:1031400004F108000121017010BD00BF202210E031
:10315000217C88422CBF0020013002E05A2208E086
:10316000207CE07404F108000121017010BD00BF53
:1031700061220A5404F108000121017010BD000011
:1031800070B582B040F60046C4F2010606F58060D4
:103190004FF40051FEF790F840F26815C2F20005B6
:1031A000B0FA80F0697D4409A1422C7516D046F62C
:1031B000EC4046F67A5246F6C553C0F60000C0F61B
:1031C0000002C0F60003FE216C75009402F0EAFED6
:1031D000287D18B1012002B070BD00BF30464FF409
:1031E0008071FEF769F8B0FA80F0E97D4409A142E8
:1031F000AC7515D046F6EC4046F67A5246F6C55305
:10320000C0F60000C0F60002C0F60003FE21EC7517
:10321000009402F0C7FEA87D10B1022002B070BD7C
:1032200030464FF40071FEF747F8B0FA80F0697E3F
:103230004609B1422E7615D046F6EC4046F67A5253
:1032400046F6C553C0F60000C0F60002C0F6000303
:10325000FE216E76009602F0A5FE287E10B10320B6
:1032600002B070BDE87E0026AE76A8B146F6EC400E
:1032700046F67A5246F6C553C0F60000C0F6000284
:10328000C0F60003FE21EE76009602F08BFEA87ECB
:1032900010B1042002B070BD002002B070BD00006B
:1032A00096B0FEF72BFA4FF4FA70FDF7F3FE002408
:1032B0000120CDE91144CDE90F440C9010904FF45A
:1032C000E0104FF48031022515900CA80B94CDE945
:1032D0000944CDE90744CDE90544CDE90344CDE9EE
:1032E0000144CDE90D14CDE91351FEF7EFFC0F2099
:1032F000CDE907054FF48060CDE90A0407A8022153
:103300000994FEF7AFFB4FF40040039001A801952C
:10331000FEF722FBFFF724FBFFF7B2FBFFF78EFB64
:10332000FFF7CCFBFFF7F0FA40F2A410C2F2000066
:10333000FDF756FB40F60044C4F2010404F580603A
:103340004FF40051FDF7B8FFB0FA80F040F2681575
:103350004009C2F200056875287520464FF4807157
:10336000FDF7AAFFB0FA80F04009E875A87520467D
:103370004FF40071FDF7A0FFB0FA80F040F2B024E6
:103380004009C2F2000468762876204600F0DCFD91
:1033900046F61461C0F60001204601F069FB206882
:1033A00094F83820007C616B504340F21404C00054
:1033B000C2F20004A960E88028788101615804EB1A
:1033C00080108847F8E700002DE9F04F83B00446ED
:1033D000FFF7D6FE80B1FFF705FC40F26810C2F29D
:1033E00000000021017040F21400C2F2000001212F
:1033F000017203B0BDE8F08F207A00286DD040F252
:10340000B025C2F20005284600F0BAFD93A3284675
:1034100004210C2201F0C6F92E200827009028462E
:10342000042112227823019701F05AF8284602213C
:1034300001F018FB28460A213A226C2300F0CCFE4A
:1034400028460A211822222301F0B4F92846072130
:103450001B2201F025F8284608211A2201F020F845
:1034600028460921192201F01BF8284674213B2225
:1034700001F016F8284673213C2201F011F8284685
:1034800072213D2201F00CF82846012101F0EAFAF0
:1034900040F2A415C2F200052846FDF7DDFC2846DF
:1034A000FDF7E6FBA0F6746140F67462002948BFA0
:1034B000111A0846FCF7DAFE0021C4F29631FCF737
:1034C00097FE0021C4F2C821FCF760FE40F26811AB
:1034D000C2F20001C8600020207240F2B025C2F2A2
:1034E00000054FF00E092846602100221E23CDF86A
:1034F0000090002600F050FD40F2681AC2F2000A67
:103500009AF804003B2200F10A012846032301F047
:1035100051F99AF8040040F2B028642804BF8AF8F0
:1035200004600020C2F2000800F10B01404618229E
:10353000222301F03FF99AF80400182200F10C014F
:103540004046222301F036F99AF80400182200F1CF
:103550000D014046222301F02DF99AF804001822AB
:1035600000F10E014046222301F024F940460221D9
:1035700001F078FA40F2A415C2F200052846FDF7E2
:103580006BFC2846FDF774FBA0F6746140F674628C
:10359000002948BF111A0846FCF768FE0021C4F252
:1035A0009631FCF725FE0021C4F2C821FCF7EEFDA0
:1035B0000546CAF810009AF80470DAF80C0007F112
:1035C0000B0BFCF761FE00EBD0703A24A4EB500625
:1035D00028460C37FCF758FE00EBD070A4EB5000E7
:1035E00085B2B2B2404659463B46009500F0F6FE21
:1035F0009AF804003B2200F10C014046032301F03D
:10360000D9F8DAF810009AF80410CAF80C00881CEF
:103610008AF804004046602100221E23CDF8009065
:1036200000F0BAFC4046012101F01CFADAF8100063
:10363000FCF743FE0AF12A0502460B460CA1284678
:1036400002F0C0FC404660210C222B4601F0AAF893
:10365000404603B0BDE8F04F01F0ECB95265616C33
:103660002074696D6520616E676C65203A0000000A
:10367000252E3266000000002DE9F04F83B0804611
:10368000FFF77EFD002861D0032827D0012871D1E3
:1036900046F61F50C0F6000003F016F998F8130024
:1036A000002853D098F814104AF6AB23CAB2CAF6D1
:1036B000AA23A2FB0323B8F83620013888F81300A8
:1036C000A2F13000B8F82E20A8F838001020A8F891
:1036D0003A000120521A88F83C0027E046F61950BB
:1036E000C0F6000003F0F0F898F8101098F81300F6
:1036F000013981422ADD98F814104AF6AB23CAB288
:10370000CAF6AA23A2FB0323B8F83620013088F8B2
:10371000130002F13000A8F838001020B8F82E206D
:10372000A8F83A00012088F83C000A44A8F83020A4
:103730005A0802EB4207C91B090618BF00EB5302E7
:10374000A8F8322088F8340088F8080098F80800B3
:1037500060B398F8340068B3B8F92E00B8F93010A7
:1037600088422DDAB8F83220104402B28A42C8BF2B
:1037700008462DE046F61250C0F6000003F0A4F80B
:10378000D8F8041009B14046884740F26810C2F2E8
:103790000000007840F21401C2F2000101EB801039
:1037A0000121017298F808000028D2D103B0BDE8C9
:1037B000F08F00BF002098F83C10A9B938E000BF96
:1037C00008DDB8F83220801A02B28A42B8BF084633
:1037D000A8F82E0089B280B2401A18BF012088F8DC
:1037E000340098F83C1019B3B8F93610B8F93820FD
:1037F000914207DAB8F83A3019440BB29342C8BF85
:10380000114607E008DDB8F83A30C91A0BB2934206
:10381000B8BF1146A8F8361092B289B28B1A18BFF9
:103820000123914288F83C3002D0012003E000BF20
:10383000002818BF012088F8080040F2B020C2F22A
:10384000000000F09DFBB8F936004AF6AB21C2F645
:10385000AA2180FB0112D11001EBD2710A0618BF18
:10386000013998F81020CEB2964257D280B201EBBF
:103870004101C0EB011A46F61610C0F60000C8213F
:1038800006FB010406EB46006FF0070140F2B02989
:1038900001EB8005C2F200094FF0400B40F25411D9
:1038A000C2F200014FFA8AF0895D2E30009181B298
:1038B000484606222423019400F0B6FF4846002122
:1038C00030228023CDF800B001F0BEF8D8F80C000B
:1038D0002844C168484601F06FF8B8F82E10D8F8AF
:1038E0000C20C1EB0611C0F1800001F13E07511917
:1038F00000EBD070CB68C0F34F01BAB2484600F07D
:1039000051FF484601F030F998F8100001360AF1ED
:10391000300AC834864205F10C05BFD340F2B0200E
:10392000C2F2000003B0BDE8F04F01F083B8000020
:103930002DE9F04782B08246C08A58B9DAF80C0007
:10394000416840F2B020C2F2000001F035F80830C2
:10395000AAF81600FFF714FC002878D0032833D00B
:10396000012869D146F61F50C0F6000002F0ACFFF6
:103970009AF8130000286AD09AF812204AF6AB2170
:103980000138002ACAF6AA218AF8130000F0CA8179
:103990009AF81430013ADFB2A7FB0176BAF81E702C
:1039A0008AF81220FA1AAAF82020720802EB4207BD
:1039B000DB1B01271B0618BF07EB5602AAF82220C3
:1039C0000AF12402C6E100BF46F61950C0F6000015
:1039D00002F07AFF9AF810109AF813000139814228
:1039E00035DD9AF811209AF81210013A01308A4216
:1039F0008AF8130040F364819AF814204AF6AB2742
:103A0000D3B2CAF6AA27A3FB0737BAF81E30013192
:103A10008AF812109918AAF82010790801EB4103CE
:103A2000D21A0123120618BF03EB5701AAF822107D
:103A30000AF1240160E100BF46F61250C0F6000012
:103A400002F042FFDAF8041009B1504688479AF8AC
:103A50000800002800F0C9819AF81C0070B1BAF97A
:103A60001600BAF91810884218DABAF81A20104469
:103A700002B28A42C8BF084618E000BF00209AF888
:103A8000241001BB00219AF83420002A3FD10022E3
:103A90009AF82C30002B5ED100237CE008DDBAF8C8
:103AA0001A20801A02B28A42B8BF0846AAF8160045
:103AB00089B280B2401A18BF01208AF81C009AF817
:103AC00024100029DED0BAF91E10BAF92020914244
:103AD00008DABAF8223019440BB29342C8BF114633
:103AE00008E000BF08DDBAF82230C91A0BB29342D1
:103AF000B8BF1146AAF81E1092B289B2891A18BF2F
:103B000001218AF824109AF83420002ABFD0BAF98B
:103B10002E20BAF930309A4208DABAF832703A44B4
:103B200017B29F42C8BF1A4608E000BF08DDBAF8C6
:103B30003270D21B17B29F42B8BF1A46AAF82E2085
:103B40009BB292B2D21A18BF01228AF834209AF896
:103B50002C30002BA0D0BAF92630BAF92870BB421D
:103B600008DABAF82A6033441EB2BE42C8BF3B46E8
:103B700008E000BF08DDBAF82A609B1B1EB2BE42F7
:103B8000B8BF3B46AAF82630BFB29BB2DB1B18BFBA
:103B900001238AF82C300843104318BF0120184332
:103BA0008AF8080040F2B020C2F2000000F0E8F904
:103BB000BAF92E109AF814209AF8107091FBF2F3CB
:103BC000D8B287422CD95A43511A0E06B6F1804F0B
:103BD00026DA00EB40016FF0070240F2B02802EB5A
:103BE0008107451C4FF00C09C2F20008DAF80C00FE
:103BF00009EB26613844C3688AB24046042100F0CC
:103C0000D1FD9AF8100085420AD29AF814000C37B8
:103C100000EB26600606B6F1804F05F10105E5DBF5
:103C200040F2B025C2F2000528467E210022402342
:103C3000002700F0BFFD0024FEB228467D21324659
:103C400000F02EFC28467F21324600F029FC01348A
:103C50009AF810109AF81530E0B288421F44EBD958
:103C600040F2B025BAF82620C2F2000528467D2190
:103C700000F0A0FDBAF826209AF8153028467F21DA
:103C800000F098FD2846022100F0ECFEBAF816007C
:103C90009AF81410BAF81E2008300127009183B258
:103CA00028460021019700F01BFC2846012100F066
:103CB000D9FE284602B0BDE8F04700F0BBBE00BF09
:103CC0009AF81410BAF82E204AF6AB27CBB2CAF6EF
:103CD000AA27A3FB07370A44AAF830207A0802EB88
:103CE0004203C91A09060AF134014FF0010318BF53
:103CF00003EB5702AAF832209AF815204AF6AB27B0
:103D0000D3B2CAF6AA27A3FB0737BAF82630012593
:103D10000D709918AAF82810790801EB4103D21AFE
:103D200028E000BF9AF81420BAF82E30D7B2A7FBCB
:103D300001769B1AAAF83030730803EB4307D21BB5
:103D400012060AF134024FF0010718BF07EB5603C1
:103D5000AAF832309AF815300125DFB2A7FB011717
:103D6000BAF826101570C91AAAF82810790801EBBC
:103D700041029A1A120618BF05EB5701AAF82A1039
:103D8000DAF80C10C0B200EB400001EB8000416893
:103D900040F2B020BAF91640C2F200008AF82C5066
:103DA00000F00AFE01B2091B45F2565348BF4942D2
:103DB0000AB2C5F2555382FB0323AAF8180003EB9D
:103DC000D37000EB4002891A09B2AAF81640002904
:103DD000C8BF0130AAF81A008AF81C508AF80850A7
:103DE0009AF8080000287FF437AE02B0BDE8F087EB
:103DF0002DE9F04383B00446FFF74CF9207A002800
:103E000000F09E8040F2B0250020C2F20005207232
:103E1000284600F0B5F834200827009028460421F1
:103E200006227823019700F035FC46F62556C0F6A9
:103E300000062846314600F0BFFDC0F1800000EBCF
:103E4000D070C0F34F0128461422334600F0AAFC7C
:103E500040F25816C2F2000628460A2126223346AE
:103E600000F0A0FC46F69A53C0F600032846502105
:103E7000322200F097FC217CE07C40F268178842F7
:103E8000C2F200072ED2B9780B2949D840F2B028E7
:103E90004FF00009C2F20008355C06F80090404679
:103EA000314600F089FDE17C8DF80B907554E17C82
:103EB00000F10A05715C40468DF80A10022100F0FD
:103EC000D1FD0DF10A01404600F076FD267D02305D
:103ED000E9B283B240461A22009600F05DF84046EF
:103EE0001BE000BF40F2B025C2F2000528460221C7
:103EF00000F0B8FD46F69A51C0F60001284600F0E1
:103F00005BFD217D04300126009183B228464E21BD
:103F10002622019600F0E4FA2846012100F0A2FDD5
:103F2000787838B1B8780021182838BF411C0120B2
:103F3000B970207240F2B020C2F2000000F07AFDA9
:103F400003B0BDE8F083000010B546F6086145F601
:103F5000891245F66563C0F60001C0F60002C0F69E
:103F60000003044600F030FE204601F0B5FC204678
:103F7000002101F0BDFC2046BDE81040AFF30080F9
:103F800080B5016890F83820097C406B5143C90026
:103F9000FCF7F1F880BD00002DE9F04381B0089CEA
:103FA0000E4607465818A11898461FFA81FC83B29E
:103FB000384631461546CDF800C000F005FD002812
:103FC00018BF002C0FD04FF0000900BFAAB238462E
:103FD00031464346CDF8009000F038F9013C20040A
:103FE00005F10105F2D101B0BDE8F0832DE9F04FF4
:103FF00087B014465F1C9B46CE1AD21A06917B18D6
:1040000039198FB2B1B292B29BB20590009700F00D
:10401000DBFC00283DD0109F0598069B00215A46E6
:104020000094019700F018FEBBF1000F31D04FF65D
:10403000FE70ABEB4B0101304E00CBF1010A4FF0AB
:1040400001084FF0000900B2CDE90304039A0FFA0A
:104050008AF090426FEAE030834409F101090FFAD7
:1040600088F006F10201C4BF8A440E4600F102083E
:1040700000941FFA8BF71FFA89F50598069B109C90
:1040800029463A46C244019400F0E6FD049CBD4234
:10409000DCD307B0BDE8F08F2DE9F04F87B01446B0
:1040A0005F1C9B46CE1AD21A06917B1839198FB223
:1040B000B1B292B29BB20590009700F085FC002847
:1040C0003DD0109F0598069B00215A460094019709
:1040D00000F024FEBBF1000F31D04FF6FE70ABEBC9
:1040E0004B0101304E00CBF1010A4FF001084FF0B7
:1040F000000900B2CDE90304039A0FFA8AF0904256
:104100006FEAE030834409F101090FFA88F006F103
:104110000201C4BF8A440E4600F1020800941FFA4F
:104120008BF71FFA89F50598069B109C29463A469D
:10413000C244019400F0F2FD049CBD42DCD307B000
:10414000BDE8F08F2DE9F04F81B0DDF828800646FC
:1041500003EB010A08EB0200994684B21FFA8AF3C6
:10416000304617460D46009400F02EFC88B300241C
:10417000304629463A464B46009400F067F8B8F1BD
:10418000020F26D3A8F1020B5FEA0B4007F10107EB
:1041900017D0BCB21FFA8BF84FF0010C30462946FD
:1041A00022464346CDF800C000F050F8AAF10100C5
:1041B00081B23046224643460124009400F046F87E
:1041C0005F440024BAB2304629464B46009400F0C2
:1041D0003DF801B0BDE8F08F70B582B0A3B38C4656
:1041E00090F88C1081B3B0F84C1091422CD8B0F8F4
:1041F0004E10914228D9B0F84840B0F84AE003EB9D
:104200000C05AEB2E645214688BF6146AE4208BF06
:104210006146E6452B4688BFAEF10103AE4208BFBA
:104220003346714510D21FFA83FCA4450CD9A14234
:1042300038BF2146066BF44588BF7346B6685B1AE3
:1042400000259BB20095B04702B070BDF0B581B0BB
:10425000002B79D090F88C50002D75D0069C012B46
:1042600006D0032C36D0022C02D1C91A013101E04C
:10427000E50731D1B0F84C50954265D8B0F84E50B2
:10428000954261D9B0F84840B0F84AE08DB2EE18D6
:10429000B7B27545A44638BF8C46B74208BF8C46B6
:1042A000754533461FFA8CF138BFAEF10103B742B2
:1042B00008BF3B46714547D29DB2A54244D9A142B1
:1042C00038BFA446754588BF73464FF0000E61465F
:1042D00030E000BFD21A0132B0F848708F4233D8B4
:1042E000B0F84A708F422FD9B0F84C40B0F84EE089
:1042F00095B2EE18B7B27545A44638BF9446B7429A
:1043000008BF9446754533461FFA8CF238BFAEF1AC
:104310000103B74208BF3B46724515D29DB2A54284
:1043200012D9A24238BFA446754588BF73464FF0E4
:10433000010E6246046BA3EB0C03A4689BB289B226
:1043400092B2CDF800E0A04701B0F0BD2DE9F04FEA
:1043500083B00F46824690F892905818511C1C4624
:104360008DB283B2504639469046009500F02CFB42
:1043700080B36CB30C9DB9FA89F040094FF0010B82
:104380000026029019E000BF8AF89200B9B25046A8
:10439000424601230096FFF759FF1BF07F004FF4C0
:1043A000FF7000EA4B0BA4F1010407F1010704BF01
:1043B00001354FF0010B20040AD028781BEA000FCA
:1043C0004846E1D19AF8910000280298E5D1DBE750
:1043D0008AF8929003B0BDE8F08F00002DE9F04F0D
:1043E00081B00A9FB3EB010A38BFA1EB030ABD1AE3
:1043F0001FFA8AFC38BFD51BAEB26645804609D984
:1044000010463A46A94690420CD807460C4610463C
:10441000194609E0084611461A463B46D146AA46C7
:104420009042F2D917461C46A1424FF0FF3B4FF68F
:10443000FF714FF0FF3288BF4FF0010B884208BF79
:10444000501E85B2AF4227D81FFA89F066454FEA61
:10445000500611D9A1B2BAB2404600F021F8A6EB3D
:104460000A0630B201370028B8B244BF5C444E445B
:10447000A842EFD910E000BFB9B2A2B2404600F0A6
:104480000FF8A6EB0A0630B201370028B8B244BFD5
:104490005C444E44A842EFD901B0BDE8F08F000063
:1044A00080B582B0B0F84C30934217D8B0F84E3097
:1044B000934213D9B0F848308B420FD8B0F84A3045
:1044C0008B420BD990F88C3043B1036B4FF0000E48
:1044D000D3F808C00123CDF800E0E04702B080BD6A
:1044E0002DE9F04F89B00646129803EB010900EB65
:1044F000020A1FFA89F598461FFA8AFB30462B46B6
:1045000017460C46CDF800B000F05EFA002800F027
:10451000BE800695139D07942A19E919E843CDF842
:1045200020801FFA82F88CB2CDF810B009EB000B96
:104530000AEB000992464FF0020C059130464146C5
:1045400022462B46CDF800C0FFF7A6FD1FFA8BFBD5
:104550004FF0010C3046594622462B46CDF800C09C
:10456000FFF79AFD1FFA89F44FF0040C30464146DC
:1045700022462B46CDF800C0FFF78EFD4FF0080C09
:1045800030465946DDF820B022462B46CDF800C013
:10459000FFF782FDABEB0500401B81B2032951D32D
:1045A0000AF10101023805F1010A0394019008445F
:1045B0000AEB07028CB295B283B2304621463A46E6
:1045C0001FFA8AF80293009500F0FEF9D04514D145
:1045D00098B101984FF0000B1FFA80F8554600BFC4
:1045E000BAB2304621464346CDF800B0FFF72EFE62
:1045F000013D280407F10107F2D1DDE90232049FF1
:1046000030462146009700F0DFF9DDF820B0139D19
:104610005FEA0A4118BF002814D001984FF0000843
:1046200087B200BF1FFA89F2304621463B46CDF8DB
:104630000080FFF70BFEAAF1010A5FEA0A4009F1C8
:104640000109EFD11298DDE90637401B401B81B20A
:1046500003291CD30599851E4C1C28191FFA80FCC0
:10466000A2B230463946CDF800C000F0ADF970B1C5
:104670004FF00008A2B2304639465B46CDF80080C4
:10468000FFF7E4FD013D280404F10104F2D109B073
:10469000BDE8F08F2DE9F04F87B08046DDE91007C7
:1046A0005D1884189B460690A6B2ABB2404692466F
:1046B0008946009600F088F900286FD007EB0902C0
:1046C00007EB0A01F84305950544039420445C4632
:1046D0001FFA82FB8EB204904FF0020C01920291FD
:1046E0004046594632463B46CDF800C0FFF77EFCB7
:1046F000ADB24FF0010C4046294632463B46CDF85C
:1047000000C0FFF773FC04984FF0040C86B24046DB
:10471000594632463B46CDF800C0FFF767FC4FF0E4
:10472000080C4046294632463B46CDF800C0FFF70C
:104730005DFCE01B069AC01B81B2D21B0329A2EBD1
:10474000070712D30199023801318DB286B2404673
:10475000294652463346FFF73FFD03982946013864
:1047600082B240463346FFF737FDB8B2059C0328B6
:1047700014D30298B91E013085B28EB24046494624
:104780002A46334600F016F8601E81B240462A469B
:10479000334607B0BDE8F04F00F00CB807B0BDE8F5
:1047A000F08F000045F6391CC0F6000CC0F804C0BC
:1047B00000F03CBB70B582B0A3B3944690F88C2057
:1047C00082B3B0F848208A422CD8B0F84A208A42F6
:1047D00028D9B0F84C40B0F84EE003EB0C05AEB26F
:1047E000E645224688BF6246AE4208BF6246E645BD
:1047F0002B4688BFAEF10103AE4208BF3346724577
:1048000010D21FFA83FCA4450CD9A24238BF22461D
:10481000066BF44588BF7346B6689B1A01259BB2A8
:104820000095B04702B070BD2DE9F04782B00A9CF8
:104830008A4681465818A11898468FB283B24846D6
:1048400051461546009700F0BFF8002818BF002C0D
:1048500011D008F107000B9F80B2C608AAB24846E3
:10486000514643460097FFF771FD013C3744200451
:1048700005F10105F2D102B0BDE8F087B0B50446FC
:1048800000F08AFD00284FF0000100F0928084F8CB
:104890006C1094F8781020660B460278082922BF25
:1048A00001302066A1F108034FF0FF3C0CFA01F142
:1048B00094F879E022EA010184F86C3084F86A10F7
:1048C0000EEB03010278CDB2082DDDB222FA05F21B
:1048D00009D3451C2566C3F108034078DBB2984034
:1048E0000243083928460CFA0EF39A4394F89230A2
:1048F00094F87AE084F86E30B3FA83F35B0984F8B5
:104900006C1084F86B2084F86F3001EB0E0305788F
:10491000DAB2082ACAB225FA02FC0AD3421C22667D
:10492000C1F108014078C9B288404CEA000C083B4C
:104930001046AEF101024FF0FF31D2B24FF0807558
:1049400001FA0EF105FA02F294F87B502CEA01010B
:10495000A1EB1261EA18D3B2082B84F8901022BFA1
:1049600001302066083A94F87C1084F86C208B188B
:1049700090F800C0DDB2082DD5B22CFA05FC09D3A1
:10498000451C2566C2F108024078D2B290404CEA3C
:10499000000C083B4FF0FF3088400139C9B24FF09E
:1049A00080722CEA000002FA01F1A0EB116184F898
:1049B0006C3048B2B0BD000045F63912C0F60002B6
:1049C000426000F0C7BE000010B5B0F84E40DDF800
:1049D00008E0B0F84CC0944206D972450AD8F445B4
:1049E00024BF002010BD05E0F4454FF0000C1ED29E
:1049F00072451CD9B0F84A20B0F848008A420BD959
:104A0000002299424FF0000188BF0121984238BF2F
:104A1000012241EA020010BD002299424FF000013C
:104A200088BF0121984238BF012202EA010C60468A
:104A300010BD000010B5044600F060FE2046BDE841
:104A4000104000F04FBF0000DDF800C0A0F850108B
:104A5000016BA0F854204968A0F85230A0F856C065
:104A600008470000022988BF012180F89210704792
:104A70002DE9F04F81B00446806D88426AD0A1656F
:104A800008780D4684F87400487884F875008878B2
:104A900084F87600C87884F87700087984F878007C
:104AA000487984F87900887984F87A00C87984F89C
:104AB0007B00087A84F87C00487A84F87D0091F9BC
:104AC0000A9084F87E90C87A84F87F0091F90CA04F
:104AD000084684F880A091F90D6084F8816091F90E
:104AE0000E7084F8827091F90FB084F883B091F958
:104AF0001080112184F8848000F0B8FCA4F88600AE
:104B00002846132100F0B2FCA4F88800284615219D
:104B100000F0ACFCA4F88A0094F88D0084F88E6054
:104B200084F88F70B0B101280AD15E45B8BF84F80F
:104B30008EB047450EDD84F88F8001B0BDE8F08F60
:104B40000AEB0900B042C8BF84F88E005745C8BFC1
:104B500084F88FA001B0BDE8F08F000044F61D710D
:104B6000C0F60001C16570470021CFF6FF71026BEE
:104B70000165416551680847B0B50446049884F85A
:104B8000382040F20112A4F8922002680025C4E9FE
:104B90000B302046A56584F8395084F86D5084F8B0
:104BA000915084F88D50616390470020CFF6FF70DC
:104BB000216B206560654968204688472046FFF7DD
:104BC000CDFF84F87050B0BDB0B582B09C4613469E
:104BD0000C4645F6195145F6A532C0F60001C0F65F
:104BE00000020546CDF800C000F088FE0DF1070078
:104BF00000F07CFD9DF8072045F275430146C0F6A4
:104C0000000328460094FFF7B7FF02B0B0BD0000D4
:104C1000022B07D0012B09D0002B14BF10440844ED
:104C200080B27047401A80B2704700BF801A80B2CD
:104C300070470000022B07D0012B09D0002B14BFB6
:104C4000401A104480B27047801A80B2704700BF8B
:104C5000084480B2704700002DE9F04381B0DDE9DF
:104C60000845984616468946E90707462ED1A80703
:104C70003FD4280710D508EB0900A21981B292B2DF
:104C80003846FFF70DFC08EB060004EB090281B281
:104C900092B23846FFF704FC68075CBF01B0BDE87C
:104CA000F083A8EB0900A21981B292B23846FFF74F
:104CB000F7FBA8EB060004EB090281B292B238467A
:104CC00001B0BDE8F043FFF7EBBB00BF08EB090004
:104CD000A21B81B292B23846FFF7E2FB08EB060056
:104CE000A4EB090281B292B23846FFF7D9FBA807BC
:104CF000BFD5A8EB0900A21B81B292B23846FFF7DC
:104D0000CFFBA8EB0600A4EB090281B292B23846B1
:104D1000FFF7C6FB2807BFD5ADE700002DE9F0433C
:104D200081B0DDE90885994617460E46E907044635
:104D300030D1A80746D4280711D509EB06007A1C04
:104D400081B293B220464246FFF734FD09EB0700DB
:104D5000721C81B293B220464246FFF72BFD6807D2
:104D60005CBF01B0BDE8F083A9EB06007A1C81B2FC
:104D700093B220464246FFF71DFDA9EB0700721CC7
:104D800081B293B22046424601B0BDE8F043FFF73E
:104D900011BD00BF09EB0600A8EB07027B1C81B226
:104DA00092B29BB22046FFF705FD09EB0700A8EB86
:104DB0000602731C81B292B29BB22046FFF7FAFC46
:104DC000A807B8D5A9EB0600A8EB07027B1C81B2A7
:104DD00092B29BB22046FFF7EDFCA9EB0700A8EBCF
:104DE0000602731C81B292B29BB22046FFF7E2FC2E
:104DF0002807B4D5A1E7000010B582B0B0F83EE0B6
:104E0000DDF810C0C46AA2EB0E0292B2CDF800C069
:104E1000A04702B010BD000080B582B0DDF810C020
:104E2000CDF800C0FFF7E8FF02B080BD2DE9F04FDC
:104E300081B01F4692460D4606464FF6FF7801F0B8
:104E4000ADF8726839783046904740455ED0A8F199
:104E500001017C1C4FF000091FFA81FB08E000BF34
:104E60008144726814F8011B3046904740454FD08A
:104E700087B25F45F5D096F870205046032A294640
:104E80001DD8DFE802F003090F1700BFF16D3046AF
:104E900088475044294612E0F16D30468847291A68
:104EA0000CE000BFF16D30468847AAEB00002946B0
:104EB00005E000BFF16D3046884741195046A6F81D
:104EC0006410A6F866003046394600F065FA48B12D
:104ED0000146304600F024F896F87010032906D9F0
:104EE000BEE700BF002096F870100329B8D8DFE8AD
:104EF00001F007090B0300BFAAEB000AB0E700BFEF
:104F00000544ADE78244ABE72D1AA9E74FF000094D
:104F10001FFA89F001B0BDE8F08F00000020704753
:104F20002DE9F04F8BB00022016680F86C2090F8DC
:104F300078700B784FF0FF32082F31BF3D460131BA
:104F40000166A7F1080502FA07F723EA070E90F8B1
:104F5000793080F86C5080F86AE05F190E78FCB206
:104F6000082CECB2824626FA04F60AD34C1CCAF886
:104F70006040C5F108054978EDB2A9400E43083FED
:104F800021469A409AF8923026EA02009AF87A204E
:104F90008AF86E30B3FA83F35B098AF86C708AF88A
:104FA0006B008AF86F30BC180B78E6B2082EFEB2A0
:104FB00023FA06FC03900BD34E1CCAF86060C7F1BD
:104FC00008074978FFB2B9404CEA010C083C314669
:104FD0009AF87B708AF86C403D190E78EBB2082B7A
:104FE000E3B226FA03F60AD3C4F108034C1CCAF84C
:104FF00060404978DBB299400E43083D21469AF85B
:105000007C008AF86C50029028440B78C4B2082CBB
:10501000ECB24FFA8EF923FA04F409D3C5F1080370
:105020004D1CCAF860504978DBB299400C430838EF
:105030000194B9F1010F8AF86C00C0F299814FF028
:10504000FF30511E7B1E00FA02F2C9B24FF080758C
:10505000B840DBB22CEA020205FA01F126EA0000B0
:1050600005FA03F3A2EB1161C0EB1362039B9AF8FC
:105070007060D21ABAF8640057B24DB229463A4667
:105080003346FFF7C5FD8046BAF8660029463A4622
:105090003346AAF86480FFF7CDFD032EAAF8660018
:1050A000CDF828A00CD8DFE806F0030F192300BFC5
:1050B00003995FFA89F249B208EB020301441FE049
:1050C000434601461CE000BF039908F1010349B2C1
:1050D000A3EB01085FFA89F1014411E05FFA89F15D
:1050E00008F10103A3EB010803994AB206E000BFEF
:1050F00003995FFA89F249B208EB0103411C881A4F
:105100000A9C8FB21FFA88F182B29BB220460097A8
:10511000FFF75AFC002800F02B8194F86C30266EC3
:1051200000254FF0000C2746A4F8685005E000BFAA
:10513000039840B2834580F21781E14697F876C024
:105140003278BE4603EB0C07A846D8B2FDB2082D54
:1051500022FA00F20AD3751CCEF86050C3F108039E
:105160007078DBB298400243083F2E469EF87730B5
:105170008EF86C70D9193578CCB2082CFCB225FAAF
:1051800004F509D3741CCEF86040C7F108077078A5
:10519000FFB2B840054308394FF0FF3404FA0CF071
:1051A00022EA000A04FA03F025EA000077464546A1
:1051B000CC4604908EF86C10CDF814A007E000BF28
:1051C000DDF814A0C807274684F86C30B0D097F8F3
:1051D0006D00E8B197F86A005FFA8AF2A0EB0C0163
:1051E000CBB293425DD8AAEB010A5FFA8AF1814201
:1051F00005F1010508D300BFAAEB000A5FFA8AF1A6
:10520000814205F10105F7D24FF0000C49E000BFE3
:10521000002097F86A10A1EB0C04E8BB0CE000BF7B
:1052200097F86D00AAEB040A01354FF0000C97F8CF
:105230006A10A1EB0C0478BB97F87090E0B208906C
:10524000B7F866004FFA8CF66FB231463A464B46D5
:105250005FFA8AFB09956546FFF7ECFC0A998046E0
:10526000B1F864103A46084631460A9F4B46FFF7AC
:10527000CFFC0146089897F86F208345204638BF39
:10528000504687F89220C3B238464246CDF8009087
:10529000FEF7DCFFAC46099DE0B25FFA8AF181427D
:1052A000BED2049B0AEB0C0287F8682087F869508D
:1052B00097F86A00D9B2A0EB02095FFA89F097F873
:1052C0007060099181420A990890CA46B7F8640053
:1052D00054B24FFA85FBB1F86670984638BF9A46CB
:1052E000069221465A463346FFF792FC079038460D
:1052F0000A9F21465A463346FFF79CFC97F86E10EA
:10530000024687F8921007995FFA8AF338460096AA
:10531000FEF79CFFDDE90810884205D34346A8EB61
:10532000090301350022C3E706983E6E08EB000C26
:1053300097F86C2087F868C087F869503178531C5B
:105340003C46DFB2082F21FA02F1FFF439AF701C9E
:105350002066C2F108037778DBB207FA03F319433A
:10536000D31F06462CE700BF97F86E0087F892001F
:1053700002994FF0FF30019A8840013922EA00007B
:10538000C9B24FF0807202FA01F1A0EB116040B295
:105390000BB0BDE8F08F000070B50C46816DFF2C9E
:1053A00001F1170104D8612C3AD3B0F888003BE032
:1053B000B0F88A000E1835462846002100F056F84D
:1053C00006442846022100F051F8A04205F10405E8
:1053D000F2D33088000400BA002841D0A04241D066
:1053E000B078315A090409BAD1B3A142064439D080
:1053F000B078315A090409BA91B3A142064431D0B8
:10540000B078315A090409BA51B3A142064429D0EF
:10541000B178705A0E44000400BA0028DED11FE0B3
:10542000412C02D3B0F8860001444878C0B10A7814
:10543000A24219D00144487890B10A78A24213D010
:105440000144487860B10A78A2420DD001444878FE
:1054500030B10A78A24207D0014448780028E6D14A
:10546000002070BDF01C70BD881C70BD405A00BA91
:10547000000C70472DE9F04102F00704012690F876
:105480009250A640022DB44628BF4FF0000CB5F153
:10549000010E18BFB646056822F007062D7C476B43
:1054A0007543DDF81880ADB23D44B8F1000F2944D2
:1054B00018D013F00306A3F1010500F0A9800C78C1
:1054C00044EA0C0484EA0E07541C14F007040F701D
:1054D0001CD04FEA4C0C4FEA4E0E012E23D12B4626
:1054E00096E000BF13F00302A3F1010038D00C785E
:1054F000012A44EA0C0484EA0E0401F8014B25D188
:10550000034680B20328C0F0EF802DE0478F4FF0B4
:105510000108394490F89270012F98BFC44618BF13
:10552000C646012EDBD00C7844EA0C0484EA0E0750
:10553000941C14F007040F7036D04FEA4C0C4FEA5D
:105540004E0E022E3DD1023B62E000BF0C78022AD3
:1055500044EA0C0484EA0E0401F8014B42D1023BF8
:1055600080B20328C0F0C080081F00BF10F8041FDD
:10557000043B41EA0C0181EA0E0101704178827816
:1055800041EA0C0181EA0E01C478417042EA0C0143
:1055900081EA0E01817044EA0C0181EA0E011A04CD
:1055A000C170E3D1A0E000BF478F4FF0010839443C
:1055B00090F89270012F98BFC44618BFC646022EBD
:1055C000C1D00C78033244EA0C0484EA0E040C7057
:1055D00012F00704A3F1030310D04FEA4C0C4FEA7A
:1055E0004E0E15E00A78033B42EA0C0282EA0E02F4
:1055F00001F8012B80B2032876D3B5E7428F01264C
:10560000114490F89220012A98BFB44618BFB646BC
:10561000AAB2032A38BFBDE8F08101220CE000BF26
:10562000458F90F892602944012E98BF944618BF88
:105630009646043B1D0457D00D78661C45EA0C05C0
:1056400085EA0E0576070D7004D04FEA4C0C4FEA40
:105650004E0E08E0458F90F892602944012E98BFC5
:10566000944618BF96460D78A61C45EA0C0585EAB7
:105670000E0576070D7005D04FEA4C0C4FEA4E0E22
:1056800009E000BF458F90F892602944012E98BF31
:10569000944618BF96460D78E61C45EA0C0585EA47
:1056A0000E0576070D7005D04FEA4C0C4FEA4E0EF2
:1056B00009E000BF458F90F892602944012E98BF01
:1056C000944618BF96460D78043445EA0C0585EAE1
:1056D0000E0514F007040D70A2D04FEA4C0C4FEAEF
:1056E0004E0E043B1D04A7D1BDE8F081014640F2F7
:1056F00044300822C2F200000A7070472DE9F04FD2
:1057000081B0834690F8388000689BF8396090F843
:105710001190002501274FF6F87A03E0DBF800002E
:1057200008350137037CDBF8340005FB03F101EA9F
:105730000A014418F2B258460021009400F0B8F86B
:105740000136F0B2484538BF4745E7D301B0BDE860
:10575000F08F00002DE9F0474FF0000A0D46044697
:105760004FF6FF7880F86AA000F018FC626829788C
:105770002046904740451FD0A8F101016F1C00252D
:105780004FF0C0098EB24FF0000A06E0626817F8C9
:10579000011B20469047404511D081B2B142F5D05F
:1057A0002046FFF76BF80546AA44B9F1C00F08BFC1
:1057B00094F89090EAE700BF4FF0C009002594F8F4
:1057C0006A0070B140B2AAEB0501084494F9901048
:1057D0004FFA89F200EB010A012AA4BF5FFA89F0AF
:1057E00082441FFA8AF0BDE8F0870000B0B590F857
:1057F00038100568CB00838795F810C090F83930D1
:1058000095F811E04FEACC0CDA005C18A0F83AC029
:10581000C287744588BFAEEB03011944C900A0F8E4
:105820004020A0F8421069694164B0BD70B582B0F3
:105830000446216CB0F84400E164B4F85010B4F8A8
:105840005420B4F85230B4F856500026A4F84A0058
:105850002046A4F848600095FFF7B6F820B3B4F8E6
:105860004810B4F850000122814284F88C2038BFDF
:10587000A4F84800B4F84A10B4F85200814288BF36
:10588000A4F84A00B4F84C10B4F85400814238BF70
:10589000A4F84C00B4F84E10B4F85600814288BF0A
:1058A000A4F84E0002B070BD84F88C6002B070BDE8
:1058B00080B582B0DDF810C0D0F808E08DF8051092
:1058C0008DF806208DF804306B460F210122CDF8AB
:1058D00000C0F04702B080BDD0F808C00A21002205
:1058E00000236047D0F808C0102100220023604741
:1058F000D0F808C00A460B210023604710B54FF4CA
:105900007F44DDF808C0A0F82340FF244FF0000ECC
:1059100080F8284000F10804C0F800E080F826E094
:1059200084E80E50BDE81040AFF30080D0F808C006
:10593000092100220023604700294FF6FF7008BFAD
:1059400070470A2918BF084670470000D0F810C0F9
:10595000192100220023604780B582B08DF807101E
:105960000DF10702012100F003F802B080BD000034
:10597000D0F810C013460A4617216047D0F810C06F
:105980001821002200236047F0B581B014390C299A
:105990004FF0000037D8DFE801F035363607171F23
:1059A000363636363636350040F2C47CC2F2000C4C
:1059B0009CF800E0002A18BF002B27D10EEB020054
:1059C0008CF800001EE000BF40F2C470C2F200007C
:1059D0000021017016E000BF40F2C470C2F2000066
:1059E000037840F2D41040F24472FF27C2F2000064
:1059F000C2F2000278210097FBF72CFD10B10020C5
:105A000001B0F0BD012001B0F0BD00BF40F2447014
:105A1000C2F200007044984210D9991881420DD901
:105A2000104412F00303A2F1010417D011F8015D34
:105A3000012B00F8015D17D123462AE012F0030183
:105A4000A2F101040CD01D4615F8017B0646012980
:105A500006F8017B10D13046214634E0134618E0A9
:105A60001D4611462FE000BF11F8015D022B00F822
:105A7000015D09D1931E0CE05D78022945701DD1AE
:105A8000911E9D1C02301EE011F8013D00F8013D01
:105A9000D31E032CFFF492AF04390238CC78043BB8
:105AA00044708C7800F804494C7800F8034E11F8E3
:105AB000044900F8024EF1D180E700BF9E78D11E64
:105AC000DD1C86700330032CFFF478AF2B1F0438E5
:105AD00013F8044F043900F8044F5C7844709C7844
