:020000040800F2
:100000000005002045010008E525000891200008B2
:10001000E12500083D0A00083D2900080000000015
:10002000000000000000000000000000452600085D
:10003000410A000800000000152600087926000883
:100040005F0100085F0100085F0100085F01000810
:100050005F0100085F0100085F0100085F01000800
:100060005F0100085F0100085F0100085F010008F0
:100070005F0100085F0100085F0100085F010008E0
:100080005F0100085F0100085F0100085F010008D0
:100090005F0100085F0100085F0100085F010008C0
:1000A0005F0100085F0100085F0100085F010008B0
:1000B0005F0100085F0100085F0100085F010008A0
:1000C0005F0100085F0100085F0100085F01000890
:1000D0005F0100082D2900085F0100085F0100088A
:1000E000450A00085F0100085F0100085F01000881
:1000F0005F0100085F0100085F0100085F01000860
:100100005F0100085F0100085F0100085F0100084F
:100110005F0100085F0100085F0100085F0100083F
:100120005F0100085F0100085F0100085F0100082F
:10013000DFF80CD000F070FC00480047352E0008B6
:10014000000500200648804706480047FEE7FEE716
:10015000FEE7FEE7FEE7FEE7FEE7FEE7FEE7FEE777
:10016000D926000831010008D2B201E000F8012BC5
:10017000491EFBD270470022F6E710B513460A4627
:1001800004461946FFF7F0FF204610BDF0B480EAA0
:100190000102D40F4200B2EB410F02D202460846E0
:1001A00011464A0042D0C30DDDB2C1F3C752AD1AA9
:1001B000202D35DAC1F3160141F4000204B1524298
:1001C000C5F1200602FA06F12A411044B3EBD05FD4
:1001D00023D0C4B1012DA0EBC35009DCF0BC4FF01B
:1001E000004202EAC352DBB200F5000000F01BBB84
:1001F000400000F1807000EBC350A0F1807040EA35
:10020000D170490009E0490841EAC071A0EBC35030
:1002100000F50000400800EBC350F0BC00F0FABA53
:100220006142012202EB4101001BF6E7F0BC70477E
:1002300081F00041AAE780F00040A7E780EA0102D0
:1002400010B502F00043400022D04A001FD0010E3A
:1002500001EB1261C0F35600C2F3560240F40000F5
:1002600042F40002A0FB022000047F39140400D0F5
:10027000401C50EA124001D44000491EC2B20C0694
:1002800004EBD010401C4008802A02D003E000207C
:1002900010BD20F00100002900DA0020184310BD35
:1002A00030B480EA010202F0004530F0004221F053
:1002B000004013D090B1C30DD40DC2F31601C0F3AA
:1002C0001600E41A41F4000140F400027D3491422A
:1002D00001D3641C00E04900002C02DA30BC00208D
:1002E00070474FF400000023914201D3891A034361
:1002F00040084FEA4101F7D151B1914202D14FF08C
:10030000004105E002D24FF0010101E06FF0010170
:1003100003EBC450284430BC00F07CBA2DE9FE4FFA
:10032000804681EA0300C00F0C46009021F0004196
:1003300023F00045B8EB0200A94105D24046214612
:1003400090461C460B46024623F00040104347D01F
:10035000270DC7F30A00C3F30A510290401A019017
:1003600040286BDAC3F3130040F4801B00989246D8
:1003700020B10023D2EB030A63EB0B0B0198594623
:10038000C0F14002504600F014FA06460D465046B1
:100390005946019A00F02CFA10EB08006141002444
:1003A00087EA115284EAE7731A4340D0009A62B395
:1003B000019A012A4FEA075215DC001B61EB02018A
:1003C0004FF0004202EA0752CDE90042001C41F51D
:1003D000801132462B4600F06FFA03B0BDE8F08F73
:1003E00040462146F9E7001B61EB0201001C41F584
:1003F000801300185B412018A2F5001747EB03019A
:1004000040EAD570B6196D4111E06D084FEA360625
:1004100045EAC0754FEA0752001B61EB0201001C60
:1004200041F5801149084FEA300000195141324628
:100430002B4603B0BDE8F04F00F02FBA0098012220
:1004400040000023D0EB020263EBE07300982146EA
:100450004FEAE074B8EB000061EB0401E9E783F0D8
:1004600000435BE781F0004158E72DE9FE4F81EA48
:10047000030404F0004421F0004100944FF0000B0D
:1004800023F0004350EA01045ED052EA03045BD03B
:10049000C3F30A54C1F30A552C44A4F2F334019473
:1004A000A0FB0254C1F3130141F48011C3F3130301
:1004B00043F4801301FB024400FB034E840A970AB5
:1004C00044EA815447EA8357A4FB076802958D0AE2
:1004D00005FB07854FEA932C04FB0C542705029D6E
:1004E0004FEA065847EA1637B5EB08056EEB070CDE
:1004F000870E920E47EA811742EA8312A7FB020198
:10050000B6EB0B0164EB00042B0D43EA0C335E18D1
:1005100044EB1C50DA465146E7FB0201C5F31304D5
:100520004FEA0B3343EA14534FEA0432019C43EA87
:100530000603A4F10C040294009CCDE900B400F081
:10054000BBF903B0BDE8F08F00200146F9E72DE9C3
:10055000F04D81EA030404F0004B21F000451446FD
:100560004FF0000A23F0004150EA050220D054EA7F
:1005700001021DD0C5F30A570246C5F31303C1F3A8
:100580001300C1F30A5640F4801543F48013A7EB1F
:100590000608101BD64608F2FD3873EB050002D39F
:1005A00008F1010801E092185B41B8F1000F03DA8D
:1005B00000200146BDE8F08D00204FF48011064672
:1005C00084460EE0171B73EB050705D3121B63EB84
:1005D000050306434CEA010C49084FEA3000921823
:1005E0005B4150EA0107EDD152EA030012D082EAE2
:1005F000040083EA0501084305D0101BAB4106D275
:100600000122002306E000224FF0004302E06FF0D9
:10061000010253101AEB06004CEB085110EB0A00D4
:1006200041EB0B01BDE8F04D00F037B9002801DBCC
:10063000C0F10040002901DBC1F10041814201D13C
:10064000012070470020704796230022114600F0D9
:10065000EAB80EB5C10F80EAE0700844CA0700216D
:1006600040F233438DE80E000A460B4600F024F9B1
:1006700003B000BD0EB540F2334102910021CDE937
:1006800000110A460B4600F017F903B000BD00F058
:10069000004220F00040C10DC0F3160040F40000FD
:1006A0007F2901DA00207047962903DCC1F1960109
:1006B000C84001E096398840002AF4D04042704793
:1006C00070B5C1F30A5201F000450024C1F31301D3
:1006D00040F2FF3341F480119A4201DA002070BDEC
:1006E00040F233439A42A2F2334203DC524200F01A
:1006F0006FF800E090402C43F1D0404270BD00F014
:10070000004230F000400AD0C10D01F56071C0F325
:10071000160042EA0151C208400711437047002009
:100720000146704730B50B460146002020220124C7
:1007300009E021FA02F59D4205D303FA02F5491BAF
:1007400004FA02F52844151EA2F10102F1DC30BDC5
:100750002DE9F05F0546002092469B4688460646F6
:10076000814640241BE0284641464746224600F089
:100770002FF853465A46C01A914110D311461846D5
:10078000224600F016F82D1A67EB01084F46224664
:100790000120002100F00DF817EB00094E41201E4A
:1007A000A4F10104DFDC484631462A464346BDE851
:1007B000F09F202A04DB203A00FA02F10020704763
:1007C0009140C2F1200320FA03F31943904070478F
:1007D000202A04DB203A21FA02F00021704721FA96
:1007E00002F3D040C2F120029140084319467047FD
:1007F000202A06DBCB17203A41FA02F043EAE073E5
:1008000006E041FA02F3D040C2F1200291400843D1
:10081000194670470029A8BF7047401C490008BF0F
:1008200020F00100704710B4B0FA80FC00FA0CF020
:1008300050EA010404BF10BC704749B1CCF1200458
:1008400021FA04F411FA0CF118BF012121430843E5
:10085000A3EB0C01CB1D4FEA00614FEA102042BF11
:10086000002010BC704700EBC35010440029A4BF07
:1008700010BC7047401C490008BF20F0010010BCAC
:100880007047420005D0C0F3C7525242914201DC8A
:100890000020704700EBC150704710B5141E73F173
:1008A000000408DA401C41F1000192185B411A4330
:1008B00001D120F0010010BD2DE9F04D92469B467C
:1008C00011B1B1FA81F202E0B0FA80F22032904622
:1008D000FFF76FFF04460F4640EA0A0041EA0B01AA
:1008E00053465A46084313D0114653EA010019D023
:1008F000C8F140025046FFF76BFF05460E465046D2
:1009000059464246FFF755FF084305D0012004E051
:1009100020463946BDE8F08D0020054346EAE076E2
:100920002C4337430A986305E40AA0EB0800002231
:10093000FD0A44EA47540A3002D500200146E9E79F
:10094000010510196941DDE9084500196941BDE853
:10095000F04DA2E7C10F80EAE0700844CA07962371
:100960000021FFF760BFC1F30A52C1F3130140F247
:10097000FF3341F480119A4202DA002001467047A9
:1009800040F233439A42A2F2334202DC5242FFF772
:100990001FBFFFF70EBF10B500F0004420F000406D
:1009A000C20DC0F3160040F400007F2A07DA7D2A4A
:1009B00000DA7D22763A00FA02F1002008E0962A59
:1009C00009DCA2F1760100FA01F1C2F19602D040F1
:1009D000FFF720FF01E0963A9040002C00D0404203
:1009E00010BD000030B5041E71F1000404DB4FF0AF
:1009F0000044404264EB0101141E73F1000405DB66
:100A00001C464FF00043524263EB0403994208BF77
:100A1000904230BD00207047064C074D06E0E0686C
:100A200040F0010394E8070098471034AC42F6D335
:100A3000FFF782FB3846000858460008FEE7000032
:100A40007047000080B54FF4805000F021F980BD60
:100A500070470000014690F82100022813D1086871
:100A6000D1E90FC3026822F00E020260026822F090
:100A700001020260012000FA03F2CCF8042081F8A0
:100A80002100002002E0042088630120002281F878
:100A90002020704780B590F82110022927D10268E4
:100AA00040F2040C1368C4F2020C23F00E0313602E
:100AB00013680CF17C018A4223F0010111601AD9FC
:100AC00040F20841C4F202018A4247D040F21C4180
:100AD000C4F202018A4245D040F23041C4F2020120
:100AE0008A4243D14FF48073CCF8003457E004219C
:100AF0008163012080BD4321C4F202018A420EDDE0
:100B00006B21C4F202018A421BDC4421C4F20201BF
:100B10008A4239D05821C4F202018A4231E00821C8
:100B2000C4F202018A4232D01C21C4F202018A427C
:100B300032D03021C4F202018A4222D14FF48072B5
:100B40002BE06C21C4F202018A4222D08021C4F23F
:100B500002018A4215D14FF080721EE00123CCF8C9
:100B600000341CE01023CCF8003418E00CF5886148
:100B70004FF480338A4208BF4FF48053CCF80034DE
:100B80000DE04FF4803208E04FF4805205E001227E
:100B900003E04FF4801200E01022CCF80020416BFB
:100BA0004FF48072028401B18847002080BD0000AC
:100BB000B0B5044600F06EF9054640F20C00C2F2F2
:100BC00000000078611C18BF044400BF00F062F907
:100BD000401BA042FAD3B0BD10B586B040F2180455
:100BE000C2F20004206888B100F054F92168401A6C
:100BF000FFF72AFD0021C4F27A41FFF751FBFFF70E
:100C00007EFD024615A00B4602F0A0FC00F042F962
:100C100020600DF10E0003A90DF10A0202AB02F0F3
:100C2000F7FBA8B1BDF80E00BDF80C10BDF80A2006
:100C300004AC0DF11603009402F0D8FA0498010CEC
:100C4000C0F30722C3B20FA002F080FC06B010BDB3
:100C500007A003F033FC06B010BD00BF696E7465D9
:100C60007276616C203D20256620730D0A0000001D
:100C70006661696C20746F207265616420726762BE
:100C8000630D000025640925640925640D0A000030
:100C900080B540F21441C4F201010A68024208BF63
:100CA00080BD0860FFF798FF80BD00002DE9F04F80
:100CB00083B00C68002C00F0EA80A0F18042A2F51D
:100CC000843240F2004E4FEAB22241F60047C4F2AD
:100CD000010E0092C4F20107062200254FF001091F
:100CE0004FF0000B4FF0000AB84208BF05220192F6
:100CF00009E000BF0C680BF1010B34FA0BF205F1AF
:100D0000040500F0C48009FA0BF814EA080CF1D0CD
:100D10004C684FF6FF72C1F21002944210DC122CA4
:100D200050D8DFE804F0330A41454F4F4F4F4F4F43
:100D30004F4F4F4F4F4F4F484C00D1F80CA041E060
:100D40004FF6FF72C1F2210294420FDC0022C1F281
:100D5000110294421AD00022C1F21202944215D01C
:100D60000022C1F22102944210D02BE00022C1F2F5
:100D7000220294420AD00022C1F23102944205D0EC
:100D80000022C1F2320294421CD100BF8C6844B1EF
:100D9000012C14BFC0F81480C0F810804FF0080A6E
:100DA00010E04FF0040A0DE0CC6804F1080A09E0F5
:100DB0004FF0000A06E0CC6804F1040A02E0CC68B7
:100DC00004F10C0A2C460746BCF5807F24BF203C6A
:100DD00004373A680F2303FA04F6B2430AFA04F41C
:100DE00022433A60CA79D2067FF584AF41F21804F3
:100DF000C4F2020422684FF6084842F00102226061
:100E00002268CFF6FF7802F001020292029A2BF0DC
:100E10000302724452F8084005F00C0603FA06F784
:100E2000009BBC43019F052B38BF1F4607FA06F6FF
:100E3000344342F808404C68E203DEF8002054BF17
:100E400022EA0C0742EA0C07A203CEF80070DEF893
:100E5000042054BF22EA0C0742EA0C07E202CEF853
:100E60000470DEF8082054BF22EA0C0742EA0C079F
:100E7000A20240F20C44CEF80870C4F201042268C9
:100E800054BF22EA0C0242EA0C02226032E703B0AD
:100E9000BDE8F08F40F2F800C2F200000068704731
:100EA000F0B581B0B0B3044690F83D0028B90020F9
:100EB00084F83C00204600F08FFB242084F83D009D
:100EC0002068016821F001010160016841F40041DE
:100ED0000160016821F40041016000F0F7FC48F274
:100EE0008041C0F21E0140F60012656888424FF052
:100EF0000001C0F23D0248F2A16C4FF0000338BF80
:100F000001219042C0F2010C38BF0123654538BF72
:100F10000B4613B1012001B0F0BD4DF68361C4F260
:100F20001B31A0FB011221684FEA924E4B684FF42F
:100F3000967623F03F0343EA92434B6044F6D35343
:100F40000F6A0EFB06F6C1F26203A6FB033627F01A
:100F50003F03B709654538BF970C7A1C1A430A62EC
:100F6000CA6948F2A0674CF6FF73C0F20107BD42A0
:100F700022EA030C0AD801386A00B0FBF2F0013013
:100F80006FF31F30042898BF04202BE0A368A0F162
:100F9000010E9BB119206843BEFBF0F00422013022
:100FA00062F31F30000512D09BB119206843BEFBCD
:100FB000F0F00422013062F31F3011E005EB450030
:100FC000BEFBF0F001306FF31F300005ECD10120C3
:100FD00008E005EB4500BEFBF0F001306FF31F3079
:100FE00040F4004040EA0C00C8610868D4E90723D7
:100FF00020F0C000104318430860886848F2FF32B0
:1010000004F10C0790438CCF18431043A669886005
:10101000C86820F0FF0038433043C860086840F0DB
:101020000100086000202021206484F83D10206326
:1010300084F83E0001B0F0BD2DE9F04F83B01E46AC
:1010400091460F460446FFF725FF94F83D102029EE
:101050000CD102210546C0F21001204601221923BD
:10106000009501F045F930B1022700E0022738462B
:1010700003B0BDE8F08F94F83C00012801D10227AD
:10108000F5E70121206884F83C100168C90703D105
:10109000016841F001010160016807F0FE0A21F4D6
:1010A00000610160242084F83D00002020640020BD
:1010B000CFF6FF704FF0010B4FF0A008E062B9F1DE
:1010C000020F98BF4FF002092068002201683346E2
:1010D00041F48071016020464FF00111009501F04C
:1010E00007F92168002854D1C1F810A0FFF7D2FEFB
:1010F00021680A4652F8143F176894F83D50A02D15
:10110000054620D003F0020007F48063C0181AD10E
:10111000FFF7C0FE36B1401BB04288BF84F83D8067
:1011200002E000BF84F83D80216848694A6994F86C
:101130003D30A02B05D000F0020002F48062801840
:10114000E6D001F11402202084F83D0048690B68C4
:10115000800743F400730B6023D46FF48060022196
:1011600010602046C0F210010122192300950127CA
:1011700001F0BEF800287FF47AAF0BF1010BCB45EC
:10118000A2D1202084F83D000020012784F83C00F3
:101190006DE708680327C00544BF4FF40070206462
:1011A00065E70026029610680122029088690221F4
:1011B000029002982046C0F21001192300950127E1
:1011C00001F096F800287FF452AF202084F83D000B
:1011D00084F83C6000274AE72DE9F04784B00446D4
:1011E00000201F4616460D460390FFF753FE94F865
:1011F0003D1020290FD102218146C0F21001204666
:1012000001221923CDF8009001F072F818B994F872
:101210003C00012803D1022004B0BDE8F087012181
:10122000226884F83C101368DDE90D080C99DB078F
:1012300003D1136843F001031360136823F40063C0
:101240001360222284F83D20402284F83E200022B0
:10125000226461626085608D294620850020CFF67A
:10126000FF70E062204632463B46CDF80080CDF864
:10127000049000F027FF18B1012004B0BDE8F0870A
:10128000208D022810D0012824D0002838D1002039
:101290000290206841690291816902910299016876
:1012A00041F40071016037E02068016841F4006199
:1012B0000160EFF3108072B600200290206841694F
:1012C0000291816902910299016821F480610160B3
:1012D00062B621E02068016821F480610160EFF3CB
:1012E000108072B6002002902068416902918169E5
:1012F00002910299016841F40071016062B60BE04D
:101300002068016841F48061016000210291416917
:101310000291806902900298208D002800F0AC8034
:10132000042740F2080A4BF28956C0F20107C2F2C4
:10133000000AC1F2F846232517E0204641464A46F6
:1013400001F056F8002897D12068616A006908709A
:10135000606A218D01306062481E2085608D0138F1
:101360006085208D002800F08780032847D8022858
:1013700061D00128E1D02046394600224346CDF80D
:10138000009000F0B5FF00287FF476AF2068016878
:1013900021F480610160EFF3108072B62068616A09
:1013A00000690870606A218D013001396062218511
:1013B000618D01396185DAF80010C908A1FB0612B8
:1013C000110A6943039100BF0399013903910399FD
:1013D00000295CD021684A695207F5D50A6842F4B1
:1013E00000720A6009690170606A218D01306062D3
:1013F000481E2085608D0138608562B6A4E72046CE
:1014000041464A4600F0F4FF00287FF435AF2068DB
:10141000616A00690870606A228D0130013A606279
:1014200022852168628D013A62854A69520798D502
:10143000096901708CE72046394600224346CDF801
:10144000009000F055FF00287FF416AFEFF31080F6
:1014500072B62068616A026842F400720260006934
:101460000870606A218D01306062481E2085608DA1
:101470000138608562B667E7202084F83D000020CF
:1014800084F83E0084F83C0004B0BDE8F0870020FA
:101490002021206384F83D1084F83E00216C41F047
:1014A0002001216462B684F83C00E5E62DE9F043B2
:1014B00083B0994616460F460446FFF7EBFC94F8B6
:1014C0003D1020290ED102210546C0F21001204610
:1014D00001221923009500F00BFF18B994F83C0085
:1014E000012803D1022003B0BDE8F0830121226866
:1014F00084F83C101368DDE90B080A99DB0703D177
:10150000136843F001031360136823F4006313604E
:10151000212284F83D20402284F83E2000222264CB
:1015200061626085608D394620850020CFF6FF70AE
:10153000E062204632464B46CDF80080019500F02F
:1015400047FE30B3012003B0BDE8F083204641469A
:101550002A4600F07DFF28BB606A2168034613F825
:10156000012B0A61228D6362571E2785638D3F041C
:10157000A3F1010363854B6918BF13F0040308D07E
:10158000437802300B616062901E2085608D0138C7
:101590006085208D0028D9D1204641462A4600F09A
:1015A00077FE40B1206C0428CCD12068016841F45A
:1015B00000710160C6E72068016841F400710160B4
:1015C000202084F83D00002084F83E0084F83C0090
:1015D00003B0BDE8F083000010B586B0016845F6A1
:1015E0000000C4F2000081424FF00001CDE9041177
:1015F000CDE9021101D006B010BD41F21804C4F2C9
:101600000204216800F5344041F00801216021689E
:1016100001F00801019101994FF4406102911221FA
:1016200003910321059102A9FFF740FB606840F494
:1016300080006060606800F480000190019806B04E
:1016400010BD000040F20C0040F2F801C2F20000B0
:10165000C2F2000100780A68104408607047000078
:1016600080B542F20000C4F20200016841F01001AE
:101670000160032000F066F8002000F005F800F09B
:101680002BF8002080BD0000B0B540F20C02C2F281
:10169000000240F208011278C2F200014FF47A739E
:1016A0000968B3FBF2F20446B1FBF2F1084600F020
:1016B000E7FA0F2C4FF001050CD858B94FF0FF3066
:1016C00021460022002500F02DF840F21000C2F261
:1016D000000004602846B0BD82B041F21800C4F298
:1016E00002000168022241F001010160016801F07D
:1016F000010101910199416841F0805141604068C8
:1017000000F08050009000980420C4F201000168AD
:1017100062F31A61016002B07047000080B501F009
:101720000FF980BD70B514460D46064601F018F954
:101730002946224600F058FF0146304601F018F9CC
:1017400070BD000080B501F025F980BD2DE9F043A2
:1017500081B0002800F0898042F20008C4F202083B
:101760000446D8F800000D4600F0070088420CD26D
:10177000D8F8000020F007002843C8F80000D8F887
:10178000000000F00700A8426FD1206841F2040970
:101790008107C4F2020917D5410705D5D9F8001011
:1017A00041F4E061C9F80010010705D5D9F800102F
:1017B00041F46051C9F80010D9F80010A26821F076
:1017C000F0011143C9F80010C00745D1D8F8000056
:1017D00000F00700A8420CD9D8F8000020F007005C
:1017E0002843C8F80000D8F8000000F00700A8421D
:1017F0003BD12068410707D5D9F80010E26821F4F1
:10180000E0611143C9F80010000708D5D9F80000BD
:10181000216920F4605040EAC100C9F8000000F0DE
:1018200079F8D9F8001044F22062C1F30311C0F630
:101830000002515C40F2080220FA01F140F210006F
:10184000C2F200000068C2F200021160FFF71CFF44
:10185000002001B0BDE8F0836068022809D00128AB
:1018600029D159F8041C890307D4012001B0BDE82F
:10187000F08359F8041C8901F7D5D9F8001021F03C
:1018800003010843C9F80000FFF704FB064641F2D4
:10189000883700BFD9F80000616800F00C00B0EB99
:1018A000810F93D0FFF7F6FA801BB842F2D90320DC
:1018B00001B0BDE8F08359F8041C8907D5D5DCE7F1
:1018C00040F20800C2F200000068704780B5FFF7E0
:1018D000F7FF41F20401C4F20201096844F23062E8
:1018E000C1F30221C0F60002515CC84080BD000077
:1018F00080B5FFF7E5FF41F20401C4F20201096877
:1019000044F23062C1F3C221C0F60002515CC8400B
:1019100080BD000041F2040CC4F2020CDCF800307F
:1019200003F00C00082841F20020C0F27A0018BF32
:101930007047C3F383420AA18A5CD90305D440F6F9
:101940000010C0F23D0050437047DCF8001008A3BF
:10195000C1F34041595C5043B0FBF1F0704700BF08
:1019600002030405060708090A0B0C0D0E0F1010E0
:10197000010200002DE9F04182B0002800F0C4808F
:101980000446007841F20006C007C4F2020643D0C4
:10199000706800F00C00042817D0706800F00C008C
:1019A000082802D17068C0030FD465682DB1B5F561
:1019B000A02F10D0B5F5803F11D0306820F48030D2
:1019C0003060306820F480200CE03068800323D53C
:1019D000606808BB98E0306840F480203060306870
:1019E00040F480303060FFF755FA002D054610D0E6
:1019F0003068800310D4FFF74DFA401B6428F7D9F4
:101A000004E100BFFFF746FA401B64284FF00300D3
:101A100077D830688003F5D42078800718D57068AF
:101A200010F00C0F07D0706800F00C00082826D1C9
:101A30007068C00323D43068800702D5206901286C
:101A400062D13068616920F0F80040EAC10030607E
:101A5000207800073DD5A06938B30020C4F24220A9
:101A60000121C0F88014FFF715FA0546706A800757
:101A70002DD4FFF70FFA401B0228F7D9C6E02069E2
:101A8000002840F20000C4F2422000F096800121BC
:101A90000160FFF7FFF9054630688007D1D4FFF7F2
:101AA000F9F9401B0228F7D9B0E00020C4F2422027
:101AB0000021C0F88014FFF7EDF90546706A800731
:101AC00007D5FFF7E7F9401B0228F7D99EE000F0A1
:101AD000A3FD207840071BD4E5698DB1706800F044
:101AE0000C00082847D1012D0ED07068216A00F43F
:101AF00080328A4208D1616A00F47010884203D1B2
:101B0000002002B0BDE8F081012002B0BDE8F08104
:101B1000F06910F0805808D1F06940F08050F06111
:101B2000F06900F080500190019847F20007C4F27C
:101B300000073868C00510D4386840F480703860F9
:101B4000FFF7A8F9054600BF3868C00505D4FFF7C0
:101B5000A1F9401B6428F7D958E0E5681DB1052DAF
:101B60003CD0012D3ED0306A20F001003062306A56
:101B700020F0040039E00027C4F242270020386634
:101B8000FFF788F9022D05460CD100BF30688001AF
:101B900054D5FFF77FF9401B02284FF00300F5D919
:101BA000AFE700BF30688001AAD5FFF773F9401B8B
:101BB00002284FF00300F5D9A3E700210160FFF7E9
:101BC00069F90546306880077FF542AFFFF762F993
:101BD000401B02284FF00300F4D992E7306A40F02E
:101BE00004003062306A40F001003062FFF752F9C1
:101BF000002D054641F2883714D000BF306A8007B7
:101C000013D4FFF747F9401BB842F7D9032002B0BD
:101C1000BDE8F081FFF73EF9401BB8424FF00300EA
:101C20003FF66FAF306A8007F4D4B8F1000F7FF44D
:101C300053AFF06920F08050F0614DE7206AB0F5B5
:101C4000803F05D17168A26821F4003111437160B1
:101C50007168626A21F474111043084370600120B6
:101C60003866FFF717F90446306880013FF548AF42
:101C7000FFF710F9001B02284FF00300F4D940E7EA
:101C800080B500F0E1FC80BD7047000070470000A7
:101C9000B0B582B0016805460868CA684C6900F0B2
:101CA0002F03202B02F0200305D123B1284600F09A
:101CB0003FFD02B0B0BD5FEA007C1EBF04F0010E24
:101CC00002F4907414EB0E0424D12B6B1040C20666
:101CD00017D5012B15D100200190086801904868A4
:101CE00001900198486940061CD4A88DEA8DEB8DBF
:101CF000002B1CBF801A5FEA004240F09A8002B0BD
:101D0000B0BD010636D44006F9D5284600F004FDE2
:101D100002B0B0BDC10718BF12F480712FD14107C6
:101D200033D439E0A86B0268526893B2002BE6D036
:101D3000AC8DA342E3D2EA858269202A16D0CA6814
:101D400022F48072CA604A6922F001024A614A693B
:101D500022F040024A61202285F83E2000222A63B8
:101D6000CA6822F01002CA60FEF774FEA88DE98DE1
:101D7000401A6FE0284600F07DFD02B0B0BD296C2E
:101D800041F001012964410706D5BEF1000F03D0DF
:101D9000296C41F002012964810706D5BEF1000FCC
:101DA00003D0296C41F004012964BCF1000F06D571
:101DB0005EEA030103D0296C41F008012964296C13
:101DC00000299CD01040800602D5284600F0B0FCC7
:101DD00028684069296C00F0400001F008014018B3
:101DE00020D0284600F082FC28684169490614D5B5
:101DF000416921F040014161A86B70B142F2DD619F
:101E0000C0F600014163FEF745FE00283FF477AFBE
:101E1000A86B416B884702B0B0BD2846FFF736FF7C
:101E200002B0B0BD2846FFF731FF0020286402B0A1
:101E3000B0BDCA6822F49072CA604A6922F00102F9
:101E40004A61202285F83E2000222A63CA6822F0D7
:101E50001002CA6081B22846FFF716FF02B0B0BD7B
:101E6000002804BF0120704710B5044690F83D00DB
:101E700028B9002084F83C00204600F021F82420F6
:101E800084F83D002068C16821F40051C1602046FB
:101E900000F0A8FC2068016921F4904101614169CA
:101EA00021F02A014161C16841F40051C160002064
:101EB0002021206484F83D1084F83E1010BD0000FD
:101EC00070B586B0006844F20041C4F200010026FB
:101ED00088420596CDE9036602963FD043F600019D
:101EE000C4F20101884266D141F21800C4F2020036
:101EF000016840F6000441F4804101600168C4F2C9
:101F0000010401F4804101910199016802AD41F0A1
:101F1000040101600068294600F004000190019866
:101F20004FF4007002900220039003200590204699
:101F3000FEF7BCFE4FF4806002900020CDE9030064
:101F400020462946FEF7B2FE252000210022FFF799
:101F5000E9FB2520FFF7E2FB06B070BD41F2180057
:101F6000C4F20200416840F6000441F400314160CF
:101F70004168C4F2010401F4003101910199016842
:101F800002AD41F0040101600068294600F0040040
:101F900001900198042002900220039003200590F4
:101FA0002046FEF783FE0820CDE90206204629469A
:101FB0000496FEF77BFE06B070BD0000704700007F
:101FC0002DE9F04381B0044690F83D0020280BD164
:101FD0000E4600294FF0010055D01746002A52D076
:101FE00094F83C00012803D1022001B0BDE8F08341
:101FF000012084F83C004FF0000921201D46C4F860
:10200000409084F83D00FEF745FFA784E784A1686F
:102010000746B1F5805F07D1206900281CBF304614
:102020004E46B046064601E04FF0000884F83C906A
:1020300007E000BF16F8010B21684860E08C01380A
:10204000E084E08C80B1204680213A462B4600F0A7
:102050003BFC80B9002EEDD138F8020B21686FF3FC
:102060005F2048600026E9E7204640213A462B469B
:1020700000F02AFC18B1032001B0BDE8F083202055
:1020800084F83D00002001B0BDE8F08370470000F7
:10209000FEE700000268516949054FF000010FD5C5
:1020A0006FF4806353612022016380F83D2080F843
:1020B0003E10026C42F00402026480F83C100121E0
:1020C000084670472DE9F04782B0044600680E4686
:1020D0000168DDF828A041F4806101600168DDF845
:1020E0002C9041F480711D461746016020464FF048
:1020F000011100225346CDF8009000F0F9F850B1DC
:1021000020680068C00544BF4FF4007020640320BD
:1021100002B0BDE8F08740F202082068C0F2010872
:1021200006F0FE0606612046414652464B4600F048
:1021300019F948BB0020019020684A464169019185
:102140008069514601900198204600F081F998B9C4
:10215000012D08D02068390A0161204651464A46BF
:1021600000F076F940B92068F9B201612046514685
:102170004A4600F06DF958B1206C042804D120685B
:10218000016841F400710160012002B0BDE8F087F0
:10219000206800220168534641F4807101602046A6
:1021A0004FF00111CDF8009000F0A2F80028A7D15F
:1021B000206846F0010101612046414652464B46E7
:1021C00000F0D0F8002818BF012002B0BDE8F08769
:1021D0002DE9F04383B0044600680D4601680A9F6C
:1021E0000B9E41F4807199469046016020464FF065
:1021F000011100223B46009600F07AF850B12068A9
:102200000068C00544BF4FF400702064032003B091
:10221000BDE8F083206805F0FE0101610221C0F2F3
:10222000010120463A46334600F09CF818B10120DF
:1022300003B0BDE8F0830020029020683246416977
:1022400002918069394602900298204600F000F918
:1022500040B1206C0428EAD12068016841F4007183
:102260000160E4E7B9F1010F0AD020684FEA1821B4
:10227000016120463946324600F0EAF80028E8D1EC
:1022800020685FFA88F10161002003B0BDE8F083A7
:10229000F0B581B0044600684069400724D4154673
:1022A0000E464F1C04E000BF2068406940071BD465
:1022B0002046FFF7EFFEA0B9002FF5D0FEF7EAFDAC
:1022C00016B1401BB042EFD900202021206384F8D2
:1022D0003D1084F83E00216C41F02001216484F817
:1022E0003C00012001B0F0BD002001B0F0BD0000B5
:1022F0002DE9F047DDF820801D469146824601F425
:102300007F078EB25C1C00BFDAF80000B7F5803F93
:1023100014BF1830143000683040801BB0FA80F0D1
:10232000400948451BD1002CEED0FEF7B3FD1DB18E
:10233000A0EB0800A842E7D900202021CAF830000D
:102340008AF83D108AF83E00DAF8401041F020018A
:10235000CAF840108AF83C000120BDE8F087002050
:10236000BDE8F0872DE9F0410446006898464369CE
:102370008FB203EA0701B94202D10020BDE8F08123
:102380004169490512D41646551C00BF35B1FEF708
:1023900081FD16B3A0EB0800B0421ED82068416949
:1023A0003940B942E9D041694905EFD5016841F4A6
:1023B000007101606FF48061416100202021206381
:1023C00084F83D1084F83E00216C41F00401216442
:1023D00084F83C000120BDE8F0810020202120632A
:1023E00084F83D1084F83E00216C41F02001EEE7B6
:1023F00070B515460E46044620684169490613D457
:102400004169C90612D4FEF745FD16B1401BB04222
:10241000F2D900202021206384F83D1084F83E008A
:10242000206C40F020000CE0002070BD6FF0100127
:10243000416100202021206384F83D1084F83E0093
:10244000206C2064002084F83C00012070BD000056
:10245000F0B581B0044600684069000624D41546F2
:102460000E464F1C04E000BF2068406900061BD4E4
:102470002046FFF70FFEA0B9002FF5D0FEF70AFDAA
:1024800016B1401BB042EFD900202021206384F810
:102490003D1084F83E00216C41F02001216484F855
:1024A0003C00012001B0F0BD002001B0F0BD0000F3
:1024B00080B586B00020CDE90400CDE9020041F2EC
:1024C0001800C4F20200016841F0200101600168B7
:1024D00001F0200101910199016841F004010160BE
:1024E000016801F0040101910199016841F00801BE
:1024F0000160006802A900F00800019001984FF403
:10250000805002900020C1F221000390012004902D
:1025100040F60040C4F20100FEF7C8FB282000216D
:102520000022FFF7FFF82820FFF7F8F806B080BD7B
:1025300080B540F21C0045F60001C2F20000C4F272
:10254000000148F2A06200234FF4804CC0F2010267
:1025500080E80E00C0E9033CC0E90533C0E9073359
:10256000FEF79EFC002818BFFEF772FA80BD00003F
:1025700080B540F2700043F60001C2F20000C4F2E0
:10258000010100234FF00C0C4FF4E13280E80E0003
:10259000C0E90333C0E905C3C361FFF761FC00284C
:1025A00018BFFEF755FA80BD80B540F2B40044F282
:1025B0000041C2F20000C4F2000100234FF00C0CF5
:1025C0004FF4E13280E80E00C0E90333C0E905C3EF
:1025D000C361FFF745FC002818BFFEF739FA80BD3C
:1025E000FEE700007047000000F0070080F00703DE
:1025F000042B28BF04234FF0FF3C03380CFA03F3ED
:1026000038BF0020994381400CFA00F022EA000014
:10261000084370477047000081B040F20800C2F2E2
:102620000000006844F6D351C1F26201A0FB010131
:10263000480A009000BF0098411E00280091F9D17F
:1026400001B0704770470000B0B501380024B4EB0A
:10265000106F1CBF0120B0BD4EF21005CEF2000578
:1026600068604FF0FF300F2100F082F90720AC6066
:1026700028602046B0BD000080B5FEF7E3FF80BDB6
:1026800070B590B006AC20462821FDF774FD0120FE
:1026900006900A904FF4E01000254FF48031022696
:1026A0000F9020460595CDE90355CDE90155CDE9BB
:1026B0000715CDE90D61FFF75DF90F20CDE90106A2
:1026C0004FF48060CDE9040501A802210395FFF7CE
:1026D0003DF810B070BD00007047000080B5406A42
:1026E0000021C185C184FFF7D1FA80BD0168CA68A5
:1026F00022F49072CA604A6922F001024A61026BB8
:10270000012A03D1CA6822F01002CA60202180F891
:102710003E1000210163704780B50168CA6822F04D
:102720004002CA60202180F83D10FFF7AFFC80BD59
:1027300080B582B090F83E1022291ED18268B2F591
:10274000805F02D10169002940D0816AB2F5805FC3
:1027500007D00AB9026922B10268526802F07F020A
:1027600001E0026852680A700121826A11448162A4
:10277000C18D01390A04C18501D002B080BD016854
:10278000CA6822F02002CA60CA6822F48072CA6055
:102790004A6922F001024A61202280F83E20026B41
:1027A000012A1BD100220263CB6823F01003CB6007
:1027B0000B68DB0605D501920A6801924968019110
:1027C0000199818DFFF760FA02B080BD0168826ACD
:1027D00049686FF35F2111800221C6E7FFF7EEFB26
:1027E00002B080BD10B504460068D4E902C2236976
:1027F000016921F4405111430161616943EA0C020E
:102800001143C26841F20C639A431143C1604169AC
:10281000A26921F44071114343F60002C4F201029F
:102820009042416102D0FFF751F801E0FFF760F8F4
:102830006268192148439100B0FBF1F048F21F5142
:10284000C5F2EB11A0FB01235A096FF0630302FBF1
:102850000300322303EB0010A0FB0101F02303EA85
:102860005113206803EB0212C1F34311114481603C
:1028700010BD000090F83D10212923D18168B1F5E9
:10288000805F01D1016931B1016A02684B1C0362AA
:102890000978516007E0016A036831F8022B6FF391
:1028A0005F225A600162C18C01390A04C18418BFD9
:1028B00070470068C16821F08001C160C16841F0C3
:1028C0004001C160704700002DE9F04104460068F6
:1028D00000680840884202D10020BDE8F0811D4612
:1028E0000E4690465F1C04E0206800683040B0420D
:1028F000F2D0002FF8D02DB1FEF7CCFAA0EB0800F3
:10290000A842F1D92068C16821F4D071C160416941
:1029100021F001014161202084F83D0084F83E004F
:10292000002084F83C000320BDE8F08180B540F22F
:102930007000C2F20000FFF7ABF980BDFEE70000B7
:10294000002848BF704700F01F01012202FA01F180
:102950004EF200124009CEF2000242F820107047F9
:102960004EF60C50CEF200000068C0F30220704713
:102970004EF6145300F00F02CEF2000309011A4480
:1029800000F16043B0F1FF3FC8BF03F5644211702E
:10299000704700004EF60C51CEF200010A684FF667
:1029A000FF031A4060F30A2242F0806040F0FD709D
:1029B000086070472DE9F04F83B014460D46FDF7CF
:1029C00059FE45F61D2244F6DF73C3F66432C4F2A5
:1029D000060382468B46FDF748FD064628460F460D
:1029E000FDF748FE47F2823240F2F663C9F24642F2
:1029F000C3F6FC7380468946FDF737FD02460B4659
:102A000030463946FDF78AFC064620460F46FDF75C
:102A100031FE40F2F76241F24C53C9F65F02C3F651
:102A2000F27304460D46FDF720FD02460B46304684
:102A30003946FDF773FC4FF6225245F6E043CDE9E7
:102A40000110C7F2F652C4F2120340464946FDF7A0
:102A50000CFD52465B46FDF761FC4AF6DA424CF249
:102A60006D5306460F46C5F6FA42C3F6AE732046CE
:102A70002946FDF7FAFC02460B4630463946FDF77B
:102A80004DFC4BF221024EF6915382468B46C6F620
:102A90007202C3F6AC7340464946FDF7E6FC40F6C9
:102AA0001B5246F2900306460F46C2F6E052C4F2AD
:102AB000160320462946FDF7D8FC02460B46304651
:102AC0003946FDF72BFC029E019F04460D46304619
:102AD000394652465B46FDF721FC02460B4620462E
:102AE0002946FDF71BFC04460D4630463946224672
:102AF0002B46FDF72CFD06460F465046594622460A
:102B00002B46FDF724FD46F6730243F67C7304461C
:102B10000D46CEF69152CBF6D57330463946FDF7C9
:102B2000FDFB06460F4646F2F1304CF64B01C5F66A
:102B3000CC50C3F6C77122462B46FDF790FC0246E7
:102B40000B4630463946FDF702FD45F20003C4F25C
:102B50007B03002204460D46FDF787FC02460B4628
:102B600020462946FDF781FC02460B4620462946B1
:102B7000FDF77BFC42F2002306460F46C4F2AC038D
:102B8000204629460022FDF770FC02460B462046EF
:102B90002946FDF76AFC32463B46FDF7BFFB4AF685
:102BA000007306460F46C4F2BA03204629460022A7
:102BB000FDF75BFC32463B46FDF7B0FB48F60053A1
:102BC000C4F2B5030022FDF7A9FB03B0BDE8F08F06
:102BD00010B582B0019040F2700001ACC2F200006A
:102BE00021460122FF23FFF7EBF940F2B400C2F2C5
:102BF000000021460122FF23FFF7E2F9019802B00D
:102C000010BD000080B50522FF23FEF715FA00284D
:102C100018BF012080BD000080B582B04FF0010CCC
:102C2000CDF800C000F03AF802B080BD10B582B017
:102C30001C460DF10703FFF7EFFF9DF80710012871
:102C400008BF2146C8B202B010BD0000B0B582B0C6
:102C50001C4601250DF10703009500F01FF801281F
:102C600009D09DF8071004F007020698D14001F042
:102C7000010100250170284602B0B0BDB0B582B098
:102C8000069D0DF107040094FFF7E0FF9DF8071083
:102C9000012808BF2946C8B202B0B0BD80B584B0D3
:102CA000DDF818C04FF0FF0E00930123CDF808E0C7
:102CB000CDF804C0FEF790FA002818BF012004B038
:102CC00080BD0000F0B581B004460FA001F0F6FB16
:102CD000002511A6002702E00135802D0ED06800E6
:102CE000C1B22046FFF78EFF0028F5D10137F9B2B7
:102CF00030462A462B4600F029FCEDE70BA001F0F8
:102D0000DDFBF8B201B0F0BD376269747320616415
:102D100064726573733A0D005B253033645D203057
:102D20007825303278282564290D0A002D2D2D2D87
:102D30002D2D2D2D2D2D2D2D2D2D0D0080B582B05D
:102D40008DF807304FF0010C0DF10703CDF800C0EE
:102D500000F05CF802B080BD2DE9F04182B09846E9
:102D600001270DF1070314460D4606460097FFF7AD
:102D700095FF012817D0089808F00701002807FAE6
:102D800001F09DF807100CBF21EA000008438DF800
:102D9000070001270DF10703304629462246009718
:102DA00000F034F80746384602B0BDE8F081000074
:102DB0002DE9F04182B0984601240DF10703154634
:102DC0000E4607460094FFF769FF01281AD0DDE997
:102DD0000801FF22C0F1080022FA00F09DF8072048
:102DE00000FA08F001FA08F18243084010438DF818
:102DF00007000DF10703384631462A46009400F0DB
:102E000005F80446204602B0BDE8F08180B584B0E4
:102E1000DDF818C04FF0FF0E00930123CDF808E055
:102E2000CDF804C0FEF742FB002818BF012004B013
:102E300080BD000086B0FEF713FCFFF721FCFFF712
:102E400037FBFFF795FBFFF773FBFFF7ADFB00F0D8
:102E500091FA002848D00DF1160A0DF1140B0DF16E
:102E600012080DF1100906E02BA001F027FB00F07D
:102E70005DF900F07BF95046594642464B4600F05A
:102E8000C7FA0028F0D0BDF81600BDF81410BDF840
:102E90001220FFF78FFDFDF713FCBDF81640BDF8BB
:102EA0001410BDF81220BDF810300546204600F081
:102EB00051F8BDF81630BDF81410BDF812200446C4
:102EC000184600F075F8BDF81610BDF81420BDF8CE
:102ED0001230BDF81070064614A0CDE900750294BA
:102EE000039600F033FBC2E740F21C00C2F2000080
:102EF000FFF7E8FE02A001F0E1FA00BFFEE700BF25
:102F000063616E27742066696E6420746373333462
:102F10003732780D000000006661696C20746F2004
:102F20007265616420726762630D0000523A256425
:102F300009473A256409423A256409433A25640958
:102F4000543A256409543A256409543A25640D0A13
:102F500000000000F0B581B004460844104480B27F
:102F6000C01A00EBD0704FF0000788BFC0F34F07C6
:102F7000D01BFDF76EFB4CF20043C4F2AD03002200
:102F8000FDF773FA0546E01B0E46FDF762FB0246AD
:102F90000B4628463146FDF7DAFA4BF60043C4F2F9
:102FA00095030022FDF7BAF9FDF78AFB01B0F0BDE9
:102FB0002DE9F04190460E46FDF746FB43F6687159
:102FC000CBF612610546FDF739F907463046FDF7A5
:102FD0003BFB44F67F51C3F6C6710646FDF72EF95A
:102FE0003946FDF7D3F804464046FDF72DFB4DF278
:102FF0004971CBF674710746FDF720F9014620466A
:10300000FDF7C4F843F6D6118046CBF6A6612846F4
:10301000FDF714F940F607010446C3F6CA713046BD
:10302000FDF70CF92146FDF7B1F845F67461044649
:10303000CBF63B713846FDF701F901462046FDF716
:10304000A5F849F6DD010446CBF62E712846FDF7BA
:10305000F5F844F690610546C3F645713046FDF734
:10306000EDF82946FDF792F843F2BD510546C3F647
:1030700010713846FDF7E2F801462846FDF786F85C
:10308000054640462146FDF781F801462846FDF7F2
:103090007DF8054640462946FDF702F906462046DA
:1030A0002946FDF7FDF84FF6E7310446CBF6A96156
:1030B0003046FDF76BF8054644F25B20C3F63E60F0
:1030C0002146FDF7B5F801462846FDF7E9F800214D
:1030D000C4F24001044600F0E1FE48F20001C4F2EF
:1030E000E031FDF7ABF8054620462146FDF7A6F88E
:1030F00045F20001C4F25C51FDF7A0F82946FDF746
:1031000045F843F666210546C4F2D5512046FDF741
:1031100095F82946FDF73AF848F2A421C4F2AC51DB
:10312000FDF734F8FDF7B3FABDE8F08180B500F0A3
:1031300051F8EA2806DC70B1C0280FD0D52814D188
:10314000652010E0EB280BD0FF280BD0F62818BF25
:1031500080BD182007E04FF42F7004E09A2002E0B1
:10316000322000E00320FDF723FD80BD80B500F094
:10317000D3F848B300F0E4F8FF2808DCB8B1AB2876
:103180001AD0FF2820D10320FDF712FD80BDB0F535
:10319000807F15D040F2AB11884216D040F2FF116B
:1031A000884218BF80BD1D20FDF702FD80BD40F2A2
:1031B0006620FDF7FDFC80BDCC20FDF7F9FC80BD4D
:1031C00041F6E840FDF7F4FC80BD40F69210FDF7B3
:1031D000EFFC80BD80B540F21C00C2F2000052211D
:1031E00081220023FFF722FD80BD00002DE9F0437E
:1031F00081B098460E4607468842154628BFAF4222
:1032000010D2BE4228BFAE4213D2B5424FF07E5418
:1032100028BFBD4219D348F28100C8F28000A5FB47
:1032200000010CE048F28100C8F28000A7FB000119
:1032300005E048F28100C8F28000A6FB00010120F1
:1032400000EBD110FDF700FA0446DDF8209020468F
:103250000021FDF7EBF9D0B93846FDF7F5F9214625
:10326000FDF71EF8FDF713FA07463046FDF7ECF9B7
:103270002146FDF715F8FDF70AFA06462846FDF740
:10328000E3F92146FDF70CF8FDF701FA0546B7F121
:103290001E0098BF384680B24BF2C531C0EB00200B
:1032A000C9F2A211A0FB0102B6F11E0098BF304680
:1032B00080B2C0EB0020A0FB0103B5F11E0098BF57
:1032C000284680B2C0EB0020A0FB01014FF47F40F4
:1032D00010EAD21F4FF0FF0608BFD60910EAD11F2F
:1032E0004FF0FF024FF0FF0708BFCA0910EAD31FD3
:1032F00090B208BFC3F3CF1742EA471140EA072054
:1033000041EAC62140EA0640A8F80010C9F80000CA
:1033100001B0BDE8F083000080B582B040F21C002F
:103320004FF0000CC2F20000522180220323CDF89E
:1033300000C0FFF7A3FC002818BF012002B080BD29
:10334000B0B582B040F21C04C2F200040025204651
:1033500052218D2201230095FFF790FC054620465F
:10336000522183220023FFF761FC40EA052002B0CE
:10337000B0BD0000B0B582B040F21C00C2F2000047
:103380005221922200230024FFF750FC054610A092
:103390001AA21EA30B21009500F0D8F84D2D01D0E4
:1033A000442D11D1EB2000F083F8002000F06EF8DE
:1033B000002000F089F8002000F0B8F80120012476
:1033C00000F0A4F800F090F8204602B0B0BD00BFB5
:1033D0005B206C696E653A202564207C2066756EE2
:1033E0006374696F6E3A202573205D202573203D3C
:1033F000203078253032780D0A0000007463733372
:10340000343732785F696E697400000069640000C7
:103410002DE9F04184B0074640F21C001E4690465C
:103420000D46C2F20000522193220023FFF7FEFB5B
:103430000446C00608D540F21C00C2F2000052212A
:10344000E6220023FFF77AFC14F0010419D040F2C1
:103450001C004FF0080CC2F2000002AB5221D42233
:10346000CDF800C0FFF71AFCBDF80800BDF80A103F
:1034700030803980BDF80C00BDF80E102880A8F807
:103480000010204604B0BDE8F081000080B582B095
:1034900084460220009040F21C00C2F2000052213B
:1034A0008F220023CDF804C0FFF782FC02B080BD5C
:1034B00080B5034640F21C00C2F200005221812276
:1034C000FFF73CFC80BD000080B582B0844640F22E
:1034D0001C00C2F20000522180220423CDF800C05B
:1034E000FFF73AFC02B080BD80B582B040F21C000C
:1034F0004FF0010CC2F20000522180220023CDF8CF
:1035000000C0FFF729FC02B080BD000080B582B08A
:10351000844640F21C00C2F20000522180220123A6
:10352000CDF800C0FFF718FC02B080BD80B582B0B6
:10353000844640F21C00C2F2000052218022032384
:10354000CDF800C0FFF708FC02B080BD0FB4054BFA
:1035500010B503A9044A029800F008F910BC5DF800
:1035600014FB0000D12B00080000002041000802DD
:1035700018BF04200A0E18BF40F001004FF07F4230
:1035800032EA010108BF40F00200012808BF05200F
:10359000704700214FF07E50FCF782BEFCF7F6BD6D
:1035A00000210846FCF77CBE61214FF0E040FDF7AA
:1035B00068B96FF05E010807FDF763B902E008C85B
:1035C000121F08C1002AFAD170477047002001E09D
:1035D00001C1121F002AFBD1704700000149086099
:1035E00070470000040000202DE9FF5F82B0002139
:1035F000DDE90430020DDDF840B0034318D044F695
:103600001050A2F2FF3242431514119801281FD026
:10361000A5EB0B00401C5FEA000A4FF000064E4F7E
:10362000DFF83891B046504615D5CAF1000413E0D2
:10363000119801244AA3012801D16FEA0B010298D5
:10364000119AC0E90031C0E9024206B0BDE8F09F1E
:10365000CBF10000DFE704460021404A491842EB65
:103660000450CDE9001012E0E00707D032463B4697
:1036700040464946FCF7F9FE8046894632463B46BD
:1036800010461946FCF7F1FE06460F466410002C62
:10369000EAD1DDE90401DDE90023BAF1000F06DA21
:1036A000FCF7E3FE42464B46FCF7DFFE05E0FCF785
:1036B0004EFF42464B46FCF74AFF04460E460022A8
:1036C000284BFDF78FF903D84FF0FF30014607E094
:1036D0000022254B20463146FCF720FEFDF743F93A
:1036E000102409E0002C0ADB0A220023FDF730F841
:1036F000039B30321A55641E50EA0102F2D1641C59
:10370000039AC4F111031444119A012A03D001222F
:1037100008430DD10AE0084304D000204FF0110BFC
:10372000119072E7A3EB0B056D1E0DE05B4504DD08
:103730004FF0000205F1010504E003DA4FF000024A
:10374000A5F10105002AECD002981199C0E90231D7
:10375000C0E9004579E70000000014400000F03F98
:10376000300000000000F0430000E03F2DE9FF4F73
:1037700095B09B468946064600250FE2252877D15D
:1037800000242746F84A0121059400E0044316F876
:10379000013F203B01FA03F01042F7D130782A288C
:1037A00011D06FF02F033078A0F13002092A16D81B
:1037B000059A44F0020402EB820203EB4202104439
:1037C000761C0590EFE759F8042B0592002A03DADE
:1037D000504244F40054059044F00204761C3078C2
:1037E0002E2816D116F8010F44F004042A280DD013
:1037F0006FF02F023078A0F13003092B09D807EBC6
:10380000870302EB4303C718761CF3E759F8047BE0
:10381000761C30786C280FD006DC4C2817D068282E
:103820000DD06A2814D104E0742810D07A280FD162
:103830000DE044F400140AE044F4801401E044F480
:1038400040147278824202D104F58014761C761CF2
:10385000307866280BD013DC582877D009DC002894
:1038600075D04528F6D04628F4D047281AD19DE1D6
:1038700018E0632835D0642879D0652812D195E105
:10388000702873D008DC6728F1D069286FD06E28C3
:103890000DD06F2806D1B5E073282CD0752875D0CF
:1038A000782874D05A46179990476D1C75E1C4F377
:1038B0000250022809D003280DD0D9F8001004289E
:1038C0000DD00D6009F1040967E1D9F80010EA177D
:1038D000C1E90052F6E7D9F800100D80F2E70D704B
:1038E000F0E719F8041B8DF8001000208DF8010096
:1038F000EA46012003E059F804AB4FF0FF306107BE
:103900004FF0000102D40DE008F101018846B942F0
:103910000FDA8045F8DB1AF808100029F4D108E026
:1039200008F1010188468142FADB1AF808100029E3
:10393000F6D105985B46A0EB080721463846179A52
:1039400000F094FA284400EB080507E04DE029E177
:103950000DE01AF8010B5A4617999047B8F1010883
:10396000F7D25B4621463846179A13E142E00A2215
:103970000092C4F302524FF0000A022A08D059F80C
:1039800004CB032A4FEAEC710AD00DE029E02AE0CB
:1039900009F1070121F00702F2E802C1914609E0AE
:1039A0000FFA8CFC4FEAEC71042A03D14FFA8CFC1D
:1039B0004FEAEC71002907DA0A460021DCF1000C1D
:1039C00061EB02012D2202E0220504D52B228DF8A5
:1039D0000420012203E0E20701D02022F7E790460D
:1039E00059E00A2102E010220DE010214FF0000AF8
:1039F00000910BE010224FF0000A44F00404082765
:103A0000009203E008224FF0000A0092C4F3025231
:103A1000022A05D059F804CB0021032A08D009E076
:103A200009F1070121F00702F2E802C1914605E021
:103A30001FFA8CFC042A01D10CF0FF0C4FF0000897
:103A4000220728D5702806D0009B83F0100353EA84
:103A50000A0305D00EE040228DF80420012208E080
:103A60005CEA010206D030228DF804208DF80500B2
:103A700002229046009B83F0080353EA0A030AD10E
:103A80005CEA010201D1620705D530228DF80420DD
:103A90004FF001087F1E582804D034A003900EA8D0
:103AA00002900DE036A0F9E753466046009AFCF715
:103AB0004FFE84460398825C0298401E029002707A
:103AC0005CEA0100F0D1029806A9081A00F1200A68
:103AD000600702D524F4803400E00127574502DD59
:103AE000A7EB0A0000E0002000EB0A010090059817
:103AF0004144401A0590E00306D45B462146179ADC
:103B0000059800F0B3F90544002706E001A85A46DD
:103B1000C05D179990476D1C7F1C4745F6DBE0039D
:103B20000CD55B462146179A059800F09FF905448D
:103B300004E030205A46179990476D1C0099481EA2
:103B400000900029F5DC08E0029802995A460078B6
:103B5000491C0291179990476D1CBAF10001AAF116
:103B6000010AF1DC65E1000009280100303132333F
:103B700034353637383961626364656600000000A9
:103B80003031323334353637383941424344454693
:103B90000000000000F058F90544761C3078002839
:103BA0007FF4ECAD19B02846BDE8F08F620700D471
:103BB000062709F1070222F0070CFCE80223E14680
:103BC00003F000485FEA080C02D00FF2702C0DE001
:103BD0005FEA045C02D50FF2682C07E05FEAC47C60
:103BE00002D00FF2602C01E0AFF2700C4FF0FF3802
:103BF00023F00043CDF850C065280CD006DC4528E2
:103C000009D046281DD047283DD13DE0662818D070
:103C100067287ED138E00021112F01DB112000E060
:103C2000781CCDE9000106A90EA8FFF7DDFCDDE94F
:103C30000F010E9A03910021009207F1010A0491ED
:103C40004DE04FF000400097CDE9011006A90EA805
:103C5000FFF7CAFCDDE90F0203920E9B11990022C7
:103C6000DDF80CA00093049211B9791C00EB010A55
:103C7000B7EB0A0004D4C0F1FF3007F1010A049049
:103C8000AAEB0700019044E0012F00DA0127002190
:103C9000112F01DD112000E03846CDE9000106A911
:103CA0000EA8FFF7A1FCDDE90F010E9A0391002198
:103CB00004910092BA4621070CD40399514500DAC9
:103CC0008A46BAF1010F05DD009AAAF10101515CA3
:103CD000302908D0B84202DA10F1040F06DA0121C7
:103CE000CDE9011015E0AAF10101E9E7002805DCA2
:103CF000049901440491AAEB000102E0411C5145E2
:103D000000DD8A460499401A401C01904FF00040A3
:103D10000290200704D40198504501DBCDF80480BF
:103D200000208DF84F0002980DF14F07B0F1004FC1
:103D300025D02B200E9002984FF0020800280CDAB4
:103D4000404202902D200E9007E00A210298FCF7D5
:103D5000E9FC3031029007F8011DB8F10001A8F12B
:103D60000108F2DC02980028EFD1791E0E98087045
:103D7000307800F0200040F0450007F8020D12A84E
:103D8000C01B00F107081498007800B1012000EB77
:103D90000A01019801EBE07105984144401A401E68
:103DA0000590E00306D45B462146179A059800F07B
:103DB0005DF805441498007818B15A461799904751
:103DC0006D1CE00324D55B462146179A059800F048
:103DD0004DF805441CE00498002807DBDDE90301E9
:103DE000884203DD0098405C179901E01799302064
:103DF0005A469047049805F10105401C049001982B
:103E0000401E019004D12E205A46179990476D1CF0
:103E1000BAF10001AAF1010ADDDC05E017F8010B97
:103E20005A46179990476D1CB8F10001A8F1010896
:103E3000F4DC5B462146179A0598ABE62D0000009E
:103E40002B000000200000002DE9F0410446002571
:103E50001E461746880404D405E039462020B047A2
:103E60006D1C641EF9D52846BDE8F0812DE9F041AE
:103E7000044600251E469046C80301D5302700E0C1
:103E80002027880404D505E041463846B0476D1C1C
:103E9000641EF9D52846BDE8F08100002DE9F04DFB
:103EA0000E460023A0F5000C4FF00071354684B09B
:103EB00002464FF07E5401EB45014FF07F48BCF1C4
:103EC000FE4F80F09F81B1F1804FC0F0DB81FE4951
:103ED0000144B1F5005F40F2A78200F58021C90CD2
:103EE00001F00F07C1F307117F39A2EBC15501EBB8
:103EF000030B3846FCF72EFD6FF00301FCF7C1FC05
:103F00004FF07E51FCF742F9014602902846FCF73B
:103F10008FF9019028460299FCF738F900F5006AFC
:103F20006FF30B0A009051460298FCF781F929467D
:103F3000FCF72CF902904FF07E500099FCF7B0F995
:103F4000014600900198FCF779F900F500656FF3E0
:103F50000B0528460299FCF771F902905146284654
:103F6000FCF76CF90199FCF766F90299FCF760F926
:103F70000099FCF763F9014601902846FCF706F921
:103F800001460290FCF75AF98246D049FCF756F9EF
:103F9000CF49FCF7FBF85146FCF750F98246002167
:103FA0002846FCF76EFC009051460298FCF746F953
:103FB000054600210198FCF764FC2946FCF7E6F869
:103FC000824601460098FCF7E1F800F500656FF3C2
:103FD0000B0529460098FCF72BF95146FCF7D6F85B
:103FE0008246BC492846FCF729F90090BA49504658
:103FF000FCF724F98246B9492846FCF71FF95146D7
:10400000FCF7C4F8824601460098FCF7BFF800F5BB
:1040100000656FF30B0529460098FCF709F9514636
:10402000FCF7B4F88246AE48784450F8371000EBFD
:10403000C700019147684FEA0B10FCF78BFC00901A
:1040400039465046FCF7A2F82946FCF79FF801993B
:10405000FCF79CF80099FCF799F800F5006B6FF3FA
:104060000B0B58460099FCF7E3F80199FCF7E0F8D0
:104070002946FCF7DDF83946FCF7DAF85146FCF73B
:10408000DAF806F5006782466FF30B0739463046CB
:10409000FCF7CEF8002100900846FCF7BBFC00F0CE
:1040A0000C0639465846FCF7C9F8054620F0004092
:1040B000B0F18B4F0ADDB8EB400F07D34FF08B40C8
:1040C00060F31E052F464FF0000A1FE038460099A6
:1040D000FCF75CF85146FCF7B1F8074658460099E2
:1040E000FCF7ACF83946FCF751F882460146284601
:1040F000FCF74CF800F500676FF30B0739462846CC
:10410000FCF796F85146FCF741F8824631460C2000
:10411000FCF780FC51463846FCF738F8FCF73BFCCE
:1041200006460511FCF716FC3946FCF784F85146A3
:10413000FCF72CF807466B49FCF780F86A49FCF756
:1041400025F83946FCF77AF86849FCF71FF8394634
:10415000FCF774F80146664806F00F06784450F8FC
:104160002600FCF76BF86349794451F82610FCF7F8
:104170000DF86149794451F82610FCF707F805F16C
:104180007D01FC2908D22946FCF77BFB04B02146BF
:10419000BDE8F04DFCF752B805F1BF01B1F5BF7FA6
:1041A00016D82946FCF76DFB2146FCF747F8054673
:1041B000B8EB450F1AD068000CD02846FFF7D6F9A7
:1041C000042808BFFFF7F5F9284604B0BDE8F08DD4
:1041D000002D0BDA0220FFF701FAFFF7EAF901469A
:1041E000204604B061F31E00BDE8F08D0220FFF709
:1041F000F5F9FFF7D9F90146204604B061F31E0036
:10420000BDE8F08DB1F1804F3CD300BF00F1FF411C
:10421000B1F1FE4F21D200BF20F00042C5F3C751DB
:1042200010467F290DDB9729BFF651AEC1F19601EB
:104230004FF0010C0CFA01F1A1F1010C1CEA050F81
:1042400007D00120FFF7CAF904B0BDE8F04DFFF731
:10425000A7B9294218BF294C39E641001CBF4FF0CD
:104260008071B1EB400F09D91B21FCF70AFB024614
:104270006FF01A0310F0004FCED128E6BCF1FE4FCC
:1042800018D224E6B1F1007F0ED336F0004105D0FC
:1042900006F0004141F0FC552E46B7E7410018BF3B
:1042A000B8EB400F78D8B1E7B1F1807F38BFA5F502
:1042B0000006ABD320F000416FF0FF4C104C01EB37
:1042C0000C03A3422FD31DE0001080C07EE24C3EC1
:1042D000ABAAAA3E00B038423BAA3842D49AB8BB37
:1042E000B4040000FC596337C9FF753A1872313DB8
:1042F0008004000034040000E8030000000080BFD8
:10430000FFFF3F0025F000439C44A4450BD3B0F1D0
:104310007E5F18BF5FEA450C3ED0B1F1FF4F98BFFA
:10432000B3F1FF4F05D904B03146BDE8F04DFFF7BA
:1043300035B9B0F1FF4F0FD0C5F3C7517F2909DB65
:10434000972911DAC1F19601012202FA01F14A1E00
:104350002A4205D0002108E015F0004F55D128E091
:10436000294218BF012100D1022110F5000F14D0FD
:1043700020B3B0F1004F27D010F1814F4ED04FF055
:10438000FE41B1EB400F94BF01200020012101EB61
:10439000E571884239D10CE040E015F0004F02D0C1
:1043A000012936D031E0012902BF3F4804B0BDE801
:1043B000F08D4FF0FF4004B0BDE8F08D15F00040E7
:1043C0000ED104B0BDE8F08DB5F1FF4F1DD015F54D
:1043D000000F05D015F0004F14D009B1012907D006
:1043E0000220FFF7FBF804B0BDE8F04DFFF7D1B8AD
:1043F0000220FFF7F3F8FFF7CCF804B080F000409C
:10440000BDE8F08D09B1012903D004B00020BDE85A
:10441000F08D04B04FF00040BDE8F08D04B04FF0D7
:104420007E50BDE8F08D00BF4FF07E51FBF700FFDE
:1044300005466FF00101FCF724FA1C49FBF7FBFE6F
:104440002946FBF7FBFE4FF07C51FBF7F4FE0746D5
:1044500029460846FBF7F2FE80F000403946FBF79C
:10446000EDFE824612492846FBF7E8FE0746114951
:104470005046FBF7E3FE82460F492846FBF7DEFE77
:104480005146FBF783FE054601463846FBF77EFEA4
:1044900000F5006B6FF30B0B59463846FBF7C8FE6F
:1044A0002946FBF773FEECE5000080FFABAAAA3EAD
:1044B00000B0B8413BAAB841D49A38BB10B5044605
:1044C00001E0FEF785FB14F8010B04490028F8D140
:1044D000BDE810400A20FEF77BBB00000000002072
:1044E00000000000000000000000B33FB2BE7D3AB3
:1044F00000002E40DFCF513800007E40BF51FABA95
:1045000000E0A44019DAC3BA00E0C840C2ED8AB99D
:104510000040EB40CD1F2CBA001006412AFFFABA2A
:1045200000C01541DFCFD13700D024419A97703AAF
:104530000050334189478E3600404141E75B9D384A
:1045400000B04E41C00A98B900A05B41558F943A23
:1045500000306841DA92C0BA0040744162B3C63A92
:104560000000803F00A0853F00908B3F00C0913F3E
:104570000030983F00F09E3F00F0A53F0050AD3F57
:104580000000B53F0000BD3F0060C53F0020CE3FAA
:104590000040D73F00C0E03F00C0EA3F0020F53FA9
:1045A000000000007D36AC397D3C3839EBDCF43856
:1045B000320A7E39124C26399B6AED39A4EE8339D2
:1045C0007F661E39F6398A392B426539A482113942
:1045D0005B991F39C3EECD39DDE7C637A5A22F3968
:1045E0000000803FC3AA853FC2958B3FD3C3913F54
:1045F000F037983F32F59E3FD7FEA53F3F58AD3F7D
:10460000F304B53FA408BD3F2A67C53F8C24CE3FC5
:10461000FD44D73FDFCCE03FC7C0EA3F7D25F53FF3
:104620000000000000000000010203040607080962
:1046300000000000010203045846000800000020AA
:1046400018000000BC350008704600081800002063
:10465000E8040000CC350008000000000000000065
:104660000024F40001000000100000000000000021
:0400000508000131BD
:00000001FF
