:020000040800F2
:100000006097002045010008C5110008E1100008B4
:10001000C1110008F50200085501000800000000A9
:100020000000000000000000000000002112000895
:10003000F902000800000000B30100087D1200086A
:100040005F0100085F0100085F0100085F01000810
:100050005F0100085F0100085F0100085F01000800
:100060005F0100085F0100085F0100085F010008F0
:100070005F0100085F0100085F0100085F010008E0
:100080005F0100085F0100085F0100085F010008D0
:100090005F0100085F0100085F0100085F010008C0
:1000A0005F0100085F0100085F0100085F010008B0
:1000B0005F0100085F0100085F0100085F010008A0
:1000C0005F0100085F0100085F0100085F01000890
:1000D0005F010008491500085F0100085F01000882
:1000E0005F0100085F0100085F0100085F01000870
:1000F0005F0100085F0100085F0100085F01000860
:100100005F0100085F0100085F0100085F0100084F
:100110005F0100085F0100085F0100085F0100083F
:100120005F0100085F0100085F0100085F0100082F
:10013000DFF80CD000F0CCF800480047ED190008BB
:10014000609700200648804706480047FEE7FEE724
:10015000FEE7FEE7FEE7FEE7FEE7FEE7FEE7FEE777
:10016000F51200083101000872B6704762B6704798
:10017000EFF3108072B6704780F310887047B0FAC2
:1001800080F0704717484FF0FF010170002080F3A6
:10019000098815484FF08051016062B6FEE71248A9
:1001A0004FF08051016070470F484FF0805101605F
:1001B000704772B6EFF3098028B1203880E8F00F5D
:1001C0000A4909680860094809490A680260106814
:1001D00090E8F00F203080F309884EF0040E62B6EC
:1001E000704700BF22ED00E004ED00E0CC000020ED
:1001F000E08F00202DE9F05F0546002092469B46E7
:1002000088460646814640241BE02846414647462C
:10021000224600F04DF853465A46C01A914110D379
:1002200011461846224600F034F82D1A67EB0108F3
:100230004F4622460120002100F02BF817EB000961
:100240004E41201EA4F10104DFDC484631462A4617
:100250004346BDE8F09FD2B201E000F8012B491EF1
:10026000FBD270470022F6E710B513460A46044653
:100270001946FFF7F0FF204610BD10B5044604E014
:100280000B7800F8013B03B1491C521EF8D22046FE
:1002900010BD202A04DB203A00FA02F1002070474A
:1002A0009140C2F1200320FA03F3194390407047B4
:1002B000202A04DB203A21FA02F00021704721FABB
:1002C00002F3D040C2F12002914008431946704722
:1002D000064C074D06E0E06840F0010394E8070093
:1002E00098471034AC42F6D3FFF726FF042E0008DF
:1002F000242E0008FEE70000704700007047000051
:10030000014690F82100022813D10868D1E90FC3F3
:10031000026822F00E020260026822F0010202600E
:10032000012000FA03F2CCF8042081F8210000201B
:1003300002E0042088630120002281F82020704719
:1003400080B590F82110022927D1026840F2040CF0
:100350001368C4F2020C23F00E03136013680CF14F
:100360007C018A4223F0010111601AD940F2084150
:10037000C4F202018A4247D040F21C41C4F2020199
:100380008A4245D040F23041C4F202018A4243D150
:100390004FF48073CCF8003457E0042181630120CE
:1003A00080BD4321C4F202018A420EDD6B21C4F2FA
:1003B00002018A421BDC4421C4F202018A4239D084
:1003C0005821C4F202018A4231E00821C4F202013C
:1003D0008A4232D01C21C4F202018A4232D030213A
:1003E000C4F202018A4222D14FF480722BE06C21C8
:1003F000C4F202018A4222D08021C4F202018A4260
:1004000015D14FF080721EE00123CCF800341CE0BF
:100410001023CCF8003418E00CF588614FF48033D9
:100420008A4208BF4FF48053CCF800340DE04FF4FB
:10043000803208E04FF4805205E0012203E04FF4DF
:10044000801200E01022CCF80020416B4FF4807243
:10045000028401B18847002080BD0000B0B5044689
:1004600000F012F9054640F23800C2F200000078B0
:10047000611C18BF044400BF00F006F9401BA042F5
:10048000FAD3B0BD2DE9F04F83B00C68002C00F01A
:10049000EA80A0F18042A2F5843240F2004E4FEA99
:1004A000B22241F60047C4F2010E0092C4F20107E5
:1004B000062200254FF001094FF0000B4FF0000A13
:1004C000B84208BF0522019209E000BF0C680BF199
:1004D000010B34FA0BF205F1040500F0C48009FAAF
:1004E0000BF814EA080CF1D04C684FF6FF72C1F219
:1004F0001002944210DC122C50D8DFE804F0330ACA
:1005000041454F4F4F4F4F4F4F4F4F4F4F4F4F481A
:100510004C00D1F80CA041E04FF6FF72C1F221026D
:1005200094420FDC0022C1F2110294421AD0002240
:10053000C1F21202944215D00022C1F2210294426B
:1005400010D02BE00022C1F2220294420AD00022F5
:10055000C1F23102944205D00022C1F2320294422B
:100560001CD100BF8C6844B1012C14BFC0F81480AA
:10057000C0F810804FF0080A10E04FF0040A0DE0B8
:10058000CC6804F1080A09E04FF0000A06E0CC68E4
:1005900004F1040A02E0CC6804F10C0A2C46074678
:1005A000BCF5807F24BF203C04373A680F2303FA50
:1005B00004F6B2430AFA04F422433A60CA79D20636
:1005C0007FF584AF41F21804C4F2020422684FF6AA
:1005D000084842F0010222602268CFF6FF7802F05C
:1005E00001020292029A2BF00302724452F8084070
:1005F00005F00C0603FA06F7009BBC43019F052B90
:1006000038BF1F4607FA06F6344342F808404C68E4
:10061000E203DEF8002054BF22EA0C0742EA0C078E
:10062000A203CEF80070DEF8042054BF22EA0C07C3
:1006300042EA0C07E202CEF80470DEF8082054BF4C
:1006400022EA0C0742EA0C07A20240F20C44CEF860
:100650000870C4F20104226854BF22EA0C0242EA84
:100660000C02226032E703B0BDE8F08FC26802EAF4
:100670000103914341EA034101617047002A08BF29
:10068000090401617047000049F25830C2F20000CD
:100690000068704740F2380049F25831C2F2000059
:1006A000C2F2000100780A68104408607047000038
:1006B00080B542F20000C4F20200016841F010016E
:1006C0000160032000F066F8002000F005F800F05B
:1006D0002BF8002080BD0000B0B540F23802C2F215
:1006E000000240F204011278C2F200014FF47A7362
:1006F0000968B3FBF2F20446B1FBF2F1084600F0E0
:10070000E7FA0F2C4FF001050CD858B94FF0FF3025
:1007100021460022002500F02DF840F23C00C2F2F4
:10072000000004602846B0BD82B041F21800C4F257
:1007300002000168022241F001010160016801F03C
:10074000010101910199416841F080514160406887
:1007500000F08050009000980420C4F2010001686D
:1007600062F31A61016002B07047000080B500F0CA
:10077000F3FE80BD70B514460D46064600F0FCFE43
:100780002946224600F020FD0146304600F0FCFEDE
:1007900070BD000080B500F011FF80BD2DE9F04371
:1007A00081B0002800F0898042F20008C4F20208FB
:1007B0000446D8F800000D4600F0070088420CD22D
:1007C000D8F8000020F007002843C8F80000D8F847
:1007D000000000F00700A8426FD1206841F2040930
:1007E0008107C4F2020917D5410705D5D9F80010D1
:1007F00041F4E061C9F80010010705D5D9F80010EF
:1008000041F46051C9F80010D9F80010A26821F035
:10081000F0011143C9F80010C00745D1D8F8000015
:1008200000F00700A8420CD9D8F8000020F007001B
:100830002843C8F80000D8F8000000F00700A842DC
:100840003BD12068410707D5D9F80010E26821F4B0
:10085000E0611143C9F80010000708D5D9F800007D
:10086000216920F4605040EAC100C9F8000000F09E
:1008700079F8D9F8001042F69852C1F30311C0F686
:100880000002515C40F2040220FA01F140F23C0007
:10089000C2F200000068C2F200021160FFF71CFF04
:1008A000002001B0BDE8F0836068022809D001286B
:1008B00029D159F8041C890307D4012001B0BDE8EF
:1008C000F08359F8041C8901F7D5D9F8001021F0FC
:1008D00003010843C9F80000FFF7D6FE064641F2BF
:1008E000883700BFD9F80000616800F00C00B0EB59
:1008F000810F93D0FFF7C8FE801BB842F2D90320C6
:1009000001B0BDE8F08359F8041C8907D5D5DCE7B0
:1009100040F20400C2F200000068704780B5FFF7A3
:10092000F7FF41F20401C4F20201096842F6A8523D
:10093000C1F30221C0F60002515CC84080BD000036
:1009400080B5FFF7E5FF41F20401C4F20201096836
:1009500042F6A852C1F3C221C0F60002515CC84061
:1009600080BD000041F2040CC4F2020CDCF800303F
:1009700003F00C00082841F20020C0F27A0018BFF2
:100980007047C3F383420AA18A5CD90305D440F6B9
:100990000010C0F23D0050437047DCF8001008A37F
:1009A000C1F34041595C5043B0FBF1F0704700BFC8
:1009B00002030405060708090A0B0C0D0E0F1010A0
:1009C000010200002DE9F04182B0002800F0C4804F
:1009D0000446007841F20006C007C4F2020643D084
:1009E000706800F00C00042817D0706800F00C004C
:1009F000082802D17068C0030FD465682DB1B5F521
:100A0000A02F10D0B5F5803F11D0306820F4803091
:100A10003060306820F480200CE03068800323D5FB
:100A2000606808BB98E0306840F48020306030682F
:100A300040F480303060FFF727FE002D054610D0CF
:100A40003068800310D4FFF71FFE401B6428F7D9DD
:100A500004E100BFFFF718FE401B64284FF00300BD
:100A600077D830688003F5D42078800718D570686F
:100A700010F00C0F07D0706800F00C00082826D189
:100A80007068C00323D43068800702D5206901282C
:100A900062D13068616920F0F80040EAC10030603E
:100AA000207800073DD5A06938B30020C4F2422069
:100AB0000121C0F88014FFF7E7FD0546706A800742
:100AC0002DD4FFF7E1FD401B0228F7D9C6E02069CD
:100AD000002840F20000C4F2422000F0968001217C
:100AE0000160FFF7D1FD054630688007D1D4FFF7DC
:100AF000CBFD401B0228F7D9B0E00020C4F2422011
:100B00000021C0F88014FFF7BFFD0546706A80071A
:100B100007D5FFF7B9FD401B0228F7D99EE000F08A
:100B200069FB207840071BD4E5698DB1706800F03F
:100B30000C00082847D1012D0ED07068216A00F4FE
:100B400080328A4208D1616A00F47010884203D171
:100B5000002002B0BDE8F081012002B0BDE8F081C4
:100B6000F06910F0805808D1F06940F08050F061D1
:100B7000F06900F080500190019847F20007C4F23C
:100B800000073868C00510D4386840F480703860B9
:100B9000FFF77AFD054600BF3868C00505D4FFF7AA
:100BA00073FD401B6428F7D958E0E5681DB1052D99
:100BB0003CD0012D3ED0306A20F001003062306A16
:100BC00020F0040039E00027C4F2422700203866F4
:100BD000FFF75AFD022D05460CD100BF3068800199
:100BE00054D5FFF751FD401B02284FF00300F5D903
:100BF000AFE700BF30688001AAD5FFF745FD401B75
:100C000002284FF00300F5D9A3E700210160FFF7A8
:100C10003BFD0546306880077FF542AFFFF734FDA6
:100C2000401B02284FF00300F4D992E7306A40F0ED
:100C300004003062306A40F001003062FFF724FDAA
:100C4000002D054641F2883714D000BF306A800776
:100C500013D4FFF719FD401BB842F7D9032002B0A7
:100C6000BDE8F081FFF710FD401BB8424FF00300D4
:100C70003FF66FAF306A8007F4D4B8F1000F7FF40D
:100C800053AFF06920F08050F0614DE7206AB0F575
:100C9000803F05D17168A26821F400311143716071
:100CA0007168626A21F47411104308437060012076
:100CB0003866FFF7E9FC0446306880013FF548AF2D
:100CC000FFF7E2FC001B02284FF00300F4D940E7D5
:100CD00080B500F0A7FA80BD7047000070470000A3
:100CE000B0B582B0016805460868CA684C6900F072
:100CF0002F03202B02F0200305D123B1284600F05A
:100D000025FB02B0B0BD5FEA007C1EBF04F0010EFF
:100D100002F4907414EB0E0424D12B6B1040C20625
:100D200017D5012B15D10020019008680190486863
:100D300001900198486940061CD4A88DEA8DEB8D7E
:100D4000002B1CBF801A5FEA004240F09A8002B07C
:100D5000B0BD010636D44006F9D5284600F0EAFABF
:100D600002B0B0BDC10718BF12F480712FD1410786
:100D700033D439E0A86B0268526893B2002BE6D0F6
:100D8000AC8DA342E3D2EA858269202A16D0CA68D4
:100D900022F48072CA604A6922F001024A614A69FB
:100DA00022F040024A61202285F83E2000222A6378
:100DB000CA6822F01002CA60FFF7A2FAA88DE98D76
:100DC000401A6FE0284600F063FB02B0B0BD296C0A
:100DD00041F001012964410706D5BEF1000F03D09F
:100DE000296C41F002012964810706D5BEF1000F8C
:100DF00003D0296C41F004012964BCF1000F06D531
:100E00005EEA030103D0296C41F008012964296CD2
:100E100000299CD01040800602D5284600F096FAA2
:100E200028684069296C00F0400001F00801401872
:100E300020D0284600F068FA28684169490614D590
:100E4000416921F040014161A86B70B141F2F92183
:100E5000C0F600014163FFF773FA00283FF477AF53
:100E6000A86B416B884702B0B0BD2846FFF736FF3C
:100E700002B0B0BD2846FFF731FF0020286402B061
:100E8000B0BDCA6822F49072CA604A6922F00102B9
:100E90004A61202285F83E2000222A63CA6822F097
:100EA0001002CA6081B22846FFF716FF02B0B0BD3B
:100EB000002804BF0120704710B5044690F83D009B
:100EC00028B9002084F83C00204600F021F82420B6
:100ED00084F83D002068C16821F40051C1602046BB
:100EE00000F08EFA2068016921F4904101614169A6
:100EF00021F02A014161C16841F40051C160002024
:100F00002021206484F83D1084F83E1010BD0000BC
:100F100070B586B0006844F20041C4F200010026BA
:100F200088420596CDE9036602963FD043F600015C
:100F3000C4F20101884266D141F21800C4F20200F5
:100F4000016840F6000441F4804101600168C4F288
:100F5000010401F4804101910199016802AD41F061
:100F6000040101600068294600F004000190019826
:100F70004FF4007002900220039003200590204659
:100F8000FFF780FA4FF4806002900020CDE9030063
:100F900020462946FFF776FA252000210022FFF798
:100FA000E9FB2520FFF7E2FB06B070BD41F2180017
:100FB000C4F20200416840F6000441F4003141608F
:100FC0004168C4F2010401F4003101910199016802
:100FD00002AD41F0040101600068294600F0040000
:100FE00001900198042002900220039003200590B4
:100FF0002046FFF747FA0820CDE902062046294699
:101000000496FFF73FFA06B070BD0000704700007D
:101010002DE9F04381B0044690F83D0020280BD123
:101020000E4600294FF0010055D01746002A52D035
:1010300094F83C00012803D1022001B0BDE8F08300
:10104000012084F83C004FF0000921201D46C4F81F
:10105000409084F83D00FFF717FBA784E784A16860
:101060000746B1F5805F07D1206900281CBF3046D4
:101070004E46B046064601E04FF0000884F83C902A
:1010800007E000BF16F8010B21684860E08C0138CA
:10109000E084E08C80B1204680213A462B4600F067
:1010A00021FA80B9002EEDD138F8020B21686FF3D8
:1010B0005F2048600026E9E7204640213A462B465B
:1010C00000F010FA18B1032001B0BDE8F083202031
:1010D00084F83D00002001B0BDE8F08370470000B7
:1010E000FEE7000070B586B0002541F21800CDE99A
:1010F0000455CDE90255C4F20200016840F600042F
:1011000041F0200101600168C4F2010401F02001F6
:10111000019101990168002241F004010160006819
:101120004FF4807100F004000190019820464FF4C4
:101130008076FFF7A3FA0120CDE903050220059090
:1011400002A920460296FFF79DF906B070BD000087
:1011500080B540F2400043F60001C2F20000C4F244
:10116000010100234FF00C0C4FF4E13280E80E0037
:10117000C0E90333C0E905C3C361FFF799FE002846
:1011800018BFFFF7BBF880BD80B540F2840044F281
:101190000041C2F20000C4F2000100234FF00C0C29
:1011A0004FF4E13280E80E00C0E90333C0E905C323
:1011B000C361FFF77DFE002818BFFFF79FF880BDD1
:1011C000FEE700007047000000F0070080F0070312
:1011D000042B28BF04234FF0FF3C03380CFA03F321
:1011E00038BF0020994381400CFA00F022EA000049
:1011F0000843704781B040F20400C2F2000000686A
:1012000044F6D351C1F26201A0FB0101480A0090EB
:1012100000BF0098411E00280091F9D101B070472D
:1012200070470000B0B501380024B4EB106F1CBF4C
:101230000120B0BD4EF21005CEF2000568604FF0FF
:10124000FF300F2100F0A0F90720AC602860204695
:10125000B0BD0000B0B501380024B4EB106F18BF6A
:10126000B0BD4EF21005CEF2000568600F2000F010
:101270009DF90720AC602860B0BD000080B5FFF785
:1012800009FA01F085F9002808BF80BD01F046F990
:1012900001F0F6FB01F052F980BD000070B590B08E
:1012A00006AC20462821FEF7DDFF012006900A90BB
:1012B0004FF4E01000254FF4803102260F902046B5
:1012C0000595CDE90355CDE90155CDE90715CDE9E2
:1012D0000D61FFF777FB0F20CDE901064FF4806029
:1012E000CDE9040501A802210395FFF757FA10B0D4
:1012F00070BD00007047000080B5406A0021C185C4
:10130000C184FFF7EBFC80BD0168CA6822F49072CB
:10131000CA604A6922F001024A61026B012A03D1C4
:10132000CA6822F01002CA60202180F83E10002115
:101330000163704780B50168CA6822F04002CA6044
:10134000202180F83D10FFF7C9FE80BD80B582B036
:1013500090F83E1022291ED18268B2F5805F02D13A
:101360000169002940D0816AB2F5805F07D00AB9CF
:10137000026922B10268526802F07F0201E002684D
:1013800052680A700121826A11448162C18D01395B
:101390000A04C18501D002B080BD0168CA6822F08C
:1013A0002002CA60CA6822F48072CA604A6922F0C8
:1013B00001024A61202280F83E20026B012A1BD1E3
:1013C00000220263CB6823F01003CB600B68DB06BE
:1013D00005D501920A680192496801910199818DB0
:1013E000FFF77AFC02B080BD0168826A49686FF33A
:1013F0005F2111800221C6E7FFF708FE02B080BD21
:1014000010B504460068D4E902C22369016921F4D9
:10141000405111430161616943EA0C021143C26802
:1014200041F20C639A431143C1604169A26921F4FE
:101430004071114343F60002C4F20102904241613F
:1014400002D0FFF76BFA01E0FFF77AFA6268192120
:1014500048439100B0FBF1F048F21F51C5F2EB1187
:10146000A0FB01235A096FF0630302FB0300322340
:1014700003EB0010A0FB0101F02303EA51132068E5
:1014800003EB0212C1F343111144816010BD00004F
:1014900090F83D10212923D18168B1F5805F01D1F9
:1014A000016931B1016A02684B1C0362097851601D
:1014B00007E0016A036831F8022B6FF35F225A607C
:1014C0000162C18C01390A04C18418BF70470068E9
:1014D000C16821F08001C160C16841F04001C16074
:1014E000704700002DE9F04104460068006808409C
:1014F000884202D10020BDE8F0811D460E4690468C
:101500005F1C04E0206800683040B042F2D0002F39
:10151000F8D02DB1FFF7B8F8A0EB0800A842F1D938
:101520002068C16821F4D071C160416921F00101D6
:101530004161202084F83D0084F83E00002084F8BA
:101540003C000320BDE8F08180B540F24000C2F2CB
:101550000000FFF7C5FB80BD002848BF704700F0C2
:101560001F01012202FA01F14EF200124009CEF2EF
:10157000000242F8201070474EF60C50CEF20000E8
:101580000068C0F3022070474EF6145300F00F02BB
:10159000CEF2000309011A4400F16043B0F1FF3FAD
:1015A000C8BF03F564421170704700004EF6235126
:1015B0000001CEF200010870704700004EF60C5199
:1015C000CEF200010A684FF6FF031A4060F30A22C8
:1015D00042F0806040F0FD700860704780B500F018
:1015E0005DF9013880BD00005060C0E9002108604D
:1015F000704700005060C0E900210860704700009B
:101600005060C0E900210860704700005060C0E9E8
:1016100000210860704700005060C0E900210860A8
:10162000704700004860016070470000486001603A
:10163000704700004860016070470000486001602A
:10164000704700004860016070470000486001601A
:101650007047000020F003007047000010B50446FA
:10166000084600F095F86168084404306060204640
:1016700000F01CF8204610BD0838704710B582B045
:10168000044600F085F801A96A4600F0D1F9DDE9C9
:101690000021204600F008F902B010BD406800F0BB
:1016A00001007047406800F00200704710B5044622
:1016B00000F030F8046010BD10B50446FFF7F6FFE7
:1016C00000F04EF8204600F045F810BDB0B50446D5
:1016D00000F020F80546FFF7E1FF30B1284600F0A2
:1016E00029F820462946FFF7B9FF2046B0BD000083
:1016F000B0B50446FFF7D6FF50B1204600F018F809
:10170000054600F017F828462146FFF7A7FF2C46AC
:101710002046B0BDB0B5044600F03EF80546204670
:1017200000F036F8011F284600F022FAB0BD000094
:101730000068704710B582B0044600F029F801A98E
:101740006A4600F075F9DDE90021204600F0A0FBB3
:1017500002B010BD416841F00101416070470000D6
:10176000416841F00201416070470000416821F08A
:101770000201416070470000426802F00302114319
:1017800041607047416821F00101416070470000ED
:10179000406820F0030070470830704780B5FEF7BE
:1017A000FEFC80BD80B540F2040040F20801C2F2A8
:1017B0000000C2F200010068D1E900230021FEF719
:1017C00019FD40F2C801C2F20001086000F008F8FB
:1017D00080BD000080B5FEF7E7FC80BDFEF7D2FCBF
:1017E00010B50446F02000F075FA204600F06EFABD
:1017F00010BD000070B5DDF810E0844603EB0E006C
:1018000020F007004FF0043340F8403D4FF0123312
:101810004FF00334C0E90B4300F134034FF0807EF6
:1018200083E804504FF006324FF005334FF0023595
:101830004FF001364FF0113C4FF00734C0E9013250
:1018400000F10C02C0E909654FF0103E4FF0093677
:101850004FF0083582E87040C0E907C170BD000054
:10186000002818BFFF20704710B582B0019040F2E9
:10187000400001ACC2F2000021460122FF23FFF725
:10188000C7FB40F28400C2F2000021460122FF2380
:10189000FFF7BEFB019802B010BD000080B500F05C
:1018A00019FEC0F1200080BD10B540F25C3CC2F2D0
:1018B000000C0CEBC11303EB820EDEF884300CF14C
:1018C0001004C0E90234D860CEF884000120DCF8AE
:1018D000203000FA01F42343CCF820300CEB8101D6
:1018E0004B6A90401843486210BD000000F0E8FBCE
:1018F000FCE7000080B584B042F6B050C0F60000AE
:1019000042F6B4510068C0F6000109680922CDE929
:10191000002040F2D00041F6ED024FF0000C0291A1
:10192000C2F2000004A1C0F600020023CDF80CC0F2
:1019300000F068FF04B080BD69646C6500000000C1
:1019400040F2D001C2F20001401AB0FA80F0400922
:101950007047000040F25830C2F2000000780028C2
:1019600018BF01207047000049F23C00C2F200009D
:101970000078002818BF01207047000040F2CC0119
:10198000C2F200010968081AB0FA80F040097047F5
:1019900000780138B0FA80F04009704700210170EA
:1019A00070470000012101707047000010B500F081
:1019B000EFFD10B1FFF7CEFF00B110BDFFF7D4FF70
:1019C000002818BF10BD00F08DFD044600F0D0F9CE
:1019D00048F6E071C2F200010860FFF7CFFF08B9D6
:1019E000FFF7DCFE204600F079FD10BDFEF760FE3B
:1019F000FFF754FCFFF776FBFFF7AAFBFFF7C4FBEA
:101A000000F0C8F842F6B850C0F60000002100F01F
:101A1000CDF842F6D850C0F60000002100F0C6F81C
:101A200000F0BEF84FF4FA60FEF718FDFAE7000088
:101A300070B5144606467F280D4605D8F01706EB0C
:101A400090708110002008E03046FFF7C7FD411F6D
:101A500046FA01F181F0200106382860216070BD4E
:101A600070B540F25C36C2F20006002406F11005A3
:101A700006F120006421C6E90044C6E90244C6E933
:101A80000655FEF7EFFB06F1800000BF202102465D
:101A9000013942F8045FFBD10134182C00F18000B9
:101AA00008BF70BDF2E70000B0B50C460546FFF771
:101AB000D7FF2846214600F059FEB0BD40F25C3108
:101AC000C2F200010A68012ABCBF0020704751F829
:101AD000042B012AD8BF01220B68834204BF0120D6
:101AE0007047013A01F1040104BF00207047F3E799
:101AF00040F25C30C2F2000000680338B0FA80F0B7
:101B00004009704740F25C31C2F200010A68531C80
:101B10000B6001EB8201486070470000B0B50546DC
:101B20000469183000F0C2FD94F8601000200A2902
:101B3000286128730BD194F82100297D884208BFC1
:101B4000B0BD204600F02CFF0A202875B0BD20460D
:101B500000F026FF0A2084F86000B0BD10B50446EE
:101B6000FFF7DCFF201D042100F09EF810BD0000EF
:101B70000844704780B5411C02D000F0E1FD03E04D
:101B80004FF0FF304FF0FF3100F0ACFEFFF768FE82
:101B900080BD000080B500F0A9FCFFF761FE80BDAC
:101BA00080B500F041FDFFF75BFE80BD2DE9F043FD
:101BB00085B0B0B10446D0F81C90D0E90078B0F9F7
:101BC00008000D4600F08AF804F1100646CE8DE8B4
:101BD00007004846394642462B46039600F012FE5F
:101BE00018B1002005B0BDE8F083E06905B0BDE89C
:101BF000F083000010B5044600F07CFD08B1002021
:101C000001E020685038002814BF90F821000A2015
:101C100010BD0000B0B50C46096805468C4208D0DE
:101C200095F8210011F82F2C904202D309688C42BC
:101C3000F8D105F1500000F021FD28466C6600F057
:101C4000DFFAB0BD10B50446503000F035FD616ECE
:101C50002046FFF7DFFF10BD10B50446503000F0FE
:101C60002BFD00206066204600F0B6FA10BD000093
:101C7000B0B50D46044600F08BFA20B1204684F83A
:101C80006850FFF7E9FF204600F094FA10B12046B3
:101C900000F0D2FA204600F099FA002818BFB0BD33
:101CA000204600F023F8B0BD70B5044600688442B9
:101CB00008BF70BD0D4600BF50F850692946FFF7B8
:101CC000D7FFB4423046F7D170BD000080B5FFF7B2
:101CD000C1FA80BD80B5FFF769FC80BDC0F103018A
:101CE000842808BF0A21C8B27047000080B540F2BE
:101CF000CC01C2F20001096890F8212091F821106E
:101D00008A4202D100F01CF880BD00F001F880BDCD
:101D100070B5054690F8216048F6E470C2F2000004
:101D200000EBC604204600F0EBFC10B1304600F09A
:101D300067F805F15000214600F094FC70BD0000EA
:101D400070B5054690F8216048F6E470C2F20000D4
:101D500000EBC604204600F0D3FC10B1304600F082
:101D60004FF805F15000214600F08EFC70BD0000D8
:101D700048F6E470C2F2000090F8541050F83100B8
:101D800050387047B0B548F6E474C2F200040A2037
:101D9000002584F8540000BF601900F0C9FC083524
:101DA000502DF9D100202065B0BD000010B548F6D7
:101DB000E471C2F20001086D08B1002409E050315D
:101DC000002400BF51F8040F04F120020028D4B20F
:101DD000F8D000F07FFB2044C0B210BD1F2148F6B0
:101DE000E4738143C0F34210C2F2000303EB8000AE
:101DF0000122036D02FA01F11943016570470000E9
:101E000010B50446FFF7EAFF48F6E470C2F200009E
:101E100090F85410A14288BF80F8544010BD0000D3
:101E20001F2148F6E4738143C0F34210C2F200035D
:101E300003EB80000122036D02FA01F123EA0101A4
:101E400001657047F0B581B00546FFF779FD08B12F
:101E500001B0F0BD95F8214048F6E477C2F20007E2
:101E600005F1500007EBC40600F02CFC304600F0F2
:101E700047FC10B12046FFF7D3FF97F85400844287
:101E8000E6D1FFF793FF87F8540001B0F0BD0000E2
:101E900010B5D0E902E340F25C3CC2F2000CCEF88F
:101EA0000C30C3F808E00CEBC11303EB820353F8CA
:101EB000844F844200D010BD0CF110008645C3F859
:101EC00000E0F8D10CEB810301205C6A00FA02F219
:101ED00024EA0202002A5A6218BF10BDDCF8202052
:101EE000884022EA0000CCF8200010BD0020704796
:101EF0002DE9F04381B040F2280449F24009C2F2D2
:101F00000004C2F20009D4E90001D9E90023101A43
:101F100073EB01002FD300F045FB204650F8087FFB
:101F2000874226D004F108064FF0030808E000BFFE
:101F300087F8268057E902108847B5422F4618D007
:101F4000D7E90301D9E90023101A73EB010010D37C
:101F5000A7F10C043D68204600F08EFAB88C0228E8
:101F6000E6D1D7E90701C7E90301204600F046FAA8
:101F7000E0E700F037FB01B0BDE8F08340F6000574
:101F8000012109A4C4F2010520464E1C00F084FD85
:101F900028464FF48071FEF769FB4FF4FA60FFF7B3
:101FA000E9FD3146F0E700BF0D0A48656C6C6F2013
:101FB000776F726C64210D0A2323235468697320A0
:101FC0006973207461736B31202C636F756E74209C
:101FD0006973202564200D0A00000000012105A47A
:101FE00020464D1C00F058FD4FF47A70FFF7C2FDFB
:101FF0002946F5E70D0A48656C6C6F2054656E63E1
:10200000656E744F5320210D0A2A2A2A5468697379
:10201000206973207461736B32202C636F756E744A
:10202000206973202564200D0A000000B0B5044625
:10203000FFF786FC00281CBF40F26D70B0BD00F0B9
:1020400051FA054604F1580000F060FB10B9204633
:1020500000F06AF8204600F0A7F810B12046FFF71C
:10206000F1FE204600F0ACF810B1204600F0E4F894
:10207000204600F093F810B12046FFF7EDFD04F183
:10208000340000F025FB204600F05EF8204600F00A
:10209000B3F8284600F022FAFFF788FC0020B0BD14
:1020A00080B5002000F056FC80BD000010B504464D
:1020B000406A00F047FB204600F044FB10BD0000E2
:1020C000F0B581B000F00EFA40F21006C2F2000640
:1020D00031680446B1420BD00D4655F82C790846BC
:1020E00000F0F6FA2846FFF7E1FFB7423946F3D190
:1020F000204600F0F3F901B0F0BD000070B50446D1
:1021000054F8586F0A25B4420BD000BFA6F1140052
:10211000FFF770FDE9B23668884238BF0546B44221
:10212000F4D1E8B270BD0000B0B5044654F8580FC1
:10213000844208BFB0BD00BF50F81859FFF70EFD2C
:10214000AC422846F8D1B0BD10B504460430FFF7C4
:1021500025FC04F12C0000F0EFFA04F1340000F04B
:10216000EBFA04F1480000F0E7FA04F1500000F047
:10217000E3FA04F1580000F0DFFA0A2084F8600066
:10218000002084F868006066C4E91B00606710BD29
:1021900090F8200000F002007047000090F8200046
:1021A00000F002007047000090F82000B0FA80F0C4
:1021B0004009704790F8200000F0010070470000CF
:1021C00090F8200000F001007047000090F8200017
:1021D00000F004007047000090F8201001F0FD01AD
:1021E00080F820107047000090F8201001F0FE01E8
:1021F00080F8201070470000082180F820107047F8
:1022000090F8201041F0020180F820107047000083
:10221000002180F82010704790F8201041F0010153
:1022200080F820107047000010B5044600F00CF84C
:102230002046FFF7F1FF10BD10B5044600F066F828
:102240002046FFF7D1FF10BD2DE9F04F81B09A462F
:102250009346814600F046F940F2200CC2F2000C91
:10226000DCF800108046B1EB0C00B0FA80F04FEAC9
:102270005010C9E910BA06D051E90224BBEB0203A1
:102280007AEB04031AD200250027BBEB05026AEBA8
:102290000703C007C9E9102306D151E90207801AD4
:1022A00067EB030241E9020209F1480000F0F2F98C
:1022B000404600F013F901B0BDE8F08F002300267E
:1022C0002746154682EA0B0284EA0A04224305D116
:1022D00099F8212011F8274CA24214D30968B1EBD8
:1022E0000C00B0FA80F04FEA5010CED051E9022332
:1022F0003E46521943EB0704BBEB02037AEB04039F
:102300002B46DDD2C1E71D463746BEE72DE9F04139
:10231000064600F0E7F806F148058046284600F03A
:10232000FBF910B1002018B920E028684838E8B15E
:10233000296840F22002C2F20002914216D0D6E98A
:1023400010136FF0010ED0E910264FF0FF3CBEEBEA
:1023500001076CEB0304BF1AB44102D2C0E910ECD0
:1023600004E0891843EB0602C0E91012284600F089
:10237000B5F9404600F0B2F8BDE8F081F0B581B0A3
:102380000E46074600F0AEF849F24001C2F20001E5
:10239000D1E900230446D01940F2200543EB0602A0
:1023A000C2F20005C1E90002284600F0B5F9F8B90B
:1023B000286850E90221BB1A76EB010304D2D21B34
:1023C000B14140E9022113E00021A84240F8081C75
:1023D00040F8041C0CD000BF50E90212114307D191
:1023E000066848380221FFF743FCAE423046F3D17D
:1023F000204600F073F801B0F0BD00002DE9F04177
:10240000044600F06FF849F24001C2F2000106C92B
:10241000D4E9063640F22808C2F2000805465818EA
:10242000434653F8081F72419942C4E9060210D08E
:10243000D1E90336C31A72EB06030AD308F1080385
:102440000968994205D0D1E90367861B72EB07073B
:10245000F6D204F10C06304600F022F9D8F8080054
:10246000B04203D1D4E90601C8E90001284600F0D2
:1024700035F8BDE8F08100002DE9F041064600F096
:1024800031F840F22808C2F20008D8F8081006F126
:102490000C0504462846A1F10C0700F025F9B742C7
:1024A00012D1284600F03EF920B1002030B1C169B8
:1024B000806907E028680C380028F8D14FF0FF3019
:1024C0004FF0FF31C8E90001204600F007F8BDE8F1
:1024D000F081000080B5FDF752FE80BD80B5FDF7AC
:1024E0004BFE80BD80B5FDF743FE80BD80B5FFF794
:1024F00059F9FFF747FC40F6E070C2F200004FF4D4
:102500000041FFF7D1FA002818BF80BDFFF7F2F9AC
:10251000002808BFFFF7EAFC80BD000080B500F08E
:1025200037F8002808BF80BD40F25830C2F20000E2
:102530000178F9299CBF0131017080BD10B500F010
:1025400027F8002808BF10BDFFF7CCFF0446FFF7AF
:1025500001FAC8B140F25830C2F2000001780139E6
:102560000170FFF7F7F978B9FFF7FEF960B9FFF7E7
:10257000FFFB48F6E071C2F200010860FFF7FEF9C8
:10258000002808BFFFF726F92046FFF7A7FF10BD78
:1025900040F25930C2F2000000780138B0FA80F001
:1025A0004009704710B5FFF7D5F9C0B9FFF7F0FF44
:1025B00090B149F23C04C2F200042078F92884BFAB
:1025C0004FF4167010BDFFF78DFF21780131217097
:1025D000FFF784FF002010BD4FF4FA7010BD4FF4D8
:1025E000C87010BD80B5FFF7B5F9D0B9FFF7D0FFBF
:1025F00088B1FFF7B9F988B1FFF774FF49F23C01E0
:10260000C2F200010A78013A0A70FFF767FFFFF78C
:10261000CDF9002080BD4FF4FA7080BD40F2A56076
:1026200080BD4FF4C87080BD80B5FFF7B1FFA8B979
:10263000FFF79EFB48F6E071C2F20001086040F22D
:10264000CC01C2F20001086040F25930C2F2000031
:1026500001210170FFF7C2F8002080BD40F2F510A3
:1026600080BD000080B50A68FEF7C4FF80BD000091
:1026700080B50A68FEF7C4FF80BD000080B50A4639
:102680004968FEF7B1FF80BD80B50A464968FEF78C
:10269000B1FF80BD80B50A464968FEF7B7FF80BD2F
:1026A00080B50A464968FEF7B7FF80BD80B5D0E91E
:1026B0000010FEF7B7FF80BD80B5D0E90010FEF72F
:1026C000B5FF80BD80B5D0E90010FEF7B3FF80BD37
:1026D00080B5D0E90010FEF7B1FF80BD80B5D0E92C
:1026E0000010FEF7AFFF80BD80B5D0E90010FEF707
:1026F000ADFF80BD0168081AB0FA80F0400970474C
:102700000168081AB0FA80F0400970470168081A99
:10271000B0FA80F0400970470168081AB0FA80F0FA
:10272000400970470168081AB0FA80F04009704704
:10273000C0E9000070470000C0E9000070470000D9
:1027400000217047002808BF704710B5FEF794FFBE
:102750000446FEF7B1FF2046FEF7CAFFFEF7B6FFBC
:10276000FEF78CFFBDE810407047000070B50D46C5
:102770000446FFF7BDF900281CBF40F2223070BDAF
:102780002046FFF79BF900281CBF40F2233070BDA4
:10279000A5F10800FEF75EFFA1071CBF4FF44870CB
:1027A00070BD4FF6F47105460C38C3F6FF718842D0
:1027B00084BF40F2213070BD20466FF00301FFF767
:1027C000D7F929460646FEF7D7FF3046FEF7C2FF87
:1027D0003046FEF7CBFF3046FEF750FF3046FEF79F
:1027E00065FF002106460025FEF7C6FF3046FEF7CE
:1027F000C9FF3046FEF7B4FF2046FFF783F92846AD
:1028000070BD00002DE9F04782B01E46174688468D
:102810000446FFF79FF8002859D1002C40F24C40A5
:102820004ED0002F4CD0DDF82C90B9F1000F47D0DE
:102830000C9D402D50D3DDF828A0BAF1090F08D126
:102840002046FFF77DF828B940F26F7002B0BDE86E
:10285000F087F9D82046FFF777FC40F2180104F121
:102860003400C2F20001FFF703FF201DFFF79AF8C2
:1028700042F2A102C0F60002384631464B460095AE
:10288000FEF7B8FF2060601D41460F22C4E90676BE
:1028900084F821A0C4E90995FDF7EFFCFFF722FEBB
:1028A00005462046FFF7B4FC2046FFF749FA2846C4
:1028B000FFF714FEFFF76CFE28B1FFF777F8002052
:1028C00002B0BDE8F087002002B0BDE8F0874FF409
:1028D000C87002B0BDE8F08740F2747002B0BDE885
:1028E000F0870000F0B581B00C460546FFF732F8DE
:1028F00028BBFFF739F818B140F2A46001B0F0BD71
:1029000055EA04001FD005EA040001301ED0FFF78D
:10291000E9FD40F2CC07C2F20007396806460846D6
:102920002A462346FFF780FC3868FFF78BFA3046CB
:10293000FFF7D4FDFFF73AF8002001B0F0BD4FF4E7
:10294000C87001B0F0BD00F081F8F5E7652001B076
:10295000F0BD0000B0B50546FEF7FCFFE8B940F257
:10296000CC00C2F200000468002D18BF2C4620469F
:10297000FFF704F830B1FEF7F7FF00281CBF40F264
:10298000A460B0BD201DFFF703F800280EBF40F281
:102990004E402046FFF74AFBB0BD4FF4C870B0BDB3
:1029A00070B50E460446FEF7D5FF002844D1002C32
:1029B00045D0082E46D8FFF795FD94F8211005461E
:1029C000B1421CD004F15800FFF7A0FE38B92046F0
:1029D000FFF794FBB0423CBF84F860600646204697
:1029E000FFF7DCFB28B1204684F82160FFF72AF9C5
:1029F00005E02046FFF7E4FB40B184F8216028465B
:102A0000FFF76CFDFEF7D2FF002070BD2046FFF7F8
:102A1000CBFB0028F3D02046FFF714FA204684F8B9
:102A20002160FEF7ABFF18B12046FFF771F9E6E72A
:102A30002046FFF785F9E2E74FF4C87070BD40F219
:102A40004C4070BD40F26F7070BD0000B0B5FEF735
:102A500081FF002818BFB0BDFFF744FD40F2CC0550
:102A6000C2F20005296804460846FFF7EBF928681A
:102A7000FFF766F92046FFF731FDFEF797FFB0BD7F
:102A800080B5FFF785FD28B101200021FFF776FC16
:102A9000FFF72EFA80BD00000FB4054B10B503A957
:102AA000044A029800F018F810BC5DF814FB00000E
:102AB000691800080000002002E008C8121F08C1C1
:102AC000002AFAD170477047002001E001C1121FAF
:102AD000002AFBD1704700002DE9FF4F8DB09B46C7
:102AE0000F460446002606E025280BD05A460F99CB
:102AF0009047641C761C20780028F5D111B0304630
:102B0000BDE8F08F0025A8460122984900E0054362
:102B100014F8013F203B02FA03F00842F7D1207875
:102B20002E2817D114F8010F45F004052A280ED0DD
:102B30006FF02F022078A0F1300109290AD808EBA4
:102B4000880102EB410100EB0108641CF2E757F831
:102B5000048B641C20786C280DD004DC4C2812D027
:102B60006A2811D104E074280DD07A280CD10AE02B
:102B700045F4001507E0617845F48015814202D1E3
:102B8000641C05F58015641C2278692A45D008DC90
:102B9000002AB3D0582A69D0632A10D0642A08D1F9
:102BA0003BE0702A67D0732A13D0752A5CD0782A4C
:102BB0005CD010465A460F999047761CD3E017F820
:102BC000040B8DF8000000208DF80100E94601207B
:102BD00003E057F8049B4FF0FF3069074FF0000502
:102BE00001D40AE06D1C45450DDA8542FADB19F87F
:102BF00005100029F6D106E06D1C8542FCDB19F8B2
:102C000005100029F8D12E4404E019F8010B5A46AA
:102C10000F9990476D1EF8D2A5E00A200021CDE95A
:102C20000801C5F3025002280DD001CFC117031EC1
:102C300071F100030DDA4FF0000CD0EB0C006CEBDF
:102C400001012D2308E0FF1D27F00707F7E8020127
:102C5000EDE72B0504D52B238DF8283001233BE02D
:102C6000EB0739D02023F7E70A2000E010200021ED
:102C7000CDE9080107E01020002145F00405CDE969
:102C800008014FF00808C5F3025002280FD001CF09
:102C900000214FF0000A2B071FD5702A0DD0DDE967
:102CA00008C38CF0100C5CEA030C0CD015E0FF1D7F
:102CB00027F00707F7E80201EBE740228DF828200C
:102CC0004FF0010A0BE050EA010306D030238DF8E3
:102CD00028308DF8292002239A46582A04D024A2AD
:102CE0000DF120090B9209E026A2F9E7DDE908239E
:102CF000FDF780FA0B9B9B5C09F8013D50EA01024D
:102D0000F4D1ADEB090020300890680701D44FF0F2
:102D100001080899884502DDA8EB010000E00020C9
:102D20008046002506E00AA85A46405D0F99904764
:102D30006D1C761C5545F6DB04E030205A460F9991
:102D40009047761CB8F10001A8F10108F5DC05E018
:102D500019F8010B5A460F999047761C0899481E9E
:102D600008900029F4DC641CC5E600000928010075
:102D700030313233343536373839616263646566F1
:102D800000000000303132333435363738394142B3
:102D90004344454600000000000000000000000021
:102DA00001020304060708090000000001020304F1
:102DB0005801002000020000F82D00087D1F0008C7
:102DC00000000000010000005891002000010000F8
:102DD0000000000048900020FE2D0008DD1F0008C4
:102DE00000000000010000005892002000010000D7
:102DF00000000000D09000207461736B310074619A
:102E0000736B3200282E00080000002040000000F4
:102E1000B82A0008682E0008400000202097000013
:102E2000C82A000800000000000000000024F40090
:102E3000E803000000000000100000201000002047
:102E40001800002018000020200000202000002092
:102E5000FFFFFFFFFFFFFFFF3000002030000020DA
:082E6000010000001000000059
:0400000508000131BD
:00000001FF
