:020000040800F2
:10000000C8160020DD010008C12600088D22000866
:10001000BD260008D9060008A5270008000000003A
:10002000000000000000000000000000C9260008D9
:10003000DD06000800000000C5260008CD260008E7
:10004000F7010008F7010008F7010008F7010008B0
:10005000F7010008F7010008F7010008F7010008A0
:10006000F7010008F7010008F7010008F701000890
:10007000F7010008F7010008F7010008F701000880
:10008000F7010008F7010008F7010008F701000870
:10009000F7010008F7010008F7010008F701000860
:1000A000F7010008F7010008F7010008F701000850
:1000B000F7010008F7010008F7010008F701000840
:1000C000F7010008F7010008F7010008F701000830
:1000D000F701000899270008F7010008F701000858
:1000E000F7010008F7010008F7010008F701000810
:1000F000F7010008F7010008F7010008F701000800
:10010000F7010008F7010008F7010008F7010008EF
:10011000F7010008F7010008F7010008F7010008DF
:10012000F7010008F7010008F7010008F7010008CF
:1001300000F002F800F042F80AA090E8000C8244B7
:100140008344AAF10107DA4501D100F037F8AFF294
:10015000090EBAE80F0013F0010F18BFFB1A43F0A5
:1001600001031847AC7D0000CC7D0000103A24BF8D
:1001700078C878C1FAD8520724BF30C830C144BF0C
:1001800004680C607047000000230024002500264E
:10019000103A28BF78C1FBD8520728BF30C148BFEA
:1001A0000B607047642900F0A380732900F0A981D7
:1001B000002070471FB51FBD10B510BD00F0D4F969
:1001C0001146FFF7F7FF03F063FA00F0F2F903B40A
:1001D000FFF7F2FF03BC03F095F8000009488047E1
:1001E00009480047FEE7FEE7FEE7FEE7FEE7FEE719
:1001F000FEE7FEE7FEE7FEE704480549054A064B31
:1002000070470000D126000831010008C806002010
:10021000C8160020C80E0020C80E00200FB40449E4
:1002200010B503AA029800F071F910BC5DF814FB38
:10023000840000202DE9F0410E4604460020206293
:100240002046E168884730B3252805D0D4E901214C
:100250009047206A401CF2E7E16820460027884763
:10026000050018D0A5F14100192802D820354FF417
:1002700000673246294620462760FFF793FF40B1CA
:10028000012804D0F61D26F007060836D8E7361DEB
:10029000D6E72846DAE7206ABDE8F08170B50C465B
:1002A0000546012A05D02878800600D5EA69002392
:1002B00002E0012305E05B1C934202D2E05C0028CF
:1002C000F9D1A869E618C01AA861286A18442862FA
:1002D0002846AFF3008004E0D5E9012114F8010BB2
:1002E0009047B442F8D32846AFF3008070BD0000B9
:1002F0002DE9F0410646002410687529314616A5FF
:1003000010D0AFF30080002802DA404213A507E0C6
:1003100031688A0701D512A502E0490704D511A565
:10032000012401E0AFF3008000210A2206F1240736
:1003300009E0B0FBF2FCB0FBF2F302FB1C00303032
:1003400078541846491C0028F3D123462A463046E3
:10035000BDE8F04100F06AB8000000002D00000088
:100360002B0000002000000010B5044603E003F05D
:10037000BFF8401C09D014F8010B05490028F6D13C
:10038000BDE810400A2003F0B3B84FF0FF3010BDB5
:10039000840000204FF000020429C0F0128010F009
:1003A000030C00F01B80CCF1040CBCF1020F18BF51
:1003B00000F8012BA8BF20F8022BA1EB0C0100F0E4
:1003C0000DB85FEAC17C24BF00F8012B00F8012BB7
:1003D00048BF00F8012B70474FF0000200B51346EC
:1003E00094469646203922BFA0E80C50A0E80C5055
:1003F000B1F12001BFF4F7AF090728BFA0E80C5006
:1004000048BF0CC05DF804EB890028BF40F8042BFE
:1004100008BF704748BF20F8022B11F0804F18BF6B
:1004200000F8012B70477047704770472DE9F0477F
:100430000D4699469246044600F124080168880654
:1004400004D5E06921F01001216000E00120A842FC
:1004500001DD471B00E00027A1697A1902EB0900C2
:10046000081AA0612078C00602D42046AFF30080AD
:10047000002608E0D4E901211AF806009047206A16
:10048000401C761C20624E45F4DB2078C0060AD55D
:100490002046AFF3008006E0D4E9012130209047E8
:1004A000206A401C2062381EA7F10107F4DC07E037
:1004B000D4E9012118F805009047206A401C206209
:1004C000281EA5F10105F3DC2046AFF3008020785B
:1004D000000602D50220BDE8F0870120FBE710B539
:1004E000436913B1AFF3008001E0FFF7D7FE0120AD
:1004F00010BD127800F124010A7000224A70012216
:10050000EDE711684FF0FF32E9E70000074B70B5E7
:100510000D467B4400F011F80446284600F020F810
:1005200010B14FF0FF3070BD204670BDDB2F0000D2
:1005300001694A1C02610878704700B58FB0CDE9A7
:1005400001310021059105497944CDE90310114697
:100550006846FFF76FFE0FB000BD0000E5FFFFFF2C
:10056000007B00F080007047754600F02BF8AE4627
:1005700005006946534620F00700854618B020B5AF
:10058000FFF73AFEBDE820404FF000064FF00007AD
:100590004FF000084FF0000BAC46ACE8C009ACE8E7
:1005A000C009ACE8C009ACE8C00921F007018D46DC
:1005B000704710B50446AFF300802046BDE81040F8
:1005C000FFF705BE0048704710000020B0B5044694
:1005D00000688168C90709D0816821F00101816044
:1005E00000F088FC21688968C90701D10020B0BDEE
:1005F000054602E08068C007F8D000F07BFC411B94
:1006000020680329F6D38168C907F3D0A06A40F0B7
:100610001000A062E06A40F00100E0620120B0BD7D
:10062000B0B582B004460020019021688A68D207E4
:100630004FD1886840F00100886040F20800C2F2A3
:10064000000000684DF68361C4F21B31A0FB01017C
:10065000880C01900198A0B101980138019001988F
:1006600078B1019801380190019850B10198013892
:100670000190019828B10198013801900198002853
:10068000EAD100F037FC21688968C9071CD105460A
:1006900003E000BF8068C0071AD100F02BFC411BAB
:1006A00020680329F6D38168C907F3D1A06A40F016
:1006B0001000A062E06A40F00100E0620020606289
:1006C000012002B0B0BD00BF002002B0B0BD00BF2D
:1006D000002002B0B0BD0000FEE70000704700003F
:1006E0007047000070B582B0044600200190606A37
:1006F000012803D10225284602B070BD01206062A6
:100700002046FFF763FF054600286DD1A06A41F23D
:10071000021188430230A06240F20800C2F20000D9
:100720000668022000F092FEB6FBF0F04000019057
:100730000198A0B1019801380190019878B1019811
:1007400001380190019850B1019801380190019849
:1007500028B101980138019001980028EAD120467B
:10076000FFF75EFF2068816841F00801816000F0BA
:10077000C1FB216851F8082F120711D5064602E087
:10078000816809070AD500F0B5FB811B20680B2999
:10079000F6D381680907F3D51EE000BF00F1080118
:1007A000086840F00400086000F0A4FB2168896834
:1007B000490703D401206FF0030111E0064602E06F
:1007C00080684007F6D500F095FB811B20680B2957
:1007D000F6D381684907F3D5012510206FF0120187
:1007E000A26A11400843A06200206062284602B05D
:1007F00070BD0000B0B581B000220092426A012AAB
:1008000004D10221084601B0B0BD00BF4B680122EF
:10081000062B426222D8D0F800C003EB8303624665
:100820005D1F1F2352F834EF03FA05F40B682EEA1C
:10083000040E03FA05F444EA0E05092B15602CD8C2
:10084000DCF8102003EB4303072589689D40AA4389
:1008500099401143CCF8101000213EE0D0F800C0C0
:100860000C2B624606D852F830EF03EB8303A3F15A
:10087000230405E052F82CEF03EB8303A3F14104BA
:100880001F2303FA04F50B682EEA050E03FA04F49D
:1008900044EA0E05092B1560D2D903EB4305DCF8B9
:1008A0000C201E3D07248968AC40A243A940114397
:1008B00023F00102102ACCF80C100DD142F20841AD
:1008C000C4F20101A1F1080294450BD0816A41F004
:1008D00020018162012100E00021002242620846DD
:1008E00001B0B0BD0A68120230D40A68102B42F47D
:1008F00000020A602CD140F20801C2F2000109682E
:100900004DF68362C4F21B32A1FB0212910C01EB83
:100910008101490000910099E1B1009901390091EC
:100920000099C9B10099013900910099B1B10099BC
:1009300001390091009999B100990139009100990C
:1009400000294FF00001E8D1C7E700BF0021C4E74C
:100950000021C2E70021C0E70021BEE70021BCE77B
:100960000021BAE7002804BF0120704770B5064691
:10097000044656F8280F28B121688868C0070BD1B3
:1009800014E000BF0020E0626062204600F0ACF896
:1009900021688868C00709D0886820F00100886055
:1009A00000F0A8FA21688A68D2073BD1002032689B
:1009B00002F010028018306804D040F010010120CD
:1009C000316070BD41F2021290430230A062E369CF
:1009D00081F0804080F49E3083F44022104304F183
:1009E000040508BF4FF4002325CDD4F814C043EA12
:1009F000000E531EB3FA83F35809B2F5807F1346F5
:100A000018BF0302BCF1010F4EEA45002BD10DB314
:100A1000A56A45F02005A562E56A45F00105E56295
:100A200021E000BF054602E08868C007BED000F0A4
:100A300061FA401B21680328F6D38868C007F3D009
:100A4000A06A40F01000A062E06A40F00100E0629D
:100A50000120ACE7D4F818C04EF60005CFF6FF75BC
:100A600005EB4C352B434D68B2F5807F25F4694585
:100A700043EA05034B608B684FF2FD75CFF6E175D5
:100A800003EA050343EA00038B6001D0012A07D182
:100A900022690023CFF6F07303EB025201E000BF9E
:100AA0000022CB6A23F470031A43CA62896840F6B5
:100AB000FE62CFF61F721140814207D10020E06232
:100AC000A16A012262F30101316070BDA06A40F0A9
:100AD000100020F00200A06254F82C0F40F0010139
:100AE00001202646316070BD80B586B0014640F6D3
:100AF0000000C4F20100096800F5E05291424FF095
:100B00000001CDE9041101D006B080BD41F2180109
:100B1000C4F202010A6842F400720A600A6802F430
:100B200000720192019A0A6842F004020A600968A0
:100B300001F0040101910199022102910321039125
:100B400002A900F0CDF806B080BD00000146406A61
:100B5000022815D10868D1E910C3026822F00E02FC
:100B60000260026822F001020260012000FA03F232
:100B7000CCF804204862002000220A62704700BFBF
:100B80000420C863012000220A62704780B5416AD0
:100B9000022927D1026840F2040C1368C4F2020C47
:100BA00023F00E03136013680CF17C018A4223F0DA
:100BB000010111601CD940F20841C4F202018A42CD
:100BC0004AD040F21C41C4F202018A4248D040F2AD
:100BD0003041C4F202018A4246D14FF48073CCF80E
:100BE00000345EE00421C1630121084680BD00BFDE
:100BF0004321C4F202018A420EDD6B21C4F20201DC
:100C00008A421BDC4421C4F202018A423CD05821B2
:100C1000C4F202018A4233E00821C4F202018A428E
:100C200036D01C21C4F202018A4237D03021C4F2EE
:100C300002018A4224D14FF4807230E06C21C4F268
:100C400002018A4226D08021C4F202018A4217D1D1
:100C50004FF0807223E000BF0123CCF8003420E085
:100C60001023CCF800341CE00CF588614FF480337D
:100C70008A4208BF4FF48053CCF8003411E000BF23
:100C80004FF480320BE000BF4FF4805207E000BF0A
:100C9000012204E04FF4801201E000BF1022CCF8E2
:100CA0000020826B01230021016243620AB1904758
:100CB0000021084680BD0000B0B5044600F01AF9D6
:100CC000054640F20000C2F200004068611C18BFF7
:100CD000044400BF00F00EF9401BA042FAD3B0BD9F
:100CE0002DE9F04F82B0D1F800C0BCF1000F00F048
:100CF000F180A0F1804241F60045A2F58432C4F2B1
:100D0000010540F2004E4FEAB2240627A842C4F281
:100D1000010E08BF0527052C4FF000044FF0010815
:100D20004FF00F034FF0000A4FF0000B38BF4FEAAF
:100D3000B22700970AE000BFD1F800C00AF1010A0B
:100D40003CFA0AF204F1040400F0C48008FA0AF93B
:100D50001CEA090FF0D04E684FF6FF72C1F2100284
:100D6000964211DC122E55D8DFE806F0340A4448CA
:100D7000545454545454545454545454544C500093
:100D8000D1F80CB046E000BF4FF6FF72C1F221026D
:100D900096420FDC0022C1F2110296421AD00022C4
:100DA000C1F21202964215D00022C1F221029642EF
:100DB00010D02FE00022C1F2220296420AD0002277
:100DC000C1F23102964205D00022C1F232029642AF
:100DD00020D100BF8A684AB1012A14BFC0F814901C
:100DE000C0F810904FF0080B14E000BF4FF0040B58
:100DF00010E000BFCA6802F1080B0BE04FF0000BD7
:100E000008E000BFCA6802F1040B03E0CA6802F1FF
:100E10000C0B00BF22460646BAF1080F24BF203A49
:100E20000436376803FA02F5AF430BFA02F23A438D
:100E30003260CA79D2067FF57FAF41F21807C4F25B
:100E400002073A684FF6084342F001023A603A68F6
:100E5000CFF6FF7302F001020192019A2AF0030219
:100E600072440F25D75804F00C06B540AF43009DDF
:100E700005FA06F63743D7504E680F23F203DEF823
:100E8000002054BF22EA090242EA0902CEF80020FB
:100E9000DEF80420B70354BF22EA090242EA09023D
:100EA000CEF80420F702DEF8082054BF22EA090237
:100EB00042EA0902B70240F20C47CEF80820C4F219
:100EC00001073A6854BF22EA090242EA09023A607D
:100ED00032E700BF02B0BDE8F08F00008068084034
:100EE00018BF012070470000002A08BF09040161F3
:100EF0007047000040F2C460C2F200000068704712
:100F000070B5A0B30446006C20B90020E063204611
:100F100000F0B6F9242020642068016821F0010166
:100F20000160016841F400410160016821F4004161
:100F3000016000F079FC48F28041C0F21E0140F6E9
:100F40000013D4F804E088424FF00001C0F23D03E2
:100F500048F2A16C4FF0000238BF01219842C0F264
:100F6000010C38BF0122E64538BF0A4612B1012004
:100F700070BD00BF4DF68361C4F21B31A0FB0112AE
:100F80002168950C4B684FF4967623F03F0343EAB3
:100F90009243754344F6D3564B60C1F262060B6A26
:100FA000A5FB0656B50923F03F03E64538BF950C6F
:100FB0006A1C1A430A62CA6948F2A0664CF6FF73BB
:100FC000C0F20106B64522EA03020BD801384FEA07
:100FD0004E03B0FBF3F001306FF31F30042898BFCD
:100FE00004201EE0A368013863B119230EFB03F34C
:100FF000B0FBF3F001306FF31F3078B100F58040A3
:1010000008E000BF0EEB4E03B0FBF3F001306FF3CE
:101010001F3028B100F5004003E000BF012000E0D0
:1010200001201043C8610868D4E9072320F0C000FC
:10103000104318430860886848F2FF3204F10C0638
:1010400090434CCE18431043A5698860C86820F0CF
:10105000FF0030432843C860086840F00100086082
:1010600000202021A06421642063606470BD000022
:101070002DE9F04782B01E4617468A460446FFF720
:1010800039FF216C20291AD1DDF82890054600BFD0
:101090002068816989070FD5FFF72CFF401B1A28AC
:1010A000F6D300202021206321646064A16C41F00C
:1010B0002001A164E06302E0E16B012904D1022078
:1010C00002B0BDE8F08700BF0121E1630168C907F4
:1010D00003D1016841F001010160016840F202089A
:1010E00021F400610160212121641021616400214B
:1010F000A16467626685618DC0F201082185A8F14F
:101100000211E162E16A11F5803F18BF012940F048
:101110009380016841F48071016019F101012AD0C6
:10112000B9F1000F20D14169C9072ED1FFF7E2FEC6
:1011300000202021206321646064A16C41F0200123
:10114000A1642168E0630868C00544BF4FF40070E3
:10115000A064012002B0BDE8F08700BFFFF7CAFE1F
:10116000401B4845E4D820684169C907F6D00CE027
:101170004169C90709D14169C90701BF41695FEAEE
:10118000C17141695FEAC171F2D02169B1F5804F47
:1011900002D10AF0FE0110E0062101EADA11F03175
:1011A000016108F1060120464A462B4601F0CCF8C1
:1011B0000028CED120685FFA8AF1016120464146BD
:1011C0004A462B4601F0C0F80028C2D10020019009
:1011D00020684169019180690190019806E000BF93
:1011E000204649462A4601F053F868BB208DC8B313
:1011F000204649462A4601F00DF928BB606A21685D
:10120000024612F8013B0B616262628D013A62850F
:10121000228D571E27854B693F0418BF13F0040326
:10122000DED0437802300B616062608D01386085EA
:10123000901E2085D4E700BF08293FF46AAF216BD8
:1012400012293FF466AF68E7A06C04287FF481AFF1
:101250002068016841F400710160012002B0BDE81E
:10126000F08700BF2068016841F400710160202010
:10127000206400206064E06302B0BDE8F0870000F5
:1012800010B586B045F600010068C4F200010022E6
:101290008842049202D006B010BD00BF41F218048B
:1012A000C4F20204206840F008002060206800F0CA
:1012B0000800019001984FF44060029012200390C2
:1012C0000320059001F5344002A9FFF709FD60688D
:1012D00040F480006060606800F480000190019834
:1012E00006B010BD40F2000040F2C461C2F200003E
:1012F000C2F2000140680A681044086070470000AC
:1013000080B542F20000C4F20200016841F0100111
:101310000160032000F08AF8002000F005F800F0DA
:1013200027F8002080BD000070B540F20006C2F230
:10133000000640F208017268C2F200014FF47A73AD
:101340000968B3FBF2F20446B1FBF2F1084600F083
:1013500099FC0F2C4FF0010508D838B94FF0FF3039
:1013600021460022002500F035F83460284670BD83
:1013700082B041F21800C4F202000168022241F07A
:1013800001010160016801F00101019101994168C9
:1013900041F080514160406800F08050009000981A
:1013A0000420C4F20100016862F31A61016002B016
:1013B00070470000002848BF704700F01F0101225D
:1013C00002FA01F14EF200124009CEF2000242F898
:1013D0002010704710B54EF60C5CCEF2000CDCF815
:1013E0000030C3F3022E8EF00704042C28BF04241F
:1013F000BEF103034FF0FF3E0EFA04F438BF0023A2
:10140000A14399400EFA03F39A4300F00F03043B03
:101410001143634409010C3300F16042B0F1FF3F16
:10142000C8BF02F56443197010BD00004EF60C51A0
:10143000CEF200010A684FF6FF031A4060F30A2259
:1014400042F0806040F0FD700860704780B5411E3A
:101450000F294FF0000039D8DFE801F00C2A3808D6
:1014600038383808383838383838383ABDE88040A5
:1014700000F002BA41F20400C4F20200C16940F275
:1014800002320A40B2F5817F04BF4FF4004080BDB4
:1014900001F44071B1F5407F4CD0B1F5007F51D1DE
:1014A000006A49F64041800701EAE07080BD00BF54
:1014B00000F0CEF941F20401C4F2020109680222EF
:1014C000C1F3813102EB4101B0FBF1F080BD00BFFF
:1014D00041F20401C4F202010A6851F8040CC0018F
:1014E0005CBF002080BDC2F3834017A3185CD20309
:1014F00006D440F60012C0F23D0250430CE000BF9B
:101500000A6815A3C2F340429A5C41F20023C0F27C
:101510007A03B3FBF2F250430968490248BF80BD29
:101520004AF6AB214000CAF6AA21A0FB01014808F7
:1015300080BD00BF50F8040C4FF22441800301EA43
:10154000E07080BD002080BD020304050607080985
:101550000A0B0C0D0E0F1010010200002DE9F041D6
:1015600082B00446007841F21C06C007C4F20206AD
:101570004AD0306810F0805808D1306840F0805070
:101580003060306800F080500190019847F2000709
:10159000C4F200073868C00512D4386840F480707F
:1015A0003860FFF7A7FC05463868C00508D4FFF788
:1015B000A1FC401B6428F7D9032002B0BDE8F081EC
:1015C000706810F4407012D0616801F44071884274
:1015D0000DD0706840F24042C4F24222012320F450
:1015E000407113600023C007136071602AD17068D6
:1015F000616820F440700843B8F1000F706003D1B7
:10160000306820F0805030602068810707D556F898
:10161000181CA26821F44041114346F8181CC0066A
:1016200004D4002002B0BDE8F08100BF56F8180CC9
:10163000616920F48000084346F8180C002002B0CD
:10164000BDE8F081FFF756FC054641F2883700BF40
:1016500070688007CBD4FFF74DFC401BB8424FF0B9
:101660000300F5D9EBE700002DE9F04381B0002835
:1016700000F0858042F20008C4F202080446D8F85F
:1016800000000D4600F0070088420CD2D8F8000098
:1016900020F007002843C8F80000D8F8000000F048
:1016A0000700A8426BD1206841F204098107C4F207
:1016B000020917D5410705D5D9F8001041F4E061BA
:1016C000C9F80010010705D5D9F8001041F46051A0
:1016D000C9F80010D9F80010A26821F0F0011143F8
:1016E000C9F80010C00741D1D8F8000000F0070089
:1016F000A8420CD9D8F8000020F007002843C8F809
:101700000000D8F8000000F00700A84237D1206898
:10171000410707D5D9F80010E26821F4E0611143D0
:10172000C9F80010000708D5D9F80000216920F495
:10173000605040EAC100C9F80000D9F8002002F06A
:101740000C00082841F20020C0F27A0050D145F682
:101750008813C2F38341C0F60003595CD2033BD423
:1017600040F60010C0F23D00484341E060680228A6
:101770000AD001282AD159F8041C890308D4012071
:1017800001B0BDE8F08300BF59F8041C8901F6D50B
:10179000D9F8001021F003010843C9F80000FFF751
:1017A000A9FB064641F28837D9F80000616800F0CD
:1017B0000C00B0EB810F97D0FFF79CFB801BB84269
:1017C000F2D9032001B0BDE8F08300BF59F8041C32
:1017D0008907D4D5DCE700BFD9F8002045F66E13A1
:1017E000C2F34042C0F600039A5C4843B0FBF2F0FB
:1017F000D9F8001045F67012C1F30311C0F60002CB
:10180000515C40F2080220FA01F140F20000C2F2FD
:1018100000000068C2F200021160FFF785FD0020A1
:1018200001B0BDE8F083000040F2080041F204017D
:10183000C2F20000C4F202010068096845F6801295
:10184000C1F30221C0F60002515CC840704700009D
:1018500040F2080041F20401C2F20000C4F20201A9
:101860000068096845F68012C1F3C221C0F6000283
:10187000515CC8407047000041F2040CC4F2020CF5
:10188000DCF8003003F00C00082841F20020C0F220
:101890007A0018BF704745F68811C3F38342C0F63B
:1018A00000018A5CD90305D440F60010C0F23D0067
:1018B00050437047DCF8001045F66E13C1F3404109
:1018C000C0F60003595C5043B0FBF1F070470000D4
:1018D0002DE9F04182B0002868D00446007841F23A
:1018E0000006C007C4F2020625D0706800F00C00A4
:1018F00004281BD0706800F00C00082802D1706822
:10190000C00313D46068002800F06881B0F5A02FF0
:1019100000F07C81B0F5803F00F07C81306820F4DD
:1019200080303060306820F4802076E130688003B9
:1019300001D56068D0B32078800718D5706810F0A2
:101940000C0F07D0706800F00C0008286ED170688A
:10195000C0036BD43068800702D52069012825D1E7
:101960003068616920F0F80040EAC10030602078FA
:1019700000071FD42078400732D4E56995B170681C
:1019800000F00C00082840F08F80012D0ED0706808
:10199000216A00F480328A4208D1616A00F4701032
:1019A000884203D1002002B0BDE8F081012002B0DE
:1019B000BDE8F081A069002862D00020C4F2422076
:1019C0000121C0F88014FFF795FA0546706A800778
:1019D00000F18C80FFF78EFA401B0228F6D92AE12D
:1019E000F06910F0805808D1F06940F08050F06143
:1019F000F06900F080500090009847F20007C4F2B0
:101A000000073868C00529D4386840F48070386011
:101A1000FFF770FA054600BF3868C0051ED4FFF70F
:101A200069FA401B6428F7D905E100BF2069002846
:101A300040F20000C4F2422000F0828001210160E7
:101A4000FFF758FA054600BF306880073FF588AFBA
:101A5000FFF750FA401B0228F6D9ECE0E0680028B6
:101A600000F08080052800F09780012800F0988021
:101A7000306A20F001003062306A20F0040092E009
:101A80000020C4F242200021C0F88014FFF732FA8F
:101A9000054600BF706A80077FF56CAFFFF72AFA32
:101AA000401B0228F6D9C6E00027C4F242270020D6
:101AB0003866FFF71FFA022D05460BD1306880010A
:101AC00040F1BE80FFF716FA401B02284FF00300DA
:101AD000F4D968E7306880017FF564AFFFF70AFA50
:101AE000401B02284FF00300F4D95CE740F20800E5
:101AF000C2F20000006844F6D351C1F26201A0FBBB
:101B00000101480A019000BF00BF0198411E002852
:101B100001913FF42FAF00BF0198411E00280191B1
:101B20003FF428AF00BF0198411E002801913FF407
:101B300021AF00BF0198411E00280191E4D119E7AF
:101B400000210160FFF7D6F9054600BF3068800725
:101B50007FF50DAFFFF7CEF9401B02284FF00300D1
:101B6000F4D920E7306A20F001003062306A20F0BA
:101B700004003062FFF7BEF9054641F2883700BF26
:101B8000306A800720D5FFF7B5F9401BB8424FF007
:101B90000300F5D907E700BF306A40F00400306267
:101BA000306A40F001003062FFF7A4F9054641F2C7
:101BB000883700BF306A800706D4FFF79BF9401BC7
:101BC000B842F7D937E000BFB8F1000F7FF4D5AEC7
:101BD000F06920F08050F061CFE600BF306820F45B
:101BE00080303060306820F480203060FFF782F968
:101BF000054600BF306880037FF59DAEFFF77AF998
:101C0000401B64284FF00300F4D9CCE6306840F460
:101C100080203060306840F480303060FFF76AF92F
:101C2000054600BF306880033FF585AEFFF762F9D7
:101C3000401B6428F6D9032002B0BDE8F08100BF44
:101C4000206AB0F5803F05D17168A26821F40031A7
:101C5000114371607168626A21F474111043084382
:101C6000706001203866FFF745F90446306880014E
:101C70003FF598AEFFF73EF9001B02284FF0030036
:101C8000F4D990E6411E0020B0EB116F1CBF01207B
:101C900070474EF21002CEF2000251604EF6235110
:101CA000CEF20001F0230B700721906011607047A5
:101CB0007047000070470000B0B582B0026805466A
:101CC0001068D168546900F02F03202B01F0200325
:101CD00006D12BB1284602B0BDE8B04000F000BDEF
:101CE0005FEA007C1EBF04F0010E01F4907414EB57
:101CF0000E042BD12B6B0840C10617D5012B15D133
:101D0000002001901068019050680190019850697E
:101D1000400623D4A88DE98DEB8D002B1CBF401A03
:101D20005FEA004140F0C88002B0B0BD010643D474
:101D30004006F9D5D068202120F04000D060284628
:101D4000296402B0BDE8B04000F09EBAC40718BFD5
:101D500011F4807442D1440746D44CE0A86B01686A
:101D60004B689CB2002CDFD0A98D8C42DCD2EB8575
:101D70008369202B16D0D16821F48071D16051691C
:101D800021F001015161516921F04001516120218F
:101D9000696400212963D16821F01001D160FEF748
:101DA000D5FEA98DE88D081A81B2284602B0BDE89B
:101DB000B040FFF77DBF00BF286C2128B4D1A868D0
:101DC000B0F5805F03D12869002800F08D80286A73
:101DD000411C2962007850608DE000BFAC6C44F07B
:101DE0000104AC64440706D5BEF1000F03D0AC6C0F
:101DF00044F00204AC64840706D5BEF1000F03D0A2
:101E0000AC6C44F00404AC64BCF1000F06D553EA9A
:101E10000E0303D0AB6C43F00803AB64AB6C002B38
:101E20003FF482AF0840800603D5284600F058FCF6
:101E30002A685069A96C00F0400001F008014018C0
:101E400032D0D06820F49070D060506920F001004A
:101E50005061286B012803D1D06820F01000D060B9
:101E600020206864002028635069400616D5506918
:101E700020F040005061A86B80B142F2D561C0F6FD
:101E800000018163FEF782FE00283FF44DAFA86B8E
:101E9000816B02B0BDE8B040084700BF284602B0E1
:101EA000BDE8B040FFF706BF2846FFF703FF00205C
:101EB000A86402B0B0BD00BFD16821F49071D160B8
:101EC000516921F0010151612021696400212963D8
:101ED000D16821F0100381B22846D36002B0BDE87A
:101EE000B040FFF7E5BE00BF286A30F8021B6FF371
:101EF0005F2151602862E88C01380104E8847FF496
:101F000013AFD06820F08000D060D06840F040006F
:101F1000D06002B0B0BD0000002804BF01207047AF
:101F200010B50446006C20B90020E063204600F0A4
:101F30005BF8242020642068D4E90212C36823F4EB
:101F40000053C360036923F440531A430261D4E988
:101F500004231143C268194341F20C639A431143AD
:101F6000C1604169A26921F44071114343F6000246
:101F7000C4F201029042416102D0FFF755FC01E03A
:101F8000FFF766FC6268192148439100B0FBF1F04D
:101F900048F21F51C5F2EB11A0FB01235A096FF063
:101FA000630302FB0300322303EB0010A0FB0101DB
:101FB000F02303EA5113206803EB0212C1F343112B
:101FC00011448160016921F490410161416921F06E
:101FD0002A014161C16841F40051C1600020202103
:101FE000A0642164616410BD70B586B0006844F2DD
:101FF0000041C4F20001002688420596CDE903663F
:1020000002963FD043F60001C4F20101884266D136
:1020100041F21800C4F20200016840F6000441F4E5
:10202000804101600168C4F2010401F48041019122
:102030000199016802AD41F0040101600068294680
:1020400000F00400019001984FF40070029002200B
:102050000390032005902046FEF742FE4FF4806077
:1020600002900020CDE9030020462946FEF738FE05
:10207000252000210022FFF7ADF92520FFF79AF96E
:1020800006B070BD41F21800C4F20200416840F68B
:10209000000441F4003141604168C4F2010401F4DC
:1020A000003101910199016802AD41F00401016024
:1020B0000068294600F00400019001980420029075
:1020C00002200390032005902046FEF709FE082019
:1020D000CDE90206204629460496FEF701FE06B029
:1020E00070BD0000704700002DE9F04381B0044648
:1020F000006C20280CD10F4600294FF0010000F0A1
:102100008E801646002A00F08A80E06B012803D1F9
:10211000022001B0BDE8F0830120E0634FF0000928
:1021200021201D46C4F848902064FEF7E3FEA684F3
:10213000E684A1688046B1F5805F25D1206900283A
:102140001CBF38464F463E460746C4F83C90E08CDC
:1021500000B3681C20D0002D64D120680BE000BFC4
:1021600036F8021B00276FF35F214160E18C0139D3
:10217000E184E18C81B30168090673D5002FEFD0AB
:1021800017F8011BF1E700BF0026C4F83C90E08C73
:102190000028DED120681FE0206802E001680906FF
:1021A00009D4016809065FBF01685FEA016101683F
:1021B0005FEA0161F2D51FB117F8011B05E000BF0E
:1021C00036F8021B00276FF35F214160E18C013973
:1021D000E184E18C0029E4D1016849061CD4002D7A
:1021E00040D0691C0ED10168490615D40168490622
:1021F0005CBF01685FEA41610ED401684906F2D50F
:102200000AE000BFFEF776FEA0EB08012068A942B5
:1022100028D800684006F5D520202064002001B0B1
:10222000BDE8F083206800BF0168090608D4FEF706
:1022300061FEA0EB08012068A942F5D912E000BFB9
:1022400017B117F8011B04E036F8021B00276FF3E3
:102250005F214160E18C0139E184E18C0029E3D107
:10226000BAE700BFC16821F4D071C160416921F0B3
:10227000010141612020206460640020E0630320AC
:1022800001B0BDE8F083000070470000FEE70000E9
:1022900070B50368044653F8140F400741D40E4646
:1022A000F1B1701C2ED100BF186840053CD41868ED
:1022B000400736D41868400536D41868400730D433
:1022C0001868400530D4186840072AD418684005BB
:1022D0002AD4186840074FF0000048BF70BDE3E7FC
:1022E0001868400520D4FEF705FE00202021206359
:1022F00021646064A16C41F02001A164E0630120CD
:1023000070BD00BF154600BF186840050CD4FEF72D
:10231000F1FD401BB042E8D8236853F8140F400782
:10232000F2D5002070BD00BF6FF4806018600020FF
:102330002021206321646064A16C41F00401A16448
:10234000E063012070BD0000F0B581B01D46036858
:10235000044658698FB23840B84203D1002001B01A
:10236000F0BD00BF16467AB3701C29D158694005EC
:102370003CD458693840B842F0D05869400535D44B
:1023800058693840B842E9D0586940052ED4586998
:102390003840B842E2D05869400527D458693840DF
:1023A000B8424FF00000E1D132E000BFFEF7A2FDDD
:1023B000401BB0420DD8236858693840B842CDD090
:1023C00058694005F2D511E0586940050ED4FEF772
:1023D00091FD00202021206321646064A16C41F004
:1023E0002001A164E063012001B0F0BD1868202144
:1023F00040F4007018606FF4806058610020206322
:1024000021646064A16C41F00401A164E0630120D7
:1024100001B0F0BD70B50368044653F8140F000610
:1024200041D40E46F1B1701C2ED100BF1868400592
:102430003CD41868000636D41868400536D41868AD
:10244000000630D41868400530D4186800062AD435
:10245000186840052AD4186800064FF0000048BFED
:1024600070BDE3E71868400520D4FEF743FD002067
:102470002021206321646064A16C41F02001A164EB
:10248000E063012070BD00BF154600BF186840051D
:102490000CD4FEF72FFD401BB042E8D8236853F858
:1024A000140F0006F2D5002070BD00BF6FF48060ED
:1024B000186000202021206321646064A16C41F039
:1024C0000401A164E063012070BD000010B584B078
:1024D00040F2880042F20041C2F20000C4F2010161
:1024E00000224FF460230124C361C0E90012C0E957
:1024F0000222C0E90442FEF735FA002818BFFEF7B1
:10250000EFF80520039040F28800C2F2000001A914
:10251000CDE90144FEF76EF9002818BFFEF7E0F898
:1025200004B010BD2DE9F04385B04FF0000841F232
:102530001800CDF81080C4F20200016840F6004493
:1025400041F0100101600168C4F2010401F01001C2
:10255000009100990168002241F0200101600168AA
:102560004FF0B80901F0200100910099016841F095
:1025700004010160016801F0040100910099016803
:1025800041F0080101600068B82100F008000090E7
:1025900000982046FEF7A8FC4FF4005001ADCDE9AD
:1025A0000108012704F5806029460397FEF798FB90
:1025B0000220A4F58066039030462946CDE90178D3
:1025C000FEF78EFB6020CDE90108304629460397CF
:1025D000FEF786FB0320049020462946CDE90197AB
:1025E0000397FEF77DFB4FF44070CDE901082046CC
:1025F00029460397FEF774FB05B0BDE8F0830000A1
:1026000080B540F2B80045F60001C2F20000C4F205
:10261000000141F6802200234FF4804CC0F20602F4
:1026200080E80E00C0E9033CC0E90533C0E9073388
:10263000FEF766FC002808BF80BDBDE88040FEF7BD
:102640004FB8000080B540F2141043F60001C2F20A
:102650000000C4F2010100234FF00C0C4FF4E132F2
:1026600080E80E00C0E90333C0E905C3C361FFF78A
:1026700053FC002808BF80BDBDE88040FEF730B89D
:1026800080B540F2601044F20041C2F20000C4F292
:10269000000100234FF00C0C4FF4E13280E80E00F3
:1026A000C0E90333C0E905C3C361FFF735FC002867
:1026B00008BF80BDBDE88040FEF712B8FEE700000D
:1026C000704700007047000070470000FEF70ABE28
:1026D00070470000806A0021C185C184FFF7EABA13
:1026E00081B0416C222921D18368B3F5805F09D183
:1026F0000169002942D000F128010A6803685B687B
:102700000BE000BF014651F8282F13B90369002BD5
:10271000F4D003685B6803F07F0313700A6801322A
:102720000A60C18D01390A04C18501D001B070472A
:102730000168CA6822F02002CA60CA6822F4807266
:10274000CA604A6922F001024A6120224264026B97
:10275000012A1DD100220263CB6823F01003CB6055
:102760000B68DB0605D500920A6800924968009163
:102770000099818D01B0FFF79BBA00BF0168826AA2
:1027800049686FF35F2122F8021B8262C9E700BF2C
:1027900001B0FFF7A7BC000040F21410C2F2000025
:1027A000FFF78ABAFEE70000ADF56E7D88AC2046E3
:1027B00000F06CFC45F6E212C0F600021792299276
:1027C000329253A24EA03B9253A20E90012044920B
:1027D00053A28DF848008DF890008DF8FC004D92C2
:1027E0008DF8440150A28DF868018DF88C018DF8A8
:1027F000B0018DF81C020F2043A356924CA28DF815
:10280000240201A845F6DB1120935F9245F6D3120E
:102810004AA3889040F2AC100026C0F60001C0F632
:102820000002719349A3C2F20000CDE90366CDE92D
:1028300001660591CDE90A66CDE90C66CDE913661E
:10284000CDE91566CDE91C66CDE91E66CDE92566A4
:10285000CDE92766CDE92E66CDE93066CDE937664C
:10286000CDE93966CDE94266CDE94066CDE94B66F2
:10287000CDE94966CDE95266CDE95466CDE95B669E
:10288000CDE95D66CDE96666CDE964666892CDE91D
:102890006F66CDE96D66CDE97866CDE976667A93A7
:1028A000CDE98166CDE97F668392ADF82562A89671
:1028B00001F0FAF9083002F085FE9DF92412054670
:1028C000084602F07FFE01464FF0854002F068FDA9
:1028D000EB909DF8B4034FF0834140F00100B496B3
:1028E000C096CC95D891E5968DF8B40300F044FEDF
:1028F0000146204600F014FB204600F067FBF5E798
:1029000068656C6C6F31230068656C6C6F322300F6
:1029100068656C6C6F34230068656C6C6F35000003
:1029200068656C6C6F36230068656C6C6F372300CC
:1029300068656C6C6F3823363636000068656C6CE1
:102940006F313036363636360000000068656C6C04
:102950006F313100704700002DE9F0414F680D469E
:1029600000210446C4F24011384602F081FC02F016
:102970000DFE94F820100646C9070FD0286802F013
:1029800005FE8046384602F001FE024640F2AC10D9
:10299000C2F200004146334601F0AEF828684FF01D
:1029A000814102F065FC02F0F1FD0146236940F22D
:1029B000AC10C2F200003246BDE8F04101F094B81C
:1029C0002DE9F04782B040F2AC18C2F2000804468C
:1029D0004046022101F0BEF904F1980000F0BCFC71
:1029E00002F0D4FD04F168058146284600F0B4FCED
:1029F00004F1C8060746304600F0AEFC01463846F2
:102A000002F036FC02F0C2FD824604F1F80000F04C
:102A1000A3FC02F0BBFD074604F5947000F09CFC9B
:102A20000446284600F098FC0546304600F094FC29
:102A30000146284602F01CFC054602F0A7FD02F004
:102A4000D9FD0146284602F01DFF4FF07C5102F0EF
:102A50007FFC01460028204618BF4FF07E5102F04F
:102A600007FC02F093FD012600904046494652467D
:102A70003B46019600F05EFF4046012102B0BDE8F2
:102A8000F04701F067B9000010B50446083000F0C7
:102A900069FC18B304F1380000F064FCF0B104F1F3
:102AA000680000F05FFCC8B104F1980000F05AFC27
:102AB000A0B104F1C80000F055FC78B104F1F800B1
:102AC00000F050FC50B104F5947000F04BFC28B1BC
:102AD00004F5AE70BDE8104000F044BC002010BD0D
:102AE0002DE9F04F83B08346383000F035FC0021EB
:102AF0009BF90460CCF28021054602F037FC0028E7
:102B000046D1012E44DB40F2AC1985F00045C2F2FB
:102B100000090DF104084FF0000A002428460021A6
:102B200002F02BFC18BB284602F030FDDBF89011B8
:102B30000746284602F09CFB02F028FD0646484660
:102B400000213A468023009601F0F6F8DBF80000F9
:102B50000AEBCA0100EB81000021CDE901154146D5
:102B6000FFF7FAFE484601F077F99BF80460DBF8BE
:102B70009011284602F07CFB4FF08541054602F09B
:102B8000EEFB28B901345FFA84FA70B28245C5DBE6
:102B900003B0BDE8F08F00002DE9F04104468079D4
:102BA0002279014610E000BF0431CBB2934208BF46
:102BB000BDE8F0814BB2276803EBC30307EB830347
:102BC00093F82030DB072DD04B1CDFB2974200F08A
:102BD000AC805FB2266807EBC70706EB870797F85C
:102BE0002070FF071DD08B1CDFB2974200F09D8044
:102BF0005FB2266807EBC70706EB870797F82070D8
:102C0000FF070ED0CB1CDFB2974200F08E805FB280
:102C1000266807EBC70706EB870797F82070FF07C2
:102C2000C2D119466279E379D2431A44081A56B2DE
:102C300045B2012EA17123DBB54231DDD4F890718C
:102C4000304604F1680802F0BDFC0146384602F047
:102C50004DFD0146404600F0B7FBD4F89071A81B2B
:102C600004F1380802F0AEFC0146384602F03EFDA1
:102C70000146404600F0A8FBE079013821E000BFA2
:102C8000D4F89061284604F1380702F09BFC014615
:102C9000304602F02BFD0146384600F095FB11E06E
:102CA000D4F89061284604F1680702F08BFC0146D5
:102CB000304602F01BFD0146384600F085FB607986
:102CC00028446071D4F88C1104F5AE7000F07CFBE0
:102CD00094F90600216800EBC00001EB8000016957
:102CE00040F2AC10C2F2000000F0DEFF083002F04B
:102CF00069FC054604F19800002100F039FB04F15D
:102D0000C800002100F034FB04F1F800294600F06F
:102D10002FFB04F594704FF0834100F029FB94F8E9
:102D2000940140F0010084F89401BDE8F0810000B6
:102D3000F0B583B00446807901460A0600F0C880E9
:102D40004A1E53B2276803EBC30307EB830393F8D0
:102D50002030DB072AD0120600F0BA808A1E53B258
:102D6000276803EBC30307EB830393F82030DB07EB
:102D70001CD0120600F0AC80CA1E53B2276803EBC9
:102D8000C30307EB830393F82030DB070ED0120652
:102D900000F09E8004394AB2236802EBC20203EBC2
:102DA000820292F82020D207C7D100E01146401AD3
:102DB00045B2D4F88000A17102F02EFA0E460090C0
:102DC00044A04EA251A340F253110196FDF726FAFA
:102DD00094F90500012825DB854204F1680633DDFE
:102DE000D4F8901181F0004702F0ECFB394602F074
:102DF0007DFC0146304600F0E7FAD4F8900194F9E2
:102E0000051080F00047681A04F1380602F0DAFB7A
:102E10000146384602F06AFC0146304600F0D4FA1A
:102E2000002021E0D4F8900104F1380680F000473A
:102E3000284602F0C7FB394602F058FC01463046EE
:102E400000F0C2FA11E000BFD4F8900180F0004712
:102E5000284602F0B7FB394602F048FC01463046EE
:102E600000F0B2FA6079401B6071D4F88C1104F55F
:102E7000AE7000F0A9FA94F90600216800EBC000DA
:102E800001EB8000016940F2AC10C2F2000000F0DA
:102E90000BFF083002F096FB054604F19800002174
:102EA00000F066FA04F1C800002100F061FA04F1B4
:102EB000F800294600F05CFA04F594704FF0834165
:102EC00000F056FA94F8940140F0010084F894015F
:102ED00003B0F0BD5B206C696E653A202564207CF0
:102EE0002066756E6374696F6E3A202573205D20CD
:102EF0002573203D2025640D0A0000007377697456
:102F00006368546F50726576000000006D5F4D611C
:102F1000736B592E6E43757272656E7400000000FB
:102F2000B0B5002945D00446032915D0012927D181
:102F300022A0FDF719FA94F90600216800EBC00001
:102F400001EB800090F82000800732D42046BDE8D5
:102F5000B040FFF7EDBE00BF16A0FDF705FA94F9EB
:102F60000600216800EBC00001EB800090F8200013
:102F7000800748BFB0BD2046BDE8B040FFF70CBE9B
:102F8000022910D194F90600216800EBC00001EB82
:102F900080056B691BB1D5E9061228469847296957
:102FA00008A0FDF73BF994F8940140F0010084F883
:102FB0009401B0BD6E6578740D0000007072657686
:102FC0000D00000025730D0A0000000010B5044636
:102FD00090F89401C00708BF10BD40F2AC10C2F2D7
:102FE000000000F0C5FB2068E0B325A0FDF7BCF9A8
:102FF0002046FFF749FD94F8941180F0010001F09C
:10300000FE01084484F8940104F1080000F00AFA73
:1030100004F1380000F006FA04F1680000F002FA4A
:1030200004F1980000F0FEF904F1C80000F0FAF98C
:1030300004F1F80000F0F6F904F5947000F0F2F9EC
:1030400004F5AE7000F0EEF92046FFF749FD20468A
:10305000FFF7B6FC40F2AC10C2F20000BDE8104031
:1030600000F060BE94F8940100F0FE0084F8940132
:1030700040F2AC10C2F20000BDE8104000F052BEB9
:1030800072657061696E740D000000002DE9F04FEB
:103090008FB004460020C4F80300206094F8940127
:1030A00042F6551A042100F0FE00C0F6000A00277F
:1030B000E17184F89401009103A800215246002395
:1030C000019700F023F90BAB0FCBDDE903EBDDE952
:1030D0000589DDE90757DDE9096CA0620420E1629A
:1030E00022636363C4E902EBC4E90489C4E90657B7
:1030F000C4E9086C009003A8002152460023002771
:10310000019700F003F90BAB0FCBDDE903E8DDE934
:10311000059BDDE90776DDE9095CA0650420E16532
:1031200022666366C4E90EE8C4E9109BC4E912761E
:10313000C4E9145C009003A8002152460023002734
:10314000019700F0E3F80BAB0FCBDDE903E8DDE915
:10315000059BDDE90776DDE9095CC4F888000420F9
:10316000C4F88C10C4F89020C4F89430C4E91AE86C
:10317000C4E91C9BC4E91E76C4E9205C009003A846
:103180000021524600230027019700F0BFF80BAB47
:103190000FCBDDE903E8DDE9059BDDE90776DDE935
:1031A000095CC4F8B8000420C4F8BC10C4F8C020FE
:1031B000C4F8C430C4E926E8C4E9289BC4E92A76E7
:1031C000C4E92C5C009003A800215246002300278C
:1031D000019700F09BF80BAB0FCBDDE903E8DDE9CD
:1031E000059BDDE90776DDE9095CC4F8E800042009
:1031F000C4F8EC10C4F8F020C4F8F430C4E932E8A4
:10320000C4E9349BC4E93676C4E9385C009003A86D
:103210000021524600230027019700F077F80BABFE
:103220000FCBDDE903E8DDE9059BDDE90776DDE9A4
:10323000095CC4F818010420C4F81C11C4F820214A
:10324000C4F82431C4E93EE8C4E9409BC4E94276AD
:10325000C4E9445C009003A80021524600230027E3
:10326000019700F053F80BAB0FCBDDE903E8DDE984
:10327000059BDDE90776DDE9095CC4F84801042017
:10328000C4F84C11C4F85021C4F85431C4E94AE8D8
:10329000C4E94C9BC4E94E76C4E9505C009003A895
:1032A0000021524600230027019700F02FF80BABB6
:1032B0000FCB04F5BE7BDDE903E8DDE9059ADDE926
:1032C0000776DDE9095C8BE80F0094F90700C4E993
:1032D00057E8C4E9599AC4E95B76C4F87451C4F854
:1032E00078C102F06FF901464FF0854002F058F8BE
:1032F00001462046C4F890110FB0BDE8F08F0000E1
:103300007047000070470000FFF74EFA10B543F217
:103310000134DDE902ECC0F60004002A18BF1446AF
:103320000022C0E90014C1F38001C0E90222C0E913
:1033300004328261BEF1020F98BF4FF0020EA0F876
:103340001CE0C0F82220C0F81E2080F826108262FF
:10335000A0F82CC010BD000080B50169806901F0A3
:1033600087FF80BD808CB0FA80F040097047000074
:1033700070B5866904460D460846314602F082FA69
:10338000606102F003F9002808BF70BD20680021C9
:10339000E1832162C0F380018207C4E9026584F8F9
:1033A000261009D40109C20708BF01210007A18422
:1033B00005D5480002E000BF4FF6FF70A084FDF77E
:1033C00099FDA06270BD000070B50446C068A56993
:1033D00001F04EFF2946064602F054FA606102F001
:1033E000D5F8002808BF70BD20680021E183216264
:1033F000C0F380018207C4E9025684F8261009D47C
:103400000109C20708BF01210007A18405D54800B2
:1034100002E000BF4FF6FF70A084FDF76BFDA062D5
:1034200070BD000070B50446808C00285FD0A08D70
:1034300048B1FDF75FFDA16A884258D3FDF75AFDF8
:10344000A18D0844A062E08BA68B013081B2B1420D
:10345000E0830DD92078000702D4012007E000BFE7
:1034600094F8260080F0010084F826000220E08312
:1034700080B2B04212D14FF07E5094F826102062F4
:1034800020780822002908BF0C22A1588007A161DA
:1034900048BF70BDA08C0138A08470BD013802F017
:1034A00091F80546701E02F08DF80146284601F09D
:1034B00077FF94F82610206261B16168E56866695B
:1034C00088470146304602F011F90146284602F0CD
:1034D000D9F90BE0D4E90115666988470146304601
:1034E00002F004F90146284601F0C2FEA06170BD59
:1034F00010B582B0019040F2141001ACC2F200008D
:1035000021460122FF23FEF7EFFD40F26010C2F2D8
:10351000000021460122FF23FEF7E6FD019802B0DC
:1035200010BD0000B0B540F60044C4F201042046CE
:103530004FF48071FDF7D2FCB0FA80F040F27005D4
:103540004009C2F200056871287104F580604FF4EB
:103550000051FDF7C3FCB0FA80F04009E871A87192
:1035600020464FF40071FDF7B9FCB0FA80F0400935
:1035700068722872B0BD000070B582B040F6004697
:10358000C4F2010630464FF48071FDF7A7FC40F20B
:103590007005C2F20005B0FA80F069794409A142D1
:1035A0002C7115D045F6981045F6BE1245F6C71396
:1035B000C0F60000C0F60002C0F600031E216C71C8
:1035C0000094FCF72BFE287910B101245CE000BFC9
:1035D00006F580604FF40051FDF780FCB0FA80F0F2
:1035E000E9794409A142AC7114D045F6981045F62A
:1035F000BE1245F6C713C0F60000C0F60002C0F6C2
:1036000000031E21EC710094FCF708FEA87908B1B4
:10361000022439E030464FF40071FDF75FFCB0FA48
:1036200080F0697A4609B1422E7215D045F698109D
:1036300045F6BE1245F6C713C0F60000C0F60002FC
:10364000C0F600031E216E720096FCF7E7FD287A93
:1036500010B1032418E000BFE87A0024AC72A0B1D6
:1036600045F6981045F6BE1245F6C713C0F60000A1
:10367000C0F60002C0F600031E21EC720094FCF7B5
:10368000CDFDA87A08B104242C60204602B070BD9C
:1036900096B0FDF735FE4FF4FA70FDF70DFB0024F0
:1036A0000120CDE91144CDE90F440C9010904FF466
:1036B000E0104FF48031022515900CA80B94CDE951
:1036C0000944CDE90744CDE90544CDE90344CDE9FA
:1036D0000144CDE90D14CDE91351FEF7F9F80F209F
:1036E000CDE907054FF48060CDE90A0407A802215F
:1036F0000994FDF7B9FF4FF40040039001A801952C
:10370000FDF72CFFFEF70EFFFEF79CFFFEF778FF9C
:10371000FEF7B6FFFEF7DAFE40F28800C2F20000C4
:10372000FCF7E0FFFFF7FEFE00F0BAFF0020FFF716
:10373000EBFD00BFFEE7000010B545F6F01144F6C2
:10374000F13245F2CD03C0F60001C0F60002C0F62A
:103750000003044600F0B0FB204601F0F1F92046DA
:10376000002101F0F9F92046BDE81040AFF30080D8
:1037700080B5016890F83820097C406B5143C9003E
:10378000FCF708FE80BD00002DE9F04F87B014461D
:103790005F1C9B46CE1AD21A06917B1839198FB23C
:1037A000B1B292B29BB20590009700F085FA002862
:1037B0003DD0109F0598069B00215A460094019722
:1037C00000F0C2FBBBF1000F31D04FF6FE70ABEB47
:1037D0004B0101304E00CBF1010A4FF001084FF0D0
:1037E000000900B2CDE90304039A0FFA8AF090426F
:1037F0006FEAE030834409F101090FFA88F006F11D
:103800000201C4BF8A440E4600F1020800941FFA68
:103810008BF71FFA89F50598069B109C29463A46B6
:10382000C244019400F090FB049CBD42DCD307B07D
:10383000BDE8F08FF0B581B0002B79D090F88C50B6
:10384000002D75D0069C012B06D0032C36D0022CFF
:1038500002D1C91A013101E0E50731D1B0F84C506D
:10386000954265D8B0F84E50954261D9B0F84840BD
:10387000B0F84AE08DB2EE18B7B27545A44638BF2D
:103880008C46B74208BF8C46754533461FFA8CF10B
:1038900038BFAEF10103B74208BF3B46714547D27E
:1038A0009DB2A54244D9A14238BFA446754588BF00
:1038B00073464FF0000E614630E000BFD21A01326D
:1038C000B0F848708F4233D8B0F84A708F422FD981
:1038D000B0F84C40B0F84EE095B2EE18B7B275456E
:1038E000A44638BF9446B74208BF94467545334650
:1038F0001FFA8CF238BFAEF10103B74208BF3B4656
:10390000724515D29DB2A54212D9A24238BFA44633
:10391000754588BF73464FF0010E6246046BA3EBFA
:103920000C03A4689BB289B292B2CDF800E0A04724
:1039300001B0F0BD2DE9F04F89B00646129803EBB7
:10394000010900EB020A1FFA89F598461FFA8AFB63
:1039500030462B4617460C46CDF800B000F0ACF9C7
:10396000002800F0BE800695139D07942A19E919D6
:10397000E843CDF820801FFA82F88CB2CDF810B061
:1039800009EB000B0AEB000992464FF0020C05917F
:103990003046414622462B46CDF800C0FFF7F4FEE4
:1039A0001FFA8BFB4FF0010C3046594622462B463E
:1039B000CDF800C0FFF7E8FE1FFA89F44FF0040CC1
:1039C0003046414622462B46CDF800C0FFF7DCFECC
:1039D0004FF0080C30465946DDF820B022462B4601
:1039E000CDF800C0FFF7D0FEABEB0500401B81B265
:1039F000032951D30AF10101023805F1010A0394A8
:103A0000019008440AEB07028CB295B283B23046AB
:103A100021463A461FFA8AF80293009500F04CF9C5
:103A2000D04514D198B101984FF0000B1FFA80F8DF
:103A3000554600BFBAB2304621464346CDF800B0E5
:103A4000FFF7F8FE013D280407F10107F2D1DDE997
:103A50000232049F30462146009700F02DF9DDF830
:103A600020B0139D5FEA0A4118BF002814D00198C6
:103A70004FF0000887B200BF1FFA89F23046214696
:103A80003B46CDF80080FFF7D5FEAAF1010A5FEAB8
:103A90000A4009F10109EFD11298DDE90637401B10
:103AA000401B81B203291CD30599851E4C1C281983
:103AB0001FFA80FCA2B230463946CDF800C000F0B3
:103AC000FBF870B14FF00008A2B2304639465B46B1
:103AD000CDF80080FFF7AEFE013D280404F101049B
:103AE000F2D109B0BDE8F08F44F6A13CC0F6000C5D
:103AF000C0F804C000F0B0BA70B582B0A3B3944669
:103B000090F88C2082B3B0F848208A422CD8B0F8C4
:103B10004A208A4228D9B0F84C40B0F84EE003EB76
:103B20000C05AEB2E645224688BF6246AE4208BFEB
:103B30006246E6452B4688BFAEF10103AE4208BFA0
:103B40003346724510D21FFA83FCA4450CD9A24219
:103B500038BF2246066BF44588BF7346B6689B1A89
:103B600001259BB20095B04702B070BDB0B50446C8
:103B700000F028FD00284FF0000100F0928084F84A
:103B80006C1094F8781020660B460278082922BF42
:103B900001302066A1F108034FF0FF3C0CFA01F15F
:103BA00094F879E022EA010184F86C3084F86A1014
:103BB0000EEB03010278CDB2082DDDB222FA05F238
:103BC00009D3451C2566C3F108034078DBB2984051
:103BD0000243083928460CFA0EF39A4394F89230BF
:103BE00094F87AE084F86E30B3FA83F35B0984F8D2
:103BF0006C1084F86B2084F86F3001EB0E030578AD
:103C0000DAB2082ACAB225FA02FC0AD3421C22669A
:103C1000C1F108014078C9B288404CEA000C083B69
:103C20001046AEF101024FF0FF31D2B24FF0807575
:103C300001FA0EF105FA02F294F87B502CEA010128
:103C4000A1EB1261EA18D3B2082B84F8901022BFBE
:103C500001302066083A94F87C1084F86C208B18A8
:103C600090F800C0DDB2082DD5B22CFA05FC09D3BE
:103C7000451C2566C2F108024078D2B290404CEA59
:103C8000000C083B4FF0FF3088400139C9B24FF0BB
:103C900080722CEA000002FA01F1A0EB116184F8B5
:103CA0006C3048B2B0BD000044F6A132C0F600024C
:103CB000426000F083BE000010B5B0F84E40DDF861
:103CC00008E0B0F84CC0944206D972450AD8F445D1
:103CD00024BF002010BD05E0F4454FF0000C1ED2BB
:103CE00072451CD9B0F84A20B0F848008A420BD976
:103CF000002299424FF0000188BF0121984238BF4D
:103D0000012241EA020010BD002299424FF0000159
:103D100088BF0121984238BF012202EA010C6046A7
:103D200010BD000010B5044600F01CFE2046BDE8A2
:103D3000104000F00BBF0000DDF800C0A0F85010EC
:103D4000016BA0F854204968A0F85230A0F856C082
:103D500008470000022988BF012180F892107047AF
:103D60002DE9F04F81B00446806D88426AD0A1658C
:103D700008780D4684F87400487884F875008878CF
:103D800084F87600C87884F87700087984F8780099
:103D9000487984F87900887984F87A00C87984F8B9
:103DA0007B00087A84F87C00487A84F87D0091F9D9
:103DB0000A9084F87E90C87A84F87F0091F90CA06C
:103DC000084684F880A091F90D6084F8816091F92B
:103DD0000E7084F8827091F90FB084F883B091F975
:103DE0001080112184F8848000F056FCA4F886002D
:103DF0002846132100F050FCA4F88800284615211D
:103E000000F04AFCA4F88A0094F88D0084F88E60D3
:103E100084F88F70B0B101280AD15E45B8BF84F82C
:103E20008EB047450EDD84F88F8001B0BDE8F08F7D
:103E30000AEB0900B042C8BF84F88E005745C8BFDE
:103E400084F88FA001B0BDE8F08F000044F2491162
:103E5000C0F60001C16570470021CFF6FF71026B0B
:103E60000165416551680847B0B50446049884F877
:103E7000382040F20112A4F8922002680025C4E91B
:103E80000B302046A56584F8395084F86D5084F8CD
:103E9000915084F88D50616390470020CFF6FF70F9
:103EA000216B206560654968204688472046FFF7FA
:103EB000CDFF84F87050B0BDB0B582B09C461346BB
:103EC0000C4644F6817144F60D62C0F60001C0F65E
:103ED00000020546CDF800C000F044FE0DF10700D9
:103EE00000F038FD9DF8072044F2DD630146C0F67E
:103EF000000328460094FFF7B7FF02B0B0BD0000F2
:103F0000022B07D0012B09D0002B14BF104408440A
:103F100080B27047401A80B2704700BF801A80B2EA
:103F200070470000022B07D0012B09D0002B14BFD3
:103F3000401A104480B27047801A80B2704700BFA8
:103F4000084480B2704700002DE9F04381B0DDE9FC
:103F50000885994617460E46E907044630D1A8075A
:103F600046D4280711D509EB06007A1C81B293B21A
:103F700020464246FFF7C0FD09EB0700721C81B2E4
:103F800093B220464246FFF7B7FD68075CBF01B019
:103F9000BDE8F083A9EB06007A1C81B293B22046FB
:103FA0004246FFF7A9FDA9EB0700721C81B293B24C
:103FB0002046424601B0BDE8F043FFF79DBD00BF7B
:103FC00009EB0600A8EB07027B1C81B292B29BB200
:103FD0002046FFF791FD09EB0700A8EB0602731CD2
:103FE00081B292B29BB22046FFF786FDA807B8D5F2
:103FF000A9EB0600A8EB07027B1C81B292B29BB230
:104000002046FFF779FDA9EB0700A8EB0602731C19
:1040100081B292B29BB22046FFF76EFD2807B4D55D
:10402000A1E7000010B582B0B0F83EE0DDF810C0A6
:10403000C46AA2EB0E0292B2CDF800C0A04702B053
:1040400010BD000080B582B0DDF810C0CDF800C012
:10405000FFF7E8FF02B080BD2DE9F04F81B01F46A9
:1040600092460D4606464FF6FF7801F0CBF872688F
:1040700039783046904740455ED0A8F101017C1C5C
:104080004FF000091FFA81FB08E000BF814472680D
:1040900014F8011B3046904740454FD087B25F452A
:1040A000F5D096F870205046032A29461DD8DFE83F
:1040B00002F003090F1700BFF16D304688475044E6
:1040C000294612E0F16D30468847291A0CE000BFFE
:1040D000F16D30468847AAEB0000294605E000BF95
:1040E000F16D3046884741195046A6F86410A6F88D
:1040F00066003046394600F065FA48B10146304660
:1041000000F024F896F87010032906D9BEE700BF26
:10411000002096F870100329B8D8DFE801F00709ED
:104120000B0300BFAAEB000AB0E700BF0544ADE7F0
:104130008244ABE72D1AA9E74FF000091FFA89F076
:1041400001B0BDE8F08F0000002070472DE9F04F6E
:104150008BB00022016680F86C2090F878700B78A4
:104160004FF0FF32082F31BF3D4601310166A7F104
:10417000080502FA07F723EA070E90F8793080F86D
:104180006C5080F86AE05F190E78FCB2082CECB233
:10419000824626FA04F60AD34C1CCAF86040C5F1E0
:1041A00008054978EDB2A9400E43083F21469A40E0
:1041B0009AF8923026EA02009AF87A208AF86E304D
:1041C000B3FA83F35B098AF86C708AF86B008AF89B
:1041D0006F30BC180B78E6B2082EFEB223FA06FC4C
:1041E00003900BD34E1CCAF86060C7F108074978EA
:1041F000FFB2B9404CEA010C083C31469AF87B709A
:104200008AF86C403D190E78EBB2082BE3B226FA1F
:1042100003F60AD3C4F108034C1CCAF8604049787D
:10422000DBB299400E43083D21469AF87C008AF89B
:104230006C50029028440B78C4B2082CECB24FFAB0
:104240008EF923FA04F409D3C5F108034D1CCAF80A
:1042500060504978DBB299400C4308380194B9F1B9
:10426000010F8AF86C00C0F299814FF0FF30511EA7
:104270007B1E00FA02F2C9B24FF08075B840DBB283
:104280002CEA020205FA01F126EA000005FA03F31E
:10429000A2EB1161C0EB1362039B9AF87060D21A13
:1042A000BAF8640057B24DB229463A463346FFF792
:1042B00027FE8046BAF8660029463A463346AAF8F1
:1042C0006480FFF72FFE032EAAF86600CDF828A021
:1042D0000CD8DFE806F0030F192300BF03995FFA3B
:1042E00089F249B208EB020301441FE0434601464C
:1042F0001CE000BF039908F1010349B2A3EB0108D8
:104300005FFA89F1014411E05FFA89F108F10103D4
:10431000A3EB010803994AB206E000BF03995FFAD4
:1043200089F249B208EB0103411C881A0A9C8FB23A
:104330001FFA88F182B29BB220460097FFF7BCFCBF
:10434000002800F02B8194F86C30266E00254FF089
:10435000000C2746A4F8685005E000BF039840B25F
:10436000834580F21781E14697F876C03278BE46E1
:1043700003EB0C07A846D8B2FDB2082D22FA00F2D2
:104380000AD3751CCEF86050C3F108037078DBB215
:1043900098400243083F2E469EF877308EF86C70A6
:1043A000D9193578CCB2082CFCB225FA04F509D31A
:1043B000741CCEF86040C7F108077078FFB2B840AF
:1043C000054308394FF0FF3404FA0CF022EA000AE2
:1043D00004FA03F025EA000077464546CC460490EF
:1043E0008EF86C10CDF814A007E000BFDDF814A023
:1043F000C807274684F86C30B0D097F86D00E8B154
:1044000097F86A005FFA8AF2A0EB0C01CBB29342F4
:104410005DD8AAEB010A5FFA8AF1814205F1010534
:1044200008D300BFAAEB000A5FFA8AF1814205F1C6
:104430000105F7D24FF0000C49E000BF002097F8CB
:104440006A10A1EB0C04E8BB0CE000BF97F86D000C
:10445000AAEB040A01354FF0000C97F86A10A1EBA3
:104460000C0478BB97F87090E0B20890B7F866003B
:104470004FFA8CF66FB231463A464B465FFA8AFBEA
:1044800009956546FFF74EFD0A998046B1F864101C
:104490003A46084631460A9F4B46FFF731FD014632
:1044A000089897F86F208345204638BF504687F814
:1044B0009220C3B238464246CDF80090FFF7BAF9D1
:1044C000AC46099DE0B25FFA8AF18142BED2049BFC
:1044D0000AEB0C0287F8682087F8695097F86A00A1
:1044E000D9B2A0EB02095FFA89F097F870600991E0
:1044F00081420A990890CA46B7F8640054B24FFA4C
:1045000085FBB1F86670984638BF9A4606922146F8
:104510005A463346FFF7F4FC079038460A9F214677
:104520005A463346FFF7FEFC97F86E10024687F8AE
:10453000921007995FFA8AF338460096FFF77AF9E6
:10454000DDE90810884205D34346A8EB090301358D
:104550000022C3E706983E6E08EB000C97F86C202B
:1045600087F868C087F869503178531C3C46DFB241
:10457000082F21FA02F1FFF439AF701C2066C2F156
:1045800008037778DBB207FA03F31943D31F064613
:104590002CE700BF97F86E0087F8920002994FF061
:1045A000FF30019A8840013922EA0000C9B24FF079
:1045B000807202FA01F1A0EB116040B20BB0BDE8CD
:1045C000F08F000070B50C46816DFF2C01F11701D2
:1045D00004D8612C3AD3B0F888003BE0B0F88A00E8
:1045E0000E1835462846002100F056F806442846A5
:1045F000022100F051F8A04205F10405F2D3308801
:10460000000400BA002841D0A04241D0B078315A0D
:10461000090409BAD1B3A142064439D0B078315A5D
:10462000090409BA91B3A142064431D0B078315A95
:10463000090409BA51B3A142064429D0B178705A8D
:104640000E44000400BA0028DED11FE0412C02D342
:10465000B0F8860001444878C0B10A78A24219D067
:104660000144487890B10A78A24213D001444878B6
:1046700060B10A78A2420DD00144487830B10A787E
:10468000A24207D0014448780028E6D1002070BD3E
:10469000F01C70BD881C70BD405A00BA000C7047F9
:1046A00010B540F2AC14C2F200042046FFF744F803
:1046B00045F6FC11C0F600012046FFF751FB2068CB
:1046C00094F83830007C616B40F27C025843C2F2AF
:1046D0000002C0005160108010BD00002DE9F041C3
:1046E00002F00704012690F89250A640022DB4462D
:1046F00028BF4FF0000CB5F1010E18BFB646056893
:1047000022F007062D7C476B7543DDF81880ADB2AB
:104710003D44B8F1000F294418D013F00306A3F16B
:10472000010500F0A9800C7844EA0C0484EA0E0725
:10473000541C14F007040F701CD04FEA4C0C4FEAC5
:104740004E0E012E23D12B4696E000BF13F003023C
:10475000A3F1010038D00C78012A44EA0C0484EA61
:104760000E0401F8014B25D1034680B20328C0F0A6
:10477000EF802DE0478F4FF00108394490F8927098
:10478000012F98BFC44618BFC646012EDBD00C7857
:1047900044EA0C0484EA0E07941C14F007040F701A
:1047A00036D04FEA4C0C4FEA4E0E022E3DD1023B62
:1047B00062E000BF0C78022A44EA0C0484EA0E048A
:1047C00001F8014B42D1023B80B20328C0F0C08007
:1047D000081F00BF10F8041F043B41EA0C0181EAE6
:1047E0000E0101704178827841EA0C0181EA0E01E4
:1047F000C478417042EA0C0181EA0E01817044EAFA
:104800000C0181EA0E011A04C170E3D1A0E000BFDF
:10481000478F4FF00108394490F89270012F98BFEC
:10482000C44618BFC646022EC1D00C78033244EAF3
:104830000C0484EA0E040C7012F00704A3F10303C5
:1048400010D04FEA4C0C4FEA4E0E15E00A78033BAD
:1048500042EA0C0282EA0E0201F8012B80B2032820
:1048600076D3B5E7428F0126114490F89220012AB1
:1048700098BFB44618BFB646AAB2032A38BFBDE8EF
:10488000F08101220CE000BF458F90F8926029442E
:10489000012E98BF944618BF9646043B1D0457D07E
:1048A0000D78661C45EA0C0585EA0E0576070D7045
:1048B00004D04FEA4C0C4FEA4E0E08E0458F90F8BA
:1048C00092602944012E98BF944618BF96460D78F1
:1048D000A61C45EA0C0585EA0E0576070D7005D085
:1048E0004FEA4C0C4FEA4E0E09E000BF458F90F89E
:1048F00092602944012E98BF944618BF96460D78C1
:10490000E61C45EA0C0585EA0E0576070D7005D014
:104910004FEA4C0C4FEA4E0E09E000BF458F90F86D
:1049200092602944012E98BF944618BF96460D7890
:10493000043445EA0C0585EA0E0514F007040D70F1
:10494000A2D04FEA4C0C4FEA4E0E043B1D04A7D1F7
:10495000BDE8F081014640F240200822C2F200008A
:104960000A7070472DE9F04F81B0834690F8388087
:1049700000689BF8396090F81190002501274FF6E8
:10498000F87A03E0DBF8000008350137037CDBF838
:10499000340005FB03F101EA0A014418F2B258465B
:1049A0000021009400F0B8F80136F0B2484538BF55
:1049B0004745E7D301B0BDE8F08F00002DE9F0478F
:1049C0004FF0000A0D4604464FF6FF7880F86AA0C3
:1049D00000F018FC626829782046904740451FD0B7
:1049E000A8F101016F1C00254FF0C0098EB24FF0F5
:1049F000000A06E0626817F8011B20469047404510
:104A000011D081B2B142F5D02046FFF7AFF805468C
:104A1000AA44B9F1C00F08BF94F89090EAE700BF2C
:104A20004FF0C009002594F86A0070B140B2AAEBBB
:104A30000501084494F990104FFA89F200EB010A3D
:104A4000012AA4BF5FFA89F082441FFA8AF0BDE808
:104A5000F0870000B0B590F838100568CB00838768
:104A600095F810C090F8393095F811E04FEACC0C69
:104A7000DA005C18A0F83AC0C287744588BFAEEB74
:104A800003011944C900A0F84020A0F84210696948
:104A90004164B0BD70B582B00446216CB0F84400EA
:104AA000E164B4F85010B4F85420B4F85230B4F8BB
:104AB00056500026A4F84A002046A4F84860009505
:104AC000FFF7FAF820B3B4F84810B4F85000012208
:104AD000814284F88C2038BFA4F84800B4F84A100A
:104AE000B4F85200814288BFA4F84A00B4F84C10D0
:104AF000B4F85400814238BFA4F84C00B4F84E100A
:104B0000B4F85600814288BFA4F84E0002B070BDD0
:104B100084F88C6002B070BD80B582B0DDF810C042
:104B2000D0F808E08DF805108DF806208DF80430D7
:104B30006B460F210122CDF800C0F04702B080BDC6
:104B4000D0F808C00A21002200236047D0F808C02E
:104B50001021002200236047D0F808C00A460B212C
:104B60000023604710B54FF47F44DDF808C0A0F87B
:104B70002340FF244FF0000E80F8284000F1080485
:104B8000C0F800E080F826E084E80E50BDE8104050
:104B9000AFF30080D0F808C009210022002360474D
:104BA00000294FF6FF7008BF70470A2918BF084652
:104BB00070470000D0F810C0192100220023604780
:104BC00080B582B08DF807100DF10702012100F0C9
:104BD00003F802B080BD0000D0F810C013460A46AA
:104BE00017216047D0F810C0182100220023604729
:104BF000F0B581B014390C294FF0000037D8DFE848
:104C000001F035363607171F36363636363635005C
:104C100040F2C06CC2F2000C9CF800E0002A18BF01
:104C2000002B27D10EEB02008CF800001EE000BF25
:104C300040F2C060C2F200000021017016E000BF27
:104C400040F2C060C2F20000037840F2B80040F2C7
:104C50004062FF27C2F20000C2F2000278210097F2
:104C6000FCF706FA10B1002001B0F0BD012001B040
:104C7000F0BD00BF40F24060C2F2000070449842B4
:104C800010D9991881420DD9104412F00303A2F1F2
:104C9000010417D011F8015D012B00F8015D17D157
:104CA00023462AE012F00301A2F101040CD01D46B4
:104CB00015F8017B0646012906F8017B10D1304624
:104CC000214634E0134618E01D4611462FE000BF90
:104CD00011F8015D022B00F8015D09D1931E0CE073
:104CE0005D78022945701DD1911E9D1C02301EE089
:104CF00011F8013D00F8013DD31E032CFFF492AFE3
:104D000004390238CC78043B44708C7800F80449AC
:104D10004C7800F8034E11F8044900F8024EF1D126
:104D200080E700BF9E78D11EDD1C86700330032C07
:104D3000FFF478AF2B1F043813F8044F043900F840
:104D4000044F5C7844709C788470DC78C470F3D134
:104D500068E70000D0F80CC019210022002360474A
:104D6000D0F80CC00A46162100236047D0F80CC0CA
:104D70000A46152100236047D0F80CC013460A46A6
:104D800017216047F0B581B00E4604460DF10305CA
:104D90000AE000BFA1F11800022817D2E6682046F9
:104DA00000220023B0473E46374617F8011B17295B
:104DB000F0DCA1F11500022814D27278E7682046D1
:104DC00000238DF80320B8470236EDE7FE2915D100
:104DD0007278204629218DF8032000F0F7F9023679
:104DE000E2E700BF172909D1707801218DF803008F
:104DF00020462A46FFF7C0FF0236D5E701B0F0BDD6
:104E0000D0F80CC01821002200236047F0B581B013
:104E10001439052900F2788004461E461546DFE85D
:104E200001F003152F37596394F824001421FF284B
:104E300004BF782084F82400D4F810C020462A4605
:104E4000334601B0BDE8F040604700BF40F2C166A4
:104E5000C2F200063078012802D12046FFF7AAFEF0
:104E60002046FFF7BFFE20460021FFF7A9FE20469F
:104E70002946FFF7A5FE0120307001B0F0BD00BF4C
:104E800020462946FFF79CFE012001B0F0BD00BF7F
:104E900040F2C167C2F200073878012802D12046EB
:104EA000FFF788FE192D0AD320461821324600F05C
:104EB00091F9183DE8B2182806F11806F4D8E9B2BD
:104EC0002046324600F086F900203870012001B0FB
:104ED000F0BD00BF40F2C160C2F2000000210170CD
:104EE000012001B0F0BD00BF40F2C165C2F2000573
:104EF0002878012802D12046FFF75CFE00202870A8
:104F0000012001B0F0BD00BF002001B0F0BD0000E5
:104F100010B5D0F814C02821002200230446E04731
:104F2000D4F80CC02046142100220023E04720467C
:104F30004B21012200F04AF92068292102792046FC
:104F400000F044F920464B21002200F03FF9206890
:104F500029210279204600F039F920464B2101220F
:104F600000F034F92068292142792046BDE810403C
:104F700000F02CB98A7C016080F822207047000084
:104F8000B0B50D46044600F01FF808B10120B0BDD1
:104F9000092D0DD00A2D15D12046FFF7B9FF47F690
:104FA000B961C0F600012046FFF7ECFE0120B0BD5C
:104FB00047F6F861C0F600012046FFF7DBFF01204D
:104FC000B0BD00BF0020B0BD2DE9F0410B39044653
:104FD00004294FF0000088BFBDE8F0811546DFE8E6
:104FE00001F00365132335002046002D07BF47F667
:104FF000EE61C0F6000147F6F361C0F60001FFF76D
:10500000C1FE0120BDE8F081002D51D047F6B2610C
:10501000C0F600012046FFF7B5FE2068C07C84F88A
:1050200022000120BDE8F0812046FFF7E9FE20467E
:105030008121FFF79BFE20462946FFF791FE20467F
:10504000FFF788FE0120BDE8F08100BF20461E4624
:10505000FFF7D6FE707994F8221001EBC0072046C6
:1050600040215FFA87F8FFF781FE4FEA181000F140
:1050700010012046FFF77AFE07F00F012046FFF7E8
:105080006FFEB07940F0B0012046FFF769FE00BF27
:1050900030793268C000C1B22046FFF76DFE013D95
:1050A0002806F5D12046FFF755FE0120BDE8F08126
:1050B00047F6AB61C0F600012046FFF763FE2068AB
:1050C000807C84F822000120BDE8F08180B5293978
:1050D0002A2900F27580DFE801F01D236F736C73DD
:1050E0007373737373737373737373737373737390
:1050F000737373737373737373737373736C6C738E
:1051000073171717170000BF002180F82710012020
:1051100080BD00BF0120FBF7CFFD012080BD00BF97
:10512000002000BF00BF00BF00BF00BF00BF00BF26
:1051300000BF00BF00BF00BF00BF00BF00BF00BF77
:1051400000BF00BF00BF00BF00BF00BF00BF00BF67
:1051500000BF00BF00BF00BF00BF00BF00BF00BF57
:1051600000BF00BF00BF00BF00BF00BF00BF00BF47
:1051700000BF00BF00BF00BF00BF00BF00BF00BF37
:1051800000BF00BF00BF00BF00BF00BF00BF00BF27
:1051900000BF00BF00BF00BF00BF00BF00BF00BF17
:1051A00040F03F0100BFB1F59F7F00F1400000BF1C
:1051B000B8D9012080BD00BF012000BF80BD00BF65
:1051C000012180F82710012080BD0000D0F814C014
:1051D00000236047F0B581B017460D460646FFF73D
:1051E00001FD30464021FFF7EBFC346930461721C2
:1051F0002A463B46A047304601B0BDE8F040FFF7E5
:10520000D9BC0000002180F8261070470808A0F5DE
:1052100000114FEA3101704743004FEAD30C4FEAC7
:105220003C0C43401FBF40070CF1605113F0FE4F90
:1052300070471CF0006F03D10CF000410020704754
:105240000CF0004343EA507040EACC0010B500F087
:10525000CEFA00BF000000924FEA0001FFF7D6BF70
:105260004FF00041A1F500214FF000007047000011
:1052700090EA010F48BF81F0004100F10A83421A11
:105280003CBF801A89184FEAD052A2EBD1534FF09D
:105290007F4C1CEA410F18BF9CEA026F00F03B8074
:1052A0004FF0004C4CEA00204CEA012121FA03FCAB
:1052B00010EB0C0C1ED202F1FF325FEA1C2040EB17
:1052C000C25038BF70471CF07F0F4FEA400C18BF28
:1052D000BCF17F4F38BF7047C3F12003994008BF2E
:1052E00020F00100BCF17F4F38BF7047A0F1C040F3
:1052F00000F0C3BA4FEA3C00000A40EBC25028BF9E
:105300001CF0FF0F4FEA400CE6D018BFBCF17F4FF6
:1053100038BF7047EAE79CEA026F05D010EA5C0FDD
:1053200008BF00F00040704710B500F060FA00BF01
:1053300064FBBE3E10B500F0F5F80CBF0120002064
:1053400010BD10B500F0EEF814BF0120002010BD14
:1053500010B500F063F98CBF0120002010BD10B51E
:1053600000F05CF92CBF0120002010BD10B500F04A
:1053700089F994BF0120002010BD10B500F082F91A
:1053800034BF0120002010BD401058BFC0F1404084
:10539000491058BFC1F140418142EFF3008070478E
:1053A0004FF47F0C1CEAD0121EBF1CEAD11392EA04
:1053B0000C0F93EA0C0F00F0858090EA010F48BFB4
:1053C00042F4807240F4000C41F400002CF07F4164
:1053D00020F07F4000B5A2EB030281420FF2081CCF
:1053E000ACEB504E9EF800E0C0F100004FEA4E0ECC
:1053F00000FB0EFC38BF49004FEA2C1C0CFB0EF3DF
:105400004FEACE1E0EEB635E4FEA112C0EFB0CFC36
:105410004FEAC1214FEA1C5300FB031102F5FA02C7
:105420004FEA112C0EFB0CFC4FEA01314FEADC4C29
:1054300000FB0C1142EB2242C14228BF09184CEB81
:1054400003335DF804EB10EB410143EBC250B2F5BE
:105450007C0F38BF704729D512F0F00F1CBF00F148
:10546000C04000F0004070470081828384858687B9
:1054700088898B8C8D8E8F919293959697999A9C13
:105480009D9FA0A2A3A5A7A8AAACAEB0B2B3B5B782
:10549000B9BCBEC0C2C5C7C9CCCED1D4D7D9DCDF58
:1054A000E2E6E9ECF0F3F7FAFE0000004FEA400C08
:1054B0000CF1807CBCF17E4F28BF7047B0F1C0403A
:1054C00000F0DBB90CEAD11390EA010F48BF42F4B7
:1054D0008072624538BF634507D213F47F0F16D040
:1054E00080EA010000F00040704710B500F07FF93D
:1054F000097EFC3E00F005B880EA010000F00040A3
:10550000704780EA010000F0004000F0B6B912F4E4
:105510007F0F04BF0248704780EA010000F0ADB978
:105520000000C07F50EA010C00F113801CF5000F51
:1055300058BFBCF5000F01D48842704707D710F55B
:10554000000F58BF11F5000F15D4884270478942EB
:1055500070471CF5000F04D5BCF5000FF7D581424C
:1055600070474FF0807C1CEB400F38BF1CEB410FA5
:1055700001D28142704710B500F039F992244900F8
:105580004FF000504FF08051FFF7FEBE41000B0E70
:10559000D3F19E0208D950F400034FEA032323FA03
:1055A00002F048BF4042704710B500F020F900BF3C
:1055B00049922480002070476FF0004282EA200068
:1055C0007047000010F0004148BF4042B0FA80F33D
:1055D00010FA03F2C3F19D030BD051EAC35101EB62
:1055E0001220530638BF704700F1010008BF20F0B9
:1055F00001007047B0FA80F310FA03F2C3F19D0383
:105600000AD0D90501EB1220530638BF704700F1CC
:10561000010008BF20F001007047000050EA010CB3
:1056200000F113801CF5000F58BFBCF5000F01D42A
:105630008842704707D710F5000F58BF11F5000FCB
:1056400015D488427047894270471CF5000F04D575
:10565000BCF5000FF7D5814270474FF0807C1CEB02
:10566000400F38BF1CEB410F01D28142704710B58B
:1056700000F0BDF8922449004FF080504FF00051E7
:10568000FFF782BE50EA010C00F113801CF5000FF9
:1056900058BFBCF5000F01D48842704707D710F5FA
:1056A000000F58BF11F5000F15D48842704789428A
:1056B00070471CF5000F04D5BCF5000FF7D58142EB
:1056C00070474FF0807C1CEB400F38BF1CEB410F44
:1056D00001D28142704710B500F089F89224490048
:1056E0004FF000504FF08051FFF74EBE4FF47F0C4B
:1056F0001CEAD0121EBF1CEAD11392EA0C0F93EAE7
:105700000C0F00F0478090EA010F48BF42F480720E
:105710004FF0004C4CEA00204CEA012102EB03025E
:10572000A0FB0113A2F50002002918BF43F00103FA
:105730005B0028BF4FEA330342EB22425FEA132C9F
:105740004CEBC2502EBFBCEB436FB2F57C0F7047E1
:105750004FEA036CBCF1004F08BF20F00100B2F526
:105760007C0F38BF70470BD582F0FF0212F5803FE7
:10577000C8BF704700F1C040D8BF00F0004070477C
:1057800000F5000C5FEA4C0C48BF7047B0F1C04018
:1057900000F073B80CEAD11390EA010F48BF42F44D
:1057A0008072624538BF634504D280EA010000F090
:1057B0000040704710B500F01AF800BF8900013EA4
:1057C00000F007B800F009B85FEA410C5FEA1C6C12
:1057D00008D080EA010000F050B85FEA400C5FEAB0
:1057E0001C6CF6D14FF00040A0F5800070470EF120
:1057F000020E2EF0030E5EF8044B244204D44FEA4E
:105800004102B2F17F4F11D84FEA4003B3F17F4F0D
:105810000CD80ED14FEAD07C0CEB4C0C0CF1020CE6
:10582000B2F17F4F08BF4CEBD17C04E04FF0080C85
:1058300001E04FEAD17C0CEB4C0324FA03F404F0B2
:105840000704B4F1040C06D20EEB840CBDE8104042
:105850004CF0010C6047DFE80CF0070802024FF043
:105860000040A0F5800010BD0846420018BFD2F1EC
:10587000807288BF00F0004010BDFF2141EAD05087
:10588000C005704790EA010F48BF81F000413FF525
:10589000F6AC421A04D882F00042A0EB0200114498
:1058A0004FEAD052A2EBD1534FF07F4C1CEA410F8C
:1058B00018BF9CEA026F4AD04FF0004C4CEA00201F
:1058C0004CEA012121FA03FCB0EB0C0C0FD412F0CE
:1058D000FE0F36D05FEA4C001DD5001240EBC250DF
:1058E00038BF70471CF03F0F18BF70470BE05FEAEE
:1058F0001C20A2F1010240EBC25038BF70471CF0DF
:105900007F0F18BF7047C3F12003994014BF401E9A
:1059100020F0010070474FEA1223800808BF70474B
:10592000B0FA80FCA2EB0C02CCF1280C60FA0CF06F
:1059300093EA122F04BF00EBC25070474FEAC370C6
:105940007047130A5FEADC1008BF7047F6E79CEA6D
:10595000026F04D010EA5C0F08BF0020704710B53A
:10596000FFF745FF40DFF63E81F00040704701023F
:1059700000000000000000000102030406070809FF
:1059800000000000010203040203040506070809E1
:105990000A0B0C0D0E0F10105B206C696E653A201F
:1059A0002564207C2066756E6374696F6E3A2025CD
:1059B00073205D202573203D2025640D0A006B6552
:1059C000795F7363616E006B6579735B695D2E63EC
:1059D00075720068656C6C6F39230068656C6C6F5C
:1059E000300068656C6C6F333636363636360000FC
:1059F000554A0008954A0008454000089B000302EC
:105A000004040304050C0D00FE08FE0AFF016102F8
:105A1000CE04172005004C0B210791468B53002222
:105A200007347D8BC814230E96C49BA86558A25ECC
:105A300086256A01240FA53CAB6CA92899A8254AA4
:105A4000658B002510963C9B28E9A225619A444964
:105A5000172D01260E8544AB2C8992AC322551A41A
:105A600004270631FE8A01280BB33DAB244AA26EFF
:105A70005116290CB33D8B2CCAA22E5112012A0CAF
:105A80007544AB4AE5A02C4D11002B0B7744BCB8F4
:105A9000360C595C032C07323E0B45012D0615646C
:105AA0008B412E0621C60A012F0CC43CBBA6AC9428
:105AB00095B21A00300A85449B25F32D590031090F
:105AC00085448BB14F8300320B85449B250B6B6D56
:105AD0008300330C85448B210D93350C0705340E60
