:020000040800F2
:100000007809002045010008691800080515000856
:1000100065180008B10100084D1900080000000033
:10002000000000000000000000000000711800083F
:10003000B5010008000000006D18000875180008E0
:100040005F0100085F0100085F0100085F01000810
:100050005F0100085F0100085F0100085F01000800
:100060005F0100085F0100085F0100085F010008F0
:100070005F0100085F0100085F0100085F010008E0
:100080005F0100085F0100085F0100085F010008D0
:100090005F0100085F0100085F0100085F010008C0
:1000A0005F0100085F0100085F0100085F010008B0
:1000B0005F0100085F0100085F0100085F010008A0
:1000C0005F0100085F0100085F0100085F01000890
:1000D0005F010008411900085F0100085F01000886
:1000E0005F0100085F0100085F0100085F01000870
:1000F0005F0100085F0100085F0100085F01000860
:100100005F0100085F0100085F0100085F0100084F
:100110005F0100085F0100085F0100085F0100083F
:100120005F0100085F0100085F0100085F0100082F
:10013000DFF80CD000F02AF80048004751190008F9
:10014000780900200648804706480047FEE7FEE79A
:10015000FEE7FEE7FEE7FEE7FEE7FEE7FEE7FEE777
:100160007918000831010008D2B201E000F8012B33
:10017000491EFBD270470022F6E710B513460A4627
:1001800004461946FFF7F0FF204610BD064C074D08
:1001900006E0E06840F0010394E807009847103457
:1001A000AC42F6D3FFF7C8FFC43A0008E43A0008AF
:1001B000FEE700007047000070470000014690F81D
:1001C0002100022816D10868D1E90FC3026822F085
:1001D0000E020260026822F001020260012000FAB1
:1001E00003F2CCF8042081F821000020002281F8DD
:1001F00020207047042088630120002281F82020FD
:100200007047000080B590F82110022928D10268BB
:1002100040F2040C1368C4F2020C23F00E031360C6
:1002200013680CF17C018A4223F0010111601BD993
:1002300040F20841C4F202018A4249D040F21C4116
:10024000C4F202018A4247D040F23041C4F20201B6
:100250008A4245D14FF48073CCF800345DE000BF92
:1002600004218163012080BD4321C4F202018A423E
:100270000EDD6B21C4F202018A421BDC4421C4F270
:1002800002018A423CD05821C4F202018A4233E082
:100290000821C4F202018A4236D01C21C4F20201B4
:1002A0008A4237D03021C4F202018A4224D14FF46D
:1002B000807230E06C21C4F202018A4226D0802193
:1002C000C4F202018A4217D14FF0807223E000BFCE
:1002D0000123CCF8003420E01023CCF800341CE0DB
:1002E0000CF588614FF480338A4208BF4FF4805385
:1002F000CCF8003411E000BF4FF480320BE000BFB7
:100300004FF4805207E000BF012204E04FF4801256
:1003100001E000BF1022CCF80020416B4FF4807246
:10032000028401B18847002080BD0000B0B50446BA
:1003300000F00EF9054640F20000C2F2000000781D
:10034000611C18BF044400BF00F002F9401BA0422A
:10035000FAD3B0BD2DE9F04F82B0D1F800C0BCF1A6
:10036000000F00F0F180A0F1804241F60045A2F5B7
:100370008432C4F2010540F2004E4FEAB22406274F
:10038000A842C4F2010E08BF0527052C4FF0000457
:100390004FF001084FF00F034FF0000A4FF0000B31
:1003A00038BF4FEAB22700970AE000BFD1F800C07B
:1003B0000AF1010A3CFA0AF204F1040400F0C480D4
:1003C00008FA0AF91CEA090FF0D04E684FF6FF72DE
:1003D000C1F21002964211DC122E55D8DFE806F069
:1003E000340A444854545454545454545454545453
:1003F000544C5000D1F80CB046E000BF4FF6FF72ED
:10040000C1F2210296420FDC0022C1F21102964293
:100410001AD00022C1F21202964215D00022C1F277
:100420002102964210D02FE00022C1F22202964211
:100430000AD00022C1F23102964205D00022C1F258
:100440003202964220D100BF8A684AB1012A14BF05
:10045000C0F81490C0F810904FF0080B14E000BFE3
:100460004FF0040B10E000BFCA6802F1080B0BE06C
:100470004FF0000B08E000BFCA6802F1040B03E074
:10048000CA6802F10C0B00BF22460646BAF1080FFB
:1004900024BF203A0436376803FA02F5AF430BFA5B
:1004A00002F23A433260CA79D2067FF57FAF41F259
:1004B0001807C4F202073A684FF6084342F00102F7
:1004C0003A603A68CFF6FF7302F001020192019A96
:1004D0002AF0030272440F25D75804F00C06B540E9
:1004E000AF43009D05FA06F63743D7504E680F23F9
:1004F000F203DEF8002054BF22EA090242EA0902B0
:10050000CEF80020DEF80420B70354BF22EA090227
:1005100042EA0902CEF80420F702DEF8082054BFB0
:1005200022EA090242EA0902B70240F20C47CEF879
:100530000820C4F201073A6854BF22EA090242EADD
:1005400009023A6032E700BF02B0BDE8F08F000058
:1005500040F27050C2F200000068704770B5B8B346
:10056000044690F83D0028B9002084F83C0020465D
:1005700000F0C4F9242084F83D002068016821F0CF
:1005800001010160016841F400410160016821F44A
:100590000041016000F078FB48F28041C0F21E018A
:1005A00040F60013D4F804E088424FF00001C0F296
:1005B0003D0348F2A16C4FF0000238BF0121984280
:1005C000C0F2010C38BF0122E64538BF0A460AB125
:1005D000012070BD4DF68361C4F21B31A0FB0112F6
:1005E0002168950C4B684FF4967623F03F0343EA5D
:1005F0009243754344F6D3564B60C1F262060B6AD0
:10060000A5FB0656B50923F03F03E64538BF950C18
:100610006A1C1A430A62CA6948F2A0664CF6FF7364
:10062000C0F20106B64522EA03020BD801384FEAB0
:100630004E03B0FBF3F001306FF31F30042898BF76
:1006400004201EE0A368013863B119230EFB03F3F5
:10065000B0FBF3F001306FF31F3078B100F580404C
:1006600008E000BF0EEB4E03B0FBF3F001306FF378
:100670001F3028B100F5004003E000BF012000E07A
:1006800001201043C8610868D4E9072320F0C000A6
:10069000104318430860886848F2FF3204F10C06E2
:1006A00090434CCE18431043A5698860C86820F079
:1006B000FF0030432843C860086840F0010008602C
:1006C00000202021206484F83D10206384F83E003F
:1006D00070BD00002DE9F04782B01E4617468A46DD
:1006E0000446FFF735FF94F83D1020291ED1DDF8B0
:1006F0002890054620688169890713D5FFF728FFF0
:10070000401B1A28F6D300202021206384F83D10D6
:1007100084F83E00216C41F02001216484F83C0003
:1007200004E000BF94F83C10012903D1022002B07C
:10073000BDE8F087012184F83C100168C90703D1A6
:10074000016841F001010160016840F2020821F4F2
:1007500000610160212184F83D10102184F83E10D1
:100760000021216467626685618DC0F201082185E0
:10077000A8F10211E162E16A11F5803F18BF012979
:1007800040F09680016841F48071016019F1010127
:100790002DD0B9F1000F23D14169C90731D1FFF73D
:1007A000D7FE00202021206384F83D1084F83E000D
:1007B000216C41F020012164216884F83C00086824
:1007C000C00544BF4FF400702064012002B0BDE8B2
:1007D000F08700BFFFF7BCFE401B4845E1D820680A
:1007E0004169C907F6D00CE04169C90709D14169DF
:1007F000C90701BF41695FEAC17141695FEAC1711F
:10080000F2D02169B1F5804F02D10AF0FE0110E06B
:10081000062101EADA11F031016108F106012046F2
:100820004A462B4600F0D0FE0028CED120685FFA61
:100830008AF10161204641464A462B4600F0C4FE3B
:100840000028C2D10020019020684169019180698F
:100850000190019806E000BF204649462A4600F074
:1008600053FE68BB208DC8B3204649462A4600F097
:1008700019FF28BB606A2168024612F8013B0B6130
:100880006262628D013A6285228D571E27854B690F
:100890003F0418BF13F00403DED0437802300B612D
:1008A0006062608D01386085901E2085D4E700BFAE
:1008B00008293FF467AF216B12293FF463AF65E766
:1008C000206C04287FF481AF2068016841F4007136
:1008D0000160012002B0BDE8F08700BF2068016818
:1008E00041F400710160202084F83D00002084F86C
:1008F0003E0084F83C0002B0BDE8F08710B586B039
:1009000045F600010068C4F200010022884204920A
:1009100002D006B010BD00BF41F21804C4F20204B8
:10092000206840F008002060206800F00800019076
:1009300001984FF44060029012200390032005902C
:1009400001F5344002A9FFF705FD606840F480001E
:100950006060606800F480000190019806B010BDEE
:1009600040F2000040F27051C2F20000C2F20001F9
:1009700000780A68104408607047000080B542F2B1
:100980000000C4F20200016841F010010160032080
:1009900000F08AF8002000F005F800F027F80020A9
:1009A00080BD000070B540F20006C2F2000640F2C1
:1009B00008013278C2F200014FF47A730968B3FB80
:1009C000F2F20446B1FBF2F1084600F05FFB0F2C97
:1009D0004FF0010508D838B94FF0FF30214600220A
:1009E000002500F035F87460284670BD82B041F2F1
:1009F0001800C4F202000168022241F00101016006
:100A0000016801F0010101910199416841F08051B3
:100A10004160406800F08050009000980420C4F2CB
:100A20000100016862F31A61016002B070470000C2
:100A3000002848BF704700F01F01012202FA01F1AF
:100A40004EF200124009CEF2000242F82010704728
:100A500010B54EF60C5CCEF2000CDCF80030C3F39F
:100A6000022E8EF00704042C28BF0424BEF10303D9
:100A70004FF0FF3E0EFA04F438BF0023A143994023
:100A80000EFA03F39A4300F00F03043B114363444F
:100A900009010C3300F16042B0F1FF3FC8BF02F51D
:100AA0006443197010BD00004EF60C51CEF20001E7
:100AB0000A684FF6FF031A4060F30A2242F0806092
:100AC00040F0FD70086070472DE9F04381B00028C8
:100AD00000F0858042F20008C4F202080446D8F80B
:100AE00000000D4600F0070088420CD2D8F8000044
:100AF00020F007002843C8F80000D8F8000000F0F4
:100B00000700A8426BD1206841F204098107C4F2B2
:100B1000020917D5410705D5D9F8001041F4E06165
:100B2000C9F80010010705D5D9F8001041F460514B
:100B3000C9F80010D9F80010A26821F0F0011143A3
:100B4000C9F80010C00741D1D8F8000000F0070034
:100B5000A8420CD9D8F8000020F007002843C8F8B4
:100B60000000D8F8000000F00700A84237D1206844
:100B7000410707D5D9F80010E26821F4E06111437C
:100B8000C9F80010000708D5D9F80000216920F441
:100B9000605040EAC100C9F80000D9F8002002F016
:100BA0000C00082841F20020C0F27A0050D143F234
:100BB0002403C2F38341C0F60003595CD2033BD443
:100BC00040F60010C0F23D00484341E06068022852
:100BD0000AD001282AD159F8041C890308D401201D
:100BE00001B0BDE8F08300BF59F8041C8901F6D5B7
:100BF000D9F8001021F003010843C9F80000FFF7FD
:100C0000A7FC064641F28837D9F80000616800F079
:100C10000C00B0EB810F97D0FFF79AFC801BB84215
:100C2000F2D9032001B0BDE8F08300BF59F8041CDD
:100C30008907D4D5DCE700BFD9F8002043F20A03C6
:100C4000C2F34042C0F600039A5C4843B0FBF2F0A6
:100C5000D9F8001043F20C02C1F30311C0F60002F0
:100C6000515C40F2080220FA01F140F20400C2F2A5
:100C700000000068C2F200021160FFF793FE00203E
:100C800001B0BDE8F083000040F2080041F2040129
:100C9000C2F20000C4F202010068096843F21C02BB
:100CA000C1F30221C0F60002515CC8407047000049
:100CB00040F2080041F20401C2F20000C4F2020155
:100CC0000068096843F21C02C1F3C221C0F60002A9
:100CD000515CC840704700002DE9F04182B0002807
:100CE00068D00446007841F20006C007C4F202064C
:100CF00025D0706800F00C0004281BD0706800F04C
:100D00000C00082802D17068C00313D46068002862
:100D100000F06881B0F5A02F00F07C81B0F5803F35
:100D200000F07C81306820F480303060306820F43E
:100D3000802076E13068800301D56068D0B32078E8
:100D4000800718D5706810F00C0F07D0706800F09D
:100D50000C0008286ED17068C0036BD4306880071F
:100D600002D52069012825D13068616920F0F8009A
:100D700040EAC1003060207800071FD42078400787
:100D800032D4E56995B1706800F00C00082840F095
:100D90008F80012D0ED07068216A00F480328A4263
:100DA00008D1616A00F47010884203D1002002B0BB
:100DB000BDE8F081012002B0BDE8F081A069002803
:100DC00062D00020C4F242200121C0F88014FFF755
:100DD000BFFB0546706A800700F18C80FFF7B8FB07
:100DE000401B0228F6D92AE1F06910F0805808D19A
:100DF000F06940F08050F061F06900F080500090A0
:100E0000009847F20007C4F200073868C00529D4EB
:100E1000386840F480703860FFF79AFB054600BFE1
:100E20003868C0051ED4FFF793FB401B6428F7D930
:100E300005E100BF2069002840F20000C4F2422012
:100E400000F0828001210160FFF782FB054600BFB0
:100E5000306880073FF588AFFFF77AFB401B022818
:100E6000F6D9ECE0E068002800F08080052800F06A
:100E70009780012800F09880306A20F001003062ED
:100E8000306A20F0040092E00020C4F242200021E9
:100E9000C0F88014FFF75CFB054600BF706A80074E
:100EA0007FF56CAFFFF754FB401B0228F6D9C6E074
:100EB0000027C4F2422700203866FFF749FB022DC5
:100EC00005460BD13068800140F1BE80FFF740FB42
:100ED000401B02284FF00300F4D968E73068800116
:100EE0007FF564AFFFF734FB401B02284FF003008F
:100EF000F4D95CE740F20800C2F20000006844F652
:100F0000D351C1F26201A0FB0101480A019000BF68
:100F100000BF0198411E002801913FF42FAF00BF90
:100F20000198411E002801913FF428AF00BF0198AD
:100F3000411E002801913FF421AF00BF0198411EDE
:100F400000280191E4D119E700210160FFF700FBBF
:100F5000054600BF306880077FF50DAFFFF7F8FA50
:100F6000401B02284FF00300F4D920E7306A20F03C
:100F700001003062306A20F004003062FFF7E8FAC6
:100F8000054641F2883700BF306A800720D5FFF759
:100F9000DFFA401BB8424FF00300F5D907E700BF66
:100FA000306A40F004003062306A40F00100306284
:100FB000FFF7CEFA054641F2883700BF306A800756
:100FC00006D4FFF7C5FA401BB842F7D937E000BF97
:100FD000B8F1000F7FF4D5AEF06920F08050F061D9
:100FE000CFE600BF306820F480303060306820F4F5
:100FF00080203060FFF7ACFA054600BF3068800300
:101000007FF59DAEFFF7A4FA401B64284FF0030064
:10101000F4D9CCE6306840F480203060306840F489
:1010200080303060FFF794FA054600BF30688003D7
:101030003FF585AEFFF78CFA401B6428F6D90320F4
:1010400002B0BDE8F08100BF206AB0F5803F05D155
:101050007168A26821F40031114371607168626A9D
:1010600021F4741110430843706001203866FFF7C3
:101070006FFA0446306880013FF598AEFFF768FAD2
:10108000001B02284FF00300F4D990E6411E002017
:10109000B0EB116F1CBF012070474EF21002CEF270
:1010A000000251604EF62351CEF20001F0230B7086
:1010B0000721906011607047704700007047000082
:1010C000B0B582B0026805461068D168546900F076
:1010D0002F03202B01F0200306D12BB1284602B0AC
:1010E000BDE8B04000F0D0BB5FEA007C1EBF04F05A
:1010F000010E01F4907414EB0E042DD12B6B0840FB
:10110000C10617D5012B15D1002001901068019060
:101110005068019001985069400625D4A88DE98D4A
:10112000EB8D002B1CBF401A5FEA004140F0CA80E3
:1011300002B0B0BD010645D44006F9D5D0682021E3
:1011400020F04000D060284685F83D1002B0BDE890
:10115000B04000F0D5B900BFC40718BF11F48074C7
:1011600042D1440746D44CE0A86B01684B689CB25E
:10117000002CDDD0A98D8C42DAD2EB858369202B3F
:1011800017D0D16821F48071D160516921F001013B
:101190005161516921F040015161202185F83E10D3
:1011A00000212963D16821F01001D160FFF706F812
:1011B000A98DE88D081A81B2284602B0BDE8B0407A
:1011C000FFF77ABF95F83D002128B1D1A868B0F5A6
:1011D000805F03D12869002800F08C80286A411CB8
:1011E0002962007850608CE02C6C44F001042C647F
:1011F000440706D5BEF1000F03D02C6C44F0020466
:101200002C64840706D5BEF1000F03D02C6C44F08B
:1012100004042C64BCF1000F06D553EA0E0303D07E
:101220002B6C43F008032B642B6C002B3FF480AF36
:101230000840800603D5284600F026FB2A6850693E
:10124000296C00F0400001F00801401832D0D0684D
:1012500020F49070D060506920F001005061286B3C
:10126000012803D1D06820F01000D060202085F83C
:101270003E00002028635069400615D5506920F0D3
:1012800040005061A86B78B141F67D01C0F60001C5
:101290004163FEF7B7FF00283FF44AAFA86B416BEC
:1012A00002B0BDE8B0400847284602B0BDE8B040F3
:1012B000FFF704BF2846FFF701FF0020286402B0B3
:1012C000B0BD00BFD16821F49071D160516921F0A7
:1012D00001015161202185F83E1000212963D16868
:1012E00021F0100381B22846D36002B0BDE8B040BF
:1012F000FFF7E2BE286A30F8021B6FF35F215160EE
:101300002862E88C01380104E8847FF411AFD068CA
:1013100020F08000D060D06840F04000D06002B083
:10132000B0BD0000002804BF0120704710B504467E
:1013300090F83D0028B9002084F83C00204600F0D9
:101340005FF8242084F83D002068D4E90212C368C5
:1013500023F40053C360036923F440531A4302612A
:10136000D4E904231143C268194341F20C639A4340
:101370001143C1604169A26921F44071114343F6F0
:101380000002C4F201029042416103D0FFF77CFCED
:1013900002E000BFFFF78CFC62681921484391000E
:1013A000B0FBF1F048F21F51C5F2EB11A0FB012395
:1013B0005A096FF0630302FB0300322303EB0010B2
:1013C000A0FB0101F02303EA5113206803EB021292
:1013D000C1F3431111448160016921F4904101611D
:1013E000416921F02A014161C16841F40051C160A5
:1013F00000202021206484F83D1084F83E1010BDA8
:1014000070B586B0006844F20041C4F200010026C5
:1014100088420596CDE9036602963FD043F6000167
:10142000C4F20101884266D141F21800C4F2020000
:10143000016840F6000441F4804101600168C4F293
:10144000010401F4804101910199016802AD41F06C
:10145000040101600068294600F004000190019831
:101460004FF4007002900220039003200590204664
:10147000FEF770FF4FF4806002900020CDE903007A
:1014800020462946FEF766FF252000210022FFF7AF
:10149000DFFA2520FFF7CCFA06B070BD41F2180044
:1014A000C4F20200416840F6000441F4003141609A
:1014B0004168C4F2010401F400310191019901680D
:1014C00002AD41F0040101600068294600F004000B
:1014D00001900198042002900220039003200590BF
:1014E0002046FEF737FF0820CDE9020620462946B0
:1014F0000496FEF72FFF06B070BD00007047000095
:1015000070470000FEE7000070B50368044653F81A
:10151000140F400743D40E46F1B1701C30D100BF08
:10152000186840053ED41868400738D4186840054C
:1015300038D41868400732D41868400532D4186887
:1015400040072CD4186840052CD4186840074FF089
:10155000000048BF70BDE3E71868400522D4FEF7DD
:10156000F7FF00202021206384F83D1084F83E001E
:10157000216C41F02001216484F83C00012070BD01
:10158000154600BF186840050CD4FEF7E1FF401B6C
:10159000B042E6D8236853F8140F4007F2D5002074
:1015A00070BD00BF6FF480601860002020212063B0
:1015B00084F83D1084F83E00216C41F00401216460
:1015C00084F83C00012070BDF0B581B01D46036871
:1015D000044658698FB23840B84203D1002001B0A8
:1015E000F0BD00BF16467AB3701C29D1586940057A
:1015F00040D458693840B842F0D05869400539D4D1
:1016000058693840B842E9D05869400532D4586921
:101610003840B842E2D0586940052BD45869384068
:10162000B8424FF00000E1D139E000BFFEF790FF73
:10163000401BB0420DD8236858693840B842CDD01D
:1016400058694005F2D515E05869400512D4FEF7F7
:101650007FFF00202021206384F83D1084F83E00A5
:10166000216C41F02001216484F83C00012001B08C
:10167000F0BD00BF1868202140F4007018606FF4BE
:10168000806058610020206384F83D1084F83E009B
:10169000216C41F00401216484F83C00012001B078
:1016A000F0BD000070B50368044653F8140F00063F
:1016B00043D40E46F1B1701C30D100BF186840050C
:1016C0003ED41868000638D41868400538D4186825
:1016D000000632D41868400532D4186800062CD4AD
:1016E000186840052CD4186800064FF0000048BF69
:1016F00070BDE3E71868400522D4FEF729FF0020FB
:101700002021206384F83D1084F83E00216C41F0D4
:101710002001216484F83C00012070BD154600BF03
:10172000186840050CD4FEF713FF401BB042E6D802
:10173000236853F8140F0006F2D5002070BD00BFD7
:101740006FF48060186000202021206384F83D1031
:1017500084F83E00216C41F00401216484F83C00CF
:10176000012070BD83B041F21800C4F2020001688C
:1017700041F020010160016801F02001029102990D
:10178000016841F004010160016801F00401019168
:101790000199016841F008010160006800F008004B
:1017A0000090009803B0704780B540F2100045F6F5
:1017B0000001C2F20000C4F2000148F2A06200235E
:1017C0004FF4804CC0F2010280E80E00C0E9033CF7
:1017D000C0E90533C0E90733FEF7C0FE002808BFA3
:1017E00080BDBDE88040FEF7E7BC000080B540F258
:1017F000640043F60001C2F20000C4F201010023BC
:101800004FF00C0C4FF4E13280E80E00C0E90333D6
:10181000C0E905C3C361FFF785FD002808BF80BD8F
:10182000BDE88040FEF7C8BC80B540F2A80044F295
:101830000041C2F20000C4F2000100234FF00C0C82
:101840004FF4E13280E80E00C0E90333C0E905C37C
:10185000C361FFF767FD002808BF80BDBDE8804079
:10186000FEF7AABCFEE700007047000070470000CA
:1018700070470000FFF774B870470000406A00210D
:10188000C185C184FFF71ABC81B090F83E102229AF
:1018900020D18368B3F5805F08D10169002941D068
:1018A00000F128010A6803685B680AE0014651F804
:1018B000282F13B90369002BF5D003685B6803F088
:1018C0007F0313700A6801320A60C18D01390A046E
:1018D000C18501D001B070470168CA6822F02002BA
:1018E000CA60CA6822F48072CA604A6922F00102A2
:1018F0004A61202280F83E20026B012A1CD100227E
:101900000263CB6823F01003CB600B68DB0605D5C0
:1019100000920A680092496800910099818D01B097
:10192000FFF7CABB0168826A49686FF35F2122F83A
:10193000021B8262C9E700BF01B0FFF7DFBD0000F4
:1019400040F26400C2F20000FFF7BABBFEE70000FD
:10195000ACB0FFF713F84FF4FA70FEF7E7FC002580
:101960000120CDE90755CDE90555029006904FF4C9
:10197000E01002AC4FF4803102260B9020462B95EC
:10198000CDE92955CDE92755CDE90315CDE9096103
:10199000FFF7A2F90F20CDE927064FF48060CDE9CB
:1019A0002A0527A802212995FFF78EF8FFF7DAFE0E
:1019B000FFF71CFFFFF7F8FEFFF736FF02A800F065
:1019C0003BF843F240051427C0F6000518A600BFF7
:1019D000204600F08BF920460021002214230097B6
:1019E00000F052F82046142114221423009700F02E
:1019F0004BF8204600F07AF920460A2128221423C9
:101A0000009700F06BF8204600F070F92046294658
:101A100000F076F920461E210A22334600F028F90C
:101A2000204600F063F94FF47A70FEF77FFCCFE7B1
:101A3000667265650000000010B543F2340142F69D
:101A4000D11242F6AD63C0F60001C0F60002C0F646
:101A50000003044600F0F8F9204600F061FF20463C
:101A6000002100F069FF2046BDE81040AFF3008080
:101A700080B5016890F83820097C406B5143C9005B
:101A8000FEF779FB80BD00002DE9F04381B0089C92
:101A90000E4607465818A11898461FFA81FC83B2D3
:101AA000384631461546CDF800C000F0E9F8002868
:101AB00018BF002C0FD04FF0000900BFAAB2384663
:101AC00031464346CDF8009000F052F8013C200426
:101AD00005F10105F2D101B0BDE8F0832DE9F04F29
:101AE00081B0DDF82880064603EB010A08EB02000E
:101AF000994684B21FFA8AF3304617460D46009481
:101B000000F0BEF888B30024304629463A464B46DA
:101B1000009400F02DF8B8F1020F26D3A8F1020BC3
:101B20005FEA0B4007F1010717D0BCB21FFA8BF830
:101B30004FF0010C3046294622464346CDF800C0FE
:101B400000F016F8AAF1010081B230462246434661
:101B50000124009400F00CF85F440024BAB230462F
:101B600029464B46009400F003F801B0BDE8F08F21
:101B7000F0B581B0002B79D090F88C50002D75D045
:101B8000069C012B06D0032C36D0022C02D1C91A98
:101B9000013101E0E50731D1B0F84C50954265D8EC
:101BA000B0F84E50954261D9B0F84840B0F84AE0DC
:101BB0008DB2EE18B7B27545A44638BF8C46B74211
:101BC00008BF8C46754533461FFA8CF138BFAEF11D
:101BD0000103B74208BF3B46714547D29DB2A542BB
:101BE00044D9A14238BFA446754588BF73464FF01B
:101BF000000E614630E000BFD21A0132B0F84870E2
:101C00008F4233D8B0F84A708F422FD9B0F84C4089
:101C1000B0F84EE095B2EE18B7B27545A44638BF9D
:101C20009446B74208BF9446754533461FFA8CF276
:101C300038BFAEF10103B74208BF3B46724515D22B
:101C40009DB2A54212D9A24238BFA446754588BFAD
:101C500073464FF0010E6246046BA3EB0C03A468BD
:101C60009BB289B292B2CDF800E0A04701B0F0BDBE
:101C700042F6811CC0F6000CC0F804C000F046B962
:101C800010B5B0F84E40DDF808E0B0F84CC0944212
:101C900006D972450AD8F44524BF002010BD05E0DE
:101CA000F4454FF0000C1ED272451CD9B0F84A2002
:101CB000B0F848008A420BD9002299424FF0000147
:101CC00088BF0121984238BF012241EA020010BDBD
:101CD000002299424FF0000188BF0121984238BF8D
:101CE000012202EA010C604610BD000010B5044656
:101CF00000F074FD2046BDE8104000F017BE000063
:101D00002DE9F04F81B00446806D88426AD0A1650C
:101D100008780D4684F87400487884F8750088784F
:101D200084F87600C87884F87700087984F8780019
:101D3000487984F87900887984F87A00C87984F839
:101D40007B00087A84F87C00487A84F87D0091F959
:101D50000A9084F87E90C87A84F87F0091F90CA0EC
:101D6000084684F880A091F90D6084F8816091F9AB
:101D70000E7084F8827091F90FB084F883B091F9F5
:101D80001080112184F8848000F0E0FBA4F8860024
:101D90002846132100F0DAFBA4F888002846152114
:101DA00000F0D4FBA4F88A0094F88D0084F88E60CB
:101DB00084F88F70B0B101280AD15E45B8BF84F8AD
:101DC0008EB047450EDD84F88F8001B0BDE8F08FFE
:101DD0000AEB0900B042C8BF84F88E005745C8BF5F
:101DE00084F88FA001B0BDE8F08F000041F6FD71CE
:101DF000C0F60001C1657047B0B50446049884F888
:101E0000382040F20112A4F8922002680025C4E9AB
:101E10000B302046A56584F8395084F86D5084F85D
:101E2000915084F88D50616390470020CFF6FF7089
:101E3000216B206560654968204688472046FFF78A
:101E4000D5FF84F87050B0BDB0B582B09C46134643
:101E50000C4642F6615142F6ED32C0F60001C0F682
:101E600000020546CDF800C000F06CFD0DF1070042
:101E700000F0ACFC9DF8072042F255530146C0F635
:101E8000000328460094FFF7B7FF02B0B0BD000082
:101E9000022B07D0012B09D0002B14BF104408449B
:101EA00080B27047401A80B2704700BF801A80B27B
:101EB00070470000022B07D0012B09D0002B14BF64
:101EC000401A104480B27047801A80B2704700BF39
:101ED000084480B27047000010B582B0B0F83EE010
:101EE000DDF810C0C46AA2EB0E0292B2CDF800C0B9
:101EF000A04702B010BD000080B582B0DDF810C070
:101F0000CDF800C0FFF7E8FF02B080BD2DE9F04F2B
:101F100081B01F4692460D4606464FF6FF7801F007
:101F200061F8726839783046904740455ED0A8F134
:101F300001017C1C4FF000091FFA81FB08E000BF83
:101F40008144726814F8011B3046904740454FD0D9
:101F500087B25F45F5D096F870205046032A29468F
:101F60001DD8DFE802F003090F1700BFF16D3046FE
:101F700088475044294612E0F16D30468847291AB7
:101F80000CE000BFF16D30468847AAEB00002946FF
:101F900005E000BFF16D3046884741195046A6F86C
:101FA0006410A6F866003046394600F065FA48B17C
:101FB0000146304600F024F896F87010032906D93F
:101FC000BEE700BF002096F870100329B8D8DFE8FC
:101FD00001F007090B0300BFAAEB000AB0E700BF3E
:101FE0000544ADE78244ABE72D1AA9E74FF000099D
:101FF0001FFA89F001B0BDE8F08F000000207047A3
:102000002DE9F04F8BB00022016680F86C2090F82B
:1020100078700B784FF0FF32082F31BF3D46013109
:102020000166A7F1080502FA07F723EA070E90F800
:10203000793080F86C5080F86AE05F190E78FCB255
:10204000082CECB2824626FA04F60AD34C1CCAF8D5
:102050006040C5F108054978EDB2A9400E43083F3C
:1020600021469A409AF8923026EA02009AF87A209D
:102070008AF86E30B3FA83F35B098AF86C708AF8D9
:102080006B008AF86F30BC180B78E6B2082EFEB2EF
:1020900023FA06FC03900BD34E1CCAF86060C7F10C
:1020A00008074978FFB2B9404CEA010C083C3146B8
:1020B0009AF87B708AF86C403D190E78EBB2082BC9
:1020C000E3B226FA03F60AD3C4F108034C1CCAF89B
:1020D00060404978DBB299400E43083D21469AF8AA
:1020E0007C008AF86C50029028440B78C4B2082C0B
:1020F000ECB24FFA8EF923FA04F409D3C5F10803C0
:102100004D1CCAF860504978DBB299400C4308383E
:102110000194B9F1010F8AF86C00C0F299814FF077
:10212000FF30511E7B1E00FA02F2C9B24FF08075DB
:10213000B840DBB22CEA020205FA01F126EA0000FF
:1021400005FA03F3A2EB1161C0EB1362039B9AF84B
:102150007060D21ABAF8640057B24DB229463A46B6
:102160003346FFF795FE8046BAF8660029463A46A0
:102170003346AAF86480FFF79DFE032EAAF8660096
:10218000CDF828A00CD8DFE806F0030F192300BF14
:1021900003995FFA89F249B208EB020301441FE098
:1021A000434601461CE000BF039908F1010349B210
:1021B000A3EB01085FFA89F1014411E05FFA89F1AC
:1021C00008F10103A3EB010803994AB206E000BF3E
:1021D00003995FFA89F249B208EB0103411C881A9E
:1021E0000A9C8FB21FFA88F182B29BB220460097F8
:1021F000FFF746FD002800F02B8194F86C30266E26
:1022000000254FF0000C2746A4F8685005E000BFF9
:10221000039840B2834580F21781E14697F876C073
:102220003278BE4603EB0C07A846D8B2FDB2082DA3
:1022300022FA00F20AD3751CCEF86050C3F10803ED
:102240007078DBB298400243083F2E469EF8773004
:102250008EF86C70D9193578CCB2082CFCB225FAFE
:1022600004F509D3741CCEF86040C7F108077078F4
:10227000FFB2B840054308394FF0FF3404FA0CF0C0
:1022800022EA000A04FA03F025EA000077464546F0
:10229000CC4604908EF86C10CDF814A007E000BF77
:1022A000DDF814A0C807274684F86C30B0D097F842
:1022B0006D00E8B197F86A005FFA8AF2A0EB0C01B2
:1022C000CBB293425DD8AAEB010A5FFA8AF1814250
:1022D00005F1010508D300BFAAEB000A5FFA8AF1F5
:1022E000814205F10105F7D24FF0000C49E000BF33
:1022F000002097F86A10A1EB0C04E8BB0CE000BFCB
:1023000097F86D00AAEB040A01354FF0000C97F81E
:102310006A10A1EB0C0478BB97F87090E0B20890BB
:10232000B7F866004FFA8CF66FB231463A464B4624
:102330005FFA8AFB09956546FFF7BCFD0A9980465E
:10234000B1F864103A46084631460A9F4B46FFF7FB
:102350009FFD0146089897F86F208345204638BFB7
:10236000504687F89220C3B238464246CDF80090D6
:10237000FFF7FEFBAC46099DE0B25FFA8AF18142AD
:10238000BED2049B0AEB0C0287F8682087F86950DC
:1023900097F86A00D9B2A0EB02095FFA89F097F8C2
:1023A0007060099181420A990890CA46B7F86400A2
:1023B00054B24FFA85FBB1F86670984638BF9A461A
:1023C000069221465A463346FFF762FD079038468B
:1023D0000A9F21465A463346FFF76CFD97F86E1068
:1023E000024687F8921007995FFA8AF338460096FA
:1023F000FFF7BEFBDDE90810884205D34346A8EB92
:10240000090301350022C3E706983E6E08EB000C75
:1024100097F86C2087F868C087F869503178531CAA
:102420003C46DFB2082F21FA02F1FFF439AF701CED
:102430002066C2F108037778DBB207FA03F3194389
:10244000D31F06462CE700BF97F86E0087F892006E
:1024500002994FF0FF30019A8840013922EA0000CA
:10246000C9B24FF0807202FA01F1A0EB116040B2E4
:102470000BB0BDE8F08F000070B50C46816DFF2CED
:1024800001F1170104D8612C3AD3B0F888003BE081
:10249000B0F88A000E1835462846002100F056F89C
:1024A00006442846022100F051F8A04205F1040537
:1024B000F2D33088000400BA002841D0A04241D0B5
:1024C000B078315A090409BAD1B3A142064439D0CF
:1024D000B078315A090409BA91B3A142064431D007
:1024E000B078315A090409BA51B3A142064429D03F
:1024F000B178705A0E44000400BA0028DED11FE003
:10250000412C02D3B0F8860001444878C0B10A7863
:10251000A24219D00144487890B10A78A24213D05F
:102520000144487860B10A78A2420DD0014448784D
:1025300030B10A78A24207D0014448780028E6D199
:10254000002070BDF01C70BD881C70BD405A00BAE0
:10255000000C70472DE9F04102F00704012690F8C5
:102560009250A640022DB44628BF4FF0000CB5F1A2
:10257000010E18BFB646056822F007062D7C476B92
:102580007543DDF81880ADB23D44B8F1000F294421
:1025900018D013F00306A3F1010500F0A9800C7810
:1025A00044EA0C0484EA0E07541C14F007040F706C
:1025B0001CD04FEA4C0C4FEA4E0E012E23D12B4675
:1025C00096E000BF13F00302A3F1010038D00C78AD
:1025D000012A44EA0C0484EA0E0401F8014B25D1D7
:1025E000034680B20328C0F0EF802DE0478F4FF004
:1025F0000108394490F89270012F98BFC44618BF63
:10260000C646012EDBD00C7844EA0C0484EA0E079F
:10261000941C14F007040F7036D04FEA4C0C4FEAAC
:102620004E0E022E3DD1023B62E000BF0C78022A22
:1026300044EA0C0484EA0E0401F8014B42D1023B47
:1026400080B20328C0F0C080081F00BF10F8041F2C
:10265000043B41EA0C0181EA0E0101704178827865
:1026600041EA0C0181EA0E01C478417042EA0C0192
:1026700081EA0E01817044EA0C0181EA0E011A041C
:10268000C170E3D1A0E000BF478F4FF0010839448B
:1026900090F89270012F98BFC44618BFC646022E0C
:1026A000C1D00C78033244EA0C0484EA0E040C70A6
:1026B00012F00704A3F1030310D04FEA4C0C4FEAC9
:1026C0004E0E15E00A78033B42EA0C0282EA0E0243
:1026D00001F8012B80B2032876D3B5E7428F01269B
:1026E000114490F89220012A98BFB44618BFB6460C
:1026F000AAB2032A38BFBDE8F08101220CE000BF76
:10270000458F90F892602944012E98BF944618BFD7
:102710009646043B1D0457D00D78661C45EA0C050F
:1027200085EA0E0576070D7004D04FEA4C0C4FEA8F
:102730004E0E08E0458F90F892602944012E98BF14
:10274000944618BF96460D78A61C45EA0C0585EA06
:102750000E0576070D7005D04FEA4C0C4FEA4E0E71
:1027600009E000BF458F90F892602944012E98BF80
:10277000944618BF96460D78E61C45EA0C0585EA96
:102780000E0576070D7005D04FEA4C0C4FEA4E0E41
:1027900009E000BF458F90F892602944012E98BF50
:1027A000944618BF96460D78043445EA0C0585EA30
:1027B0000E0514F007040D70A2D04FEA4C0C4FEA3E
:1027C0004E0E043B1D04A7D1BDE8F081014640F246
:1027D000EC000822C2F200000A7070472DE9F04FA9
:1027E00081B0834690F8388000689BF8396090F893
:1027F0001190002501274FF6F87A03E0DBF800007E
:1028000008350137037CDBF8340005FB03F101EAEE
:102810000A014418F2B258460021009400F06CF806
:102820000136F0B2484538BF4745E7D301B0BDE8AF
:10283000F08F0000B0B590F838100568CB008387A2
:1028400095F810C090F8393095F811E04FEACC0CAB
:10285000DA005C18A0F83AC0C287744588BFAEEBB6
:1028600003011944C900A0F84020A0F8421069698A
:102870004164B0BD70B582B00446216CB0F844002C
:10288000E164B4F85010B4F85420B4F85230B4F8FD
:1028900056500026A4F84A002046A4F84860009547
:1028A000FFF7EEF920B3B4F84810B4F85000012255
:1028B000814284F88C2038BFA4F84800B4F84A104C
:1028C000B4F85200814288BFA4F84A00B4F84C1012
:1028D000B4F85400814238BFA4F84C00B4F84E104C
:1028E000B4F85600814288BFA4F84E0002B070BD13
:1028F00084F88C6002B070BD80B582B0DDF810C085
:10290000D0F808E08DF805108DF806208DF8043019
:102910006B460F210122CDF800C0F04702B080BD08
:10292000D0F808C00A21002200236047D0F808C070
:102930001021002200236047D0F808C00A460B216E
:102940000023604710B54FF47F44DDF808C0A0F8BD
:102950002340FF244FF0000E80F8284000F10804C7
:10296000C0F800E080F826E084E80E50BDE8104092
:10297000AFF30080D0F808C009210022002360478F
:1029800000294FF6FF7008BF70470A2918BF084694
:1029900070470000D0F810C01921002200236047C2
:1029A00080B582B08DF807100DF10702012100F00B
:1029B00003F802B080BD0000D0F810C013460A46EC
:1029C00017216047D0F810C018210022002360476B
:1029D000F0B581B014390C294FF0000037D8DFE88A
:1029E00001F035363607171F36363636363635009F
:1029F00040F26C5CC2F2000C9CF800E0002A18BFA8
:102A0000002B27D10EEB02008CF800001EE000BF67
:102A100040F26C50C2F200000021017016E000BFCD
:102A200040F26C50C2F20000037840F2100040F215
:102A3000EC42FF27C2F20000C2F2000278210097A8
:102A4000FDF748FE10B1002001B0F0BD012001B03B
:102A5000F0BD00BF40F2EC40C2F20000704498426A
:102A600010D9991881420DD9104412F00303A2F134
:102A7000010417D011F8015D012B00F8015D17D199
:102A800023462AE012F00301A2F101040CD01D46F6
:102A900015F8017B0646012906F8017B10D1304666
:102AA000214634E0134618E01D4611462FE000BFD2
:102AB00011F8015D022B00F8015D09D1931E0CE0B5
:102AC0005D78022945701DD1911E9D1C02301EE0CB
:102AD00011F8013D00F8013DD31E032CFFF492AF25
:102AE00004390238CC78043B44708C7800F80449EF
:102AF0004C7800F8034E11F8044900F8024EF1D169
:102B000080E700BF9E78D11EDD1C86700330032C49
:102B1000FFF478AF2B1F043813F8044F043900F882
:102B2000044F5C7844709C788470DC78C470F3D176
:102B300068E70000D0F80CC019210022002360478C
:102B4000D0F80CC00A46162100236047D0F80CC00C
:102B50000A46152100236047D0F80CC013460A46E8
:102B600017216047F0B581B00E4604460DF103050C
:102B70000AE000BFA1F11800022817D2E66820463B
:102B800000220023B0473E46374617F8011B17299D
:102B9000F0DCA1F11500022814D27278E768204613
:102BA00000238DF80320B8470236EDE7FE2915D142
:102BB0007278204629218DF8032000F0F7F90236BB
:102BC000E2E700BF172909D1707801218DF80300D1
:102BD00020462A46FFF7C0FF0236D5E701B0F0BD18
:102BE000D0F80CC01821002200236047F0B581B056
:102BF0001439052900F2788004461E461546DFE8A0
:102C000001F003152F37596394F824001421FF288D
:102C100004BF782084F82400D4F810C020462A4647
:102C2000334601B0BDE8F040604700BF40F26D564A
:102C3000C2F200063078012802D12046FFF7AAFE32
:102C40002046FFF7BFFE20460021FFF7A9FE2046E1
:102C50002946FFF7A5FE0120307001B0F0BD00BF8E
:102C600020462946FFF79CFE012001B0F0BD00BFC1
:102C700040F26D57C2F200073878012802D1204691
:102C8000FFF788FE192D0AD320461821324600F09E
:102C900091F9183DE8B2182806F11806F4D8E9B2FF
:102CA0002046324600F086F900203870012001B03D
:102CB000F0BD00BF40F26D50C2F200000021017073
:102CC000012001B0F0BD00BF40F26D55C2F2000519
:102CD0002878012802D12046FFF75CFE00202870EA
:102CE000012001B0F0BD00BF002001B0F0BD000028
:102CF00010B5D0F814C02821002200230446E04774
:102D0000D4F80CC02046142100220023E0472046BE
:102D10004B21012200F04AF920682921027920463E
:102D200000F044F920464B21002200F03FF92068D2
:102D300029210279204600F039F920464B21012251
:102D400000F034F92068292142792046BDE810407E
:102D500000F02CB98A7C016080F8222070470000C6
:102D6000B0B50D46044600F01FF808B10120B0BD13
:102D7000092D0DD00A2D15D12046FFF7B9FF43F6D6
:102D80006D21C0F600012046FFF7ECFE0120B0BD2A
:102D900043F6AC21C0F600012046FFF7DBFF01201F
:102DA000B0BD00BF0020B0BD2DE9F0410B39044695
:102DB00004294FF0000088BFBDE8F0811546DFE828
:102DC00001F00365132335002046002D07BF43F6AD
:102DD000A221C0F6000143F6A721C0F60001FFF7CB
:102DE000C1FE0120BDE8F081002D51D043F66621DF
:102DF000C0F600012046FFF7B5FE2068C07C84F8CD
:102E000022000120BDE8F0812046FFF7E9FE2046C0
:102E10008121FFF79BFE20462946FFF791FE2046C1
:102E2000FFF788FE0120BDE8F08100BF20461E4666
:102E3000FFF7D6FE707994F8221001EBC007204608
:102E400040215FFA87F8FFF781FE4FEA181000F182
:102E500010012046FFF77AFE07F00F012046FFF72A
:102E60006FFEB07940F0B0012046FFF769FE00BF69
:102E700030793268C000C1B22046FFF76DFE013DD7
:102E80002806F5D12046FFF755FE0120BDE8F08168
:102E900043F65F21C0F600012046FFF763FE20687D
:102EA000807C84F822000120BDE8F08180B52939BA
:102EB0002A2900F27580DFE801F01D236F736C731F
:102EC00073737373737373737373737373737373D2
:102ED000737373737373737373737373736C6C73D0
:102EE00073171717170000BF002180F82710012063
:102EF00080BD00BF0120FDF719FA012080BD00BF91
:102F0000002000BF00BF00BF00BF00BF00BF00BF68
:102F100000BF00BF00BF00BF00BF00BF00BF00BFB9
:102F200000BF00BF00BF00BF00BF00BF00BF00BFA9
:102F300000BF00BF00BF00BF00BF00BF00BF00BF99
:102F400000BF00BF00BF00BF00BF00BF00BF00BF89
:102F500000BF00BF00BF00BF00BF00BF00BF00BF79
:102F600000BF00BF00BF00BF00BF00BF00BF00BF69
:102F700000BF00BF00BF00BF00BF00BF00BF00BF59
:102F800040F03F0100BFB1F59F7F00F1400000BF5E
:102F9000B8D9012080BD00BF012000BF80BD00BFA7
:102FA000012180F82710012080BD0000D0F814C056
:102FB00000236047F0B581B017460D460646FFF77F
:102FC00001FD30464021FFF7EBFC34693046172104
:102FD0002A463B46A047304601B0BDE8F040FFF727
:102FE000D9BC0000002180F82610704702E008C814
:102FF000121F08C1002AFAD170477047002001E073
:1030000001C1121F002AFBD170470102000000001D
:103010000000000001020304060708090000000088
:103020000102030402030405060708090A0B0C0D3C
:103030000E0F10103528000875280008F91E00082A
:10304000BE00030204040205050D0FFFFD0AFD0A80
:10305000FE018D03360A02200500C20A2107A142A3
:103060008983122207335E8AC4122316A942BD62E5
:103070001666D13048599845C32065611666190017
:103080002411C6BAAB341C925A120E59D469D8D244
:103090000C2512A9421D2DEA2594F21CC923318961
:1030A0007A53002615B942BD354772448E3231A994
:1030B00046711247A13644012706315E890128086E
:1030C000C2BA19A57F0A290AC2BA8928E92F0A00BB
:1030D0002A0944D21A654894282B0A5546AB301A5F
:1030E000A430022C0732BE9944012D0614CE8A2149
:1030F0002E06114289002F0AA342AA96A8252A016A
:103100003014A8C2AC210B93744CB448CA94704DCF
:10311000C26C88003108A2C28928E90F320CA7428C
:10312000ACAD92C669AFC3103311A8C29C618FD3F6
:10313000214772594EC26C88003411A8C28CBC9AC7
:10314000A4499AA451980D739E00350FA7429C4143
:103150008AE3212FC7623444003611A8C22C358F70
:1031600093211293D89C84D91001370CA6C28B6B83
:10317000310DD330AD013813A8C2AC210BA3301BE5
:10318000B23089CD49980D11003911A8C2AC210B7C
:1031900093D89C84D290C4792A013A06614689303A
:1031A0003B0872C2993C51003C0866C64BC9281BBB
:1031B0003D0846CA8B3B3A0C3E0966C60BD9281916
:1031C000013F0EA8C2AC210B9358EE9E5332004033
:1031D00015A942AD414B935C93A48A54D1862487B0
:1031E00072689000410EA8C2AC210B93581E0EB11C
:1031F000E7004211A8C29C210BA3301AA634895DB6
:10320000936102430EA8C2AC414AF5DE91341A1410
:1032100000440DA8C29C414A93D8AFC93001450E65
:10322000A6C2AB2109D37450D2723C04460DA6C28B
:10323000AB2109D37450D2AE004714A942AD414B23
:10324000931CC9911C09075D4FD26C9000480BA8D4
:10325000C28CD87938C49E034907A1428987004AA5
:1032600009B33E8AA9BF94004B10A7428C30099342
:1032700030C9A2410A93D4354C09A4C28AAC1F4379
:10328000014D16AB422E4D8B922809433114433128
:103290001443311443B1004E0BA8C2AC210B93D898
:1032A0009F034F0EA942AD414B93DCF724CD060995
:1032B0005010A8C2AC210B93D8794C9221CA73004C
:1032C0005111C93AAD414B93DCF724CD061DC921FC
:1032D000015210A8C2AC210B93D8794C924189E5D8
:1032E000005313A8C2AC210BA33C47861CC911395B
:1032F00009B32102540AA7428C4316F73700550C34
:10330000A8C28CD89F93301B22005611A8C28CD81B
:103310009C84511885591446A9AC015716AB428EAE
:1033200030144331144331144331142B51126526A8
:10333000005811A7428C34C92A6192C669122659D5
:10334000250D590DA8C28CD8731266439CD7005A1C
:103350000EA7428C431AA7E5B49C0E43005B08C23B
:10336000BA89A57F115C0AA3428AA816B545055DF6
:1033700008C2BA09A57F195E08355AAB2CA9055FAA
:103380000718BE8C8300600732DE892809610D882A
:10339000C2AC210B93D83949A3616210A8C28CBC7E
:1033A000324462123B2761364400630D8742AC21F0
:1033B0000AE5F6301A1200640EA8C2FCD290146717
:1033C000E724CC8608651288C2AC210B9330CA4A28
:1033D00099122661364400660AA3429AA934449D94
:1033E000006711B8B6AC210B93D83909A521C9E300
:1033F0007002680CA8C28CBC32446212FB1C6909C2
:10340000A2C2892CE953006A09C2BA992CE91705AE
:103410006B0EA7428CB89864D1208549EA1A6C08D3
:10342000A2C289A43F056D138B422E4D8B922809B1
:1034300043311443311443B1006E0B88C2AC210BED
:1034400093D8E7006F0E88C2AC210B93D83909B32B
:1034500021027010A8BAAC210B93D8794C9221CAE2
:103460007300710FA8BAAC210B93D83909A521C9F3
:103470000B72098542AB250B7B04730E87429C417E
:1034800089F3418FE3614800740AA3428A281AA293
:10349000DE04750B88C28CD8E724CC8608760F88AA
:1034A000C28C584EC228CCA2304A650D77138B428D
:1034B0008E30144331144331142B51126526007899
:1034C0000E87428C34C92A699C2659250D790EB87D
:1034D000B68CD8E7249486248FC3097A0A87428C55
:1034E00043DAE761087B0BC5B93A296C52C3AE02D7
:1034F0007C06C13A890F7D0CC4BA8A306B54B24E37
:1035000019007E0726CE1BC902A00500C20AA10829
:10351000A13A89641804A214A73EBC74889248CAD0
:10352000A22CCAA23089A221CC00A30DA742BC2D97
:10353000AE0E5A9C968721A40C66CA8B3019A24EF7
:10354000431206A513A7428C544DB2284B86214A3C
:10355000A261C8E21A00A608C13A89411A04A70F5D
:10356000C53A9B414CC325D392310D0705A80614DB
:10357000E68A28A9149942AD414B936852522555C9
:1035800052694AD26C9000AA0A64D29A219292712E
:1035900008AB0C56C6AB4A944459944501AC073667
:1035A000CE8B6B01AE169942AD414B93489392C8B6
:1035B0002625919444499A0D1200AF0717668C4353
:1035C00000B00944DA1A25921205B10A5546AB300B
:1035D0001AA46810B208435A0A2D4906B308435A80
:1035E0008A451A02B40732E2192501B50CA8BA8C33
:1035F000D8E77119123D07B615A742AC411992617F
:103600001996614986245AC2244CC224B706114E29
:103610008900B80632378A68B90742DA09A501BAC3
:103620000A64D21A2592127508BB0D56C68B288BD8
:10363000B22889922802BC11A8C20CAD5318C579D2
:103640001C2551A5B6A401BD11A8C20CAD5318C5C7
:10365000791C69611246D900BE15A9428D2DD3C2CD
:10366000289BF21CC9A3248B92289BD200BF0EA8D2
:10367000BABC9C92C7CD7212664304C011C8C2BCCA
:103680001CC9E1210B93581E0EB17300C110C8C2B2
:10369000CC38C7872C4C627938C4CE01C211C8C25D
:1036A000CC38C9D1210B93581E0EB17300C311C879
:1036B000C22CA9A4A3431626B13C1C62E700C40F88
:1036C000C8C2AC3A3A646112CBC321F61CC511C81A
:1036D000C23C350AA370C8C224968743EC1CC616A8
:1036E000AB42AE2119924CAC86693828C31AA66148
:1036F0001A8A9521C711D8B6AC414AF5DE91341A21
:10370000D41C493500C810C6C2AB38C786244CD378
:103710004149E37808C910C6C2CB3A3624619A0EF3
:103720004A1AC74300CA11C6C2BB30C9A12109D376
:103730007450D2381E02CB10C6C2AB3A3224619A02
:103740000E4A5A8E8700CC09C24189284BFA03CD14
:1037500009C2C2192DE92F00CE09C3C199C6A8BF5D
:1037600000CF0AC3C189248CFA1700D015A9C1ACB7
:10377000414BA33889872D8993388993341A2600C1
:10378000D10EC8C22CA9A4A3431626B19F03D211FF
:10379000C942BD1CCA29839626B9F724CD0609D390
:1037A00011C942DD3CA70C5A9AE4DE93341B240075
:1037B000D411C942CD3CC9F1414B93DC7B92668365
:1037C00004D512C9423D258C727CD0D224F79EA428
:1037D000D92001D611C942AD2C87072D4D72DF9338
:1037E000341B2400D70A55468B2CA9556A01D816DC
:1037F000A942AD41A9266922465AA66552A8A44904
:103800009A248304D90EC8C2BC1CC9627F4EC26C04
:103810008800DA0DC8C2CC388CFD3909B32102DB2F
:103820000DC8C23C352AFB7312664304DC0DC8C2C6
:10383000AC3A16FB7312664304DD0EC8C2CC388C5A
:103840003D276136C4790DDE10A8C28C3C192231A7
:10385000899DC72419A21CDF10A7429C210A93301E
:10386000C9A230493D2600E010B8C2BC1CC9E12104
:103870000B93D83949A361E110B8C2CC38C7872C63
:103880004C62E7248D8601E210B8C2CC38C9D12140
:103890000B93D83949A361E311B8C22CA9A4A3435F
:1038A0001626B1739246C300E40FA8C2AC3A3A643C
:1038B00061123B2769340CE512C8C23C350AA35497
:1038C0001DB230899D93341A06E6148CC29E698815
:1038D0003231CED22994924CB46DD13601E70FB774
:1038E00036AC210AE5F6301AD23C9400E815B8C28D
:1038F000AC1CC9F1210B9330CA4A99122661364497
:1039000000E914B8C2CC38C7872C4CC2282B654AB2
:103910009884D91001EA15B8C2BC38C9E1210B93CB
:1039200030CA4A99122661364400EB13A8C2AC3A59
:103930003A64611246592953C224CC8608EC09B373
:10394000C1892C8DFA16ED09B2C2192DE95300EE8A
:1039500009B3C199C6A86F01EF09A3C189248CFAE4
:1039600016F010A7421C5D1CD46C88B2554DB26C89
:1039700002F10EB8C22CA9A4A3431626B1CF01F2BE
:1039800011B8C2BC1CC9E1210B93D83909B321027B
:10399000F310B8C2CC38C7872C4C62E724CC860819
:1039A000F411B8C2CC38C9D1210B93D83909B3214D
:1039B00002F511B8C22CA9A4A3431626B17312664E
:1039C0004304F610A8C2AC3A3A6461123B27613650
:1039D0004400F7095546AB7CD02300F81388C2ACED
:1039E00021292661A24552A6844998244304F90E50
:1039F000B8C2BC1CC9C1D8E724CC8608FA0EB8C22C
:103A0000CC3847639F93301B2200FB0EB8C2CC38E2
:103A1000C9B1D8E724CC8608FC0DA8C2AC3A16FB85
:103A20009C84D91001FD11E8B6CC3847639F9350B0
:103A30001A923C0E2700FE11C8BA8CBC32446212A6
:103A40003B8F493244790EFF10D8B6AC3A16FB9C36
:103A500084D290E471380100000004FFFF000018D8
:103A600015A115C819FF1815A015C019FF1815AE16
:103A700015D5168015A8163F15D316001540158DBF
:103A800016141520160015A115C815DA1612158181
:103A900016CF15D916F115DB1640152E15A415A64F
:103AA00019FF1815AF19FF1815AE19FF0001140AF8
:103AB0006464323200127A00000428961008000074
:103AC00080004000E83A00080000002010000000DC
:103AD000EC2F0008F83A00081000002068090000E8
:103AE000FC2F000800000000010000001000000092
:083AF0000024F40000000000B6
:0400000508000131BD
:00000001FF
