:020000040800F2
:10000000B00800204501000849150008D511000876
:1000100045150008B1010008711800080000000033
:10002000000000000000000000000000A91500080A
:10003000B50100080000000079150008DD15000872
:100040005F0100085F0100085F0100085F01000810
:100050005F0100085F0100085F0100085F01000800
:100060005F0100085F0100085F0100085F010008F0
:100070005F0100085F0100085F0100085F010008E0
:100080005F0100085F0100085F0100085F010008D0
:100090005F0100085F0100085F0100085F010008C0
:1000A0005F0100085F0100085F0100085F010008B0
:1000B0005F0100085F0100085F0100085F010008A0
:1000C0005F0100085F0100085F0100085F01000890
:1000D0005F010008611800085F0100085F01000867
:1000E0005F0100085F0100085F0100085F01000870
:1000F0005F0100085F0100085F0100085F01000860
:100100005F0100085F0100085F0100085F0100084F
:100110005F0100085F0100085F0100085F0100083F
:100120005F0100085F0100085F0100085F0100082F
:10013000DFF80CD000F02AF800480047E918000862
:10014000B00800200648804706480047FEE7FEE763
:10015000FEE7FEE7FEE7FEE7FEE7FEE7FEE7FEE777
:100160003D16000831010008D2B201E000F8012B71
:10017000491EFBD270470022F6E710B513460A4627
:1001800004461946FFF7F0FF204610BD064C074D08
:1001900006E0E06840F0010394E807009847103457
:1001A000AC42F6D3FFF7C8FF981F0008B81F00083D
:1001B000FEE700007047000070470000014690F81D
:1001C0002100022813D10868D1E90FC3026822F088
:1001D0000E020260026822F001020260012000FAB1
:1001E00003F2CCF8042081F82100002002E0042072
:1001F00088630120002281F82020704780B590F8A4
:100200002110022927D1026840F2040C1368C4F2BD
:10021000020C23F00E03136013680CF17C018A4278
:1002200023F0010111601AD940F20841C4F2020121
:100230008A4247D040F21C41C4F202018A4245D0B2
:1002400040F23041C4F202018A4243D14FF480733C
:10025000CCF8003457E004218163012080BD4321A4
:10026000C4F202018A420EDD6B21C4F202018A420D
:100270001BDC4421C4F202018A4239D05821C4F265
:1002800002018A4231E00821C4F202018A4232D0DE
:100290001C21C4F202018A4232D03021C4F2020190
:1002A0008A4222D14FF480722BE06C21C4F2020109
:1002B0008A4222D08021C4F202018A4215D14FF035
:1002C00080721EE00123CCF800341CE01023CCF82F
:1002D000003418E00CF588614FF480338A4208BF7F
:1002E0004FF48053CCF800340DE04FF4803208E036
:1002F0004FF4805205E0012203E04FF4801200E049
:100300001022CCF80020416B4FF48072028401B1BE
:100310008847002080BD0000B0B5044600F004F915
:10032000054640F20400C2F200000078611C18BFCC
:10033000044400BF00F0F8F8401BA042FAD3B0BD5F
:100340002DE9F04F83B00C68002C00F0EA80A0F19A
:100350008042A2F5843240F2004E4FEAB22241F6CA
:100360000047C4F2010E0092C4F2010706220025E4
:100370004FF001094FF0000B4FF0000AB84208BFE0
:100380000522019209E000BF0C680BF1010B34FA61
:100390000BF205F1040500F0C48009FA0BF814EA29
:1003A000080CF1D04C684FF6FF72C1F21002944273
:1003B00010DC122C50D8DFE804F0330A41454F4FCF
:1003C0004F4F4F4F4F4F4F4F4F4F4F484C00D1F86B
:1003D0000CA041E04FF6FF72C1F2210294420FDC03
:1003E0000022C1F2110294421AD00022C1F212027C
:1003F000944215D00022C1F22102944210D02BE089
:100400000022C1F2220294420AD00022C1F231023B
:10041000944205D00022C1F2320294421CD100BFA6
:100420008C6844B1012C14BFC0F81480C0F810804F
:100430004FF0080A10E04FF0040A0DE0CC6804F118
:10044000080A09E04FF0000A06E0CC6804F1040A4B
:1004500002E0CC6804F10C0A2C460746BCF5807F0C
:1004600024BF203C04373A680F2303FA04F6B24352
:100470000AFA04F422433A60CA79D2067FF584AFBF
:1004800041F21804C4F2020422684FF6084842F010
:10049000010222602268CFF6FF7802F00102029288
:1004A000029A2BF00302724452F8084005F00C0641
:1004B00003FA06F7009BBC43019F052B38BF1F467C
:1004C00007FA06F6344342F808404C68E203DEF8C7
:1004D000002054BF22EA0C0742EA0C07A203CEF820
:1004E0000070DEF8042054BF22EA0C0742EA0C0731
:1004F000E202CEF80470DEF8082054BF22EA0C07AE
:1005000042EA0C07A20240F20C44CEF80870C4F292
:100510000104226854BF22EA0C0242EA0C02226063
:1005200032E703B0BDE8F08F40F2AC40C2F2000009
:1005300000687047F0B581B0B0B3044690F83D0054
:1005400028B9002084F83C00204600F055F924200A
:1005500084F83D002068016821F001010160016814
:1005600041F400410160016821F40041016000F0A4
:10057000BDFA48F28041C0F21E0140F600126568E3
:1005800088424FF00001C0F23D0248F2A16C4FF0EA
:10059000000338BF01219042C0F2010C38BF012393
:1005A000654538BF0B4613B1012001B0F0BD4DF6D3
:1005B0008361C4F21B31A0FB011221684FEA924E05
:1005C0004B684FF4967623F03F0343EA92434B6027
:1005D00044F6D3530F6A0EFB06F6C1F26203A6FB84
:1005E000033627F03F03B709654538BF970C7A1CDF
:1005F0001A430A62CA6948F2A0674CF6FF73C0F258
:100600000107BD4222EA030C0AD801386A00B0FB98
:10061000F2F001306FF31F30042898BF04202BE064
:10062000A368A0F1010E9BB119206843BEFBF0F056
:100630000422013062F31F30000512D09BB1192053
:100640006843BEFBF0F00422013062F31F3011E07A
:1006500005EB4500BEFBF0F001306FF31F300005E5
:10066000ECD1012008E005EB4500BEFBF0F00130C5
:100670006FF31F3040F4004040EA0C00C861086886
:10068000D4E9072320F0C0001043184308608868AD
:1006900048F2FF3204F10C0790438CCF184310430B
:1006A000A6698860C86820F0FF0038433043C860FE
:1006B000086840F00100086000202021206484F8D0
:1006C0003D10206384F83E0001B0F0BD2DE9F043F9
:1006D00083B0994616460F460446FFF725FF94F867
:1006E0003D1020290ED102210546C0F210012046FE
:1006F00001221923009500F017FE18B994F83C0068
:10070000012803D1022003B0BDE8F0830121226853
:1007100084F83C101368DDE90B080A99DB0703D164
:10072000136843F001031360136823F4006313603C
:10073000212284F83D20402284F83E2000222264B9
:1007400061626085608D394620850020CFF6FF709C
:10075000E062204632464B46CDF80080019500F01D
:1007600053FD30B3012003B0BDE8F083204641467D
:100770002A4600F059FE28BB606A2168034613F838
:10078000012B0A61228D6362571E2785638D3F040A
:10079000A3F1010363854B6918BF13F0040308D06C
:1007A000437802300B616062901E2085608D0138B5
:1007B0006085208D0028D9D1204641462A4600F088
:1007C00083FD40B1206C0428CCD12068016841F43D
:1007D00000710160C6E72068016841F400710160A2
:1007E000202084F83D00002084F83E0084F83C007E
:1007F00003B0BDE8F083000010B586B0016845F68F
:100800000000C4F2000081424FF00001CDE9041164
:10081000CDE9021101D006B010BD41F21804C4F2B6
:100820000204216800F5344041F00801216021688C
:1008300001F00801019101994FF4406102911221E8
:1008400003910321059102A9FFF77AFD606840F446
:1008500080006060606800F480000190019806B03C
:1008600010BD000040F2040040F2AC41C2F20000B2
:10087000C2F2000100780A68104408607047000066
:1008800080B542F20000C4F20200016841F010019C
:100890000160032000F066F8002000F005F800F089
:1008A0002BF8002080BD0000B0B540F20402C2F277
:1008B000000240F200011278C2F200014FF47A7394
:1008C0000968B3FBF2F20446B1FBF2F1084600F00E
:1008D000E7FA0F2C4FF001050CD858B94FF0FF3054
:1008E00021460022002500F02DF840F20800C2F257
:1008F000000004602846B0BD82B041F21800C4F286
:1009000002000168022241F001010160016801F06A
:10091000010101910199416841F0805141604068B5
:1009200000F08050009000980420C4F2010001689B
:1009300062F31A61016002B07047000080B500F0F8
:1009400099FF80BD70B514460D46064600F0A2FF23
:100950002946224600F0FAFD0146304600F0A2FF8B
:1009600070BD000080B500F0AFFF80BD2DE9F04301
:1009700081B0002800F0898042F20008C4F2020829
:100980000446D8F800000D4600F0070088420CD25B
:10099000D8F8000020F007002843C8F80000D8F875
:1009A000000000F00700A8426FD1206841F204095E
:1009B0008107C4F2020917D5410705D5D9F80010FF
:1009C00041F4E061C9F80010010705D5D9F800101D
:1009D00041F46051C9F80010D9F80010A26821F064
:1009E000F0011143C9F80010C00745D1D8F8000044
:1009F00000F00700A8420CD9D8F8000020F007004A
:100A00002843C8F80000D8F8000000F00700A8420A
:100A10003BD12068410707D5D9F80010E26821F4DE
:100A2000E0611143C9F80010000708D5D9F80000AB
:100A3000216920F4605040EAC100C9F8000000F0CC
:100A400079F8D9F8001041F6FE22C1F30311C0F67F
:100A50000002515C40F2000220FA01F140F208006D
:100A6000C2F200000068C2F200021160FFF71CFF32
:100A7000002001B0BDE8F0836068022809D0012899
:100A800029D159F8041C890307D4012001B0BDE81D
:100A9000F08359F8041C8901F7D5D9F8001021F02A
:100AA00003010843C9F80000FFF73EFD064641F286
:100AB000883700BFD9F80000616800F00C00B0EB87
:100AC000810F93D0FFF730FD801BB842F2D903208D
:100AD00001B0BDE8F08359F8041C8907D5D5DCE7DF
:100AE00040F20000C2F200000068704780B5FFF7D6
:100AF000F7FF41F20401C4F20201096841F60E3227
:100B0000C1F30221C0F60002515CC84080BD000064
:100B100080B5FFF7E5FF41F20401C4F20201096864
:100B200041F60E32C1F3C221C0F60002515CC8404A
:100B300080BD000041F2040CC4F2020CDCF800306D
:100B400003F00C00082841F20020C0F27A0018BF20
:100B50007047C3F383420AA18A5CD90305D440F6E7
:100B60000010C0F23D0050437047DCF8001008A3AD
:100B7000C1F34041595C5043B0FBF1F0704700BFF6
:100B800002030405060708090A0B0C0D0E0F1010CE
:100B9000010200002DE9F04182B0002800F0C4807D
:100BA0000446007841F20006C007C4F2020643D0B2
:100BB000706800F00C00042817D0706800F00C007A
:100BC000082802D17068C0030FD465682DB1B5F54F
:100BD000A02F10D0B5F5803F11D0306820F48030C0
:100BE0003060306820F480200CE03068800323D52A
:100BF000606808BB98E0306840F48020306030685E
:100C000040F480303060FFF78FFC002D054610D097
:100C10003068800310D4FFF787FC401B6428F7D9A5
:100C200004E100BFFFF780FC401B64284FF0030085
:100C300077D830688003F5D42078800718D570689D
:100C400010F00C0F07D0706800F00C00082826D1B7
:100C50007068C00323D43068800702D5206901285A
:100C600062D13068616920F0F80040EAC10030606C
:100C7000207800073DD5A06938B30020C4F2422097
:100C80000121C0F88014FFF74FFC0546706A800709
:100C90002DD4FFF749FC401B0228F7D9C6E0206994
:100CA000002840F20000C4F2422000F096800121AA
:100CB0000160FFF739FC054630688007D1D4FFF7A3
:100CC00033FC401B0228F7D9B0E00020C4F24220D8
:100CD0000021C0F88014FFF727FC0546706A8007E2
:100CE00007D5FFF721FC401B0228F7D99EE000F052
:100CF00045FC207840071BD4E5698DB1706800F091
:100D00000C00082847D1012D0ED07068216A00F42C
:100D100080328A4208D1616A00F47010884203D19F
:100D2000002002B0BDE8F081012002B0BDE8F081F2
:100D3000F06910F0805808D1F06940F08050F061FF
:100D4000F06900F080500190019847F20007C4F26A
:100D500000073868C00510D4386840F480703860E7
:100D6000FFF7E2FB054600BF3868C00505D4FFF772
:100D7000DBFB401B6428F7D958E0E5681DB1052D61
:100D80003CD0012D3ED0306A20F001003062306A44
:100D900020F0040039E00027C4F242270020386622
:100DA000FFF7C2FB022D05460CD100BF3068800161
:100DB00054D5FFF7B9FB401B02284FF00300F5D9CB
:100DC000AFE700BF30688001AAD5FFF7ADFB401B3D
:100DD00002284FF00300F5D9A3E700210160FFF7D7
:100DE000A3FB0546306880077FF542AFFFF79CFB09
:100DF000401B02284FF00300F4D992E7306A40F01C
:100E000004003062306A40F001003062FFF78CFB72
:100E1000002D054641F2883714D000BF306A8007A4
:100E200013D4FFF781FB401BB842F7D9032002B06F
:100E3000BDE8F081FFF778FB401BB8424FF003009C
:100E40003FF66FAF306A8007F4D4B8F1000F7FF43B
:100E500053AFF06920F08050F0614DE7206AB0F5A3
:100E6000803F05D17168A26821F40031114371609F
:100E70007168626A21F474111043084370600120A4
:100E80003866FFF751FB0446306880013FF548AFF4
:100E9000FFF74AFB001B02284FF00300F4D940E79C
:100EA00080B500F083FB80BD7047000070470000F4
:100EB000B0B582B0016805460868CA684C6900F0A0
:100EC0002F03202B02F0200305D123B1284600F088
:100ED000E1FB02B0B0BD5FEA007C1EBF04F0010E72
:100EE00002F4907414EB0E0424D12B6B1040C20654
:100EF00017D5012B15D10020019008680190486892
:100F000001900198486940061CD4A88DEA8DEB8DAC
:100F1000002B1CBF801A5FEA004240F09A8002B0AA
:100F2000B0BD010636D44006F9D5284600F0A6FB30
:100F300002B0B0BDC10718BF12F480712FD14107B4
:100F400033D439E0A86B0268526893B2002BE6D024
:100F5000AC8DA342E3D2EA858269202A16D0CA6802
:100F600022F48072CA604A6922F001024A614A6929
:100F700022F040024A61202285F83E2000222A63A6
:100F8000CA6822F01002CA60FFF718F9A88DE98D2F
:100F9000401A6FE0284600F039FC02B0B0BD296C61
:100FA00041F001012964410706D5BEF1000F03D0CD
:100FB000296C41F002012964810706D5BEF1000FBA
:100FC00003D0296C41F004012964BCF1000F06D55F
:100FD0005EEA030103D0296C41F008012964296C01
:100FE00000299CD01040800602D5284600F052FB14
:100FF00028684069296C00F0400001F008014018A1
:1010000020D0284600F024FB28684169490614D501
:10101000416921F040014161A86B70B141F2416129
:10102000C0F600014163FFF7E9F800283FF477AF0D
:10103000A86B416B884702B0B0BD2846FFF736FF6A
:1010400002B0B0BD2846FFF731FF0020286402B08F
:10105000B0BDCA6822F49072CA604A6922F00102E7
:101060004A61202285F83E2000222A63CA6822F0C5
:101070001002CA6081B22846FFF716FF02B0B0BD69
:10108000002804BF0120704710B5044690F83D00C9
:1010900028B9002084F83C00204600F021F82420E4
:1010A00084F83D002068C16821F40051C1602046E9
:1010B00000F04AFB2068016921F490410161416917
:1010C00021F02A014161C16841F40051C160002052
:1010D0002021206484F83D1084F83E1010BD0000EB
:1010E00070B586B040F60004C4F20104006804F54F
:1010F0004051002688420596CDE90366029601D04C
:1011000006B070BD41F21800C4F20200016802ADE1
:1011100041F480410160016801F48041019101992D
:10112000016841F0040101600068294600F00400F4
:10113000019001984FF40070029002200390032068
:1011400005902046FFF7FCF84FF48060CDE90206D9
:10115000204629460496FFF7F3F8252000210022B7
:10116000FFF7F0FB2520FFF7E9FB06B070BD00009C
:1011700010B590F83E30202B0BD100294FF0010420
:1011800018BF002A01D1204610BD90F83C30012B39
:1011900001D1022010BD0123002480F83C300463FB
:1011A00000F01AFB204610BD80B540F21000C2F2DC
:1011B00000000121017040F2680040F2AC01C2F26F
:1011C0000000C2F200014FF48062FFF7D1FF80BD42
:1011D00070470000FEE700000268516949054FF0C2
:1011E00000010FD56FF4806353612022016380F802
:1011F0003D2080F83E10026C42F00402026480F848
:101200003C100121084670472DE9F04383B00446A5
:1012100000680D4601680A9F0B9E41F48071994653
:101220009046016020464FF0011100223B46009697
:1012300000F07AF850B120680068C00544BF4FF450
:1012400000702064032003B0BDE8F083206805F03F
:10125000FE0101610221C0F2010120463A463346F7
:1012600000F09CF818B1012003B0BDE8F083002025
:1012700002902068324641690291806939460290A5
:101280000298204600F0D0F840B1206C0428EAD142
:101290002068016841F400710160E4E7B9F1010FD1
:1012A0000AD020684FEA18210161204639463246AB
:1012B00000F0BAF80028E8D120685FFA88F10161EF
:1012C000002003B0BDE8F083F0B581B004460068AB
:1012D0004069400724D415460E464F1C04E000BF69
:1012E0002068406940071BD42046FFF775FFA0B96E
:1012F000002FF5D0FFF718F916B1401BB042EFD917
:1013000000202021206384F83D1084F83E00216CE9
:1013100041F02001216484F83C00012001B0F0BDBF
:10132000002001B0F0BD00002DE9F047DDF820807D
:101330001D469146824601F47F078EB25C1C00BFB9
:10134000DAF80000B7F5803F14BF18301430006899
:101350003040801BB0FA80F0400948451BD1002C7A
:10136000EED0FFF7E1F81DB1A0EB0800A842E7D9E5
:1013700000202021CAF830008AF83D108AF83E008B
:10138000DAF8401041F02001CAF840108AF83C0019
:101390000120BDE8F0870020BDE8F0872DE9F0418D
:1013A00004460068984643698FB203EA0701B942D0
:1013B00002D10020BDE8F0814169490512D41646EA
:1013C000551C00BF35B1FFF7AFF816B3A0EB08000E
:1013D000B0421ED8206841693940B942E9D041691C
:1013E0004905EFD5016841F4007101606FF4806137
:1013F000416100202021206384F83D1084F83E00E4
:10140000216C41F00401216484F83C000120BDE816
:10141000F08100202021206384F83D1084F83E00F4
:10142000216C41F02001EEE7F0B581B00446006880
:101430004069000624D415460E464F1C04E000BF48
:101440002068406900061BD42046FFF7C5FEA0B9FE
:10145000002FF5D0FFF768F816B1401BB042EFD966
:1014600000202021206384F83D1084F83E00216C88
:1014700041F02001216484F83C00012001B0F0BD5E
:10148000002001B0F0BD000083B041F21800C4F2AA
:101490000200016841F020010160016801F02001B3
:1014A00002910299016841F008010160016801F0B0
:1014B000080101910199016841F00401016000688F
:1014C00000F004000090009803B0704780B540F22F
:1014D000140045F60001C2F20000C4F2000141F61A
:1014E000802200234FF4804CC0F2060280E80E00F8
:1014F000C0E9033CC0E90533C0E90733FFF71AF838
:10150000002818BFFEF758FE80BD000080B540F2ED
:10151000680043F60001C2F20000C4F2010100239A
:101520004FF00C0C4FF4E12280E80E00C0E90333C9
:10153000C0E905C3C361FFF7A3FD002818BFFEF78C
:101540003BFE80BDFEE700007047000000F0070092
:1015500080F00703042B28BF04234FF0FF3C03381F
:101560000CFA03F338BF0020994381400CFA00F0D5
:1015700022EA0000084370477047000081B040F243
:101580000000C2F20000006844F6D351C1F26201CB
:10159000A0FB0101480A009000BF0098411E0028EE
:1015A0000091F9D101B0704770470000B0B5013823
:1015B0000024B4EB106F1CBF0120B0BD4EF210052B
:1015C000CEF2000568604FF0FF300F2100F06AF99D
:1015D0000720AC6028602046B0BD000080B5FFF752
:1015E00041F980BD70B590B006AC20462821FEF7C9
:1015F000C2FD012006900A904FF4E01000254FF440
:10160000803102260F9020460595CDE90355CDE99E
:101610000155CDE90715CDE90D61FFF7BBFA0F20A4
:10162000CDE901064FF48060CDE9040501A802214F
:101630000395FFF79BF910B070BD000070470000E4
:1016400080B5406A0021C185C184FFF72FFC80BDB1
:101650000168CA6822F49072CA604A6922F00102E5
:101660004A61026B012A03D1CA6822F01002CA60E3
:10167000202180F83E1000210163704780B5016889
:10168000CA6822F04002CA60202180F83D10FFF7AE
:101690009FFD80BD80B582B090F83E1022291ED1FA
:1016A0008268B2F5805F02D10169002940D0816A69
:1016B000B2F5805F07D00AB9026922B102685268A8
:1016C00002F07F0201E0026852680A700121826A1A
:1016D00011448162C18D01390A04C18501D002B073
:1016E00080BD0168CA6822F02002CA60CA6822F47C
:1016F0008072CA604A6922F001024A61202280F8A1
:101700003E20026B012A1BD100220263CB6823F02A
:101710001003CB600B68DB0605D501920A680192C5
:10172000496801910199818DFFF7BEFB02B080BD30
:101730000168826A49686FF35F2111800221C6E760
:10174000FFF732FD02B080BD10B504460068D4E951
:1017500002C22369016921F44051114301616169A9
:1017600043EA0C021143C26841F20C639A431143ED
:10177000C1604169A26921F44071114343F600023E
:10178000C4F201029042416102D0FFF7AFF901E0DB
:10179000FFF7BEF96268192148439100B0FBF1F0F0
:1017A00048F21F51C5F2EB11A0FB01235A096FF05B
:1017B000630302FB0300322303EB0010A0FB0101D3
:1017C000F02303EA5113206803EB0212C1F3431123
:1017D0001144816010BD000081628285C2850021B4
:1017E0002222016480F83E20026880F83C10D06814
:1017F00040F48070D060506940F001005061D068C2
:1018000040F020010020D1607047000090F83D10AA
:10181000212923D18168B1F5805F01D1016931B1FE
:10182000016A02684B1C03620978516007E0016A93
:10183000036831F8022B6FF35F225A600162C18C9A
:1018400001390A04C18418BF70470068C16821F0DB
:101850008001C160C16841F04001C1607047000073
:1018600080B540F26800C2F20000FFF721FB80BDA6
:10187000FEE70000002848BF704700F01F0101226A
:1018800002FA01F14EF200124009CEF2000242F8D3
:10189000201070474EF60C50CEF200000068C0F3E6
:1018A000022070474EF6145300F00F02CEF20003F0
:1018B00009011A4400F16043B0F1FF3FC8BF03F5CE
:1018C00064421170704700004EF60C51CEF20001D8
:1018D0000A684FF6FF031A4060F30A2242F0806064
:1018E00040F0FD7008607047FEF7CAFF4FF4FA70D1
:1018F000FEF712FDFFF776FEFFF7C6FDFFF706FEC7
:10190000FFF7E4FD00F068F800F020F841F616302B
:10191000C0F6000000F046F840F2AC0440F2680067
:10192000C2F20004C2F2000021464FF48062FFF7C9
:101930001FFC40F21005C2F200050026287801289D
:10194000FCD1204600F02EF82E70F7E780B500207D
:1019500000F002F880BD00002DE9F04383B041F6AD
:10196000167740F2140400264FF0FF084FF080096C
:10197000C0F60007C2F20004F5B20020294600F0CC
:1019800085F82046782140220123CDE90079CDF861
:101990000880FEF79BFE072D06F10106ECD303B08D
:1019A000BDE8F08310B584B004460020002100F0AB
:1019B0006DF84FF48060CDE9004040F214004FF024
:1019C000FF0CC2F20000782140220123CDF808C0AC
:1019D000FEF77CFE04B010BD80B54FF4FA70FEF740
:1019E0009BFCAE2000F064F8202000F061F810208D
:1019F00000F05EF8B02000F05BF8C82000F058F866
:101A0000002000F055F8102000F052F8402000F0BF
:101A10004FF8812000F04CF8FF2000F049F8A12099
:101A200000F046F8A62000F043F8A82000F040F8A7
:101A30003F2000F03DF8A42000F03AF8D32000F059
:101A400037F8002000F034F8D52000F031F8F0200D
:101A500000F02EF8D92000F02BF8222000F028F812
:101A6000DA2000F025F8122000F022F8DB2000F048
:101A70001FF8202000F01CF88D2000F019F8142029
:101A800000F016F8AF2000F013F880BD10B5044642
:101A9000A1F15000C0B200F00BF82009103000F0A6
:101AA00007F804F00E00013000F002F810BD00004D
:101AB00080B584B08DF80F0001200DF10F01CDE944
:101AC000001040F214004FF0FF0CC2F20000782129
:101AD00000220123CDF808C0FEF7F8FD04B080BD58
:101AE00002E008C8121F08C1002AFAD170477047E7
:101AF000002001E001C1121F002AFBD17047000045
:101B000000000000000001020304060708090000AD
:101B100000000102030400000000000000000000BB
:101B200000000000000000000000000000000000B5
:101B300000000000000000000000000000000000A5
:101B4000000000000000000000C0E0F0F8FCFCFE17
:101B5000FEFEFEFEFEFEFEFEFEFEFCFCFCFCFCFCB1
:101B6000FCFCF8F8F0F4E0C0802000000000000069
:101B70000000000000000000000000000000000065
:101B80000000000000000000000000000000000055
:101B90000000000000000000000000000000000045
:101BA0000000000000000000000000000000000035
:101BB0000000000000000000000000000000000025
:101BC000000060F0F8F0F0F8FFFFFFFFFFFFFFFFFD
:101BD000FFFFFFFFFFFFFFFFFFFFFFFFFFFFFFFF15
:101BE000FFFFFFFFFFFFFFFFFFFEFEFEFEFEFEFE0C
:101BF000FEFCE010000000000000000000000000FB
:101C000000000000000000000000000000000000D4
:101C10000000000000000000000000000000400084
:101C20008080C0C0C0E0E0C0C0C080800000000074
:101C300000000000000000000000000000000000A4
:101C400000000000080D4F3D3F7FFFFFFFFFFFFF3B
:101C5000FFFFFFFFFFFFFFFFFFFFFFFFFFFFFFFF94
:101C6000FFFFFFFFFF7FDFCFFBFFFFFFFFFFFFFF58
:101C7000FFCF0708000000000000008080C0C0C047
:101C8000E0E0F0F0F0707070F0E0E0C0C0C0C08044
:101C9000808000000000FCFCFC1EDEFEFFFFFFFF5A
:101CA000FF7F3B0101F1F9FFFFFFFFFF7F87F76E29
:101CB0008ECCFCFCF8F8B830B0B0B03030B0F0F0FA
:101CC000F0F074F0F0E4C080C0C0C0E1E3E3F5F7E9
:101CD000FFFFFFFFFFFFFFFFFFFFFFF7F3FFEFC770
:101CE000C3C383C4E3F0F87BBFFFFFFFFFFFFF7FA9
:101CF000FF7FDE1CDCFCFCFEFFF7E7C303031D3F98
:101D00007FFFFFFEFEFCF000001F3F3F7FFFFFFF55
:101D1000FFF7073F7FFF0301003E1F0F0703030587
:101D200000000000787F3F4F07030100030300FF1E
:101D3000FFFFFF7F3F0F0300070701FEFFFFFFFFCD
:101D40007FBFFFFCFCFFFFFFFFFFFFFFFFFFFFFF69
:101D5000FFFFFFFFFFFFFFFFFFFFFFFFFFFFFFFF93
:101D6000FFFFFFFFFFFEFEFCFF9FBF7FFFFFFFFFA8
:101D70000000010001030F1F3FFFFFFF00000000F4
:101D80000300393B270F1F30000000000000010353
:101D900003070F0C03060000000000000000000015
:101DA000000000000000000000000000000006012C
:101DB000070300030000000000003C330F0F23CC9A
:101DC000F1FDFFFFFFFFFFFFFFFFFFFFFFFFFFFF33
:101DD000FFFFFFFFFFFFFFFFFFFFFFFFFFFFFFFF13
:101DE000FFFFFFFFFFFFFFFFFFF9E09001030F0779
:101DF00000000000000000000000010302000000DD
:101E000000000000000000000000000000000000D2
:101E1000000000000000000000000000C0F0F0C062
:101E200080808080C0C0C0B4F0F0F0F0C0C0C0A01E
:101E300000008080C0C0C0E0E0F0F0F0F8F8FCFFE7
:101E4000FFFFFF7F3F4F0303FFFFFFFFFFFFFFFF8A
:101E5000FFFFFFFFFFFFFFFFFFFFFFFFFFFFFFFF92
:101E6000FFFFFFE107DFBF7FFFFFFFFFFCFCF8F88C
:101E7000F0F0F0E0E0C0C0C08080000080C0C0F0A2
:101E8000F0F8F8D8C0D0C0C0C0C0C0C0F0F0F0C0FA
:101E90000000000000000000000000000503070F24
:101EA0000F0F0F1F1F1F0F2F0F1F1F1F3F3F3F3F02
:101EB0003F3F3F3F1F1F0F0F0F07070303030301A0
:101EC0000102000080E0F0FCFFFFFFFFFFFFFFFFCB
:101ED000FFFFFFFFFFFFFFFFFFFFFFFFFFFFFFFF12
:101EE000FFFFFFFFFCF3E08000000001010303039C
:101EF00007070F0F2F0F1F1F3F3F3F3F3F3F3F3F42
:101F00003F3F3F1F1F1F1F3F3F3F0F0F0F0F01009E
:101F100000000000000000000000000000000000C1
:101F200000000000000000000000000000000000B1
:101F300000000000000000000000000000000000A1
:101F40000000000000000000000000000000000091
:101F50000000000000000000000000000000000081
:101F60000000000000000000000000000000000071
:101F70000000000000000000000000000000000061
:101F80000000000000000000000000000000000051
:101F90000000000000000000B81F00080000002042
:101FA00010000000E01A0008C81F00081000002000
:101FB000A0080000F01A00080024F400010000004E
:081FC000100000000000000009
:0400000508000131BD
:00000001FF
