:020000040800F2
:10000000B004002045010008ED1400087911000833
:10001000E9140008B1010008B5190008000000004B
:100020000000000000000000000000002117000890
:10003000B5010008000000001D1500085517000854
:100040005F0100085F0100085F0100085F01000810
:100050005F0100085F0100085F0100085F01000800
:100060005F0100085F0100085F0100085F010008F0
:100070005F0100085F0100085F0100085F010008E0
:100080005F0100085F0100085F0100085F010008D0
:100090005F0100085F0100085F0100085F010008C0
:1000A0005F0100085F0100085F0100085F010008B0
:1000B0005F0100085F0100085F0100085F010008A0
:1000C0005F0100085F0100085F0100085F01000890
:1000D0005F010008A51900085F0100085F01000822
:1000E0005F0100085F0100085F0100085F01000870
:1000F0005F0100085F0100085F0100085F01000860
:100100005F0100085F0100085F0100085F0100084F
:100110005F0100085F0100085F0100085F0100083F
:100120005F0100085F0100085F0100085F0100082F
:10013000DFF80CD000F02AF8004800472D1A00081C
:10014000B00400200648804706480047FEE7FEE767
:10015000FEE7FEE7FEE7FEE7FEE7FEE7FEE7FEE777
:10016000B517000831010008D2B201E000F8012BF8
:10017000491EFBD270470022F6E710B513460A4627
:1001800004461946FFF7F0FF204610BD064C074D08
:1001900006E0E06840F0010394E807009847103457
:1001A000AC42F6D3FFF7C8FFC4560108E456010875
:1001B000FEE700007047000070470000014690F81D
:1001C0002100022813D10868D1E90FC3026822F088
:1001D0000E020260026822F001020260012000FAB1
:1001E00003F2CCF8042081F82100002002E0042072
:1001F00088630120002281F82020704780B590F8A4
:100200002110022927D1026840F2040C1368C4F2BD
:10021000020C23F00E03136013680CF17C018A4278
:1002200023F0010111601AD940F20841C4F2020121
:100230008A4247D040F21C41C4F202018A4245D0B2
:1002400040F23041C4F202018A4243D14FF480733C
:10025000CCF8003457E004218163012080BD4321A4
:10026000C4F202018A420EDD6B21C4F202018A420D
:100270001BDC4421C4F202018A4239D05821C4F265
:1002800002018A4231E00821C4F202018A4232D0DE
:100290001C21C4F202018A4232D03021C4F2020190
:1002A0008A4222D14FF480722BE06C21C4F2020109
:1002B0008A4222D08021C4F202018A4215D14FF035
:1002C00080721EE00123CCF800341CE01023CCF82F
:1002D000003418E00CF588614FF480338A4208BF7F
:1002E0004FF48053CCF800340DE04FF4803208E036
:1002F0004FF4805205E0012203E04FF4801200E049
:100300001022CCF80020416B4FF48072028401B1BE
:100310008847002080BD0000B0B5044600F004F915
:10032000054640F20400C2F200000078611C18BFCC
:10033000044400BF00F0F8F8401BA042FAD3B0BD5F
:100340002DE9F04F83B00C68002C00F0EA80A0F19A
:100350008042A2F5843240F2004E4FEAB22241F6CA
:100360000047C4F2010E0092C4F2010706220025E4
:100370004FF001094FF0000B4FF0000AB84208BFE0
:100380000522019209E000BF0C680BF1010B34FA61
:100390000BF205F1040500F0C48009FA0BF814EA29
:1003A000080CF1D04C684FF6FF72C1F21002944273
:1003B00010DC122C50D8DFE804F0330A41454F4FCF
:1003C0004F4F4F4F4F4F4F4F4F4F4F484C00D1F86B
:1003D0000CA041E04FF6FF72C1F2210294420FDC03
:1003E0000022C1F2110294421AD00022C1F212027C
:1003F000944215D00022C1F22102944210D02BE089
:100400000022C1F2220294420AD00022C1F231023B
:10041000944205D00022C1F2320294421CD100BFA6
:100420008C6844B1012C14BFC0F81480C0F810804F
:100430004FF0080A10E04FF0040A0DE0CC6804F118
:10044000080A09E04FF0000A06E0CC6804F1040A4B
:1004500002E0CC6804F10C0A2C460746BCF5807F0C
:1004600024BF203C04373A680F2303FA04F6B24352
:100470000AFA04F422433A60CA79D2067FF584AFBF
:1004800041F21804C4F2020422684FF6084842F010
:10049000010222602268CFF6FF7802F00102029288
:1004A000029A2BF00302724452F8084005F00C0641
:1004B00003FA06F7009BBC43019F052B38BF1F467C
:1004C00007FA06F6344342F808404C68E203DEF8C7
:1004D000002054BF22EA0C0742EA0C07A203CEF820
:1004E0000070DEF8042054BF22EA0C0742EA0C0731
:1004F000E202CEF80470DEF8082054BF22EA0C07AE
:1005000042EA0C07A20240F20C44CEF80870C4F292
:100510000104226854BF22EA0C0242EA0C02226063
:1005200032E703B0BDE8F08F40F2A800C2F200004D
:1005300000687047F0B581B0B0B3044690F83D0054
:1005400028B9002084F83C00204600F055F924200A
:1005500084F83D002068016821F001010160016814
:1005600041F400410160016821F40041016000F0A4
:10057000BDFA48F28041C0F21E0140F600126568E3
:1005800088424FF00001C0F23D0248F2A16C4FF0EA
:10059000000338BF01219042C0F2010C38BF012393
:1005A000654538BF0B4613B1012001B0F0BD4DF6D3
:1005B0008361C4F21B31A0FB011221684FEA924E05
:1005C0004B684FF4967623F03F0343EA92434B6027
:1005D00044F6D3530F6A0EFB06F6C1F26203A6FB84
:1005E000033627F03F03B709654538BF970C7A1CDF
:1005F0001A430A62CA6948F2A0674CF6FF73C0F258
:100600000107BD4222EA030C0AD801386A00B0FB98
:10061000F2F001306FF31F30042898BF04202BE064
:10062000A368A0F1010E9BB119206843BEFBF0F056
:100630000422013062F31F30000512D09BB1192053
:100640006843BEFBF0F00422013062F31F3011E07A
:1006500005EB4500BEFBF0F001306FF31F300005E5
:10066000ECD1012008E005EB4500BEFBF0F00130C5
:100670006FF31F3040F4004040EA0C00C861086886
:10068000D4E9072320F0C0001043184308608868AD
:1006900048F2FF3204F10C0790438CCF184310430B
:1006A000A6698860C86820F0FF0038433043C860FE
:1006B000086840F00100086000202021206484F8D0
:1006C0003D10206384F83E0001B0F0BD2DE9F043F9
:1006D00083B0994616460F460446FFF725FF94F867
:1006E0003D1020290ED102210546C0F210012046FE
:1006F00001221923009500F0E9FD18B994F83C0097
:10070000012803D1022003B0BDE8F0830121226853
:1007100084F83C101368DDE90B080A99DB0703D164
:10072000136843F001031360136823F4006313603C
:10073000212284F83D20402284F83E2000222264B9
:1007400061626085608D394620850020CFF6FF709C
:10075000E062204632464B46CDF80080019500F01D
:1007600025FD30B3012003B0BDE8F08320464146AB
:100770002A4600F02BFE28BB606A2168034613F866
:10078000012B0A61228D6362571E2785638D3F040A
:10079000A3F1010363854B6918BF13F0040308D06C
:1007A000437802300B616062901E2085608D0138B5
:1007B0006085208D0028D9D1204641462A4600F088
:1007C00055FD40B1206C0428CCD12068016841F46B
:1007D00000710160C6E72068016841F400710160A2
:1007E000202084F83D00002084F83E0084F83C007E
:1007F00003B0BDE8F083000010B586B0016845F68F
:100800000000C4F2000081424FF00001CDE9041164
:10081000CDE9021101D006B010BD41F21804C4F2B6
:100820000204216800F5344041F00801216021688C
:1008300001F00801019101994FF4406102911221E8
:1008400003910321059102A9FFF77AFD606840F446
:1008500080006060606800F480000190019806B03C
:1008600010BD000040F2040040F2A801C2F20000F6
:10087000C2F2000100780A68104408607047000066
:1008800080B542F20000C4F20200016841F010019C
:100890000160032000F066F8002000F005F800F089
:1008A0002BF8002080BD0000B0B540F20402C2F277
:1008B000000240F200011278C2F200014FF47A7394
:1008C0000968B3FBF2F20446B1FBF2F1084600F00E
:1008D000E7FA0F2C4FF001050CD858B94FF0FF3054
:1008E00021460022002500F02DF840F20800C2F257
:1008F000000004602846B0BD82B041F21800C4F286
:1009000002000168022241F001010160016801F06A
:10091000010101910199416841F0805141604068B5
:1009200000F08050009000980420C4F2010001689B
:1009300062F31A61016002B07047000080B501F0F7
:100940003BF880BD70B514460D46064601F044F8EC
:100950002946224600F0CCFD0146304601F044F81D
:1009600070BD000080B501F051F880BD2DE9F04365
:1009700081B0002800F0898042F20008C4F2020829
:100980000446D8F800000D4600F0070088420CD25B
:10099000D8F8000020F007002843C8F80000D8F875
:1009A000000000F00700A8426FD1206841F204095E
:1009B0008107C4F2020917D5410705D5D9F80010FF
:1009C00041F4E061C9F80010010705D5D9F800101D
:1009D00041F46051C9F80010D9F80010A26821F064
:1009E000F0011143C9F80010C00745D1D8F8000044
:1009F00000F00700A8420CD9D8F8000020F007004A
:100A00002843C8F80000D8F8000000F00700A8420A
:100A10003BD12068410707D5D9F80010E26821F4DE
:100A2000E0611143C9F80010000708D5D9F80000AB
:100A3000216920F4605040EAC100C9F8000000F0CC
:100A400079F8D9F8001041F6AC22C1F30311C0F6D1
:100A50000002515C40F2000220FA01F140F208006D
:100A6000C2F200000068C2F200021160FFF71CFF32
:100A7000002001B0BDE8F0836068022809D0012899
:100A800029D159F8041C890307D4012001B0BDE81D
:100A9000F08359F8041C8901F7D5D9F8001021F02A
:100AA00003010843C9F80000FFF73EFD064641F286
:100AB000883700BFD9F80000616800F00C00B0EB87
:100AC000810F93D0FFF730FD801BB842F2D903208D
:100AD00001B0BDE8F08359F8041C8907D5D5DCE7DF
:100AE00040F20000C2F200000068704780B5FFF7D6
:100AF000F7FF41F20401C4F20201096841F6BC2289
:100B0000C1F30221C0F60002515CC84080BD000064
:100B100080B5FFF7E5FF41F20401C4F20201096864
:100B200041F6BC22C1F3C221C0F60002515CC840AC
:100B300080BD000041F2040CC4F2020CDCF800306D
:100B400003F00C00082841F20020C0F27A0018BF20
:100B50007047C3F383420AA18A5CD90305D440F6E7
:100B60000010C0F23D0050437047DCF8001008A3AD
:100B7000C1F34041595C5043B0FBF1F0704700BFF6
:100B800002030405060708090A0B0C0D0E0F1010CE
:100B9000010200002DE9F04182B0002800F0C4807D
:100BA0000446007841F20006C007C4F2020643D0B2
:100BB000706800F00C00042817D0706800F00C007A
:100BC000082802D17068C0030FD465682DB1B5F54F
:100BD000A02F10D0B5F5803F11D0306820F48030C0
:100BE0003060306820F480200CE03068800323D52A
:100BF000606808BB98E0306840F48020306030685E
:100C000040F480303060FFF78FFC002D054610D097
:100C10003068800310D4FFF787FC401B6428F7D9A5
:100C200004E100BFFFF780FC401B64284FF0030085
:100C300077D830688003F5D42078800718D570689D
:100C400010F00C0F07D0706800F00C00082826D1B7
:100C50007068C00323D43068800702D5206901285A
:100C600062D13068616920F0F80040EAC10030606C
:100C7000207800073DD5A06938B30020C4F2422097
:100C80000121C0F88014FFF74FFC0546706A800709
:100C90002DD4FFF749FC401B0228F7D9C6E0206994
:100CA000002840F20000C4F2422000F096800121AA
:100CB0000160FFF739FC054630688007D1D4FFF7A3
:100CC00033FC401B0228F7D9B0E00020C4F24220D8
:100CD0000021C0F88014FFF727FC0546706A8007E2
:100CE00007D5FFF721FC401B0228F7D99EE000F052
:100CF00017FC207840071BD4E5698DB1706800F0BF
:100D00000C00082847D1012D0ED07068216A00F42C
:100D100080328A4208D1616A00F47010884203D19F
:100D2000002002B0BDE8F081012002B0BDE8F081F2
:100D3000F06910F0805808D1F06940F08050F061FF
:100D4000F06900F080500190019847F20007C4F26A
:100D500000073868C00510D4386840F480703860E7
:100D6000FFF7E2FB054600BF3868C00505D4FFF772
:100D7000DBFB401B6428F7D958E0E5681DB1052D61
:100D80003CD0012D3ED0306A20F001003062306A44
:100D900020F0040039E00027C4F242270020386622
:100DA000FFF7C2FB022D05460CD100BF3068800161
:100DB00054D5FFF7B9FB401B02284FF00300F5D9CB
:100DC000AFE700BF30688001AAD5FFF7ADFB401B3D
:100DD00002284FF00300F5D9A3E700210160FFF7D7
:100DE000A3FB0546306880077FF542AFFFF79CFB09
:100DF000401B02284FF00300F4D992E7306A40F01C
:100E000004003062306A40F001003062FFF78CFB72
:100E1000002D054641F2883714D000BF306A8007A4
:100E200013D4FFF781FB401BB842F7D9032002B06F
:100E3000BDE8F081FFF778FB401BB8424FF003009C
:100E40003FF66FAF306A8007F4D4B8F1000F7FF43B
:100E500053AFF06920F08050F0614DE7206AB0F5A3
:100E6000803F05D17168A26821F40031114371609F
:100E70007168626A21F474111043084370600120A4
:100E80003866FFF751FB0446306880013FF548AFF4
:100E9000FFF74AFB001B02284FF00300F4D940E79C
:100EA00080B500F03FFC80BD704700007047000037
:100EB000B0B582B0016805460868CA684C6900F0A0
:100EC0002F03202B02F0200305D123B1284600F088
:100ED0009DFC02B0B0BD5FEA007C1EBF04F0010EB5
:100EE00002F4907414EB0E0424D12B6B1040C20654
:100EF00017D5012B15D10020019008680190486892
:100F000001900198486940061CD4A88DEA8DEB8DAC
:100F1000002B1CBF801A5FEA004240F09A8002B0AA
:100F2000B0BD010636D44006F9D5284600F062FC73
:100F300002B0B0BDC10718BF12F480712FD14107B4
:100F400033D439E0A86B0268526893B2002BE6D024
:100F5000AC8DA342E3D2EA858269202A16D0CA6802
:100F600022F48072CA604A6922F001024A614A6929
:100F700022F040024A61202285F83E2000222A63A6
:100F8000CA6822F01002CA60FFF718F9A88DE98D2F
:100F9000401A6FE0284600F0DBFC02B0B0BD296CBF
:100FA00041F001012964410706D5BEF1000F03D0CD
:100FB000296C41F002012964810706D5BEF1000FBA
:100FC00003D0296C41F004012964BCF1000F06D55F
:100FD0005EEA030103D0296C41F008012964296C01
:100FE00000299CD01040800602D5284600F00EFC57
:100FF00028684069296C00F0400001F008014018A1
:1010000020D0284600F0E0FB28684169490614D545
:10101000416921F040014161A86B70B141F2B971A1
:10102000C0F600014163FFF7E9F800283FF477AF0D
:10103000A86B416B884702B0B0BD2846FFF736FF6A
:1010400002B0B0BD2846FFF731FF0020286402B08F
:10105000B0BDCA6822F49072CA604A6922F00102E7
:101060004A61202285F83E2000222A63CA6822F0C5
:101070001002CA6081B22846FFF716FF02B0B0BD69
:10108000002804BF0120704710B5044690F83D00C9
:1010900028B9002084F83C00204600F021F82420E4
:1010A00084F83D002068C16821F40051C1602046E9
:1010B00000F006FC2068016921F49041016141695A
:1010C00021F02A014161C16841F40051C160002052
:1010D0002021206484F83D1084F83E1010BD0000EB
:1010E00070B586B040F60004C4F20104006804F54F
:1010F0004051002688420596CDE90366029601D04C
:1011000006B070BD41F21800C4F20200016802ADE1
:1011100041F480410160016801F48041019101992D
:10112000016841F0040101600068294600F00400F4
:10113000019001984FF40070029002200390032068
:1011400005902046FFF7FCF84FF48060CDE90206D9
:10115000204629460496FFF7F3F8252000210022B7
:10116000FFF7F0FB2520FFF7E9FB06B070BD00009C
:101170007047000070470000FEE7000002685169F8
:1011800049054FF000010FD56FF4806353612022B1
:10119000016380F83D2080F83E10026C42F00402AA
:1011A000026480F83C100121084670472DE9F043A5
:1011B00083B0044600680D4601680A9F0B9E41F407
:1011C000807199469046016020464FF0011100223F
:1011D0003B46009600F07AF850B120680068C005E0
:1011E00044BF4FF400702064032003B0BDE8F083D7
:1011F000206805F0FE0101610221C0F201012046D4
:101200003A46334600F09CF818B1012003B0BDE81F
:10121000F083002002902068324641690291806983
:10122000394602900298204600F0D0F840B1206C78
:101230000428EAD12068016841F400710160E4E704
:10124000B9F1010F0AD020684FEA18210161204648
:101250003946324600F0BAF80028E8D120685FFA33
:1012600088F10161002003B0BDE8F083F0B581B0E2
:10127000044600684069400724D415460E464F1CBA
:1012800004E000BF2068406940071BD42046FFF7F8
:1012900075FFA0B9002FF5D0FFF746F916B1401B36
:1012A000B042EFD900202021206384F83D1084F85B
:1012B0003E00216C41F02001216484F83C000120B3
:1012C00001B0F0BD002001B0F0BD00002DE9F047F5
:1012D000DDF820801D469146824601F47F078EB2DC
:1012E0005C1C00BFDAF80000B7F5803F14BF18306F
:1012F000143000683040801BB0FA80F04009484547
:101300001BD1002CEED0FFF70FF91DB1A0EB0800A8
:10131000A842E7D900202021CAF830008AF83D1001
:101320008AF83E00DAF8401041F02001CAF8401077
:101330008AF83C000120BDE8F0870020BDE8F08776
:101340002DE9F04104460068984643698FB203EAEC
:101350000701B94202D10020BDE8F0814169490589
:1013600012D41646551C00BF35B1FFF7DDF816B391
:10137000A0EB0800B0421ED8206841693940B9424C
:10138000E9D041694905EFD5016841F40071016078
:101390006FF48061416100202021206384F83D10BA
:1013A00084F83E00216C41F00401216484F83C0083
:1013B0000120BDE8F08100202021206384F83D1049
:1013C00084F83E00216C41F02001EEE7F0B581B0D9
:1013D000044600684069000624D415460E464F1C9A
:1013E00004E000BF2068406900061BD42046FFF7D8
:1013F000C5FEA0B9002FF5D0FFF796F816B1401B37
:10140000B042EFD900202021206384F83D1084F8F9
:101410003E00216C41F02001216484F83C00012051
:1014200001B0F0BD002001B0F0BD000083B041F27A
:101430001800C4F20200016841F020010160016857
:1014400001F0200102910299016841F00801016058
:10145000016801F0080101910199016841F004015E
:101460000160006800F004000090009803B070472D
:1014700080B540F2100045F60001C2F20000C4F24F
:10148000000141F6802200234FF4804CC0F2060296
:1014900080E80E00C0E9033CC0E90533C0E907332A
:1014A000FFF748F8002818BFFEF786FE80BD000051
:1014B00080B540F2640043F60001C2F20000C4F2BD
:1014C000010100234FF00C0C4FF4E13280E80E00D4
:1014D000C0E90333C0E905C3C361FFF7D1FD0028AC
:1014E00018BFFEF769FE80BDFEE7000070470000F0
:1014F00000F0070080F00703042B28BF04234FF0FF
:10150000FF3C03380CFA03F338BF002099438140B5
:101510000CFA00F022EA0000084370477047000010
:1015200081B040F20000C2F20000006844F6D351DE
:10153000C1F26201A0FB0101480A009000BF0098BF
:10154000411E00280091F9D101B0704780B50020FC
:1015500000F002F880BD000070B50446002500BF11
:10156000A5F15000C0B200F0ABF80020002600F05A
:10157000A7F8102000F0A4F8204600F0B9F8701C7D
:1015800046B2B6F1FF3FF7DCE8B20135072828BFC5
:1015900070BDE5E780B54FF4FA70FEF7BDFEAE20F2
:1015A00000F08EF8202000F08BF8102000F088F872
:1015B000B02000F085F8C82000F082F8002000F08C
:1015C0007FF8102000F07CF8402000F079F88120AE
:1015D00000F076F8FF2000F073F8A12000F070F81A
:1015E000A62000F06DF8A82000F06AF83F2000F077
:1015F00067F8A42000F064F8D32000F061F8002020
:1016000000F05EF8D52000F05BF8F02000F058F80C
:10161000D92000F055F8222000F052F8DA2000F02E
:101620004FF8122000F04CF8DB2000F049F82020A1
:1016300000F046F88D2000F043F8142000F040F848
:10164000AF2000F03DF880BD10B50446A1F1500078
:10165000C0B200F035F82009103000F031F804F085
:101660000E00013000F02CF810BD00002DE9F04311
:1016700083B010B305464FF47A70B0FBF1F640F238
:10168000100714464FF0FF084FF48069C2F20007BC
:1016900000200021FFF7D8FF38467821402201239F
:1016A000CDE90049CDF80880FFF710F83046FEF785
:1016B00033FE013D04F58064EAD103B0BDE8F08358
:1016C00080B584B08DF80F0001200DF10F01CDE938
:1016D000001040F210004FF0FF0CC2F20000782121
:1016E00000220123CDF808C0FEF7F0FF04B080BD52
:1016F00080B584B08DF80F0001200DF10F01CDE908
:10170000001040F210004FF0FF0CC2F200007821F0
:1017100040220123CDF808C0FEF7D8FF04B080BDF9
:1017200070470000B0B501380024B4EB106F1CBF47
:101730000120B0BD4EF21005CEF2000568604FF0FA
:10174000FF300F2100F050F90720AC6028602046E0
:10175000B0BD000080B5FFF785F880BD70B590B0D2
:1017600006AC20462821FEF706FD012006900A90CF
:101770004FF4E01000254FF4803102260F902046F0
:101780000595CDE90355CDE90155CDE90715CDE91D
:101790000D61FFF7FFF90F20CDE901064FF48060DE
:1017A000CDE9040501A802210395FFF7DFF810B089
:1017B00070BD00007047000080B5406A0021C185FF
:1017C000C184FFF773FB80BD0168CA6822F4907280
:1017D000CA604A6922F001024A61026B012A03D100
:1017E000CA6822F01002CA60202180F83E10002151
:1017F0000163704780B50168CA6822F04002CA6080
:10180000202180F83D10FFF7B5FC80BD80B582B087
:1018100090F83E1022291ED18268B2F5805F02D175
:101820000169002940D0816AB2F5805F07D00AB90A
:10183000026922B10268526802F07F0201E0026888
:1018400052680A700121826A11448162C18D013996
:101850000A04C18501D002B080BD0168CA6822F0C7
:101860002002CA60CA6822F48072CA604A6922F003
:1018700001024A61202280F83E20026B012A1BD11E
:1018800000220263CB6823F01003CB600B68DB06F9
:1018900005D501920A680192496801910199818DEB
:1018A000FFF702FB02B080BD0168826A49686FF3EE
:1018B0005F2111800221C6E7FFF75AFC02B080BD0C
:1018C00010B504460068D4E902C22369016921F415
:1018D000405111430161616943EA0C021143C2683E
:1018E00041F20C639A431143C1604169A26921F43A
:1018F0004071114343F60002C4F20102904241617B
:1019000002D0FFF7F3F801E0FFF702F9626819214E
:1019100048439100B0FBF1F048F21F51C5F2EB11C2
:10192000A0FB01235A096FF0630302FB030032237B
:1019300003EB0010A0FB0101F02303EA5113206820
:1019400003EB0212C1F343111144816010BD00008A
:1019500090F83D10212923D18168B1F5805F01D134
:10196000016931B1016A02684B1C03620978516058
:1019700007E0016A036831F8022B6FF35F225A60B7
:101980000162C18C01390A04C18418BF7047006824
:10199000C16821F08001C160C16841F04001C160AF
:1019A0007047000080B540F26400C2F20000FFF70B
:1019B0007FFA80BDFEE70000002848BF704700F0B6
:1019C0001F01012202FA01F14EF200124009CEF28B
:1019D000000242F8201070474EF60C50CEF2000084
:1019E0000068C0F3022070474EF6145300F00F0257
:1019F000CEF2000309011A4400F16043B0F1FF3F49
:101A0000C8BF03F564421170704700004EF60C51D8
:101A1000CEF200010A684FF6FF031A4060F30A2273
:101A200042F0806040F0FD7008607047FEF728FFCC
:101A30004FF4FA70FEF770FCFFF790FEFFF7F6FC2C
:101A4000FFF736FDFFF714FDFFF7A4FDFFF77EFD5E
:101A500041F6C42449F6C4650026C0F60004C0F669
:101A6000000500BF212041212246FFF7FFFD092E7E
:101A700006F10106F6D300262E2041212A46FFF763
:101A8000F5FD092E06F10106F6D30026EAE702E08D
:101A900008C8121F08C1002AFAD1704770470020F9
:101AA00001E001C1121F002AFBD1704700000000B5
:101AB00000000000010203040607080900000000FE
:101AC000010203044055405500550055005500558E
:101AD00000550155055505555555555555555555FF
:101AE00055555555155515551555155555555555A6
:101AF0005555555555555555555555555555555596
:101B00005555555505550115011501150515555521
:101B10005555555555555555555555555555555575
:101B200055555555555515551515155515555555A5
:101B30005555405555551155145510555555005589
:101B40005555555555555555555554555055405560
:101B50004055005500550055555515150505050509
:101B600015550505000100000054505454555555B5
:101B7000555555555555555515150105000100018B
:101B80000515004100040000000510545555555539
:101B90005555555555555555555555551515050515
:101BA00005051515050500010000001440545454A6
:101BB00055555055555554555455545555555055E2
:101BC00055555555555555555555555555555555C5
:101BD0005555555554554055C0C1000000000000F2
:101BE00000004054000004040404050555555555F3
:101BF0005555555555550145F0F0000000000000C1
:101C00000000555500040000000101010101555577
:101C10005555555555555555555501013030000010
:101C200000000000445500000404C0C40101155523
:101C30005555555555555555555555555555555554
:101C40005555555555555555555555555555555544
:101C50005555555555555555545440400040004034
:101C600000400555000000000303FCFC5050555592
:101C70005555555555555555545400400040004054
:101C8000004005550040000000000303004054558B
:101C90005555555555555555555557574050004074
:101CA0000040004005550040000003030F4F404036
:101CB00055555555555555555555555555555555D4
:101CC00055555555555555555555555555555555C4
:101CD0005555555555555555015500550055005507
:101CE000005500550055005501551555555555558C
:101CF0005555555555551555005500550055005528
:101D000000550055005500550055055515555555BC
:101D1000555555555555555555550555005500556D
:101D200000550055005500550055015515555555A0
:101D30005555555555555555555555555555555553
:101D40005555555555555555555555555555555543
:101D5000555555550155005500554055505554554C
:101D60005555555554554055005500550155555537
:101D7000555515550155005500554055505554556C
:101D80005455555554554055005500550055055569
:101D90005555555555550555005500554055505507
:101DA00054555555555554555055405500550155A8
:101DB00055555555555555555555555555555555D3
:101DC00055555555555555555555555555555555C3
:101DD0005555005500555055555555555555555562
:101DE000555555555555555555555455005500554E
:101DF0000555005500555054545555555555555594
:101E000055555555555555555555545540550055ED
:101E100001551555005500555055555555555555B5
:101E20005555555555555555555555555455405578
:101E300000550555555555555555555555555555F7
:101E40005555555555555555555555555555555542
:101E5000011500455455555555555555555555552C
:101E60005555555555555555555555555555405537
:101E70000015000550555555555555555555555551
:101E80005555555555555555555555555555505507
:101E90000055001500455455555555555555555542
:101EA00055555555555555555555555555555555E2
:101EB0005055405501055555555555555555555590
:101EC0005555555540554055005500550055005540
:101ED00000550155055505555555555555555555FB
:101EE00055555555555515151515555555555555A2
:101EF0005555555555555555555555555555555592
:101F00005555555505550515051505150515555511
:101F10005555555555555555555555555555555571
:101F200055555555555555551555555555555555A1
:101F30005555405555551155145510555555005585
:101F4000555555555555555555555455505540555C
:101F50004055005500550055555515150505050505
:101F60005555050500010000005440515155555587
:101F70005555555555555555155505050101000142
:101F80000515010500040000000550545455555531
:101F90005555555555555555555555551515050511
:101FA0000505155505050011000000544051505518
:101FB00055555155545554555455545555555055DE
:101FC00055555555555555555555555555555555C1
:101FD000555555555455C0D5C1C1000000000000ED
:101FE00000004054000004040404050555555555EF
:101FF0005555555555550101F0F000000000000001
:10200000000055550404000001010101011555555A
:1020100055555555555555555555C1C1303000008C
:1020200000000000445400000404C0C401055555DC
:102030005555555555555555555555555555555550
:102040005555555555555555555555555555555540
:1020500055555555555555555050404000000000B8
:10206000000015550000000003033C3C5C5D555525
:102070005555555555555455505400400040004055
:1020800000400555004000000000030303035555C0
:102090005555555555555555555557574040004080
:1020A0000040000015550000000003030F0F4C5CBA
:1020B00055555555555555555555555555555555D0
:1020C00055555555555555555555555555555555C0
:1020D0005555555555555555015500550055005503
:1020E0000055005500550055015515555555555588
:1020F0005555555555551555005100550055005528
:102100000055005500550055005505555555555578
:102110005555555555555555555505550055005569
:10212000005500550055005500550155155555559C
:10213000555555555555555555555555555555554F
:10214000555555555555555555555555555555553F
:102150005555555501550055005540555055545548
:102160005455555554554055005500550155555534
:10217000555515550155005500554055505550556C
:102180005455555554554055005500550055055565
:102190005555555555550555005500554055505503
:1021A00054555455555554554055005500550155F5
:1021B00055555555555555555555555555555555CF
:1021C00055555555555555555555555555555555BF
:1021D000555500550055505555555555555555555E
:1021E000555555555555555555555455005500554A
:1021F0000555005500555054545555555555555590
:1022000055555555555555555555545540550055E9
:1022100001551555005500554055555555555555C1
:102220005555555555555555555555555455405574
:1022300000550155555555555555555555555555F7
:10224000555555555555555555555555555555553E
:10225000011500455055555555555555555555552C
:102260005555555555555555555555555555505523
:10227000001500055055555555555555555555554D
:1022800055555555555555555555555555555455FF
:102290000055001500455055555555555555555542
:1022A00055555555555555555555555555555555DE
:1022B0005455405501055555555555555555555588
:1022C000555555554055405500550055005500553C
:1022D00000550155055505555555555555555555F7
:1022E000555555555555555555555555555555559E
:1022F000555555555555555555555555555555558E
:10230000555555551555051505551555155555551D
:10231000555555555555555555555555555555556D
:10232000555555555555555555555555555555555D
:1023300055555055155511551455105555550055B1
:102340005555555555555555555554555055405558
:1023500040550055005500555555151505150505F1
:1023600045550105000100010051405141555555A9
:10237000555555555555555515550505010101013D
:102380001115040500000010001440545054555518
:1023900055555555555555555555555515150515FD
:1023A00005054555011500010000005140514155FA
:1023B00055555155545554555455555555555055D9
:1023C00055555555555555555555555555555555BD
:1023D0005555555554550005C1C1307000000000D9
:1023E00000005054000004040505050555555555D9
:1023F0005555555515550101FCFC004000000000E5
:102400000000455504040000010101010515555562
:1024100055555555555555550515F1F130300000B8
:1024200000000000545400000404C4C405055555C0
:10243000555555555555555555555555555555554C
:10244000555555555555555555555555555555553C
:102450005555555555555454505000400000C0C076
:10246000000015150000000000003030555555558E
:102470005555555555555454505000400040000096
:10248000000055550040000000000F0F000055559A
:10249000555555555555555554545F5F4041C0C02D
:1024A000C0C0000055550000000003030C0C4D5D3A
:1024B00055555555555555555555555555555555CC
:1024C00055555555555555555555555555555555BC
:1024D00055555555555555550155005500550055FF
:1024E0000055005500550055005017575555555586
:1024F0005555555555551555015100550055005523
:102500000055005500550055005504555555555575
:102510005555555555555555555505550055005565
:10252000005500550055005500550054155555559A
:10253000555555555555555555555555555555554B
:10254000555555555555555555555555555555553B
:102550005555155501550055005540555055545584
:102560005455545554554055005500150155555571
:102570005555155501550055005540555055505568
:102580005455545554554055005500550055055562
:1025900055555555555505550055005540555055FF
:1025A00054555455555554554055005500550155F1
:1025B00055555555555555555555555555555555CB
:1025C00055555555555555555555555555555555BB
:1025D000555500550055505555555555555555555A
:1025E0005555555555555555555554554055005506
:1025F000055500550055505554555555555555558B
:1026000055555555555555555555545550550055D5
:1026100001551555005500555055555555555555AD
:102620005555555555555555555555555455405570
:1026300000550155555555555555555555555555F3
:10264000555555555555555555555555555555553A
:102650001515004550555555555555555555555514
:10266000555555555555555555555555555550551F
:102670000005001550555555555555555555555549
:1026800055555555555555555555555555555455FB
:1026900040550015004550555555555555555555FE
:1026A00055555555555555555555555555555555DA
:1026B0005455404501055555555555555555555594
:1026C0005555555540554055005500550055005538
:1026D00000550155055505555555555555555555F3
:1026E000555555555555555555555555555555559A
:1026F000555555555555555555555555555555558A
:102700005555555515551555155515555555555579
:102710005555555555555555555555555555555569
:102720005555555555555555555555555555555559
:1027300055555455155511551455105555550055A9
:102740005555555555555555555554555055405554
:10275000405500550055005555555555151515153D
:102760005555011501010105014541455555555581
:1027700055555555555555555555151505050505C9
:1027800015150005001100010055405140515555E7
:102790005555555555555555555555555555151569
:1027A00015155555011501010005014141455555C6
:1027B00055555155545554555455555555555055D5
:1027C00055555555555555555555555555555555B9
:1027D0005555555554551015C1C100400000000015
:1027E00000015454101000000001151555555555A1
:1027F0005555555515150105F0F0405000000000E5
:102800000000010500000004000001015555555568
:1028100055555555555555551515C1C130700000C4
:102820000000000004541010000400010505555577
:102830005555555555555555555555555555555548
:102840005555555555555555555555555555555538
:1028500055555555555550507373010100000000F2
:10286000000015550000000000003030555555554A
:1028700055555555545450504040004000000000FC
:10288000000010550000000000000C0C0000555521
:10289000555555555555555550507070010100000E
:1028A0000000000010550000000003033C3C4545BB
:1028B00055555555555555555555555555555555C8
:1028C00055555555555555555555555555555555B8
:1028D00055555555555555550155005500550055FB
:1028E0000055005500550054005014545555555589
:1028F000555555555555155501510055005500551F
:102900000055005500550055005404545454555575
:102910005555555555555555555505550055005561
:102920000055005500550055005500541454555598
:102930005555555555555555555555555555555547
:102940005555555555555555555555555555555537
:102950005555155501550055005540555055545580
:102960005455545550554055005500550155555531
:102970005555155501550055005540555055545560
:102980005455545550554055005500550055055562
:1029900055555555555505550055005540555055FB
:1029A00054555455555554554055005500550155ED
:1029B00055555555555555555555555555555555C7
:1029C00055555555555555555555555555555555B7
:1029D0005555005500555455555555555555555552
:1029E0005555555555555555555554554055005502
:1029F0000155005500555454545555555555555588
:102A000055555555555555555555545540550055E1
:102A100001551555005500555055555555555555A9
:102A2000555555555555555555555555545440546E
:102A300000550155555555555555555555555555EF
:102A40005555555555555555555555555555555536
:102A5000051500455455555555555555555555551C
:102A6000555555555555555555555555555550551B
:102A70000005000554555555555555555555555551
:102A800055555555555555555555555555555455F7
:102A900040550015004554555555555555555555F6
:102AA00055555555555555555555555555555555D6
:102AB0005455404501055555555555555555555590
:102AC0005555555540554055005500550055005534
:102AD00000550155055505555555555555555555EF
:102AE0005555555555555555555555555555555596
:102AF0005555555555555555555555555555555586
:102B00005555555555555555555555555555555575
:102B10005555555555555555555555555555555565
:102B20005555555555555555555555555555555555
:102B300055555555155511551455105555550055A4
:102B40005555555555555555555554555055405550
:102B500040550055005500555555555555551515B9
:102B600055550515010501050145051555555555E1
:102B700055555555555555555555151505150505B5
:102B8000151500050001000100510055415555552E
:102B900055555555555555555555555555555555E5
:102BA0001515555505150105010501450515555521
:102BB00055555155545554555455555555555055D1
:102BC00055555555555555555555555555555555B5
:102BD00055555555545510150505C0C00000000049
:102BE00000000454001000100011151555555555DE
:102BF0005555555515550505C0C14040000000000C
:102C00000000010100500404040401051555555548
:102C1000555555555555555515150505C0C0000058
:102C20000000000004050050001000011515555566
:102C30005555555555555555555555555555555544
:102C40005555555555555555555555555555555534
:102C5000555555555555505043430101000000004E
:102C6000000010550000000000003030555555554B
:102C70005555555554545050434300000000000032
:102C8000000000000C0C000000003C3C000055550A
:102C90005555555555555555505073730101000004
:102CA0000000000000500000000000003C3C717576
:102CB00055555555555555555555555555555555C4
:102CC00055555555555555555555555555555555B4
:102CD00055555555555555550155005500550055F7
:102CE0000055005500550054005014545555555585
:102CF0005555555555551555015500550055005517
:102D00000055005500550055005414545454555561
:102D1000555555555555555555550555005500555D
:102D20000055005500550055005400541454555595
:102D30005555555555555555555555555555555543
:102D40005555555555555555555555555555555533
:102D5000555515550155005500554055505554557C
:102D6000545554555055405500550055015555552D
:102D70005555155501550055005540555055505560
:102D8000545554555055405500550055005505555E
:102D900055555555555501550055005540555055FB
:102DA00054555455545554554045005500550155FA
:102DB0001555555555555555555555555555555503
:102DC00055555555555555555555555555555555B3
:102DD000555500550055545455555555555555554F
:102DE00055555555555555555555545540550055FE
:102DF0000155005500555455555555555555555582
:102E000055555555555555555555545550550055CD
:102E100001551555005500555454555555555555A2
:102E2000555555555555555555555555545440546A
:102E300000550155555555555555555555555555EB
:102E40005555555555555555555555555555555532
:102E5000011500455455555555555555555555551C
:102E60005555555555555555555555555555505517
:102E7000000500055455555555555555555555554D
:102E800055555555555555555555555555555455F3
:102E900040550015004554555555555555555555F2
:102EA00055555555555555555555555555555555D2
:102EB000545540450105555555555555555555558C
:102EC0005555555540550055005500550055005570
:102ED00000550155055505555555555555555555EB
:102EE0005555555555555555555555555555555592
:102EF0005555555555555555555555555555555582
:102F00005555555555555555555555555555555571
:102F10005555555555555555555555555555555561
:102F20005555555555555555555555555555555551
:102F300055555555155511551455105555550055A0
:102F4000555555555555555555555455505540554C
:102F50004055005500550055555555555555555535
:102F60005555155505150105055505155555555565
:102F70005555555555555555555515551515051551
:102F800015150155000500050055014545555555D8
:102F900055555555555555555555555555555555E1
:102FA00055555555555505150105054505155555F5
:102FB00055555155545554555455555555555055CD
:102FC00055555555555555555555555555555555B1
:102FD00055555555545510150505C1C10000000043
:102FE00000000404005000101011151555555555DA
:102FF0005555555555550505C1C1404000000000C7
:10300000000000010054001400040101055555554D
:103010005555555555555555151505050101004092
:103020000000000001050050005000111515555515
:103030005555555555555555555555555555555540
:103040005555555555555555555555555555555530
:103050005555555555555050434301050000000046
:1030600000000050000100000000303005455555BB
:10307000555555555454505043430001000000002D
:103080000000000000150000000000000000555581
:1030900055555555555555555C5C43430505000040
:1030A0000000000000000005000000003C3C3175FD
:1030B00055555555555555555555555555555555C0
:1030C00055555555555555555555555555555555B0
:1030D00055555555555555550555005500550055EF
:1030E0000055005500540054005014545555555582
:1030F0005555555555551555015500550055005513
:103100000055005500550054005400545454555572
:103110005555555555555555555505550155005558
:103120000055005500550055005400541454555591
:10313000555555555555555555555555555555553F
:10314000555555555555555555555555555555552F
:103150005555155501550055005540555055545578
:103160005455545550554055005500550155555529
:10317000555505550155005500554055505550556C
:10318000545554555055405500550055005505555A
:103190005555555515550155005500554055505537
:1031A000545554555455505540550015005501552A
:1031B00015555555555555555555555555555555FF
:1031C00055555555555555555555555555555555AF
:1031D000555500550055545455555555555555554B
:1031E00055555555555555555555545540550055FA
:1031F000015500550055545455555555555555557F
:1032000055555555555555555555545550550055C9
:10321000005515550055005554555555555555559E
:103220005555555555555555555555555455505554
:1032300000550155555555555555555555555555E7
:10324000555555555555555555555555555555552E
:103250000005004555555555555555555555555528
:103260005555555555555555555555555555505513
:103270000005000554555555555555555555555549
:1032800055555555555555555555555555555455EF
:1032900040550015004554555555555555555555EE
:1032A00055555555555555555555555555555555CE
:1032B0005455404500055555555555555555555589
:1032C000555555554055005500550055005500556C
:1032D00000550155055505555555555555555555E7
:1032E000555555555555555555555555555555558E
:1032F000555555555555555555555555555555557E
:10330000555555555555555555555555555555556D
:10331000555555555555555555555555555555555D
:10332000555555555555555555555555555555554D
:10333000555555551555115514551055555500559C
:103340005555555555555555555554555055405548
:103350004055005500550055555555555555555531
:10336000555555550515050505550515555555551D
:10337000555555555555555555555555155515557D
:103380001555555501050005C0C501450145555563
:1033900055555555555555555555555555555555DD
:1033A00055555555555505150515055505155555CD
:1033B00055555155545554555455555555555055C9
:1033C00055555555555555555555555555555555AD
:1033D00055555555545510150505010100000000BF
:1033E000000000050050004010510455555555553A
:1033F0005555555555550515C1C50001000000002E
:1034000000000000045410500050001105155555DF
:10341000555555555555555555550505C1C100408E
:1034200000000000010110500040005004155555E7
:10343000555555555555555555555555555555553C
:10344000555555555555555555555555555555552C
:10345000555555555555505043430505000000003E
:10346000000000000015000100003030C1C15555BA
:103470005555555554545F5F7373010500000000A6
:103480000000000010553031000000000C0C015508
:103490005555555555555555505043430505000054
:1034A0000000000000000055000000000000313165
:1034B00055555555555555555555555555555555BC
:1034C00055555555555555555555555555555555AC
:1034D00055555555555555550555015500550055EA
:1034E000005400540054005400501C5C5555555570
:1034F000555555555555155501550055005500550F
:103500000055005500550054005400545054555572
:103510005555555555555555555515550155005544
:103520000055005500540054005400541454545491
:10353000555555555555555555555555555555553B
:10354000555555555555555555555555555555552B
:103550005555155501550055005540555055545574
:103560005455545550554055005500550155555525
:103570005555055500550055005540555055505569
:103580005455545550554055005500550055055556
:1035900055555555155501550055405540555055F3
:1035A00054555455545550554055005500550155E6
:1035B00015555555555555555555555555555555FB
:1035C00055555555555555555555555555555555AB
:1035D0001555005500555555555555555555555585
:1035E00055555555555555555555545540550055F6
:1035F000005500550055545455555555555555557C
:1036000055555555555555555555545550550055C5
:1036100000550555005500555555555555555555A9
:103620005555555555555555555555555455505550
:1036300000550155555555555555555555555555E3
:10364000555555555555555555555555555555552A
:103650000005004555555555555555555555555524
:10366000555555555555555555555555555554550B
:103670000005000554555555555555555555555545
:1036800055555555555555555555555555555455EB
:1036900040550015004555555555555555555555E9
:1036A00055555555555555555555555555555555CA
:1036B0005455404500055555555555555555555585
:1036C0005555555540550055005500550055005568
:1036D00000550155055505555555555555555555E3
:1036E000555555555555555555555555555555558A
:1036F000555555555555555555555555555555557A
:103700005555555555555555555555555555555569
:103710005555555555555555555555555555555559
:103720005555555555555555555555555555555549
:103730005555555515551155145510555555005598
:103740005555555555555555555554555055405544
:10375000005500550055005555555555555555556D
:103760005555555515550515051505151515555579
:1037700055555555555555555555555555555555F9
:10378000555555550155014501050145014545551D
:1037900055555555555555555555555555555555D9
:1037A0005555555555551555051505150515151539
:1037B00055555155545554555455555555555055C5
:1037C00055555555555555555555555555555555A9
:1037D000555555555455505515150505010101010F
:1037E000010100051050000140400045145455559A
:1037F00055555555555515150505C1C10001000113
:103800000000000004044040404010101111151544
:103810005555555555555555555515150505010120
:10382000010100010101101000004040004114148A
:103830005555555555555555555555555555555538
:103840005555555555555555555555555555555528
:1038500055555555515540500C4C04040303000078
:10386000000000001054000100000000F0F0555569
:103870005555555550544353434305050001000029
:1038800000000000505000010000000000000C0C7F
:10389000555555555555555550504F4F070701052E
:1038A0000000000000005054000100000000C0C0F3
:1038B00055555555555555555555555555555555B8
:1038C00055555555555555555555555555555555A8
:1038D00055555555555555551555015500550054D7
:1038E000005400540054005000505C5C5454555532
:1038F0005555555555551555055501550055005506
:10390000035700540054005400501C5C5C5C555537
:103910005555555555555555555515550155005540
:103920000055005400540054005400501C5C545482
:103930005555555555555555555555555555555537
:103940005555555555555555555555555555555527
:103950005555055501550055405540555055505544
:103960005455545550554055005500550155155561
:1039700015550555005500550055405550555055A5
:103980005455505550554055005500550055055556
:1039900055555555055501550055405540555055FF
:1039A00054555455545550554055005500550155E2
:1039B00015555555555555555555555555555555F7
:1039C00055555555555555555555555555555555A7
:1039D0000155005500555555555555555555555595
:1039E00055555555555555555555545540550055F2
:1039F0000055005500555455555555555555555577
:103A000055555555555555555555545450550055C2
:103A100000550555005500555555555555555555A5
:103A2000555555555555555555555555545550554C
:103A300000550155555555555555555555555555DF
:103A40005555555555555555555555555555555526
:103A50000005004555555555555555555555555520
:103A60005555555555555555555555555555445517
:103A700000453035555555555555555555555555A0
:103A800055555555555555555555555555555455E7
:103A900040550015004555555555555555555555E5
:103AA00055555555555555555555555555555555C6
:103AB0005455404500055555555555555555555581
:103AC0005555555540550055005500550055005564
:103AD00000550155055515555555555555555555CF
:103AE0005555555555555555555555555555555586
:103AF0005555555555555555555555555555555576
:103B00005555555555555555555555555555555565
:103B10005555555555555555555555555555555555
:103B20005555555555555555555555555555555545
:103B30005555555515551155545510555555005554
:103B40005555555555555555555554555055405540
:103B50000055005500550055555555555555555569
:103B600055555555555515550515051515555555A5
:103B700055555555555555555555555555555555F5
:103B800055555555555501150105010501550515A5
:103B900055555555555555555555555555555555D5
:103BA00055555555555555551555051505150515B5
:103BB0001555515554555455555555555555505500
:103BC00055555555555555555555555555555555A5
:103BD000555555555455505555551515151505053B
:103BE00005050505111100000000000100445455B1
:103BF00055555555555555551515051505050105C9
:103C0000010101010405105000000041404104453C
:103C100015155555555555555555555515151515D4
:103C2000050505050505111140400000000100448F
:103C30005455555555555555555555555555555535
:103C40005555555555555555555555555555555524
:103C500055555555555541410C0C141417170C0C5E
:103C6000000000000040011500010101C0C0F0F09B
:103C700055555555515140400C0C14140404000086
:103C80000000000000001014000100010000C0C08E
:103C900040405555555555557171CCCC14141717D6
:103CA00000000000000000401015000100010000AD
:103CB000F0F055555555555555555555555555557E
:103CC00055555555555555555555555555555555A4
:103CD00055555555555555551555005400540054D6
:103CE0000054005001510050004050505054555560
:103CF00055555555555555551555015500550054B3
:103D000000540054015100500050101050505454B1
:103D1000555555555555555555551555015500553C
:103D20000054005400500151005000505050505069
:103D30005555555555555555555555555555555533
:103D40005555555555555555555555555555555523
:103D50005555055501550055405540555055505540
:103D60005055505550554055005500550155155565
:103D700015550555005500550055405550555055A1
:103D80005055505540554055005500550055055566
:103D900055555555055501550055405540555055FB
:103DA00050555455505550554055005500550055E7
:103DB00015555555555555555555555555555555F3
:103DC00055555555555555555555555555555555A3
:103DD0000055005540555555555555555555555552
:103DE00055555555555555555555545550550055DE
:103DF0000055005550555555555555555555555522
:103E000055555555555555555555545550550055BD
:103E100000550055005500555555555555555555A6
:103E20005555555555555555555555555455505548
:103E300000550155555555555555555555555555DB
:103E40005555555555555555555555555555555522
:103E5000000500455555555555555555555555551C
:103E60005555555555555555555555555555445513
:103E7000000500155555555555555555555555552C
:103E800055555555555555555555555555555455E3
:103E900040550005004555555555555555555555F1
:103EA00055555555555555555555555555555555C2
:103EB00054550045000555555555555555555555BD
:103EC0005555555540550055005500550055005560
:103ED00000550155055515555555555555555555CB
:103EE0005555555555555555555555555555555582
:103EF0005555555555555555555555555555555572
:103F00005555555555555555555555555555555561
:103F10005555555555555555555555555555555551
:103F20005555555555555555555555555555555541
:103F30005555555515551155545510555555005550
:103F4000555555555555555555555455505540553C
:103F50000055005500550055555555555555555565
:103F60005555555555555555155515551555155501
:103F700055555555555555555555555555555555F1
:103F80005555555555550555051501150515051575
:103F90001555555555555555555555555555555511
:103FA00055555555555555555555155515151555C1
:103FB00015555155545554555555555555555055FC
:103FC00055555555555555555555555555555555A1
:103FD0005555555554555055555555555555151517
:103FE0001515151505150005000000010014101029
:103FF0005555555555555555555515550555051591
:104000000115010505054141000000400041004542
:104010001455555555555555555555555555555591
:10402000151515151515151504450000000000445B
:104030001054555555555555555555555555555576
:104040005555555555555555555555555555555520
:104050005555555555555555050531315C5C3C3C1C
:1040600000000000000001550001000500000001F3
:1040700055555555555540550001000400140C0C7C
:1040800000000000000040400005000400010001A5
:10409000307155555555555555554545010110102B
:1040A0003C3C00000000000001410001000500014F
:1040B0000001515155555555555555555555555561
:1040C00055555555555555555555555555555555A0
:1040D00055555555555555551555045400540054CE
:1040E0000050005000510040004040405050545596
:1040F00055555555555555551555045500540054AD
:104100000050005000550040004000004050505406
:104110005555555555555555555515550454005437
:1041200000540050005000550040004000405050E6
:104130005455555555555555555555555555555530
:10414000555555555555555555555555555555551F
:10415000155505550155005540554055505550557C
:104160005055505540554055005500550155155571
:1041700015550555015500550055405540555055AC
:104180005055505540554055005500550055055562
:1041900055555555055501550055405540555055F7
:1041A00050555055505550554055005500550155E6
:1041B00015555555555555555555555555555555EF
:1041C000555555555555555555555555555555559F
:1041D000005500555055555555555555555555553E
:1041E00055555555555555555555545550550055DA
:1041F000005500555455555555555555555555551A
:1042000055555555555555555555545550550055B9
:104210000055005500554055555555555555555562
:104220005555555555555555555555555455505148
:1042300000550155555555555555555555555555D7
:10424000555555555555555555555555555555551E
:104250000005004555555555555555555555555518
:104260005555555555555555555555555555405513
:104270000005001555555555555555555555555528
:1042800055555555555555555555555555555455DF
:1042900040550005004555555555555555555555ED
:1042A00055555555555555555555555555555555BE
:1042B00054550055000555555555555555555555A9
:1042C000555555554055005500550055005500555C
:1042D00000550155055515555555555555555555C7
:1042E000555555555555555555555555555555557E
:1042F000555555555555555555555555555555556E
:10430000555555555555555555555555555555555D
:10431000555555555555555555555555555555554D
:10432000555555555555555555555555555555553D
:10433000555555551555115554551055555500554C
:104340005555555555555555555554555055405538
:104350000055005500550055555555555555555561
:1043600055555555555555555555555555555555FD
:1043700055555555555555555555555555555555ED
:10438000555555555555555505550555055505551D
:10439000155555555555555555555555555555550D
:1043A00055555555555555555555555555555555BD
:1043B00055555155545554555555555555555055B8
:1043C000555555555555555555555555555555559D
:1043D00055555555545550555555555555551555D3
:1043E00015151515054505050001000000141051AF
:1043F00055555555555555555555555555551515ED
:1044000005150505050541450005000000000014DF
:104410005054505555555555555555555555555557
:104420001555151515151515050500010010000485
:104430001050545555555555555555555555555577
:10444000555555555555555555555555555555551C
:10445000555555555555555555550505115130303E
:1044600000000000000000550000000400040005EA
:1044700055555555555555550155000500100C0C11
:10448000000000000000405504040404000500057D
:104490000004555555555555555555550505D1D11A
:1044A000303000000000000001550000040400044A
:1044B0000005414555555555555555555555555575
:1044C000555555555555555555555555555555559C
:1044D000555555555555555555551455005400507D
:1044E00000500050014500400040004050505454DE
:1044F000555555555555555555550455005400506D
:104500000050005004440040004000000040405073
:1045100050555555555555555555555515550054E6
:104520000050005000500445004000400000505032
:10453000545455555555555555555555555555552D
:10454000555555555555555555555555555555551B
:1045500015550555015500550055405540555055C8
:10456000505550554055405500550055015515556D
:1045700015550555015500550055005540554055F8
:1045800040554055405500550055005500550155C2
:104590005555555505550155005500554055405543
:1045A00050555055505550554055005500550155E2
:1045B00015555555555555555555555555555555EB
:1045C000555555555555555555555555555555559B
:1045D000005500555054555555555555555555553B
:1045E00055555555555555555555545550550055D6
:1045F0000055005554555455555555555555555517
:1046000055555555555555555555545550550055B5
:10461000005500550055405555555555555555555E
:104620005555555555555555555555555455505144
:1046300000550155555555555555555555555555D3
:10464000555555555555555555555555555555551A
:104650000005004555555555555555555555555514
:10466000555555555555555555555555555540550F
:104670000005001555555555555555555555555524
:1046800055555555555555555555555555555555DA
:1046900040550005004555555555555555555555E9
:1046A00055555555555555555555555555555555BA
:1046B00054550015000555555555555555555555E5
:1046C0005555555540550055005500550055005558
:1046D00000550155055515555555555555555555C3
:1046E000555555555555555555555555555555557A
:1046F000555555555555555555555555555555556A
:104700005555555555555555555555555555555559
:104710005555555555555555555555555555555549
:104720005555555555555555555555555555555539
:104730005555555515551155545510555555005548
:104740005555555555555555555554555055405534
:10475000005500550055005555555555555555555D
:1047600055555555555555555555555555555555F9
:1047700055555555555555555555555555555555E9
:104780005555555555555555555515551555155599
:104790001555555555555555555555555555555509
:1047A00055555555555555555555555555555555B9
:1047B00055555155545554555555555555555055B4
:1047C0005555555555555555555555555555555599
:1047D00055555555545550555555555555551555CF
:1047E000151515150555050501010010001100519D
:1047F0004151555555555555555555555555151501
:1048000005050505050545450405000100000014E2
:10481000405050505555555555555555555555556C
:1048200015151515151515150505050500110001BA
:10483000005140515555555555555555555555559A
:104840005555555555555555555555555555555518
:10485000555555555555555555550505010130309A
:104860000000000000000414000000100004000418
:1048700045555555555555555555050500000000EC
:104880000000000000000555040404040004C0D426
:104890000005555555555555555555553575010115
:1048A0003030000000000000055500000004001436
:1048B000000445455555555555555555555555556E
:1048C0005555555555555555555555555555555598
:1048D000555555555555555555551555005000507C
:1048E000005000403175004000000000434350502C
:1048F000555555555555555555550555005000506C
:1049000000500040347500400040000000000343A8
:1049100050505555555555555555555515550054E7
:1049200000500050004035750040004000004040FD
:104930005F5F555555555555555555555555555513
:104940005555555555555555555555555555555517
:10495000555515550555015500554055405540557F
:1049600050555055405500550055005501551555A9
:1049700015550555015501550055005540554055F3
:1049800040554055405500550055005501550155BD
:10499000555555551555055501550055405540552A
:1049A00040555055505540554055005500550155FE
:1049B00015555555555555555555555555555555E7
:1049C0005555555555555555555555555555555597
:1049D0000055005540545555555555555555555547
:1049E00055555555555555555555545550550055D2
:1049F0000055005540555455545555555555555528
:104A000055555555555555555555545550510055B5
:104A10000055015500550055555555555555555599
:104A2000555555555555555555555555545550553C
:104A300000550155555555555555555555555555CF
:104A40005555555555555555555555555555555516
:104A50000005004555555555555555555555555510
:104A6000555555555555555555555555555540550B
:104A70000005001555555555555555555555555520
:104A800055555555555555555555555555555455D7
:104A900040550005004555555555555555555555E5
:104AA00055555555555555555555555555555555B6
:104AB00054550015000555555555555555555555E1
:104AC0005555555540550055005500550055005554
:104AD00000550155055515555555555555555555BF
:104AE0005555555555555555555555555555555576
:104AF0005555555555555555555555555555555566
:104B00005555555555555555555555555555555555
:104B10005555555555555555555555555555555545
:104B20005555555555555555555555555555555535
:104B30005555555515551155545510555555005544
:104B40005555555555555555555554555055405530
:104B50000055005500550055555555555555555559
:104B600055555555555555555555555555555555F5
:104B700055555555555555555555555555555555E5
:104B80005555555555555555555555555555155515
:104B900055555555555555555555555555555555C5
:104BA00055555555555555555555555555555555B5
:104BB00055555155545554555555555555555055B0
:104BC0005555555555555555555555555555555595
:104BD000555555555455505555555555555515150B
:104BE00015150505151505050515010100010051EF
:104BF0000145455555555555555555555555151559
:104C000005050505050545550505000100010011CF
:104C100000514051455555555555555555555555C6
:104C200015151515050505150505050501010001F5
:104C30000051014141455555555555555555555509
:104C40005555555555555555555555555555555514
:104C500055555555555555555555050500000000F8
:104C60000000000000400010000000100010004193
:104C700055555555555555555555010100001C1CA8
:104C800000000000000015150404000000001010D2
:104C90000011555555555555555555550545010165
:104CA00000000000000000000415000000001010CB
:104CB000001045455555555555555555555555555E
:104CC0005555555555555555555555555555555594
:104CD0005555555555555555555515550050005078
:104CE000005000400145004000000000000040402E
:104CF0005555555555555555555515550054005054
:104D000000503070045500400040000000003C3C62
:104D100040505555555555555555555515550454EF
:104D20000050005000400545004000400000C0C059
:104D3000404055555555555555555555555555554D
:104D40005555555555555555555555555555555513
:104D500055551555055501550055005540554055BB
:104D600040555055405500550055005501551555B5
:104D7000555515550555015500550055001540551B
:104D800040554055405500550055005500550155BA
:104D90005555555515550555015500550055405566
:104DA00040555055505540554055005500550155FA
:104DB00015555555555555555555555555555555E3
:104DC0005555555555555555555555555555555593
:104DD000055500550055545455555555555555557F
:104DE00055555555555555555455505540550055E3
:104DF0000055005500555455545555555555555564
:104E000055555555555555555555545550510055B1
:104E10000055055500550055545455555555555593
:104E20005555555555555555555555555455505538
:104E300000550155555555555555555555555555CB
:104E40005555555555555555555555555555555512
:104E5000000500455555555555555555555555550C
:104E60005555555555555555555555555555405507
:104E7000000500155555555555555555555555551C
:104E800055555555555555555555555555555455D3
:104E900040550005004555555555555555555555E1
:104EA00055555555555555555555555555555555B2
:104EB00054550005050555555555555555555555E8
:104EC0005555555540550055005500550055005550
:104ED00000550155055515555555555555555555BB
:104EE0005555555555555555555555555555555572
:104EF0005555555555555555555555555555555562
:104F00005555555555555555555555555555555551
:104F10005555555555555555555555555555555541
:104F20005555555555555555555555555555555531
:104F30005555555515551155545510555555005540
:104F4000555555555555555555555455505540552C
:104F50000055005500550055555555555555555555
:104F600055555555555555555555555555555555F1
:104F700055555555555555555555555555555555E1
:104F80005555555555555555555555555555155511
:104F900055555555555555555555555555555555C1
:104FA00055555555555555555555555555555555B1
:104FB00055555155545554555555555555555055AC
:104FC0005555555555555555555555555555555591
:104FD0005555555554555055555555555555151507
:104FE0000505050515550505051501010041014596
:104FF0000105555555555555555555551515050525
:1050000001050105010541410505000100010011EF
:1050100000514041555555555555555555555555C2
:10502000151505050505051505050505010500010D
:10503000005101450545555555555555555555553D
:105040005555555555555555555555555555555510
:1050500055555555555555555555010100000000FC
:1050600000000000000000100000000000400001EF
:105070005555555555555555555500010C0C0303BF
:10508000000000000000155504040010004000401E
:105090000105555555555555555555550141000076
:1050A0001010000000000000041500000000404047
:1050B000000055555555555555555555555555554A
:1050C0005555555555555555555555555555555590
:1050D0005555555555555555555515550054005070
:1050E0000050307005450040004000000000404185
:1050F0005555555555555555555515550054005050
:1051000000500040045400400040000000003C3DBE
:1051100050555555555555555555555515550454D6
:105120000050005000400445004000400000C0C056
:10513000404151555555555555555555555555554C
:10514000555555555555555555555555555555550F
:1051500055551555055501550055005540554055B7
:1051600040554055405500550055005501551555C1
:1051700055551555055501550055005500554055D7
:1051800040554055405500550055005501550155B5
:105190005555555515550555015500550055405562
:1051A0004055405550554055405500550055015506
:1051B00015555555555555555555555555555555DF
:1051C000555555555555555555555555555555558F
:1051D000055500550055545555555555555555557A
:1051E00055555555555555555455505540550055DF
:1051F0000055005500555455545455555555555561
:1052000055555555555555555455505550550055AE
:10521000015515550055005554545555555555557E
:105220005555555555555555555555555455505534
:1052300000550155555555555555555555555555C7
:10524000555555555555555555555555555555550E
:105250000005004555555555555555555555555508
:1052600055555555555555555555555555555055F3
:105270000005001555555555555555555555555518
:1052800055555555555555555555555555555455CF
:1052900040550005004555555555555555555555DD
:1052A00055555555555555555555555555555555AE
:1052B00054550005050555555555555555555555E4
:1052C000555555554055005500550055005500554C
:1052D00000550155055515555555555555555555B7
:1052E000555555555555555555555555555555556E
:1052F000555555555555555555555555555555555E
:10530000555555555555555555555555555555554D
:10531000555555555555555555555555555555553D
:10532000555555555555555555555555555555552D
:10533000555555551555115554551055555500553C
:105340005555555555555555555554555055405528
:105350000055005500550055555555555555555551
:1053600055555555555555555555555555555555ED
:1053700055555555555555555555555555555555DD
:10538000555555555555555555555555555515550D
:1053900055555555555555555555555555555555BD
:1053A00055555555555555555555555555555555AD
:1053B00055555155545554555555555555555055A8
:1053C000555555555555555555555555555555558D
:1053D00055555555545550555555555515150505A3
:1053E0000505050555550505011501010055014542
:1053F000050555555555555555551555C5D50505ED
:10540000010101011555014101050001000100558F
:105410000041414555555555555555555555151549
:105420000505050505055555050505050105005149
:105430000045010555555555555555555555555525
:10544000555555555555555555555555555555550C
:105450005555555555555555414500000C0C000006
:10546000000000004055000000100000000005553D
:105470005555555555555555415500000F0F0000D0
:10548000000000000040045500040040000000013E
:1054900005555555555555555555555500013C3CE7
:1054A00000000000000000410004001000000000A7
:1054B000050555555555555555555555555555553C
:1054C000555555555555555555555555555555558C
:1054D0005555555555555555555515550C5C005058
:1054E000005000400545004000400001C0D050552C
:1054F0005555555555555555555505550050005060
:10550000005030701555004000400040C0C10050B0
:1055100055555555555555555555555515550454CD
:1055200000500050004005550040004000000317A7
:105530005050555555555555555555555555555525
:10554000555555555555555555555555555555550B
:1055500055551555055501550055005540554055B3
:10556000405550554055405500550055015515556D
:1055700055551555055501550055005500554055D3
:1055800040554055405500550055005500550155B2
:10559000555555555555055501550055005540551E
:1055A0004055405550554055405500550055015502
:1055B00015555555555555555555555555555555DB
:1055C000555555555555555555555555555555558B
:1055D0005555005500555454555555555555555527
:1055E00055555555555555555455545540550055D7
:1055F000015500550055545554555555555555555B
:1056000055555555555555555555505550550051AD
:10561000015515550055005554545555555555557A
:105620005555555555555555555555555455505530
:1056300000550155555555555555555555555555C3
:10564000555555555555555555555555555555550A
:1056500000150045555555555555555555555555F4
:1056600055555555555555555555555555555055EF
:105670000005001555555555555555555555555514
:1056800055555555555555555555555555555455CB
:1056900040550015004555555555555555555555C9
:1056A00055555555555555555555555555555555AA
:1056B00054550005050555555555555555555555E0
:1056C0005555555540550055005500550055005548
:1056D00000550155055515555555555555555555B3
:1056E000555555555555555555555555555555556A
:1056F000555555555555555555555555555555555A
:105700005555555555555555555555555555555549
:105710005555555555555555555555555555555539
:105720005555555555555555555555555555555529
:105730005555555515551555545510555555005534
:105740005555555555555555555554555055405524
:10575000005500550055005555555555555555554D
:1057600055555555555555555555555555555555E9
:1057700055555555555555555555555555555555D9
:105780005555555555555555555555555555155509
:1057900055555555555555555555555555555555B9
:1057A00055555555555555555555555555555555A9
:1057B00054555155545554555555555555555055A5
:1057C0005555555555555555555555555555555589
:1057D000555555555455505555555555151505059F
:1057E00005050555055505050105015501550145F9
:1057F000555555555555555555551515050501051D
:105800000101010541550105000500010055005148
:105810000055415555555555555555555555151521
:105820000505050505150555050501010011005182
:10583000014555555555555555555555555555557C
:105840005555555555555555555555555555555508
:105850005555555555555555717100001C1C000086
:10586000000000000455000000100000050555551B
:10587000555555555555555500413C3C0C0C0000AF
:105880000000000000550004001400400000015515
:1058900055555555555555555555515503031C1CD2
:1058A000000000000000415500040010000001014C
:1058B0005555555555555555555555555555555598
:1058C0005555555555555555555555555555555588
:1058D000555555555555555555550454005000507E
:1058E0000050004000450040004000014050555528
:1058F000555555555555555555550455005000505D
:10590000005000400555004000400040C0C14C5CC4
:10591000555555555555555555555555151500540D
:10592000005000500050015500400040000000545D
:105930005555555555555555555555555555555517
:105940005555555555555555555555555555555507
:1059500055551555055501550055005540554055AF
:105960004055505540554055005500550155155569
:1059700055551555055501550055005500554055CF
:10598000405540554055405500550055005501556E
:10599000555555555555055501550055005540551A
:1059A00040554055505550554055005500550155EE
:1059B00015555555555555555555555555555555D7
:1059C0005555555555555555555555555555555587
:1059D0005555005500555455555555555555555522
:1059E00055555555555555555555545540550055D2
:1059F0000155005500555455545555555555555557
:105A000055555555555555555555505550550051A9
:105A10000155055500550055545455555555555586
:105A2000555555555555555555555555545550552C
:105A300000550155555555555555555555555555BF
:105A40005555555555555555555555555555555506
:105A5000555500555455555555555555555555554C
:105A600055555555555555555555555555555055EB
:105A70000005001550555555555555555555555515
:105A800055555555555555555555555555555455C7
:105A900040550015004554555555555555555555C6
:105AA00055555555555555555555555555555555A6
:105AB000545500450505555555555555555555559C
:105AC0005555555540550055005500550055005544
:105AD00000550155055515555555555555555555AF
