:020000040800F2
:10000000000700204501000835170008F915000811
:10001000311700086D020008E11B00080000000015
:10002000000000000000000000000000E9180008C7
:100030007102000800000000651700081D19000883
:100040005F0100085F0100085F0100085F01000810
:100050005F0100085F0100085F0100085F01000800
:100060005F0100085F0100085F0100085F010008F0
:100070005F0100085F0100085F0100085F010008E0
:100080005F0100085F0100085F0100085F010008D0
:100090005F0100085F0100085F0100085F010008C0
:1000A0005F0100085F0100085F0100085F010008B0
:1000B0005F0100085F0100085F0100085F010008A0
:1000C0005F0100085F0100085F0100085F01000890
:1000D0005F010008D11B00085F0100085F010008F4
:1000E0005F0100085F0100085F0100085F01000870
:1000F0005F0100085F0100085F0100085F01000860
:100100005F0100085F0100085F0100085F0100084F
:100110005F0100085F0100085F0100085F0100083F
:100120005F0100085F0100085F0100085F0100082F
:10013000DFF80CD000F068F8004800479D1F000869
:10014000000700200648804706480047FEE7FEE714
:10015000FEE7FEE7FEE7FEE7FEE7FEE7FEE7FEE777
:100160007D19000831010008D2B201E000F8012B2E
:10017000491EFBD270470022F6E710B513460A4627
:1001800004461946FFF7F0FF204610BD30B504467F
:100190000020034600E05B1C934203D2E05CCD5C90
:1001A000401BF8D030BD2DE9F05F05460020924697
:1001B0009B4688460646814640241BE02846414629
:1001C0004746224600F041F853465A46C01A91412C
:1001D00010D311461846224600F028F82D1A67EB76
:1001E00001084F4622460120002100F01FF817EBBE
:1001F00000094E41201EA4F10104DFDC48463146CF
:100200002A464346BDE8F09F064C074D06E0E068ED
:1002100040F0010394E8070098471034AC42F6D34D
:10022000FFF78AFF7426000894260008202A04DBC2
:10023000203A00FA02F1002070479140C2F12003F9
:1002400020FA03F3194390407047202A04DB203A38
:1002500021FA02F00021704721FA02F3D040C2F1E6
:10026000200291400843194670470000FEE7000055
:100270007047000070470000014690F821000228F6
:1002800013D10868D1E90FC3026822F00E020260A0
:10029000026822F001020260012000FA03F2CCF8A9
:1002A000042081F82100002002E00420886301205E
:1002B000002281F82020704780B590F82110022993
:1002C00027D1026840F2040C1368C4F2020C23F038
:1002D0000E03136013680CF17C018A4223F00101C4
:1002E00011601AD940F20841C4F202018A4247D093
:1002F00040F21C41C4F202018A4245D040F2304132
:10030000C4F202018A4243D14FF48073CCF8003426
:1003100057E004218163012080BD4321C4F2020122
:100320008A420EDD6B21C4F202018A421BDC4421A9
:10033000C4F202018A4239D05821C4F202018A4231
:1003400031E00821C4F202018A4232D01C21C4F2F9
:1003500002018A4232D03021C4F202018A4222D103
:100360004FF480722BE06C21C4F202018A4222D049
:100370008021C4F202018A4215D14FF080721EE042
:100380000123CCF800341CE01023CCF8003418E032
:100390000CF588614FF480338A4208BF4FF48053D4
:1003A000CCF800340DE04FF4803208E04FF4805276
:1003B00005E0012203E04FF4801200E01022CCF8A7
:1003C0000020416B4FF48072028401B18847002005
:1003D00080BD00002DE9F04F83B00C68002C00F0C8
:1003E000EA80A0F18042A2F5843240F2004E4FEA4A
:1003F000B22241F60047C4F2010E0092C4F2010796
:10040000062200254FF001094FF0000B4FF0000AC3
:10041000B84208BF0522019209E000BF0C680BF149
:10042000010B34FA0BF205F1040500F0C48009FA5F
:100430000BF814EA080CF1D04C684FF6FF72C1F2C9
:100440001002944210DC122C50D8DFE804F0330A7A
:1004500041454F4F4F4F4F4F4F4F4F4F4F4F4F48CB
:100460004C00D1F80CA041E04FF6FF72C1F221021E
:1004700094420FDC0022C1F2110294421AD00022F1
:10048000C1F21202944215D00022C1F2210294421C
:1004900010D02BE00022C1F2220294420AD00022A6
:1004A000C1F23102944205D00022C1F232029442DC
:1004B0001CD100BF8C6844B1012C14BFC0F814805B
:1004C000C0F810804FF0080A10E04FF0040A0DE069
:1004D000CC6804F1080A09E04FF0000A06E0CC6895
:1004E00004F1040A02E0CC6804F10C0A2C46074629
:1004F000BCF5807F24BF203C04373A680F2303FA01
:1005000004F6B2430AFA04F422433A60CA79D206E6
:100510007FF584AF41F21804C4F2020422684FF65A
:10052000084842F0010222602268CFF6FF7802F00C
:1005300001020292029A2BF00302724452F8084020
:1005400005F00C0603FA06F7009BBC43019F052B40
:1005500038BF1F4607FA06F6344342F808404C6895
:10056000E203DEF8002054BF22EA0C0742EA0C073F
:10057000A203CEF80070DEF8042054BF22EA0C0774
:1005800042EA0C07E202CEF80470DEF8082054BFFD
:1005900022EA0C0742EA0C07A20240F20C44CEF811
:1005A0000870C4F20104226854BF22EA0C0242EA35
:1005B0000C02226032E703B0BDE8F08F002A08BFCA
:1005C000090401617047000040F2F810C2F2000017
:1005D0000068704740F2080040F2F811C2F20000D3
:1005E000C2F2000100780A681044086070470000F9
:1005F00080B542F20000C4F20200016841F010012F
:100600000160032000F066F8002000F005F800F01B
:100610002BF8002080BD0000B0B540F20802C2F205
:10062000000240F204011278C2F200014FF47A7322
:100630000968B3FBF2F20446B1FBF2F1084600F0A0
:10064000D3FD0F2C4FF001050CD858B94FF0FF30F7
:1006500021460022002500F02DF840F20C00C2F2E5
:10066000000004602846B0BD82B041F21800C4F218
:1006700002000168022241F001010160016801F0FD
:10068000010101910199416841F080514160406848
:1006900000F08050009000980420C4F2010001682E
:1006A00062F31A61016002B07047000080B501F08A
:1006B00021FC80BD70B514460D46064601F02AFCAB
:1006C0002946224601F038F80146304601F02AFC5E
:1006D00070BD000080B501F037FC80BD2DE9F0430E
:1006E00081B0002800F0898042F20008C4F20208BC
:1006F0000446D8F800000D4600F0070088420CD2EE
:10070000D8F8000020F007002843C8F80000D8F807
:10071000000000F00700A8426FD1206841F20409F0
:100720008107C4F2020917D5410705D5D9F8001091
:1007300041F4E061C9F80010010705D5D9F80010AF
:1007400041F46051C9F80010D9F80010A26821F0F6
:10075000F0011143C9F80010C00745D1D8F80000D6
:1007600000F00700A8420CD9D8F8000020F00700DC
:100770002843C8F80000D8F8000000F00700A8429D
:100780003BD12068410707D5D9F80010E26821F471
:10079000E0611143C9F80010000708D5D9F800003E
:1007A000216920F4605040EAC100C9F8000000F05F
:1007B00079F8D9F8001042F22862C1F30311C0F6AB
:1007C0000002515C40F2040220FA01F140F20C00F8
:1007D000C2F200000068C2F200021160FFF71CFFC5
:1007E000002001B0BDE8F0836068022809D001282C
:1007F00029D159F8041C890307D4012001B0BDE8B0
:10080000F08359F8041C8901F7D5D9F8001021F0BC
:1008100003010843C9F80000FFF7D6FE064641F27F
:10082000883700BFD9F80000616800F00C00B0EB19
:10083000810F93D0FFF7C8FE801BB842F2D9032086
:1008400001B0BDE8F08359F8041C8907D5D5DCE771
:1008500040F20400C2F200000068704780B5FFF764
:10086000F7FF41F20401C4F20201096842F2386262
:10087000C1F30221C0F60002515CC84080BD0000F7
:1008800080B5FFF7E5FF41F20401C4F202010968F7
:1008900042F23862C1F3C221C0F60002515CC84086
:1008A00080BD000041F2040CC4F2020CDCF8003000
:1008B00003F00C00082841F20020C0F27A0018BFB3
:1008C0007047C3F383420AA18A5CD90305D440F67A
:1008D0000010C0F23D0050437047DCF8001008A340
:1008E000C1F34041595C5043B0FBF1F0704700BF89
:1008F00002030405060708090A0B0C0D0E0F101061
:10090000010200002DE9F04182B0002800F0C4800F
:100910000446007841F20006C007C4F2020643D044
:10092000706800F00C00042817D0706800F00C000C
:10093000082802D17068C0030FD465682DB1B5F5E1
:10094000A02F10D0B5F5803F11D0306820F4803052
:100950003060306820F480200CE03068800323D5BC
:10096000606808BB98E0306840F4802030603068F0
:1009700040F480303060FFF727FE002D054610D090
:100980003068800310D4FFF71FFE401B6428F7D99E
:1009900004E100BFFFF718FE401B64284FF003007E
:1009A00077D830688003F5D42078800718D5706830
:1009B00010F00C0F07D0706800F00C00082826D14A
:1009C0007068C00323D43068800702D520690128ED
:1009D00062D13068616920F0F80040EAC1003060FF
:1009E000207800073DD5A06938B30020C4F242202A
:1009F0000121C0F88014FFF7E7FD0546706A800703
:100A00002DD4FFF7E1FD401B0228F7D9C6E020698D
:100A1000002840F20000C4F2422000F0968001213C
:100A20000160FFF7D1FD054630688007D1D4FFF79C
:100A3000CBFD401B0228F7D9B0E00020C4F24220D1
:100A40000021C0F88014FFF7BFFD0546706A8007DB
:100A500007D5FFF7B9FD401B0228F7D99EE000F04B
:100A600083FE207840071BD4E5698DB1706800F0E3
:100A70000C00082847D1012D0ED07068216A00F4BF
:100A800080328A4208D1616A00F47010884203D132
:100A9000002002B0BDE8F081012002B0BDE8F08185
:100AA000F06910F0805808D1F06940F08050F06192
:100AB000F06900F080500190019847F20007C4F2FD
:100AC00000073868C00510D4386840F4807038607A
:100AD000FFF77AFD054600BF3868C00505D4FFF76B
:100AE00073FD401B6428F7D958E0E5681DB1052D5A
:100AF0003CD0012D3ED0306A20F001003062306AD7
:100B000020F0040039E00027C4F2422700203866B4
:100B1000FFF75AFD022D05460CD100BF3068800159
:100B200054D5FFF751FD401B02284FF00300F5D9C3
:100B3000AFE700BF30688001AAD5FFF745FD401B35
:100B400002284FF00300F5D9A3E700210160FFF769
:100B50003BFD0546306880077FF542AFFFF734FD67
:100B6000401B02284FF00300F4D992E7306A40F0AE
:100B700004003062306A40F001003062FFF724FD6B
:100B8000002D054641F2883714D000BF306A800737
:100B900013D4FFF719FD401BB842F7D9032002B068
:100BA000BDE8F081FFF710FD401BB8424FF0030095
:100BB0003FF66FAF306A8007F4D4B8F1000F7FF4CE
:100BC00053AFF06920F08050F0614DE7206AB0F536
:100BD000803F05D17168A26821F400311143716032
:100BE0007168626A21F47411104308437060012037
:100BF0003866FFF7E9FC0446306880013FF548AFEE
:100C0000FFF7E2FC001B02284FF00300F4D940E795
:100C100070B538B10446406A30B10020206104F15B
:100C2000140007E0012070BD6068B0F5827F03D03A
:100C300004F11C00002101600026A66294F8510016
:100C400020B9204684F8506000F038F8022084F87B
:100C5000510094E8071001F48271036802F4044221
:100C600023F040030360236911440CF40062114433
:100C700003F002026369114403F00102A369E5690C
:100C8000114403F40072114405F03802256A11443E
:100C900005F08002A56A114305F40052114301607A
:100CA000042101EA13414160C16921F40061C1617D
:100CB0000120666584F85100304670BD70B586B07D
:100CC00040F60044C4F201040068A4F55041002637
:100CD00088420596CDE90366029601D006B070BD44
:100CE00041F21800C4F20200416802AD41F4004133
:100CF0004160416801F4004101910199016841F0AE
:100D0000080101600068294600F008000190019880
:100D10002820029002200390032005902046FFF730
:100D200059FB1020CDE90206204629460496FFF71C
:100D300051FB06B070BD00002DE9F04381B00446C0
:100D400040681D461746B0F5827F0E4602D1A06866
:100D500000285AD094F85000012803D1022001B095
:100D6000BDE8F0834FF0010984F85090FFF72CFCA8
:100D700094F85110012946D18046002E4FF0010011
:100D800018BF002F77D0042084F851000020606540
:100D9000A663A787E7872063A086E086A168206412
:100DA000B1F5004F606408D12068016821F040016E
:100DB0000160016821F480410160206801684906F2
:100DC00003D4016841F040010160E168E08F49B35C
:100DD000002843D06E1C09E0C068A16B21F8020B0B
:100DE000A163E08F0138E087E08FB8B320688168A5
:100DF000C907F1D1FFF7E8FB002EF5D0A0EB080002
:100E0000A842F1D328E0022035E0042084F8510004
:100E10002046314632463B46009500F0F3F801B0DB
:100E2000BDE8F083D0B16E1C0AE0007BA16B0870B6
:100E3000A06B0130A063E08F0138E087E08F68B1DC
:100E400020688168C907F0D1FFF7BEFB002EF5D0FE
:100E5000A0EB0800A842F1D303200CE0204629466D
:100E6000424600F097FC00281CBF20206065606DA2
:100E7000002818BF0120002184F8519084F85010F8
:100E800001B0BDE8F08300002DE9F04381B00446D5
:100E900090F85000012803D1022001B0BDE8F08392
:100EA0004FF001091D4616460F4684F85090FFF793
:100EB0008BFB94F8511001295DD18046002F4FF033
:100EC000010018BF002E00F09580032084F8510027
:100ED000002060652763A686E686A063A087E0877A
:100EE000A168C4E91000B1F5004F08D1206801687D
:100EF00021F040010160016841F4804101602068F7
:100F00000168490603D4016841F04001016061684D
:100F1000731EE268B1FA81F1B3FA83F349095B0900
:100F2000B2F5006F41EA030127D139B1216B09887D
:100F3000C160B81C2063E08E0138E086E08E002896
:100F400041D06E1C0AE000BF216B31F8022BC26059
:100F50002163E08E0138E086E08EA0B320688168CE
:100F60008907F1D4FFF730FB002EF5D0A0EB080085
:100F7000A842F1D325E002203CE039B13978017371
:100F8000206B01302063E08E0138E086E08ED0B126
:100F90006E1C0AE0216B09780173206B013020631D
:100FA000E08E0138E086E08E68B1206881688907AC
:100FB000F0D4FFF709FB002EF5D0A0EB0800A84203
:100FC000F1D3032016E020462946424600F012FCE9
:100FD00000281CBF20206065A06838B90020009060
:100FE0002068C1680091806800900098606D0028BA
:100FF00018BF0120002184F8519084F8501001B0EE
:10100000BDE8F0832DE9F04381B0044690F850002C
:10101000012803D1022001B0BDE8F08301201E4663
:1010200015460F4684F85000FFF7CEFA94F8511099
:10103000814601290CD06068B0F5827F76D1042901
:101040004FF0020040F0C680A168002940F0C28045
:10105000002F4FF0010018BF002D00F0BB80002EC4
:1010600000F0B88094F85100002104281CBF05202E
:1010700084F851006165A563E687A6872763E68645
:101080002068A686216461640168490603D401686A
:1010900041F0400101606168731EE268B1FA81F1BC
:1010A000B3FA83F3DDF8208049095B09B2F5006FDC
:1010B00041EA03013CD139B1216B0988C160B81CF8
:1010C0002063E08E0138E086012608F1010500BFAB
:1010D000E08E10B9E08F002866D02068816889070B
:1010E0000CD5E18E012E09D141B1216B002631F8DA
:1010F000022BC2602163E18E0139E1868168C90754
:101100000AD0E18F41B1C068A16B012621F8020B22
:10111000A163E08F0138E087FFF756FA002DD7D0A2
:10112000A0EB09004045D3D3032053E0022051E057
:1011300039B139780173206B01302063E08E0138BA
:10114000E086012608F10105E08E08B9E08F58B36A
:101150002068816889070DD5E18E012E0AD149B139
:10116000216B002609780173206B01302063E08E2B
:101170000138E08620688168C9070BD0E18F49B14A
:10118000C068A16B01260870A06B0130A063E08FDE
:101190000138E087FFF718FA002DD5D0A0EB090041
:1011A0004045D1D3032015E0204641464A4600F091
:1011B00021FB18B12020606501200BE0A068002809
:1011C0004FF0000006D100902168CA68009289683B
:1011D00000910099012184F85110002184F85010E9
:1011E00001B0BDE8F083000080B500F07FFB80BD5A
:1011F0007047000070470000B0B582B00168054636
:101200000868CA684C6900F02F03202B02F0200305
:1012100005D123B1284600F0DDFB02B0B0BD5FEA86
:10122000007C1EBF04F0010E02F4907414EB0E0457
:1012300024D12B6B1040C20617D5012B15D10020ED
:10124000019008680190486801900198486940063B
:101250001CD4A88DEA8DEB8D002B1CBF801A5FEA91
:10126000004240F09A8002B0B0BD010636D440067C
:10127000F9D5284600F0A2FB02B0B0BDC10718BFE7
:1012800012F480712FD1410733D439E0A86B026882
:10129000526893B2002BE6D0AC8DA342E3D2EA852C
:1012A0008269202A16D0CA6822F48072CA604A690C
:1012B00022F001024A614A6922F040024A6120227A
:1012C00085F83E2000222A63CA6822F01002CA6014
:1012D000FEF7D2FFA88DE98D401A6FE0284600F096
:1012E0001BFC02B0B0BD296C41F00101296441072B
:1012F00006D5BEF1000F03D0296C41F0020129642C
:10130000810706D5BEF1000F03D0296C41F004011E
:101310002964BCF1000F06D55EEA030103D0296CF5
:1013200041F008012964296C00299CD010408006F6
:1013300002D5284600F04EFB28684069296C00F071
:10134000400001F00801401820D0284600F020FBA2
:1013500028684169490614D5416921F0400141617D
:10136000A86B70B141F68111C0F600014163FEF730
:10137000A3FF00283FF477AFA86B416B884702B00A
:10138000B0BD2846FFF736FF02B0B0BD2846FFF7D4
:1013900031FF0020286402B0B0BDCA6822F4907208
:1013A000CA604A6922F001024A61202285F83E2083
:1013B00000222A63CA6822F01002CA6081B228465D
:1013C000FFF716FF02B0B0BD002804BF0120704730
:1013D00010B5044690F83D0028B9002084F83C0080
:1013E000204600F021F8242084F83D002068C168E0
:1013F00021F40051C160204600F046FB20680169DD
:1014000021F490410161416921F02A014161C168E3
:1014100041F40051C16000202021206484F83D1077
:1014200084F83E1010BD000070B586B0006844F22C
:101430000041C4F20001002688420596CDE903660A
:1014400002963FD043F60001C4F20101884266D102
:1014500041F21800C4F20200016840F6000441F4B1
:10146000804101600168C4F2010401F480410191EE
:101470000199016802AD41F004010160006829464C
:1014800000F00400019001984FF4007002900220D7
:101490000390032005902046FEF79CFF4FF48060E8
:1014A00002900020CDE9030020462946FEF792FF76
:1014B000252000210022FFF7FDF82520FFF7F6F890
:1014C00006B070BD41F21800C4F20200416840F657
:1014D000000441F4003141604168C4F2010401F4A8
:1014E000003101910199016802AD41F004010160F0
:1014F0000068294600F00400019001980420029041
:1015000002200390032005902046FEF763FF082089
:10151000CDE90206204629460496FEF75BFF06B099
:1015200070BD0000704700002DE9F04381B0044613
:1015300090F83D0020280BD10E4600294FF0010005
:1015400055D01746002A52D094F83C00012803D108
:10155000022001B0BDE8F083012084F83C004FF088
:10156000000921201D46C4F8409084F83D00FFF793
:101570002BF8A784E784A1680746B1F5805F07D1FF
:10158000206900281CBF30464E46B046064601E0A2
:101590004FF0000884F83C9007E000BF16F8010BFC
:1015A00021684860E08C0138E084E08C80B12046FE
:1015B00080213A462B4600F0D9FA80B9002EEDD1B1
:1015C00038F8020B21686FF35F2048600026E9E7D6
:1015D000204640213A462B4600F0C8FA18B10320B5
:1015E00001B0BDE8F083202084F83D00002001B068
:1015F000BDE8F08370470000FEE7000070B586B0DC
:10160000002541F21800CDE90455CDE90255C4F298
:101610000200016840F6004441F0200101600168C9
:10162000C4F2010401F02001019101990168002236
:1016300041F0040101600168802601F0040101917C
:101640000199016841F0080101600068802100F003
:101650000800019001982046FEF7B0FF0120CDE977
:1016600003050220059002A920460296FEF7B2FE6D
:1016700006B070BD10B540F2140043F60041C2F24E
:101680000000C4F200014FF48272002380E80E00D3
:1016900000F10C014FF0020C4FF0010E4FF40074FA
:1016A00081E808500A21C0E90643C0E90833C0E9CF
:1016B0000A31FFF7ADFA002818BFFEF7DBFD10BDB9
:1016C00080B540F26C0043F60001C2F20000C4F2A3
:1016D000010100234FF0080C4FF4E13280E80E00C6
:1016E000C0E90333C0E905C3C361FFF76DFE0028FD
:1016F00018BFFEF7BFFD80BD80B540F2B00044F2D8
:101700000041C2F20000C4F2000100234FF0080CB7
:101710004FF4E13280E80E00C0E90333C0E905C3AD
:10172000C361FFF751FE002818BFFEF7A3FD80BD7F
:10173000FEE700007047000000F0070080F007039C
:10174000042B28BF04234FF0FF3C03380CFA03F3AB
:1017500038BF0020994381400CFA00F022EA0000D3
:10176000084370477047000081B040F20400C2F2A5
:101770000000006844F6D351C1F26201A0FB0101F0
:10178000480A009000BF0098411E00280091F9D13E
:1017900001B0704710B5044640689446B0F5827FAA
:1017A0000A461AD1A168B1F5004F02D0B1F5806F99
:1017B00004D121680B6823F040030B60B0F5827FF1
:1017C0000BD1A068B0F5806F07D120460121634698
:1017D00000F022F840B9002010BD20468021634669
:1017E00000F01AF80028F6D0606D40F02000606527
:1017F000032010BD10B513460A468021044600F0B0
:101800000BF800280FBF0020606D40F020006065DD
:1018100018BF032010BD00002DE9F04381B01E4623
:1018200090460D468146FEF7CFFE301A00EB0807C2
:10183000FEF7CAFE40F20401C2F200010968C1F3DA
:10184000CB3179430091D9F8001089682940A94229
:1018500019D1064608F1010406E000BFD9F80000DE
:1018600080682840A8420ED1002CF7D0FEF7ACFECD
:10187000801BB8420BD200980099002808BF074689
:10188000481E0090EAE7002001B0BDE8F083D9E9E6
:1018900000014268B1F5827F22F0E00242600BD184
:1018A000D9F80810B1F5004F02D0B1F5806F03D11F
:1018B000016821F040010160D9F82810B1F5005FFE
:1018C00007D1016821F400510160016841F4005121
:1018D0000160012089F85100002089F850000320A0
:1018E00001B0BDE8F083000070470000B0B50138DA
:1018F0000024B4EB106F1CBF0120B0BD4EF21005E8
:10190000CEF2000568604FF0FF300F2100F00AFBB7
:101910000720AC6028602046B0BD000080B5FEF70F
:1019200059FE80BD70B590B006AC20462821FEF768
:1019300022FC012006900A904FF4E01000254FF49D
:10194000803102260F9020460595CDE90355CDE95B
:101950000155CDE90715CDE90D61FEF7D3FF0F2045
:10196000CDE901064FF48060CDE9040501A802210C
:101970000395FEF7B3FE10B070BD00007047000085
:1019800080B5406A0021C185C184FFF733FC80BD6A
:101990000168CA6822F49072CA604A6922F00102A2
:1019A0004A61026B012A03D1CA6822F01002CA60A0
:1019B000202180F83E1000210163704780B5016846
:1019C000CA6822F04002CA60202180F83D10FFF76B
:1019D00011FE80BD80B582B090F83E1022291ED144
:1019E0008268B2F5805F02D10169002940D0816A26
:1019F000B2F5805F07D00AB9026922B10268526865
:101A000002F07F0201E0026852680A700121826AD6
:101A100011448162C18D01390A04C18501D002B02F
:101A200080BD0168CA6822F02002CA60CA6822F438
:101A30008072CA604A6922F001024A61202280F85D
:101A40003E20026B012A1BD100220263CB6823F0E7
:101A50001003CB600B68DB0605D501920A68019282
:101A6000496801910199818DFFF7C2FB02B080BDE9
:101A70000168826A49686FF35F2111800221C6E71D
:101A8000FFF750FD02B080BD10B504460068D4E9F0
:101A900002C22369016921F4405111430161616966
:101AA00043EA0C021143C26841F20C639A431143AA
:101AB000C1604169A26921F44071114343F60002FB
:101AC000C4F201029042416102D0FEF7C7FE01E07C
:101AD000FEF7D6FE6268192148439100B0FBF1F091
:101AE00048F21F51C5F2EB11A0FB01235A096FF018
:101AF000630302FB0300322303EB0010A0FB010190
:101B0000F02303EA5113206803EB0212C1F34311DF
:101B10001144816010BD000090F83D10212923D1AF
:101B20008168B1F5805F01D1016931B1016A026854
:101B30004B1C03620978516007E0016A036831F8C1
:101B4000022B6FF35F225A600162C18C01390A04D3
:101B5000C18418BF70470068C16821F08001C1606E
:101B6000C16841F04001C160704700002DE9F041BB
:101B70000446006800680840884202D10020BDE8A1
:101B8000F0811D460E4690465F1C04E02068006808
:101B90003040B042F2D0002FF8D02DB1FEF714FD46
:101BA000A0EB0800A842F1D92068C16821F4D071E7
:101BB000C160416921F001014161202084F83D00AC
:101BC00084F83E00002084F83C000320BDE8F0814A
:101BD00080B540F26C00C2F20000FFF70DFB80BD43
:101BE000FEE70000B0B582B00546FEF7EDFC044606
:101BF00020208DF80400280C8DF80500280A8DF8A7
:101C000006008DF8075000F045F940F60045C4F293
:101C10000105284680210022FEF7D0FC40F2140086
:101C2000C2F2000001A904224FF47A73FFF72CF9E5
:101C3000284680210122FEF7C1FC00BF00F00EF80B
:101C40000228FBD0FEF7C0FC011B40F6B832002092
:101C5000914288BF032002B0B0BD0000B0B582B091
:101C600040F600440520C4F201048DF80700204628
:101C700080210022FEF7A2FC40F21405C2F200050A
:101C80000DF10701284601224FF47A73FFF7FCF8A3
:101C90000DF10601284601224FF47A73FFF74CF844
:101CA000204680210122FEF789FC9DF806000221D2
:101CB00001EA400002B0B0BD80B500F061F8FFF766
:101CC000CDFF80BDF0B581B00646032040F600444C
:101CD0008DF80000080CC4F201048DF80100080A18
:101CE00015468DF802008DF8031020468021002251
:101CF000FEF764FC40F21407C2F20007694638465A
:101D000004224FF47A73FFF7BFF8AAB2384631467F
:101D10004FF47A73FFF710F810B1012001B0F0BD55
:101D2000204680210122FEF749FC002001B0F0BDD1
:101D300070B582B040F6004405469020C4F201041C
:101D40000190204680210022FEF738FC40F2140664
:101D5000C2F2000601A9304604224FF47A73FFF75D
:101D600093F83046294602224FF47A73FEF7E4FFD7
:101D7000204680210122FEF721FC02B070BD000048
:101D800010B582B040F6004449F66610C4F2010472
:101D9000ADF80600204680210022FEF70FFC40F23D
:101DA0001400C2F200000DF1060102224FF47A7312
:101DB000FFF76AF8204680210122FEF7FFFB02B000
:101DC00010BD00002DE9F04F81B016460C460546C7
:101DD0006FF0FF07FEF7F8FB804600BF07F580773E
:101DE000A742FBD940F6004A3F1B40F2140BC4F255
:101DF000010AB74288BF37462644C2F2000BE946C3
:101E000002208DF80000200C8DF80100200A8DF8CA
:101E100002008DF8034000F03DF85046802100227A
:101E2000FEF7CCFB5846494604224FF47A73FFF77D
:101E30002BF838BBBAB2584629464FF47A73FFF7ED
:101E400023F8F8B9504680210122FEF7B7FB00BF06
:101E5000FFF704FF0228FBD0FEF7B6FBA0EB08005B
:101E6000B0F57A7F12D83C4404F580703D44B0420E
:101E70004FF4807788BF371BA642C1D8002001B03D
:101E8000BDE8F08F012001B0BDE8F08F032001B064
:101E9000BDE8F08FB0B582B006208DF80700FEF7E0
:101EA00093FB40F60045C4F2010504462846802114
:101EB0000022FEF783FB40F21400C2F200000DF195
:101EC000070101224FF47A73FEF7DEFF28468021D6
:101ED0000122FEF773FB00BFFFF7C0FE0228FBD014
:101EE000FEF772FB011B0020B1F57A7F88BF03204B
:101EF00002B0B0BD002848BF704700F01F010122AA
:101F000002FA01F14EF200124009CEF2000242F84C
:101F1000201070474EF60C50CEF200000068C0F35F
:101F2000022070474EF6145300F00F02CEF2000369
:101F300009011A4400F16043B0F1FF3FC8BF03F547
:101F400064421170704700004EF60C51CEF2000151
:101F50000A684FF6FF031A4060F30A2242F08060DD
:101F600040F0FD700860704710B582B0019040F2FB
:101F70006C0001ACC2F2000021460122FF23FFF7F2
:101F8000D3FA40F2B000C2F2000021460122FF2342
:101F9000FFF7CAFA019802B010BD0000FEF728FB57
:101FA000FFF7C0FCFFF72AFBFFF78AFBFFF7A4FB54
:101FB000FFF760FB45A000F025FBFFF77DFE40F238
:101FC0001004C2F200042046FFF7B2FE46A000F063
:101FD000C7F840F2F406C2F20006002047A53060C0
:101FE000215C284600F0BCF83068013002283060DF
:101FF000F6D344A000F006FB00200024FFF7F2FD1A
:1020000010B941A000F0FEFA40F2F800C2F2000060
:102010004FF480713460FEF7AEF840F2FC10C2F26B
:10202000000000BF04550134B4F5807FFAD14FF4AD
:102030008070306040F2FC10C2F2000000214FF4CA
:102040008072FFF7BFFE10B935A000F0DBFA40F256
:10205000F804C2F20004204600214FF480720027E9
:10206000FFF730FE10B932A000F0CCFA34A000F037
:10207000C9FA38A5376000BFE15D284600F070F866
:102080003068471CB7F5807F3760F5D31DA000F09E
:10209000B9FA40F2FC1040F2F801C2F20000C2F2BC
:1020A00000014FF48072FEF771F842F2576142F27C
:1020B0004062C0F60001C0F60002002808BF1146C9
:1020C000084600F09FFA00BFFEE700BF0D0A20534C
:1020D00050492D57323551787878204578616D70A8
:1020E0006C65200D0A0D0000573235517878782044
:1020F0004944206973203A200000000030782530E0
:10210000325820000D0A0D002053504920457261BD
:10211000736520426C6F636B206F6B0D00000000D5
:1021200020535049205772697465206F6B0D000071
:10213000205350492052656164206F6B0D0A0D00D9
:1021400053504920526561642044617461203A20F3
:102150000D000000307825303258202000000000AB
:102160000FB4054B10B503A9044A029800F018F803
:1021700010BC5DF814FB0000691F0008000000207F
:1021800002E008C8121F08C1002AFAD17047704740
:10219000002001E001C1121F002AFBD1704700009E
:1021A0002DE9FF4F8DB00F460546002606E0252895
:1021B0000BD0DDE90F1290476D1C761C28780028A3
:1021C000F5D111B03046BDE8F08F0024A246A146FB
:1021D0000122EC4900E0044315F8013F203B02FADC
:1021E00003F00842F7D128782A2810D06FF02F0288
:1021F0002878A0F13001092914D80AEB8A0102EBF2
:10220000410144F0020400EB010A6D1CF0E701CF2C
:102210005FEA000A03D544F40054CAF1000A44F00E
:1022200002046D1C28782E2817D115F8010F44F0F0
:1022300004042A280ED06FF02F022878A0F1300174
:1022400009290AD809EB890102EB410100EB0109D8
:102250006D1CF2E757F8049B6D1C28786C280FD092
:1022600006DC4C2817D068280DD06A2814D104E069
:10227000742810D07A280FD10DE044F400140AE03D
:1022800044F4801401E044F440146978814202D19E
:1022900004F580146D1C6D1C2A786E2A1FD00CDC8E
:1022A000632A31D004DC002A8BD0582A11D1A3E054
:1022B000642A68D0692A0CD165E0732A2ED004DC28
:1022C0006F2A73D0702A04D19BE0752A6FD0782AC8
:1022D0006ED01046DDE90F129047761C50E1C4F332
:1022E0000250022806D0032809D0042801CF09D0C3
:1022F000066045E101CFF117C0E9006140E101CF7F
:1023000006803DE106703BE117F8040B8DF80000F4
:1023100000208DF80100EB46012003E057F804BBD4
:102320004FF0FF3061074FF0000102D40DE008F1DB
:102330000101884649450FDA8045F8DB1BF8081093
:102340000029F4D108E008F1010188468142FADB56
:102350001BF808100029F6D1DDE90F23AAEB0800CD
:102360008146214600F036F9304400EB080604E0CF
:10237000DDE90F121BF8010B9047B8F10108F7D205
:1023800021464846F7E00A21C4F302534FF0000B00
:102390000891022B04D001CFC117032B09D00AE00A
:1023A000FF1D27F00707F7E8020108E032E01FE011
:1023B00020E000B2C117042B01D140B2C117031EA7
:1023C00071F1000307DA4FF0000CD0EB0C006CEB5E
:1023D00001012D2302E0230504D52B238DF82430A1
:1023E000012303E0E30701D02023F7E7984658E0F4
:1023F0000A2110E010210EE010204FF0000B089091
:102400000CE010214FF0000B44F004044FF00809D9
:10241000089103E008214FF0000B0891C4F3025328
:10242000022B04D001CF0021032B06D006E0FF1DB4
:1024300027F00707F7E8020103E080B2042B00D180
:10244000C0B24FF0000823072BD5702A07D0DDF863
:1024500020C08CF0100C5CEA0B0C05D00EE0402381
:102460008DF82430012308E050EA010306D0302320
:102470008DF824308DF8252002239846DDF820C001
:102480008CF0080C5CEA0B0C0BD150EA010301D173
:10249000630706D530238DF824304FF00108A9F1E9
:1024A0000109582A04D038A20B9208AA0A920BE01C
:1024B0003AA2F9E75B46089AFDF775FE0B9B9B5C19
:1024C0000A9A521E0A92137050EA0102F2D10A9837
:1024D000ADEB000000F1200B600702D524F480343E
:1024E00001E04FF00109D94502DDA9EB0B0000E046
:1024F000002000EB0B0141440890AAEB010AE00325
:1025000006D4DDE90F232146504600F063F8064467
:102510004FF0000908E009A911F80900DDE90F12E0
:10252000904709F10109761CC145F4DBE0030CD5A5
:10253000DDE90F232146504600F04CF8064404E044
:10254000DDE90F1230209047761C0899481E08904C
:102550000029F5DC08E00A980A990078491C0A91DC
:10256000DDE90F129047761CBBF10001ABF1010BC6
:10257000F1DC21465046DDE90F2300F019F806444E
:102580006D1C1BE6092801003031323334353637F3
:1025900038396162636465660000000030313233AF
:1025A000343536373839414243444546000000004F
:1025B0002DE9F041044600251E461746880404D440
:1025C00005E039462020B0476D1C641EF9D5284629
:1025D000BDE8F0812DE9F041044600251E469046F5
:1025E000C80301D5302700E02027880404D505E082
:1025F00041463846B0476D1C641EF9D52846BDE8F3
:10260000F081000010B5044601E0FFF7ADFC14F8BE
:10261000010B04490028F8D1BDE810400A20FFF75B
:10262000A3BC00000000002000000000000000002B
:102630000102030406070809000000000102030468
:102640002057323551363446562053504920546570
:102650007374204F4B0D0020573235513634465697
:102660002053504920546573742046616C73650D86
:102670000000000098260008000000201000000064
:1026800080210008A826000810000020F0060000A5
:102690009021000800000000000000000024F40069
:0826A000010000001000000021
:0400000508000131BD
:00000001FF
