:020000040800F2
:10000000F00400204501000869230008511E000883
:1000100065230008DD080008C12600080000000074
:10002000000000000000000000000000C9230008DC
:10003000E10800080000000099230008FD230008E3
:100040005F0100085F0100085F0100085F01000810
:100050005F0100085F0100085F0100085F01000800
:100060005F0100085F0100085F0100085F010008F0
:100070005F0100085F0100085F0100085F010008E0
:100080005F0100085F0100085F0100085F010008D0
:100090005F0100085F0100085F0100085F010008C0
:1000A0005F0100085F0100085F0100085F010008B0
:1000B0005F0100085F0100085F0100085F010008A0
:1000C0005F0100085F0100085F0100085F01000890
:1000D0005F010008B12600085F0100085F01000809
:1000E0005F0100085F0100085F0100085F01000870
:1000F0005F0100085F0100085F0100085F01000860
:100100005F0100085F0100085F0100085F0100084F
:100110005F0100085F0100085F0100085F0100083F
:100120005F0100085F0100085F0100085F0100082F
:10013000DFF80CD000F032FB00480047D52900085A
:10014000F00400200648804706480047FEE7FEE727
:10015000FEE7FEE7FEE7FEE7FEE7FEE7FEE7FEE777
:100160005D24000831010008D2B201E000F8012B43
:10017000491EFBD270470022F6E710B513460A4627
:1001800004461946FFF7F0FF204610BDF0B480EAA0
:100190000102D40F4200B2EB410F02D202460846E0
:1001A00011464A0042D0C30DDDB2C1F3C752AD1AA9
:1001B000202D35DAC1F3160141F4000204B1524298
:1001C000C5F1200602FA06F12A411044B3EBD05FD4
:1001D00023D0C4B1012DA0EBC35009DCF0BC4FF01B
:1001E000004202EAC352DBB200F5000000F0F0B8B2
:1001F000400000F1807000EBC350A0F1807040EA35
:10020000D170490009E0490841EAC071A0EBC35030
:1002100000F50000400800EBC350F0BC00F0CFB880
:100220006142012202EB4101001BF6E7F0BC70477E
:1002300081F00041AAE780F00040A7E780EA0102D0
:1002400010B502F00043400022D04A001FD0010E3A
:1002500001EB1261C0F35600C2F3560240F40000F5
:1002600042F40002A0FB022000047F39140400D0F5
:10027000401C50EA124001D44000491EC2B20C0694
:1002800004EBD010401C4008802A02D003E000207C
:1002900010BD20F00100002900DA0020184310BD35
:1002A000002801DBC0F10040002901DBC1F1004161
:1002B000814201D80120704700207047C10F80EAB9
:1002C000E0700844CA079623002100F081B8962305
:1002D0000022114600F07CB800F0004220F00040FF
:1002E000C10DC0F3160040F400007F2901DA0020A0
:1002F0007047962903DCC1F19601C84001E09639A8
:100300008840002AF4D04042704700F0004230F0AC
:1003100000400AD0C10D01F56071C0F3160042EA39
:100320000151C20840071143704700200146704741
:1003300030B50B46014600202022012409E021FAB5
:1003400002F59D4205D303FA02F5491B04FA02F5B2
:100350002844151EA2F10102F1DC30BD2DE9F05F49
:100360000546002092469B46884606468146402424
:100370001BE0284641464746224600F030FA5346E5
:100380005A46C01A914110D311461846224600F031
:1003900017FA2D1A67EB01084F462246012000216B
:1003A00000F00EFA17EB00094E41201EA4F10104E3
:1003B000DFDC484631462A464346BDE8F09F002927
:1003C000A8BF7047401C490008BF20F001007047DB
:1003D00010B4B0FA80FC00FA0CF050EA010404BF3B
:1003E00010BC704749B1CCF1200421FA04F411FA91
:1003F0000CF118BF012121430843A3EB0C01CB1DD5
:100400004FEA00614FEA102042BF002010BC704745
:1004100000EBC35010440029A4BF10BC7047401C1F
:10042000490008BF20F0010010BC70472DE9FE4FC5
:10043000804681EA0300C00F0C46009021F0004185
:1004400023F00045B8EB0200A94105D24046214601
:1004500090461C460B46024623F00040104347D00E
:10046000270DC7F30A00C3F30A510290401A019006
:1004700040286BDAC3F3130040F4801B00989246C7
:1004800020B10023D2EB030A63EB0B0B0198594612
:10049000C0F14002504600F093F906460D46504622
:1004A0005946019A00F0ABF910EB080061410024B5
:1004B00087EA115284EAE7731A4340D0009A62B384
:1004C000019A012A4FEA075215DC001B61EB020179
:1004D0004FF0004202EA0752CDE90042001C41F50C
:1004E000801132462B4600F0ABF903B0BDE8F08F27
:1004F00040462146F9E7001B61EB0201001C41F573
:10050000801300185B412018A2F5001747EB030188
:1005100040EAD570B6196D4111E06D084FEA360614
:1005200045EAC0754FEA0752001B61EB0201001C4F
:1005300041F5801149084FEA300000195141324617
:100540002B4603B0BDE8F04F00F06BB900980122D4
:1005500040000023D0EB020263EBE07300982146D9
:100560004FEAE074B8EB000061EB0401E9E783F0C7
:1005700000435BE781F0004158E72DE9FE4F81EA37
:10058000030404F0004421F0004100944FF0000BFC
:1005900023F0004350EA01045ED052EA03045BD02A
:1005A000C3F30A54C1F30A552C44A4F2F334019462
:1005B000A0FB0254C1F3130141F48011C3F31303F0
:1005C00043F4801301FB024400FB034E840A970AA4
:1005D00044EA815447EA8357A4FB076802958D0AD1
:1005E00005FB07854FEA932C04FB0C542705029D5D
:1005F0004FEA065847EA1637B5EB08056EEB070CCD
:10060000870E920E47EA811742EA8312A7FB020186
:10061000B6EB0B0164EB00042B0D43EA0C335E18C0
:1006200044EB1C50DA465146E7FB0201C5F31304C4
:100630004FEA0B3343EA14534FEA0432019C43EA76
:100640000603A4F10C040294009CCDE900B400F070
:10065000F7F803B0BDE8F08F00200146F9E72DE977
:10066000F04D81EA030404F0004B21F000451446EC
:100670004FF0000A23F0004150EA050220D054EA6E
:1006800001021DD0C5F30A570246C5F31303C1F397
:100690001300C1F30A5640F4801543F48013A7EB0E
:1006A0000608101BD64608F2FD3873EB050002D38E
:1006B00008F1010801E092185B41B8F1000F03DA7C
:1006C00000200146BDE8F08D00204FF48011064661
:1006D00084460EE0171B73EB050705D3121B63EB73
:1006E000050306434CEA010C49084FEA3000921812
:1006F0005B4150EA0107EDD152EA030012D082EAD1
:10070000040083EA0501084305D0101BAB4106D263
:100710000122002306E000224FF0004302E06FF0C8
:10072000010253101AEB06004CEB085110EB0A00C3
:1007300041EB0B01BDE8F04D00F073B8C1F30A5274
:10074000C1F3130140F2FF3341F480119A4202DAFF
:1007500000200146704740F233439A42A2F23342EE
:1007600002DC524200F03BB800F02AB830B5041E5B
:1007700071F1000404DB4FF00044404264EB0101DE
:10078000141E73F1000405DB1C464FF00043524277
:1007900063EB0403994208BF904230BD064C074DFD
:1007A00006E0E06840F0010394E807009847103441
:1007B000AC42F6D3FFF7C0FC2C3400084C340008E0
:1007C000202A04DB203A00FA02F100207047914011
:1007D000C2F1200320FA03F3194390407047202A06
:1007E00004DB203A21FA02F00021704721FA02F3DB
:1007F000D040C2F120029140084319467047202A98
:1008000006DBCB17203A41FA02F043EAE07306E038
:1008100041FA02F3D040C2F1200291400843194648
:10082000704710B5141E73F1000408DA401C41F142
:10083000000192185B411A4301D120F0010010BD64
:100840002DE9F04D92469B4611B1B1FA81F202E0DA
:10085000B0FA80F220329046FFF7B2FF04460F460E
:1008600040EA0A0041EA0B0153465A46084313D0B6
:10087000114653EA010019D0C8F140025046FFF773
:10088000AEFF05460E46504659464246FFF798FFD2
:10089000084305D0012004E020463946BDE8F08D2C
:1008A0000020054346EAE0762C4337430A98630567
:1008B000E40AA0EB08000022FD0A44EA47540A308B
:1008C00002D500200146E9E7010510196941DDE97B
:1008D000084500196941BDE8F04DA2E7FEE70000B8
:1008E0007047000070470000014690F82100022880
:1008F00013D10868D1E90FC3026822F00E0202602A
:10090000026822F001020260012000FA03F2CCF832
:10091000042081F82100002002E0042088630120E7
:10092000002281F82020704780B590F8211002291C
:1009300027D1026840F2040C1368C4F2020C23F0C1
:100940000E03136013680CF17C018A4223F001014D
:1009500011601AD940F20841C4F202018A4247D01C
:1009600040F21C41C4F202018A4245D040F23041BB
:10097000C4F202018A4243D14FF48073CCF80034B0
:1009800057E004218163012080BD4321C4F20201AC
:100990008A420EDD6B21C4F202018A421BDC442133
:1009A000C4F202018A4239D05821C4F202018A42BB
:1009B00031E00821C4F202018A4232D01C21C4F283
:1009C00002018A4232D03021C4F202018A4222D18D
:1009D0004FF480722BE06C21C4F202018A4222D0D3
:1009E0008021C4F202018A4215D14FF080721EE0CC
:1009F0000123CCF800341CE01023CCF8003418E0BC
:100A00000CF588614FF480338A4208BF4FF480535D
:100A1000CCF800340DE04FF4803208E04FF48052FF
:100A200005E0012203E04FF4801200E01022CCF830
:100A30000020416B4FF48072028401B1884700208E
:100A400080BD0000B0B5044600F004F9054640F250
:100A50000800C2F200000078611C18BF044400BF07
:100A600000F0F8F8401BA042FAD3B0BD2DE9F04FDA
:100A700083B00C68002C00F0EA80A0F18042A2F55F
:100A8000843240F2004E4FEAB22241F60047C4F2EF
:100A9000010E0092C4F20107062200254FF0010961
:100AA0004FF0000B4FF0000AB84208BF0522019238
:100AB00009E000BF0C680BF1010B34FA0BF205F1F1
:100AC000040500F0C48009FA0BF814EA080CF1D010
:100AD0004C684FF6FF72C1F21002944210DC122CE7
:100AE00050D8DFE804F0330A41454F4F4F4F4F4F86
:100AF0004F4F4F4F4F4F4F484C00D1F80CA041E0A3
:100B00004FF6FF72C1F2210294420FDC0022C1F2C3
:100B1000110294421AD00022C1F21202944215D05E
:100B20000022C1F22102944210D02BE00022C1F237
:100B3000220294420AD00022C1F23102944205D02E
:100B40000022C1F2320294421CD100BF8C6844B131
:100B5000012C14BFC0F81480C0F810804FF0080AB0
:100B600010E04FF0040A0DE0CC6804F1080A09E037
:100B70004FF0000A06E0CC6804F1040A02E0CC68F9
:100B800004F10C0A2C460746BCF5807F24BF203CAC
:100B900004373A680F2303FA04F6B2430AFA04F45E
:100BA00022433A60CA79D2067FF584AF41F2180435
:100BB000C4F2020422684FF6084842F001022260A3
:100BC0002268CFF6FF7802F001020292029A2BF01F
:100BD0000302724452F8084005F00C0603FA06F7C7
:100BE000009BBC43019F052B38BF1F4607FA06F642
:100BF000344342F808404C68E203DEF8002054BF5A
:100C000022EA0C0742EA0C07A203CEF80070DEF8D5
:100C1000042054BF22EA0C0742EA0C07E202CEF895
:100C20000470DEF8082054BF22EA0C0742EA0C07E1
:100C3000A20240F20C44CEF80870C4F2010422680B
:100C400054BF22EA0C0242EA0C02226032E703B0EF
:100C5000BDE8F08F40F2EC00C2F20000006870477F
:100C6000F0B581B0B0B3044690F83D0028B900203B
:100C700084F83C00204600F08FFB242084F83D00DF
:100C80002068016821F001010160016841F4004120
:100C90000160016821F40041016000F0F7FC48F2B6
:100CA0008041C0F21E0140F60012656888424FF094
:100CB0000001C0F23D0248F2A16C4FF0000338BFC2
:100CC00001219042C0F2010C38BF0123654538BFB5
:100CD0000B4613B1012001B0F0BD4DF68361C4F2A3
:100CE0001B31A0FB011221684FEA924E4B684FF472
:100CF000967623F03F0343EA92434B6044F6D35386
:100D00000F6A0EFB06F6C1F26203A6FB033627F05C
:100D10003F03B709654538BF970C7A1C1A430A622E
:100D2000CA6948F2A0674CF6FF73C0F20107BD42E2
:100D300022EA030C0AD801386A00B0FBF2F0013055
:100D40006FF31F30042898BF04202BE0A368A0F1A4
:100D5000010E9BB119206843BEFBF0F00422013064
:100D600062F31F30000512D09BB119206843BEFB0F
:100D7000F0F00422013062F31F3011E005EB450072
:100D8000BEFBF0F001306FF31F300005ECD1012005
:100D900008E005EB4500BEFBF0F001306FF31F30BB
:100DA00040F4004040EA0C00C8610868D4E9072319
:100DB00020F0C000104318430860886848F2FF32F2
:100DC00004F10C0790438CCF18431043A669886048
:100DD000C86820F0FF0038433043C860086840F01E
:100DE0000100086000202021206484F83D10206369
:100DF00084F83E0001B0F0BD2DE9F04F83B01E46EF
:100E000091460F460446FFF725FF94F83D10202930
:100E10000CD102210546C0F21001204601221923FF
:100E2000009501F045F930B1022700E0022738466D
:100E300003B0BDE8F08F94F83C00012801D10227EF
:100E4000F5E70121206884F83C100168C90703D147
:100E5000016841F001010160016807F0FE0A21F418
:100E600000610160242084F83D00002020640020FF
:100E7000CFF6FF704FF0010B4FF0A008E062B9F120
:100E8000020F98BF4FF00209206800220168334624
:100E900041F48071016020464FF00111009501F08E
:100EA00007F92168002854D1C1F810A0FFF7D2FE3D
:100EB00021680A4652F8143F176894F83D50A02D57
:100EC000054620D003F0020007F48063C0181AD151
:100ED000FFF7C0FE36B1401BB04288BF84F83D80AA
:100EE00002E000BF84F83D80216848694A6994F8AF
:100EF0003D30A02B05D000F0020002F48062801883
:100F0000E6D001F11402202084F83D0048690B6806
:100F1000800743F400730B6023D46FF480600221D8
:100F200010602046C0F2100101221923009501270C
:100F300001F0BEF800287FF47AAF0BF1010BCB452E
:100F4000A2D1202084F83D000020012784F83C0035
:100F50006DE708680327C00544BF4FF400702064A4
:100F600065E7002602961068012202908869022136
:100F7000029002982046C0F2100119230095012723
:100F800001F096F800287FF452AF202084F83D004D
:100F900084F83C6000274AE72DE9F04784B0044616
:100FA00000201F4616460D460390FFF753FE94F8A7
:100FB0003D1020290FD102218146C0F210012046A8
:100FC00001221923CDF8009001F072F818B994F8B5
:100FD0003C00012803D1022004B0BDE8F0870121C4
:100FE000226884F83C101368DDE90D080C99DB07D2
:100FF00003D1136843F001031360136823F4006303
:101000001360222284F83D20402284F83E200022F2
:10101000226461626085608D294620850020CFF6BC
:10102000FF70E062204632463B46CDF80080CDF8A6
:10103000049000F027FF18B1012004B0BDE8F0874C
:10104000208D022810D0012824D0002838D100207B
:1010500002902068416902918169029102990168B8
:1010600041F40071016037E02068016841F40061DB
:101070000160EFF3108072B6002002902068416991
:101080000291816902910299016821F480610160F5
:1010900062B621E02068016821F480610160EFF30D
:1010A000108072B600200290206841690291816927
:1010B00002910299016841F40071016062B60BE08F
:1010C0002068016841F4806101600021029141695A
:1010D0000291806902900298208D002800F0AC8077
:1010E000042740F2040A4BF28956C0F20107C2F20B
:1010F000000AC1F2F846232517E0204641464A4639
:1011000001F056F8002897D12068616A00690870DC
:10111000606A218D01306062481E2085608D013833
:101120006085208D002800F08780032847D802289A
:1011300061D00128E1D02046394600224346CDF84F
:10114000009000F0B5FF00287FF476AF20680168BA
:1011500021F480610160EFF3108072B62068616A4B
:1011600000690870606A218D013001396062218553
:10117000618D01396185DAF80010C908A1FB0612FA
:10118000110A6943039100BF03990139039103993F
:1011900000295CD021684A695207F5D50A6842F4F3
:1011A00000720A6009690170606A218D0130606215
:1011B000481E2085608D0138608562B6A4E7204610
:1011C00041464A4600F0F4FF00287FF435AF20681E
:1011D000616A00690870606A228D0130013A6062BC
:1011E00022852168628D013A62854A69520798D545
:1011F000096901708CE72046394600224346CDF844
:10120000009000F055FF00287FF416AFEFF3108038
:1012100072B62068616A026842F400720260006976
:101220000870606A218D01306062481E2085608DE3
:101230000138608562B667E7202084F83D00002011
:1012400084F83E0084F83C0004B0BDE8F08700203C
:101250002021206384F83D1084F83E00216C41F089
:101260002001216462B684F83C00E5E62DE9F043F4
:1012700083B0994616460F460446FFF7EBFC94F8F8
:101280003D1020290ED102210546C0F21001204652
:1012900001221923009500F00BFF18B994F83C00C7
:1012A000012803D1022003B0BDE8F08301212268A8
:1012B00084F83C101368DDE90B080A99DB0703D1B9
:1012C000136843F001031360136823F40063136091
:1012D000212284F83D20402284F83E20002222640E
:1012E00061626085608D394620850020CFF6FF70F1
:1012F000E062204632464B46CDF80080019500F072
:1013000047FE30B3012003B0BDE8F08320464146DC
:101310002A4600F07DFF28BB606A2168034613F867
:10132000012B0A61228D6362571E2785638D3F045E
:10133000A3F1010363854B6918BF13F0040308D0C0
:10134000437802300B616062901E2085608D013809
:101350006085208D0028D9D1204641462A4600F0DC
:1013600077FE40B1206C0428CCD12068016841F49C
:1013700000710160C6E72068016841F400710160F6
:10138000202084F83D00002084F83E0084F83C00D2
:1013900003B0BDE8F083000010B586B0016845F6E3
:1013A0000000C4F2000081424FF00001CDE90411B9
:1013B000CDE9021101D006B010BD41F21804C4F20B
:1013C0000204216800F5344041F0080121602168E1
:1013D00001F00801019101994FF44061029112213D
:1013E00003910321059102A9FFF740FB606840F4D7
:1013F00080006060606800F480000190019806B091
:1014000010BD000040F2080040F2EC01C2F2000002
:10141000C2F2000100780A681044086070470000BA
:1014200080B542F20000C4F20200016841F01001F0
:101430000160032000F066F8002000F005F800F0DD
:101440002BF8002080BD0000B0B540F20802C2F2C7
:10145000000240F204011278C2F200014FF47A73E4
:101460000968B3FBF2F20446B1FBF2F1084600F062
:10147000E7FA0F2C4FF001050CD858B94FF0FF30A8
:1014800021460022002500F02DF840F20C00C2F2A7
:10149000000004602846B0BD82B041F21800C4F2DA
:1014A00002000168022241F001010160016801F0BF
:1014B000010101910199416841F08051416040680A
:1014C00000F08050009000980420C4F201000168F0
:1014D00062F31A61016002B07047000080B501F04C
:1014E000F1F880BD70B514460D46064601F0FAF8D5
:1014F0002946224600F03AFF0146304601F0FAF84C
:1015000070BD000080B501F007F980BD2DE9F04302
:1015100081B0002800F0898042F20008C4F202087D
:101520000446D8F800000D4600F0070088420CD2AF
:10153000D8F8000020F007002843C8F80000D8F8C9
:10154000000000F00700A8426FD1206841F20409B2
:101550008107C4F2020917D5410705D5D9F8001053
:1015600041F4E061C9F80010010705D5D9F8001071
:1015700041F46051C9F80010D9F80010A26821F0B8
:10158000F0011143C9F80010C00745D1D8F8000098
:1015900000F00700A8420CD9D8F8000020F007009E
:1015A0002843C8F80000D8F8000000F00700A8425F
:1015B0003BD12068410707D5D9F80010E26821F433
:1015C000E0611143C9F80010000708D5D9F8000000
:1015D000216920F4605040EAC100C9F8000000F021
:1015E00079F8D9F8001043F2E432C1F30311C0F6E0
:1015F0000002515C40F2040220FA01F140F20C00BA
:10160000C2F200000068C2F200021160FFF71CFF86
:10161000002001B0BDE8F0836068022809D00128ED
:1016200029D159F8041C890307D4012001B0BDE871
:10163000F08359F8041C8901F7D5D9F8001021F07E
:1016400003010843C9F80000FFF704FB064641F216
:10165000883700BFD9F80000616800F00C00B0EBDB
:10166000810F93D0FFF7F6FA801BB842F2D903201E
:1016700001B0BDE8F08359F8041C8907D5D5DCE733
:1016800040F20400C2F200000068704780B5FFF726
:10169000F7FF41F20401C4F20201096843F2F43297
:1016A000C1F30221C0F60002515CC84080BD0000B9
:1016B00080B5FFF7E5FF41F20401C4F202010968B9
:1016C00043F2F432C1F3C221C0F60002515CC840BB
:1016D00080BD000041F2040CC4F2020CDCF80030C2
:1016E00003F00C00082841F20020C0F27A0018BF75
:1016F0007047C3F383420AA18A5CD90305D440F63C
:101700000010C0F23D0050437047DCF8001008A301
:10171000C1F34041595C5043B0FBF1F0704700BF4A
:1017200002030405060708090A0B0C0D0E0F101022
:10173000010200002DE9F04182B0002800F0C480D1
:101740000446007841F20006C007C4F2020643D006
:10175000706800F00C00042817D0706800F00C00CE
:10176000082802D17068C0030FD465682DB1B5F5A3
:10177000A02F10D0B5F5803F11D0306820F4803014
:101780003060306820F480200CE03068800323D57E
:10179000606808BB98E0306840F4802030603068B2
:1017A00040F480303060FFF755FA002D054610D028
:1017B0003068800310D4FFF74DFA401B6428F7D936
:1017C00004E100BFFFF746FA401B64284FF0030016
:1017D00077D830688003F5D42078800718D57068F2
:1017E00010F00C0F07D0706800F00C00082826D10C
:1017F0007068C00323D43068800702D520690128AF
:1018000062D13068616920F0F80040EAC1003060C0
:10181000207800073DD5A06938B30020C4F24220EB
:101820000121C0F88014FFF715FA0546706A800799
:101830002DD4FFF70FFA401B0228F7D9C6E0206924
:10184000002840F20000C4F2422000F096800121FE
:101850000160FFF7FFF9054630688007D1D4FFF734
:10186000F9F9401B0228F7D9B0E00020C4F2422069
:101870000021C0F88014FFF7EDF90546706A800773
:1018800007D5FFF7E7F9401B0228F7D99EE000F0E3
:1018900085FD207840071BD4E5698DB1706800F0A4
:1018A0000C00082847D1012D0ED07068216A00F481
:1018B00080328A4208D1616A00F47010884203D1F4
:1018C000002002B0BDE8F081012002B0BDE8F08147
:1018D000F06910F0805808D1F06940F08050F06154
:1018E000F06900F080500190019847F20007C4F2BF
:1018F00000073868C00510D4386840F4807038603C
:10190000FFF7A8F9054600BF3868C00505D4FFF702
:10191000A1F9401B6428F7D958E0E5681DB1052DF1
:101920003CD0012D3ED0306A20F001003062306A98
:1019300020F0040039E00027C4F242270020386676
:10194000FFF788F9022D05460CD100BF30688001F1
:1019500054D5FFF77FF9401B02284FF00300F5D95B
:10196000AFE700BF30688001AAD5FFF773F9401BCD
:1019700002284FF00300F5D9A3E700210160FFF72B
:1019800069F90546306880077FF542AFFFF762F9D5
:10199000401B02284FF00300F4D992E7306A40F070
:1019A00004003062306A40F001003062FFF752F903
:1019B000002D054641F2883714D000BF306A8007F9
:1019C00013D4FFF747F9401BB842F7D9032002B000
:1019D000BDE8F081FFF73EF9401BB8424FF003002D
:1019E0003FF66FAF306A8007F4D4B8F1000F7FF490
:1019F00053AFF06920F08050F0614DE7206AB0F5F8
:101A0000803F05D17168A26821F4003111437160F3
:101A10007168626A21F474111043084370600120F8
:101A20003866FFF717F90446306880013FF548AF84
:101A3000FFF710F9001B02284FF00300F4D940E72C
:101A400080B500F0C3FC80BD704700007047000007
:101A5000B0B582B0016805460868CA684C6900F0F4
:101A60002F03202B02F0200305D123B1284600F0DC
:101A700021FD02B0B0BD5FEA007C1EBF04F0010E84
:101A800002F4907414EB0E0424D12B6B1040C206A8
:101A900017D5012B15D100200190086801904868E6
:101AA00001900198486940061CD4A88DEA8DEB8D01
:101AB000002B1CBF801A5FEA004240F09A8002B0FF
:101AC000B0BD010636D44006F9D5284600F0E6FC44
:101AD00002B0B0BDC10718BF12F480712FD1410709
:101AE00033D439E0A86B0268526893B2002BE6D079
:101AF000AC8DA342E3D2EA858269202A16D0CA6857
:101B000022F48072CA604A6922F001024A614A697D
:101B100022F040024A61202285F83E2000222A63FA
:101B2000CA6822F01002CA60FEF7DEFEA88DE98DB9
:101B3000401A6FE0284600F05FFD02B0B0BD296C8E
:101B400041F001012964410706D5BEF1000F03D021
:101B5000296C41F002012964810706D5BEF1000F0E
:101B600003D0296C41F004012964BCF1000F06D5B3
:101B70005EEA030103D0296C41F008012964296C55
:101B800000299CD01040800602D5284600F092FC27
:101B900028684069296C00F0400001F008014018F5
:101BA00020D0284600F064FC28684169490614D515
:101BB000416921F040014161A86B70B142F261417D
:101BC000C0F600014163FEF7AFFE00283FF477AF97
:101BD000A86B416B884702B0B0BD2846FFF736FFBF
:101BE00002B0B0BD2846FFF731FF0020286402B0E4
:101BF000B0BDCA6822F49072CA604A6922F001023C
:101C00004A61202285F83E2000222A63CA6822F019
:101C10001002CA6081B22846FFF716FF02B0B0BDBD
:101C2000002804BF0120704710B5044690F83D001D
:101C300028B9002084F83C00204600F021F8242038
:101C400084F83D002068C16821F40051C16020463D
:101C500000F08AFC2068016921F49041016141692A
:101C600021F02A014161C16841F40051C1600020A6
:101C70002021206484F83D1084F83E1010BD00003F
:101C800070B586B0006844F20041C4F2000100263D
:101C900088420596CDE9036602963FD043F60001DF
:101CA000C4F20101884266D141F21800C4F2020078
:101CB000016840F6000441F4804101600168C4F20B
:101CC000010401F4804101910199016802AD41F0E4
:101CD000040101600068294600F0040001900198A9
:101CE0004FF40070029002200390032005902046DC
:101CF000FEF7BCFE4FF4806002900020CDE90300A7
:101D000020462946FEF7B2FE252000210022FFF7DB
:101D1000E9FB2520FFF7E2FB06B070BD41F2180099
:101D2000C4F20200416840F6000441F40031416011
:101D30004168C4F2010401F4003101910199016884
:101D400002AD41F0040101600068294600F0040082
:101D50000190019804200290022003900320059036
:101D60002046FEF783FE0820CDE9020620462946DC
:101D70000496FEF77BFE06B070BD000070470000C1
:101D80002DE9F04381B0044690F83D0020280BD1A6
:101D90000E4600294FF0010055D01746002A52D0B8
:101DA00094F83C00012803D1022001B0BDE8F08383
:101DB000012084F83C004FF0000921201D46C4F8A2
:101DC000409084F83D00FEF745FFA784E784A168B2
:101DD0000746B1F5805F07D1206900281CBF304657
:101DE0004E46B046064601E04FF0000884F83C90AD
:101DF00007E000BF16F8010B21684860E08C01384D
:101E0000E084E08C80B1204680213A462B4600F0E9
:101E10001DFC80B9002EEDD138F8020B21686FF35C
:101E20005F2048600026E9E7204640213A462B46DD
:101E300000F00CFC18B1032001B0BDE8F0832020B5
:101E400084F83D00002001B0BDE8F0837047000039
:101E5000FEE700000268516949054FF000010FD507
:101E60006FF4806353612022016380F83D2080F885
:101E70003E10026C42F00402026480F83C10012122
:101E8000084670472DE9F04782B0044600680E46C8
:101E90000168DDF828A041F4806101600168DDF887
:101EA0002C9041F480711D461746016020464FF08A
:101EB000011100225346CDF8009000F0F9F850B11E
:101EC00020680068C00544BF4FF400702064032000
:101ED00002B0BDE8F08740F202082068C0F20108B5
:101EE00006F0FE0606612046414652464B4600F08B
:101EF00019F948BB0020019020684A4641690191C8
:101F00008069514601900198204600F081F998B906
:101F1000012D08D02068390A0161204651464A4601
:101F200000F076F940B92068F9B2016120465146C7
:101F30004A4600F06DF958B1206C042804D120689D
:101F4000016841F400710160012002B0BDE8F08732
:101F5000206800220168534641F4807101602046E8
:101F60004FF00111CDF8009000F0A2F80028A7D1A1
:101F7000206846F0010101612046414652464B4629
:101F800000F0D0F8002818BF012002B0BDE8F087AB
:101F90002DE9F04383B0044600680D4601680A9FAE
:101FA0000B9E41F4807199469046016020464FF0A7
:101FB000011100223B46009600F07AF850B12068EB
:101FC0000068C00544BF4FF400702064032003B0D4
:101FD000BDE8F083206805F0FE0101610221C0F236
:101FE000010120463A46334600F09CF818B1012022
:101FF00003B0BDE8F08300200290206832464169BA
:1020000002918069394602900298204600F000F95A
:1020100040B1206C0428EAD12068016841F40071C5
:102020000160E4E7B9F1010F0AD020684FEA1821F6
:10203000016120463946324600F0EAF80028E8D12E
:1020400020685FFA88F10161002003B0BDE8F083E9
:10205000F0B581B0044600684069400724D41546B5
:102060000E464F1C04E000BF2068406940071BD4A7
:102070002046FFF7EFFEA0B9002FF5D0FEF7EAFDEE
:1020800016B1401BB042EFD900202021206384F814
:102090003D1084F83E00216C41F02001216484F859
:1020A0003C00012001B0F0BD002001B0F0BD0000F7
:1020B0002DE9F047DDF820801D469146824601F467
:1020C0007F078EB25C1C00BFDAF80000B7F5803FD6
:1020D00014BF1830143000683040801BB0FA80F014
:1020E000400948451BD1002CEED0FEF7B3FD1DB1D1
:1020F000A0EB0800A842E7D900202021CAF8300050
:102100008AF83D108AF83E00DAF8401041F02001CC
:10211000CAF840108AF83C000120BDE8F087002092
:10212000BDE8F0872DE9F041044600689846436910
:102130008FB203EA0701B94202D10020BDE8F08165
:102140004169490512D41646551C00BF35B1FEF74A
:1021500081FD16B3A0EB0800B0421ED8206841698B
:102160003940B942E9D041694905EFD5016841F4E8
:10217000007101606FF480614161002020212063C3
:1021800084F83D1084F83E00216C41F00401216484
:1021900084F83C000120BDE8F0810020202120636C
:1021A00084F83D1084F83E00216C41F02001EEE7F8
:1021B00070B515460E46044620684169490613D499
:1021C0004169C90612D4FEF745FD16B1401BB04265
:1021D000F2D900202021206384F83D1084F83E00CD
:1021E000206C40F020000CE0002070BD6FF010016A
:1021F000416100202021206384F83D1084F83E00D6
:10220000206C2064002084F83C00012070BD000098
:10221000F0B581B0044600684069000624D4154634
:102220000E464F1C04E000BF2068406900061BD426
:102230002046FFF70FFEA0B9002FF5D0FEF70AFDEC
:1022400016B1401BB042EFD900202021206384F852
:102250003D1084F83E00216C41F02001216484F897
:102260003C00012001B0F0BD002001B0F0BD000035
:1022700083B041F21800C4F20200016841F020016D
:102280000160016801F0200102910299016841F0AA
:1022900004010160016801F00401019101990168E4
:1022A00041F008010160006800F00800009000980B
:1022B00003B0704780B540F2100045F60001C2F24D
:1022C0000000C4F2000148F2A06200234FF4804CE9
:1022D000C0F2010280E80E00C0E9033CC0E905330A
:1022E000C0E90733FEF7BCFC002818BFFEF7FAFA76
:1022F00080BD000080B540F2640043F60001C2F2E8
:102300000000C4F2010100234FF0080C4FF4E13249
:1023100080E80E00C0E90333C0E905C3C361FFF7DD
:102320007FFC002818BFFEF7DDFA80BD80B540F2C3
:10233000A80044F20041C2F20000C4F200010023F0
:102340004FF0080C4FF4E13280E80E00C0E903338F
:10235000C0E905C3C361FFF763FC002818BFFEF79F
:10236000C1FA80BDFEE700007047000000F00700E2
:1023700080F00703042B28BF04234FF0FF3C0338F1
:102380000CFA03F338BF0020994381400CFA00F0A7
:1023900022EA0000084370477047000081B040F215
:1023A0000400C2F20000006844F6D351C1F2620199
:1023B000A0FB0101480A009000BF0098411E0028C0
:1023C0000091F9D101B0704770470000B0B50138F5
:1023D0000024B4EB106F1CBF0120B0BD4EF21005FD
:1023E000CEF2000568604FF0FF300F2100F082F957
:1023F0000720AC6028602046B0BD000080B5FFF724
:1024000001F880BD70B590B006AC20462821FDF7DC
:10241000B2FE012006900A904FF4E01000254FF420
:10242000803102260F9020460595CDE90355CDE970
:102430000155CDE90715CDE90D61FFF77BF90F20B7
:10244000CDE901064FF48060CDE9040501A8022121
:102450000395FFF75BF810B070BD000070470000F7
:1024600080B5406A0021C185C184FFF7EFFA80BDC5
:102470000168CA6822F49072CA604A6922F00102B7
:102480004A61026B012A03D1CA6822F01002CA60B5
:10249000202180F83E1000210163704780B501685B
:1024A000CA6822F04002CA60202180F83D10FFF780
:1024B000CDFC80BD80B582B090F83E1022291ED19F
:1024C0008268B2F5805F02D10169002940D0816A3B
:1024D000B2F5805F07D00AB9026922B1026852687A
:1024E00002F07F0201E0026852680A700121826AEC
:1024F00011448162C18D01390A04C18501D002B045
:1025000080BD0168CA6822F02002CA60CA6822F44D
:102510008072CA604A6922F001024A61202280F872
:102520003E20026B012A1BD100220263CB6823F0FC
:102530001003CB600B68DB0605D501920A68019297
:10254000496801910199818DFFF77EFA02B080BD43
:102550000168826A49686FF35F2111800221C6E732
:10256000FFF70CFC02B080BD10B504460068D4E94A
:1025700002C22369016921F440511143016161697B
:1025800043EA0C021143C26841F20C639A431143BF
:10259000C1604169A26921F44071114343F6000210
:1025A000C4F201029042416102D0FFF76FF801E0EE
:1025B000FFF77EF86268192148439100B0FBF1F003
:1025C00048F21F51C5F2EB11A0FB01235A096FF02D
:1025D000630302FB0300322303EB0010A0FB0101A5
:1025E000F02303EA5113206803EB0212C1F34311F5
:1025F0001144816010BD000090F83D10212923D1C5
:102600008168B1F5805F01D1016931B1016A026869
:102610004B1C03620978516007E0016A036831F8D6
:10262000022B6FF35F225A600162C18C01390A04E8
:10263000C18418BF70470068C16821F08001C16083
:10264000C16841F04001C160704700002DE9F041D0
:102650000446006800680840884202D10020BDE8B6
:10266000F0811D460E4690465F1C04E0206800681D
:102670003040B042F2D0002FF8D02DB1FEF7EAFA88
:10268000A0EB0800A842F1D92068C16821F4D071FC
:10269000C160416921F001014161202084F83D00C1
:1026A00084F83E00002084F83C000320BDE8F0815F
:1026B00080B540F26400C2F20000FFF7C9F980BDA6
:1026C000FEE70000002848BF704700F01F0101220C
:1026D00002FA01F14EF200124009CEF2000242F875
:1026E000201070474EF60C50CEF200000068C0F388
:1026F000022070474EF6145300F00F02CEF2000392
:1027000009011A4400F16043B0F1FF3FC8BF03F56F
:1027100064421170704700004EF60C51CEF2000179
:102720000A684FF6FF031A4060F30A2242F0806005
:1027300040F0FD700860704710B582B0019040F223
:10274000640001ACC2F2000021460122FF23FFF722
:1027500017FB40F2A800C2F2000021460122FF232D
:10276000FFF70EFB019802B010BD000080B50522F6
:10277000FF23FEF741FB002818BF012080BD0000A9
:1027800010B582B01C464FF0020C0DF10603CDF8D7
:1027900000C000F01DF8012802D1012002B010BDD8
:1027A000BDF8060000BA000C2080002002B010BD69
:1027B00010B582B01C460DF10603FFF7E1FFBDF82E
:1027C0000610012808BF214688B202B010BD0000E3
:1027D00080B584B0DDF818C04FF0FF0E00930123E0
:1027E000CDF808E0CDF804C0FEF7D6FB002818BFEE
:1027F000012004B080BD0000F0B581B004460FA0F8
:1028000000F0DEFD002511A6002702E00135802D35
:102810000ED06800C1B22046FFF7A8FF0028F5D10E
:102820000137F9B230462A462B4600F04FF9EDE762
:102830000BA000F0C5FDF8B201B0F0BD37626974BD
:102840007320616464726573733A0D005B253033E5
:10285000645D20307825303278282564290D0A00FF
:102860002D2D2D2D2D2D2D2D2D2D2D2D2D2D0D00E5
:1028700080B582B05BBAADF806304FF0020C0DF1B6
:102880000603CDF800C000F02FF802B080BD0000B4
:102890002DE9F04182B0984601270DF10703144657
:1028A0000D4606460097FFF793FF012817D00898BA
:1028B00008F00701002807FA01F09DF807100CBF87
:1028C00021EA000008438DF8070001270DF10703F6
:1028D000304629462246009700F006F8074638465B
:1028E00002B0BDE8F081000080B584B0DDF818C00A
:1028F0004FF0FF0E00930123CDF808E0CDF804C09F
:10290000FEF7B4FC002818BF012004B080BD000011
:1029100080B5024640F21000C2F200009021002370
:10292000FFF746FFC009010A06D1FDF7D0FC4FF0C2
:102930007C51FDF783FC80BDC0B2C0F58070FDF70F
:10294000BDFC4FF03F41FDF779FC80BD80B540F202
:102950001000C2F20000902100220023FFF728FFA0
:10296000410902B201F57841B2F1FF3FC8BF410908
:102970000846FDF7ACFC4FF07851FDF75FFC80BDD9
:10298000B0B50D46044608460021FDF789FC38B96C
:1029900028462946FDF7FAFBFDF79EFCC0B20DE084
:1029A00028464FF04041FDF749FCFDF795FCC0B2C9
:1029B00048F200014042CFF6FF710843C00183B2E4
:1029C00040F21000C2F2000090212246FFF750FFB3
:1029D000B0BD000082B0FEF723FDFFF713FDFFF747
:1029E00047FCFFF787FCFFF7A1FCFFF763FC40F211
:1029F0001004C2F200042046FFF7FEFE0025204628
:102A00009021012200230095FFF742FF20469021EC
:102A1000012201230095FFF73BFF0021C4F2F411CE
:102A20000320FFF7ADFF0320FFF772FFFDF76DFCFA
:102A300043F2FC3743F22445C0F60007C0F6000518
:102A40000E46009016A338466B212A46019600F0E8
:102A50003DF80021C4F2E0110220FFF791FF0220AF
:102A6000FFF756FFFDF751FC0E4600900FA33846C6
:102A70006F212A46019600F029F80FA6FFF766FF9E
:102A8000FDF743FC0C460090384675212A46334634
:102A9000019400F01BF84FF47A70FDF7D3FFEDE7D7
:102AA0007468726573686F6C640000006879737491
:102AB00065726573697300006C6D37355F726561AF
:102AC000645F74656D702829000000000FB4054B29
:102AD00010B503A9044A029800F0DAF810BC5DF8BA
:102AE00014FB0000392700080000002002E008C89D
:102AF000121F08C1002AFAD170477047002001E078
:102B000001C1121F002AFBD1704700002DE9FF5FB1
:102B100082B00021DDE90430020DDDF840B003434E
:102B200018D044F61050A2F2FF3242431514119807
:102B300001281FD0A5EB0B00401C5FEA000A4FF0F4
:102B400000064E4FDFF83891B046504615D5CAF111
:102B5000000413E0119801244AA3012801D16FEA6F
:102B60000B010298119AC0E90031C0E9024206B097
:102B7000BDE8F09FCBF10000DFE704460021404AAA
:102B8000491842EB0450CDE9001012E0E00707D0ED
:102B900032463B4640464946FDF7EFFC80468946B3
:102BA00032463B4610461946FDF7E7FC06460F46FF
:102BB0006410002CEAD1DDE90401DDE90023BAF15B
:102BC000000F06DAFDF7D9FC42464B46FDF7D5FC6F
:102BD00005E0FDF744FD42464B46FDF740FD044647
:102BE0000E460022284BFDF7C1FD03D84FF0FF3001
:102BF000014607E00022254B20463146FDF716FC32
:102C0000FDF79CFD102409E0002C0ADB0A220023BA
:102C1000FDF7A4FB039B30321A55641E50EA0102F3
:102C2000F2D1641C039AC4F111031444119A012ACD
:102C300003D0012208430DD10AE0084304D000204C
:102C40004FF0110B119072E7A3EB0B056D1E0DE019
:102C50005B4504DD4FF0000205F1010504E003DAF5
:102C60004FF00002A5F10105002AECD0029811995D
:102C7000C0E90231C0E9004579E7000000001440D6
:102C80000000F03F300000000000F0430000E03F93
:102C90002DE9FF4F95B09B468946064600250FE279
:102CA000252877D100242746F84A0121059400E021
:102CB000044316F8013F203B01FA03F01042F7D11C
:102CC00030782A2811D06FF02F033078A0F130022D
:102CD000092A16D8059A44F0020402EB820203EB9B
:102CE00042021044761C0590EFE759F8042B059238
:102CF000002A03DA504244F40054059044F00204E0
:102D0000761C30782E2816D116F8010F44F00404F2
:102D10002A280DD06FF02F023078A0F13003092B54
:102D200009D807EB870302EB4303C718761CF3E7C8
:102D300059F8047B761C30786C280FD006DC4C28C0
:102D400017D068280DD06A2814D104E0742810D058
:102D50007A280FD10DE044F400140AE044F4801402
:102D600001E044F440147278824202D104F58014E8
:102D7000761C761C307866280BD013DC582877D068
:102D800009DC002875D04528F6D04628F4D047281D
:102D90001AD19DE118E0632835D0642879D06528E0
:102DA00012D195E1702873D008DC6728F1D069282A
:102DB0006FD06E280DD06F2806D1B5E073282CD0C7
:102DC000752875D0782874D05A46179990476D1C8D
:102DD00075E1C4F30250022809D003280DD0D9F8B8
:102DE000001004280DD00D6009F1040967E1D9F83D
:102DF0000010EA17C1E90052F6E7D9F800100D807B
:102E0000F2E70D70F0E719F8041B8DF800100020B0
:102E10008DF80100EA46012003E059F804AB4FF0B9
:102E2000FF3061074FF0000102D40DE008F101010D
:102E30008846B9420FDA8045F8DB1AF808100029F5
:102E4000F4D108E008F1010188468142FADB1AF862
:102E500008100029F6D105985B46A0EB080721462B
:102E60003846179A00F094FA284400EB080507E06A
:102E70004DE029E10DE01AF8010B5A4617999047E9
:102E8000B8F10108F7D25B4621463846179A13E19C
:102E900042E00A220092C4F302524FF0000A022AD2
:102EA00008D059F804CB032A4FEAEC710AD00DE0A0
:102EB00029E02AE009F1070121F00702F2E802C146
:102EC000914609E00FFA8CFC4FEAEC71042A03D119
:102ED0004FFA8CFC4FEAEC71002907DA0A46002110
:102EE000DCF1000C61EB02012D2202E0220504D589
:102EF0002B228DF80420012203E0E20701D02022DA
:102F0000F7E7904659E00A2102E010220DE0102177
:102F10004FF0000A00910BE010224FF0000A44F03D
:102F200004040827009203E008224FF0000A0092F0
:102F3000C4F30252022A05D059F804CB0021032A17
:102F400008D009E009F1070121F00702F2E802C107
:102F5000914605E01FFA8CFC042A01D10CF0FF0C0D
:102F60004FF00008220728D5702806D0009B83F078
:102F7000100353EA0A0305D00EE040228DF8042026
:102F8000012208E05CEA010206D030228DF804201C
:102F90008DF8050002229046009B83F0080353EA57
:102FA0000A030AD15CEA010201D1620705D5302289
:102FB0008DF804204FF001087F1E582804D034A05B
:102FC00003900EA802900DE036A0F9E75346604644
:102FD000009AFDF7C3F984460398825C0298401E6C
:102FE000029002705CEA0100F0D1029806A9081A6A
:102FF00000F1200A600702D524F4803400E00127A4
:10300000574502DDA7EB0A0000E0002000EB0A01B3
:10301000009005984144401A0590E00306D45B46B1
:103020002146179A059800F0B3F90544002706E0F9
:1030300001A85A46C05D179990476D1C7F1C4745F3
:10304000F6DBE0030CD55B462146179A059800F0A5
:103050009FF9054404E030205A46179990476D1CAB
:103060000099481E00900029F5DC08E002980299BA
:103070005A460078491C0291179990476D1CBAF185
:103080000001AAF1010AF1DC65E100000928010054
:1030900030313233343536373839616263646566CE
:1030A0000000000030313233343536373839414290
:1030B000434445460000000000F058F90544761CE2
:1030C000307800287FF4ECAD19B02846BDE8F08FC9
:1030D000620700D4062709F1070222F0070CFCE87A
:1030E0000223E14603F000485FEA080C02D00FF229
:1030F000702C0DE05FEA045C02D50FF2682C07E04B
:103100005FEAC47C02D00FF2602C01E0AFF2700CD9
:103110004FF0FF3823F00043CDF850C065280CD0A5
:1031200006DC452809D046281DD047283DD13DE082
:10313000662818D067287ED138E00021112F01DBE6
:10314000112000E0781CCDE9000106A90EA8FFF7C8
:10315000DDFCDDE90F010E9A03910021009207F1D9
:10316000010A04914DE04FF000400097CDE90110B5
:1031700006A90EA8FFF7CAFCDDE90F0203920E9B19
:1031800011990022DDF80CA00093049211B9791C6A
:1031900000EB010AB7EB0A0004D4C0F1FF3007F1DD
:1031A000010A0490AAEB0700019044E0012F00DA25
:1031B00001270021112F01DD112000E03846CDE963
:1031C000000106A90EA8FFF7A1FCDDE90F010E9A88
:1031D0000391002104910092BA4621070CD403996F
:1031E000514500DA8A46BAF1010F05DD009AAAF1CD
:1031F0000101515C302908D0B84202DA10F1040F05
:1032000006DA0121CDE9011015E0AAF10101E9E793
:10321000002805DC049901440491AAEB000102E0B6
:10322000411C514500DD8A460499401A401C01901A
:103230004FF000400290200704D40198504501DB74
:10324000CDF8048000208DF84F0002980DF14F0753
:10325000B0F1004F25D02B200E9002984FF00208BD
:1032600000280CDA404202902D200E9007E00A213F
:103270000298FDF75DF83031029007F8011DB8F1B2
:103280000001A8F10108F2DC02980028EFD1791EB4
:103290000E980870307800F0200040F0450007F8E4
:1032A000020D12A8C01B00F107081498007800B1A5
:1032B000012000EB0A01019801EBE07105984144FF
:1032C000401A401E0590E00306D45B462146179A3B
:1032D000059800F05DF805441498007818B15A4636
:1032E000179990476D1CE00324D55B462146179A39
:1032F000059800F04DF805441CE00498002807DB11
:10330000DDE90301884203DD0098405C179901E084
:10331000179930205A469047049805F10105401C42
:1033200004900198401E019004D12E205A4617990E
:1033300090476D1CBAF10001AAF1010ADDDC05E03D
:1033400017F8010B5A46179990476D1CB8F1000108
:10335000A8F10108F4DC5B462146179A0598ABE614
:103360002D0000002B000000200000002DE9F0419E
:10337000044600251E461746880404D405E0394655
:103380002020B0476D1C641EF9D52846BDE8F081A9
:103390002DE9F041044600251E469046C80301D59C
:1033A000302700E02027880404D505E04146384650
:1033B000B0476D1C641EF9D52846BDE8F0810000B9
:1033C00010B5044601E0FFF7B7F914F8010B044902
:1033D0000028F8D1BDE810400A20FFF7ADB9000081
:1033E00000000020000000000000000001020304B3
:1033F0000607080900000000010203045B206C6955
:103400006E653A202564207C2066756E6374696F52
:103410006E3A202573205D202573203D20252E3314
:10342000660D0A006D61696E0000000050340008EE
:103430000000002010000000EC2A000860340008A2
:1034400010000020E0040000FC2A0008000000003A
:10345000000000000024F400010000001000000043
:0400000508000131BD
:00000001FF
