:020000040800F2
:10000000986600204501000879160008E9140008E8
:10001000751600088D020008651B0008000000002E
:10002000000000000000000000000000891A000825
:1000300091020008000000007D1600088D1A0008DB
:100040005F0100085F0100085F0100085F01000810
:100050005F0100085F0100085F0100085F01000800
:100060005F0100085F0100085F0100085F010008F0
:100070005F0100085F0100085F0100085F010008E0
:100080005F0100085F0100085F0100085F010008D0
:100090005F0100085F0100085F0100085F010008C0
:1000A0005F0100085F0100085F0100085F010008B0
:1000B0005F0100085F0100085F0100085F010008A0
:1000C0005F0100085F0100085F0100085F01000890
:1000D0005F010008591B00085F0100085F0100086C
:1000E0005F0100085F0100085F0100085F01000870
:1000F0005F0100085F0100085F0100085F01000860
:100100005F0100085F0100085F0100085F0100084F
:100110005F0100085F0100085F0100085F0100083F
:100120005F0100085F0100085F0100085F0100082F
:10013000DFF80CD000F098F800480047196D02086D
:10014000986600200648804706480047FEE7FEE71D
:10015000FEE7FEE7FEE7FEE7FEE7FEE7FEE7FEE777
:10016000911A0008310100082DE9F05F05460020D2
:1001700092469B4688460646814640241BE0284618
:1001800041464746224600F05FF853465A46C01A99
:10019000914110D311461846224600F046F82D1A18
:1001A00067EB01084F4622460120002100F03DF890
:1001B00017EB00094E41201EA4F10104DFDC484684
:1001C00031462A464346BDE8F09FD2B201E000F82E
:1001D000012B491EFBD270470022F6E710B51346EB
:1001E0000A4604461946FFF7F0FF204610BD421CA0
:1001F00010F8011B0029FBD1801A704710B50022AE
:1002000000E0521C835C8C5CA34201D1002BF8D12E
:10021000D8B2E1B2401A10BD034611F8012B00F824
:10022000012B002AF9D118467047202A04DB203A16
:1002300000FA02F1002070479140C2F1200320FA39
:1002400003F3194390407047202A04DB203A21FA37
:1002500002F00021704721FA02F3D040C2F12002DF
:100260009140084319467047064C074D06E0E06888
:1002700040F0010394E8070098471034AC42F6D3ED
:10028000FFF75AFF98E80208B8E80208FEE7000006
:100290007047000070470000014690F821000228D6
:1002A00016D10868D1E90FC3026822F00E0202607D
:1002B000026822F001020260012000FA03F2CCF889
:1002C000042081F821000020002281F820207047BE
:1002D000042088630120002281F82020704700005C
:1002E00080B590F82110022928D1026840F2040C50
:1002F0001368C4F2020C23F00E03136013680CF1B0
:100300007C018A4223F0010111601BD940F20841AF
:10031000C4F202018A4249D040F21C41C4F20201F7
:100320008A4247D040F23041C4F202018A4245D1AC
:100330004FF48073CCF800345DE000BF042181638A
:10034000012080BD4321C4F202018A420EDD6B21EF
:10035000C4F202018A421BDC4421C4F202018A4237
:100360003CD05821C4F202018A4233E00821C4F291
:1003700002018A4236D01C21C4F202018A4237D0DF
:100380003021C4F202018A4224D14FF4807230E05D
:100390006C21C4F202018A4226D08021C4F20201FB
:1003A0008A4217D14FF0807223E000BF0123CCF8BE
:1003B000003420E01023CCF800341CE00CF58861F8
:1003C0004FF480338A4208BF4FF48053CCF8003496
:1003D00011E000BF4FF480320BE000BF4FF48052B9
:1003E00007E000BF012204E04FF4801201E000BFEB
:1003F0001022CCF80020416B4FF48072028401B1CE
:100400008847002080BD0000B0B5044600F01AF90E
:10041000054640F20000C2F200000078611C18BFDF
:10042000044400BF00F00EF9401BA042FAD3B0BD57
:100430002DE9F04F82B0D1F800C0BCF1000F00F000
:10044000F180A0F1804241F60045A2F58432C4F269
:10045000010540F2004E4FEAB2240627A842C4F23A
:10046000010E08BF0527052C4FF000044FF00108CE
:100470004FF00F034FF0000A4FF0000B38BF4FEA68
:10048000B22700970AE000BFD1F800C00AF1010AC4
:100490003CFA0AF204F1040400F0C48008FA0AF9F4
:1004A0001CEA090FF0D04E684FF6FF72C1F210023D
:1004B000964211DC122E55D8DFE806F0340A444883
:1004C000545454545454545454545454544C50004C
:1004D000D1F80CB046E000BF4FF6FF72C1F2210226
:1004E00096420FDC0022C1F2110296421AD000227D
:1004F000C1F21202964215D00022C1F221029642A8
:1005000010D02FE00022C1F2220296420AD000222F
:10051000C1F23102964205D00022C1F23202964267
:1005200020D100BF8A684AB1012A14BFC0F81490D4
:10053000C0F810904FF0080B14E000BF4FF0040B10
:1005400010E000BFCA6802F1080B0BE04FF0000B8F
:1005500008E000BFCA6802F1040B03E0CA6802F1B8
:100560000C0B00BF22460646BAF1080F24BF203A02
:100570000436376803FA02F5AF430BFA02F23A4346
:100580003260CA79D2067FF57FAF41F21807C4F214
:1005900002073A684FF6084342F001023A603A68AF
:1005A000CFF6FF7302F001020192019A2AF00302D2
:1005B00072440F25D75804F00C06B540AF43009D98
:1005C00005FA06F63743D7504E680F23F203DEF8DC
:1005D000002054BF22EA090242EA0902CEF80020B4
:1005E000DEF80420B70354BF22EA090242EA0902F6
:1005F000CEF80420F702DEF8082054BF22EA0902F0
:1006000042EA0902B70240F20C47CEF80820C4F2D1
:1006100001073A6854BF22EA090242EA09023A6035
:1006200032E700BF02B0BDE8F08F000080680840EC
:1006300018BF012070470000002A08BF09040161AB
:100640007047000045F69060C2F2000000687047F5
:1006500040F2000045F69061C2F20000C2F20001D3
:1006600000780A68104408607047000080B542F2C4
:100670000000C4F20200016841F010010160032093
:1006800000F08AF8002000F005F800F027F80020BC
:1006900080BD000070B540F20006C2F2000640F2D4
:1006A00010013278C2F200014FF47A730968B3FB8B
:1006B000F2F20446B1FBF2F1084600F0D9FC0F2C2F
:1006C0004FF0010508D838B94FF0FF30214600221D
:1006D000002500F035F87460284670BD82B041F204
:1006E0001800C4F202000168022241F00101016019
:1006F000016801F0010101910199416841F08051C7
:100700004160406800F08050009000980420C4F2DE
:100710000100016862F31A61016002B070470000D5
:10072000002848BF704700F01F01012202FA01F1C2
:100730004EF200124009CEF2000242F8201070473B
:1007400010B54EF60C5CCEF2000CDCF80030C3F3B2
:10075000022E8EF00704042C28BF0424BEF10303EC
:100760004FF0FF3E0EFA04F438BF0023A143994036
:100770000EFA03F39A4300F00F03043B1143634462
:1007800009010C3300F16042B0F1FF3FC8BF02F530
:100790006443197010BD00004EF60C51CEF20001FA
:1007A0000A684FF6FF031A4060F30A2242F08060A5
:1007B00040F0FD70086070472DE9F04381B00028DB
:1007C00000F0858042F20008C4F202080446D8F81E
:1007D00000000D4600F0070088420CD2D8F8000057
:1007E00020F007002843C8F80000D8F8000000F007
:1007F0000700A8426BD1206841F204098107C4F2C6
:10080000020917D5410705D5D9F8001041F4E06178
:10081000C9F80010010705D5D9F8001041F460515E
:10082000C9F80010D9F80010A26821F0F0011143B6
:10083000C9F80010C00741D1D8F8000000F0070047
:10084000A8420CD9D8F8000020F007002843C8F8C7
:100850000000D8F8000000F00700A84237D1206857
:10086000410707D5D9F80010E26821F4E06111438F
:10087000C9F80010000708D5D9F80000216920F454
:10088000605040EAC100C9F80000D9F8002002F029
:100890000C00082841F20020C0F27A0050D14BF23F
:1008A0002473C2F38341C0F60203595CD2033BD4E4
:1008B00040F60010C0F23D00484341E06068022865
:1008C0000AD001282AD159F8041C890308D4012030
:1008D00001B0BDE8F08300BF59F8041C8901F6D5CA
:1008E000D9F8001021F003010843C9F80000FFF710
:1008F000A9FE064641F28837D9F80000616800F089
:100900000C00B0EB810F97D0FFF79CFE801BB84224
:10091000F2D9032001B0BDE8F08300BF59F8041CF0
:100920008907D4D5DCE700BFD9F800204BF24C533F
:10093000C2F34042C0F602039A5C4843B0FBF2F0B7
:10094000D9F800104BF25C52C1F30311C0F6020259
:10095000515C40F2100220FA01F140F20400C2F2B0
:1009600000000068C2F200021160FFF793FE002051
:1009700001B0BDE8F083000040F2100041F2040134
:10098000C2F20000C4F20201006809684BF26C5226
:10099000C1F30221C0F60202515CC840704700005A
:1009A00040F2100041F20401C2F20000C4F2020160
:1009B000006809684BF26C52C1F3C221C0F6020212
:1009C000515CC840704700002DE9F04182B000281A
:1009D00068D00446007841F20006C007C4F202065F
:1009E00025D0706800F00C0004281BD0706800F05F
:1009F0000C00082802D17068C00313D46068002876
:100A000000F06881B0F5A02F00F07C81B0F5803F48
:100A100000F07C81306820F480303060306820F451
:100A2000802076E13068800301D56068D0B32078FB
:100A3000800718D5706810F00C0F07D0706800F0B0
:100A40000C0008286ED17068C0036BD43068800732
:100A500002D52069012825D13068616920F0F800AD
:100A600040EAC1003060207800071FD4207840079A
:100A700032D4E56995B1706800F00C00082840F0A8
:100A80008F80012D0ED07068216A00F480328A4276
:100A900008D1616A00F47010884203D1002002B0CE
:100AA000BDE8F081012002B0BDE8F081A069002816
:100AB00062D00020C4F242200121C0F88014FFF768
:100AC000C1FD0546706A800700F18C80FFF7BAFD12
:100AD000401B0228F6D92AE1F06910F0805808D1AD
:100AE000F06940F08050F061F06900F080500090B3
:100AF000009847F20007C4F200073868C00529D4FF
:100B0000386840F480703860FFF79CFD054600BFF0
:100B10003868C0051ED4FFF795FD401B6428F7D93F
:100B200005E100BF2069002840F20000C4F2422025
:100B300000F0828001210160FFF784FD054600BFBF
:100B4000306880073FF588AFFFF77CFD401B022827
:100B5000F6D9ECE0E068002800F08080052800F07D
:100B60009780012800F09880306A20F00100306200
:100B7000306A20F0040092E00020C4F242200021FC
:100B8000C0F88014FFF75EFD054600BF706A80075D
:100B90007FF56CAFFFF756FD401B0228F6D9C6E083
:100BA0000027C4F2422700203866FFF74BFD022DD4
:100BB00005460BD13068800140F1BE80FFF742FD51
:100BC000401B02284FF00300F4D968E73068800129
:100BD0007FF564AFFFF736FD401B02284FF003009E
:100BE000F4D95CE740F21000C2F20000006844F65D
:100BF000D351C1F26201A0FB0101480A019000BF7C
:100C000000BF0198411E002801913FF42FAF00BFA3
:100C10000198411E002801913FF428AF00BF0198C0
:100C2000411E002801913FF421AF00BF0198411EF1
:100C300000280191E4D119E700210160FFF702FDCE
:100C4000054600BF306880077FF50DAFFFF7FAFC5F
:100C5000401B02284FF00300F4D920E7306A20F04F
:100C600001003062306A20F004003062FFF7EAFCD5
:100C7000054641F2883700BF306A800720D5FFF76C
:100C8000E1FC401BB8424FF00300F5D907E700BF75
:100C9000306A40F004003062306A40F00100306297
:100CA000FFF7D0FC054641F2883700BF306A800765
:100CB00006D4FFF7C7FC401BB842F7D937E000BFA6
:100CC000B8F1000F7FF4D5AEF06920F08050F061EC
:100CD000CFE600BF306820F480303060306820F408
:100CE00080203060FFF7AEFC054600BF306880030F
:100CF0007FF59DAEFFF7A6FC401B64284FF0030074
:100D0000F4D9CCE6306840F480203060306840F49C
:100D100080303060FFF796FC054600BF30688003E6
:100D20003FF585AEFFF78EFC401B6428F6D9032003
:100D300002B0BDE8F08100BF206AB0F5803F05D168
:100D40007168A26821F40031114371607168626AB0
:100D500021F4741110430843706001203866FFF7D6
:100D600071FC0446306880013FF598AEFFF76AFCDD
:100D7000001B02284FF00300F4D990E670B538B19B
:100D80000446406A30B10020206104F1140007E0FD
:100D9000012070BD6068B0F5827F03D004F11C00B3
:100DA000002101600026A66294F851004FF0000C6B
:100DB00038B9204684F8506000F03AF8A06A00F490
:100DC000005C022184F8511094E80E00E0680D6880
:100DD00002F4827225F040050D6003F404431A44C6
:100DE000236900F40060104403F0020263691044B8
:100DF00003F00102A369E569104403F40072104492
:100E000005F03802256A104405F08002104340EADC
:100E10000C000860042000EA13404860C86920F410
:100E20000060C8610120666584F85100304670BDDD
:100E300080B586B043F600410068C4F2000100228C
:100E40008842049202D006B080BD00BF41F2180073
:100E5000C4F20200426842F400424260426802F476
:100E600000420192019A026842F0080202600068A2
:100E700000F00800019001982820029002200390C1
:100E80000320059001F5504002A9FFF7D1FA06B002
:100E900080BD00002DE9F04381B0044690F8500079
:100EA000012803D1022001B0BDE8F0834FF0010911
:100EB0001D4616460F4684F85090FFF7C3FB94F882
:100EC0005110012972D18046002F4FF0010018BF48
:100ED000002E00F0C2800320002184F851006165DB
:100EE0002763A686E686A163A187E187A0682164BF
:100EF000B0F5004F2068616407D1016821F040011E
:100F00000160016841F4804101600168490603D431
:100F1000016841F0400101606168731EE268B1FA46
:100F200081F1B3FA83F349095B09B2F5006F41EA35
:100F300003013DD131B137F8021BC1602763E18E57
:100F40000139E186E18E00296CD0691C1BD000BFFD
:100F50008168890706D4FFF775FBA0EB0800A8425B
:100F600008D383E0216B31F8022BC2602163E08E4D
:100F70000138E086E08E002854D020688168890717
:100F8000E9D5EFE720688168890703D4FFF75AFBAA
:100F900008E000BF216B31F8022BC2602163E08EB4
:100FA0000138E086E08E0028ECD13BE0022054E0DE
:100FB00039B139780173206B01302063E08E01383C
:100FC000E086E08E70B3681C0BD11BE0216B0978C2
:100FD0000173206B01302063E08E0138E086E08EE3
:100FE00000B3206881688907F0D4FFF72BFBA0EBE2
:100FF0000800A842F3D303202FE000BFFFF722FB35
:10100000E08E78B1206881688907F7D5216B09786F
:101010000173206B01302063E08E0138E086E08EA2
:101020000028EFD1204680212A46434600F028FBC5
:1010300028B1606D40F02000606520206065A068E8
:1010400038B9002000902068C16800918068009045
:101050000098606D002818BF0120002184F851908D
:1010600084F8501001B0BDE8F08300BF0320F4E71E
:10107000411E0020B0EB116F1CBF012070474EF2E3
:101080001002CEF2000251604EF62351CEF2000162
:10109000F0230B70072190601160704770470000CB
:1010A00070470000B0B582B0026805461068D1688C
:1010B000546900F02F03202B01F0200306D12BB13F
:1010C000284602B0BDE8B04000F0EABC5FEA007C10
:1010D0001EBF04F0010E01F4907414EB0E042DD128
:1010E0002B6B0840C10617D5012B15D100200190AC
:1010F000106801905068019001985069400625D40D
:10110000A88DE98DEB8D002B1CBF401A5FEA0041D2
:1011100040F0CA8002B0B0BD010645D44006F9D502
:10112000D068202120F04000D060284685F83D108E
:1011300002B0BDE8B04000F0D5B900BFC40718BF89
:1011400011F4807442D1440746D44CE0A86B016886
:101150004B689CB2002CDDD0A98D8C42DAD2EB8595
:101160008369202B17D0D16821F48071D160516937
:1011700021F001015161516921F0400151612021AB
:1011800085F83E1000212963D16821F01001D1605B
:10119000FFF782F8A98DE88D081A81B2284602B0BF
:1011A000BDE8B040FFF77ABF95F83D002128B1D1E6
:1011B000A868B0F5805F03D12869002800F08C8012
:1011C000286A411C2962007850608CE02C6C44F045
:1011D00001042C64440706D5BEF1000F03D02C6C2B
:1011E00044F002042C64840706D5BEF1000F03D03E
:1011F0002C6C44F004042C64BCF1000F06D553EAB7
:101200000E0303D02B6C43F008032B642B6C002BD4
:101210003FF480AF0840800603D5284600F040FC2C
:101220002A685069296C00F0400001F0080140185C
:1012300032D0D06820F49070D060506920F0010066
:101240005061286B012803D1D06820F01000D060D5
:10125000202085F83E00002028635069400615D5FF
:10126000506920F040005061A86B78B141F695219B
:10127000C0F600014163FFF733F800283FF44AAF9E
:10128000A86B416B02B0BDE8B0400847284602B0E9
:10129000BDE8B040FFF704BF2846FFF701FF00207C
:1012A000286402B0B0BD00BFD16821F49071D16054
:1012B000516921F001015161202185F83E10002182
:1012C0002963D16821F0100381B22846D36002B0AF
:1012D000BDE8B040FFF7E2BE286A30F8021B6FF3AA
:1012E0005F2151602862E88C01380104E8847FF4B2
:1012F00011AFD06820F08000D060D06840F040008E
:10130000D06002B0B0BD0000002804BF01207047CB
:1013100010B5044690F83D0028B9002084F83C0040
:10132000204600F05FF8242084F83D002068D4E9CE
:101330000212C36823F40053C360036923F44053CB
:101340001A430261D4E904231143C268194341F2EC
:101350000C639A431143C1604169A26921F4407151
:10136000114343F60002C4F201029042416103D0EE
:10137000FFF702FB02E000BFFFF712FB62681921D2
:1013800048439100B0FBF1F048F21F51C5F2EB1158
:10139000A0FB01235A096FF0630302FB0300322311
:1013A00003EB0010A0FB0101F02303EA51132068B6
:1013B00003EB0212C1F3431111448160016921F46E
:1013C00090410161416921F02A014161C16841F404
:1013D0000051C16000202021206484F83D1084F871
:1013E0003E1010BD70B586B0006844F20041C4F2F2
:1013F0000001002688420596CDE9036602963FD09B
:1014000043F60001C4F20101884266D141F218009E
:10141000C4F20200016840F6000441F4804101601A
:101420000168C4F2010401F480410191019901684D
:1014300002AD41F0040101600068294600F004009B
:10144000019001984FF40070029002200390032055
:1014500005902046FEF7ECFF4FF4806002900020DC
:10146000CDE9030020462946FEF7E2FF25200021B2
:101470000022FFF765F92520FFF752F906B070BD8D
:1014800041F21800C4F20200416840F6000441F441
:10149000003141604168C4F2010401F4003101915E
:1014A0000199016802AD41F004010160006829461C
:1014B00000F00400019001980420029002200390A3
:1014C000032005902046FEF7B3FF0820CDE9020671
:1014D000204629460496FEF7ABFF06B070BD00001B
:1014E0007047000070470000FEE700002DE9F0475C
:1014F00084B041F21800C4F20200016840F6004ACC
:1015000041F0100101600168C4F2010A01F010010C
:101510000091009901680AF5806541F020010160A1
:101520000168002201F020010091009901684FF448
:10153000005641F00401016001684FF0000901F01C
:10154000040100910099016841F008010160006800
:101550004FF4005100F00800009000982846FFF773
:101560006BF850464FF4607100224FF46078FFF73B
:1015700063F800966E460127022428463146CDE9DD
:1015800001790394FEF754FFAAF580603146CDE956
:1015900000790294FEF74CFF50463146CDE90087B2
:1015A000CDE90294FEF744FF04B0BDE8F0870000E7
:1015B00080B540F29C4043F6004CC2F20000C4F2F9
:1015C000000C4FF482724FF4004300214FF4007E70
:1015D000C0E900C20A22C0E90231C0E90411C0E931
:1015E00006E1C0E90811C0E90A12FFF7C7FB0028AD
:1015F00008BF80BDBDE88040FEF74CBE80B540F21C
:10160000F44043F60001C2F20000C4F201010023DD
:101610004FF00C0C4FF4E13280E80E00C0E90333C8
:10162000C0E905C3C361FFF76FFE002808BF80BD96
:10163000BDE88040FEF72EBE80B540F2385044F23F
:101640000041C2F20000C4F2000100234FF00C0C74
:101650004FF4E13280E80E00C0E90333C0E905C36E
:10166000C361FFF751FE002808BF80BDBDE8804080
:10167000FEF710BEFEE70000704700007047000054
:101680002DE9F04182B01E4690460D460446FEF715
:10169000D9FF301A00EB0807FEF7D4FF40F2100123
:1016A000C2F200010968C1F3CB317943019121688D
:1016B0008A682A40AA4227D1064618F101001FD0A5
:1016C000FEF7C0FF801BB84222D201980199002882
:1016D000A1F1010101912168896808BF074601EA6B
:1016E0000500A842ECD00FE088682840A8420BD142
:1016F00088682840A84207D188682840A84203D1BA
:1017000088682840A842EFD0002002B0BDE8F081F0
:10171000D4E900014268B1F5827F22F0E002426024
:101720000AD1A168B1F5004F02D0B1F5806F03D1A5
:10173000016821F040010160A16AB1F5005F07D1A5
:10174000016821F400510160016841F40051016019
:10175000012084F85100002084F85000032002B0DA
:10176000BDE8F0812DE9F04782B040F60048C4F2B0
:10177000010840464FF400710022FEF75DFF40462D
:1017800080210022FEF758FF0520FEF73DFE40466F
:1017900080210122FEF750FF0520FEF735FE08F5F7
:1017A00080604FF400510122FEF746FF1420FEF73F
:1017B0002BFE4DF24C60C0F6020040F29C4A451CE4
:1017C0000F27C2F2000A0DF1050902E0013F3806B9
:1017D00030D015F8020B4FF480718DF805004046AB
:1017E0000022FEF729FF5046494601224FF0FF3301
:1017F000FFF750FB15F8016C16F07F040DD0404642
:101800004FF480710122FEF717FF50462946224609
:101810004FF0FF33FFF73EFB254470B2B0F1FF3FBE
:10182000D4DC15F8010BFF2808BF4FF4FA70FEF75F
:10183000EBFDCBE72A208DF8060040464FF480717F
:101840000022FEF7F9FE40F29C45C2F200050DF1C0
:1018500006062846314601224FF0FF33FFF71AFBF8
:1018600040464FF480710122FEF7E6FE4DF2876498
:10187000C0F60204E11C284604224FF0FF33FFF7B4
:1018800009FB2B208DF8060040464FF480710022A2
:10189000FEF7D2FE2846314601224FF0FF33FFF714
:1018A000F9FA40464FF480710122FEF7C5FE04F1BB
:1018B0000901284604224FF0FF33FFF7EBFAE0203E
:1018C0008DF8070040464FF480710022FEF7B4FE09
:1018D0000DF107062846314601224FF0FF33FFF78E
:1018E000D9FA40464FF480710122FEF7A5FE4DF271
:1018F0009464C0F60204E11C284610224FF0FF3326
:10190000FFF7C8FAE1208DF8070040464FF48071D8
:101910000022FEF791FE2846314601224FF0FF33A8
:10192000FFF7B8FA40464FF480710122FEF784FEBB
:1019300004F11501284610224FF0FF33FFF7AAFAF1
:1019400013208DF8070040464FF480710022FEF707
:1019500073FE2846314601224FF0FF33FFF79AFA13
:101960000A20FEF751FD29208DF8070040464FF46C
:1019700080710022FEF760FE2846314601224FF0BA
:10198000FF33FFF787FA6420FEF73EFD40464FF431
:1019900000710122FEF750FE02B0BDE8F0870000A2
:1019A0002DE9F04782B040F6004A07462A20C4F2EB
:1019B000010A164689468DF8050050464FF480719D
:1019C000002298460024FEF737FE40F29C45C2F202
:1019D00000050DF10501284601224FF0FF33FFF706
:1019E00059FA781C8DF80200701C8DF804005046DE
:1019F0004FF4807101228DF801408DF80340FEF70D
:101A00001BFE0DF101062846314604224FF0FF333C
:101A1000FFF740FA2B208DF8060050464FF48071F6
:101A20000022FEF709FE0DF10601284601224FF0C3
:101A3000FF33FFF72FFA09F102008DF8020008F1D9
:101A400002008DF8040050464FF480710122FEF729
:101A5000F3FD2846314604224FF0FF33FFF71AFA10
:101A60002C208DF8070050464FF480710022FEF7BD
:101A7000E3FD0DF10701284601224FF0FF33FFF788
:101A800009FA02B0BDE8F08770470000FEF7E0BD3C
:101A900070470000406A0021C185C184FFF700BB88
:101AA00081B090F83E10222920D18368B3F5805F81
:101AB00008D10169002941D000F128010A680368B2
:101AC0005B680AE0014651F8282F13B90369002B1F
:101AD000F5D003685B6803F07F0313700A68013276
:101AE0000A60C18D01390A04C18501D001B0704777
:101AF0000168CA6822F02002CA60CA6822F48072B3
:101B0000CA604A6922F001024A61202280F83E2020
:101B1000026B012A1CD100220263CB6823F0100360
:101B2000CB600B68DB0605D500920A680092496815
:101B300000910099818D01B0FFF7B0BA0168826A07
:101B400049686FF35F2122F8021B8262C9E700BF78
:101B500001B0FFF7C5BC000040F2F440C2F2000043
:101B6000FFF7A0BAFEE70000B0B540F20C14C2F2D5
:101B700000042046402101F0E9FB44F68140C0F614
:101B800000002121002224F065FA40F2B005C2F2E3
:101B90000005686001202870204601F0A7FB01467F
:101BA000686829B124F05CFB00202870B0BD00BF3C
:101BB00024F046FB00202870B0BD000070B503463D
:101BC000B1F90000B2F90040B1F902C0B2F9025017
:101BD000B1F904E0B2F90460A042B1F90610B2F91B
:101BE0000620C8BF0446AC451C80C8BF6546B64544
:101BF0005D80B8BF764691429E80B8BF0A460020FD
:101C0000B4424FF00001D8BF01219542D8BF012056
:101C10000840DA8070BD00002DE9F04381B00C4629
:101C2000B0F90070B1F900108F423DDBB0F90260ED
:101C3000B4F902108E4237DBB0F90490B4F9041005
:101C4000894531DCB0F90680B4F9060080452BDC0B
:101C500015466AB3694620462A46ADF80070ADF8CD
:101C6000026000F097F8F8B1694620462A46ADF8C0
:101C70000090ADF8026000F08DF8A8B169462046EA
:101C80002A46ADF80070ADF8028000F083F858B134
:101C9000694620462A46ADF80090ADF8028000F073
:101CA00079F801B0BDE8F083002001B0BDE8F08311
:101CB000012001B0BDE8F083B0F90020B1F9043093
:101CC0009A4213DCB0F90420B1F900309A420DDBDE
:101CD000B0F90220B1F906309A4207DCB0F90600EB
:101CE000B1F902108842A4BF01207047002070475C
:101CF0002DE9F04381B00C46B0F90460B1F9001051
:101D00008E4211DBB0F90670B4F902108F420BDB82
:101D1000B0F90080B4F90410884505DCB0F90290F0
:101D2000B4F90600814503DD012001B0BDE8F08370
:101D30001546EAB1694620462A46ADF80080ADF85E
:101D4000029000F027F898B9694620462A46ADF877
:101D50000060ADF8029000F01DF848B969462046D1
:101D60002A46ADF80080ADF8027000F013F818B103
:101D7000002001B0BDE8F083694620462A46ADF850
:101D80000060ADF8027000F005F880F0010001B0CD
:101D9000BDE8F0832DE9F041B1F90030B0F9004021
:101DA000A3420DDBB0F904E0734509DCB1F902C0D0
:101DB000B0F902108C4503DBB0F90650AC4503DDE9
:101DC0000020BDE8F08100BF012A54DBAEEB040027
:101DD000013086B200EBD63006B2681A013087B205
:101DE00000EBD73007B24FEA66087810B8EB670F00
:101DF000B8BF70109042A8BF1046021917B242181F
:101E0000BB4216B2D8BFB44516DD2A1ABB4212B285
:101E10002CDC94452ADB391809B2091B01EBD1717E
:101E2000801A4F1004EB6106A0EB61009B1B60441D
:101E300007FB07F10FE000BF384400B2001B00EBC6
:101E4000D070421004EB600701EB6000DB1BACEBD1
:101E5000000002FB02F11AB2524300B200FB002262
:101E600000208A4298BF0120BDE8F081AEEB00045B
:101E700024B2A34202DA0120BDE8F081944517DACA
:101E8000B445F8DC201A02B2AEEB020202EBD272C9
:101E900000EB6200181A01EB6201ACEB010100B229
:101EA000404309B2571001FB010107FB07F214E0A0
:101EB000211A0CB2AEEB040707EBD77701EB6701F1
:101EC000801A591AA0EB6700604409B27E1049439A
:101ED00000B206FB06F200FB00110020914298BF01
:101EE0000120BDE8F081000070B5B1F90030B2F911
:101EF0000040B1F902C0B2F90250B1F904E0B2F900
:101F00000460A342B1F90610B2F90620B8BF1C461E
:101F1000AC450480B8BF6546B6454580C8BF764627
:101F200086809142C8BF0A46C28070BD2DE9F04F3D
:101F300091B0054624F08CF80446002010900DB1B5
:101F4000E86801E00CF0D6F840F260090169C2F2DD
:101F50000009C9F80000084621F022FBD9F800105A
:101F6000486918B121F01CFBD9F80010C86921F0AC
:101F700017FBD9F80000006A21F012FBD9F8000025
:101F80000169002968D001680A8AD20704D0896BE8
:101F9000497B002940F03283B0F850710394002F40
:101FA00000F07E8000254FF001080DF1240A012188
:101FB00004E000BF0135BD42394653D20029F9D0B3
:101FC000411991F830110029F4D1002407E000BF35
:101FD000D9F800000134B0F85071BC42EAD2AC42EA
:101FE000F6D0011991F830110029F1D100F130013A
:101FF00001EBC50001EBC401FFF75EFE0028E7D04E
:10200000D9F80000303000EBC50100EBC4025046A7
:10201000FFF76AFF504607F0ABFED9F800100646FE
:1020200001EBC500303007F0A3FED9F800100746D9
:1020300001EBC400303007F09BFE38448642C7D223
:10204000D9F80000DDE9092300EBC50120440A634B
:102050004B6380F83081BBE70021A0F8501111B02C
:10206000BDE8F08F0021002FC9F8041000F0C281F4
:10207000012F19DBC11991F82F21BAB1022F13DBFF
:1020800091F82E21A2B1032F0EDB91F82D218AB1F8
:10209000042F09DB91F82C11043F0029E8D10AE054
:1020A0000020C9F80400A5E1002704E0013F02E098
:1020B000023F00E0033F01680A6B22B108469047E7
:1020C000D9F800000168C9688A6922F001028A61B2
:1020D0000168C9688A6922F002028A61B0F8502159
:1020E00090F82810002A41F0040280F8282000F01F
:1020F0007D8100251CE000BF816962F3410181619F
:10210000C6F808B0304625F035F9D9F8000000EBE4
:10211000C500303007F02CFE0146D9E90002114419
:10212000C9F80410B0F8501101358D4280F01481C7
:10213000411991F830110029F4D1BD4205D101684F
:10214000C9688A6942F001028A61016800EBC5082A
:10215000C96808F1300B8A6922F002028A610168BD
:10216000CA688E6B92683260098A890720D00BF0AA
:10217000DDFFD9F80010A0F1010808460CF02EF898
:10218000013804B20FFA88F350460021002200946F
:1021900007F022FED9F80000C6F804A00168C8685C
:1021A000098A82698907A7D542F00201D346A6E7CA
:1021B00038F9364FBBF80010C2460591414631F858
:1021C000022DCDF81CB03AF804BD049206910CF033
:1021D00005F8844202DAB8F8000004E0D9F80000FB
:1021E0000BF0FCFF01380890DDE90410A4EB0B02B2
:1021F000081A411CD9F8000009B20068531CC468D1
:102200008269E468D046B4FBF1FB19B28B45C8BFC4
:102210008B465AB300210DF1240A0991ADF828101C
:10222000ABF101045146ADF82A409047BDF82610A5
:10223000BDF92A00411A013109B28B451ADA00BFF3
:1022400020B200281EDDD9F80000013C006851468C
:102250008269ADF82A409047BDF82610BDF92A00E2
:10226000411A013109B28B45EADB07E00DF1240A7E
:102270000AE000BF0FFA8BF1012903DB00F1010B2B
:1022800002E000BF4FF0000BB8F90000089B0BEB19
:1022900000014A1E1CB2A24280B210DD0021079A42
:1022A000A1423FF432AF3CE0304625F063F80FFA2C
:1022B0008AF000EB0B014A1EA242504628DC079B25
:1022C0008A461B880FFA82F8ADF82430069B4445F5
:1022D0001B88ADF82600ADF8283009ABD9F800000E
:1022E000ADF82A207360B3600068C068816831600F
:1022F000BCBFDDF82080ADF82A80089A1FFA88F16B
:1023000092B28A42D0D1816941F002018161CBE76A
:102310000FFA88F150460DF1240A079AA1423FF4C2
:10232000F4AE1188ADF8241006990988ADF826009E
:102330000898ADF82810ADF82A00D9F80000C6F8C2
:1023400004A0C6F808A00068C0688168316081698F
:1023500041F002018161D5E690F82820002902F0C1
:10236000FB0280F8282045D00168098A89071AD520
:102370000BF0DCFED9F80010441E08460BF02EFFCF
:10238000013807B223B2504600210022009707F01F
:1023900023FDD9F800000168896BC1F804A004F09E
:1023A000CFF8D9F80000039D303000214FF480723F
:1023B00000241BF0DBFDD9F80000002100F5987027
:1023C00020221BF0D3FDD9F80000A0F85041284688
:1023D00023F038FE1090D9F800000068036A4BB172
:1023E0001099D9F80420984704E000BF01F0FB01E0
:1023F00080F8281000F070F900F026F9D9F8246070
:10240000EEBB0BF077FE0BF0ABFE19F047FF7F2120
:102410000022064621F002F830460021002220F07A
:10242000F7FF30464FF6FF71002221F021F83046C9
:102430000321002221F010F830460321002220F071
:10244000F9FF30460321002220F0FAFF3046032135
:10245000002220F0FBFF30460321002221F002F889
:102460004EF28A71C0F6020130461BF027F9304661
:102470000321002200231BF083FFC9F82460D9F850
:10248000100023F0DFFD80084A283FD8D9F8040067
:1024900041F2893188420BD31098D9E905120844DA
:1024A000511CC9E90501D9F80C502DB965E000BFF0
:1024B000D9F80C50002D60D0D9F8080023F0C2FDE7
:1024C000B0F5967F40F29A8023F0C2FDC9F808006B
:1024D00009A81BF0D1F909980B994AF2A102401AF8
:1024E00040F2FE310140CAF2A002A1FB0213820AAF
:1024F0009DF83C009DF83D709B09009049A128463D
:1025000001971BF01DF911B0BDE8F08F23F0A0FD7D
:10251000D9F80010C9F810004868002872D0006887
:102520004FF47A71B1FBF0F0D9F81810054649B1B3
:10253000D9F814204FF47A735943002A08BF0122B6
:10254000B1FBF2F50021C9E90511854288BF0546B6
:10255000D9E907102844C9F82000481CC9F81C0014
:1025600023F09EFDC0F164032AA130462A461BF0E9
:10257000E7F8D9F80C50002D9ED10BF0BBFD0BF005
:10258000EFFD19F08BFE7F210022054620F046FF6B
:1025900028460021002220F03BFF28464FF6FF711D
:1025A000002220F065FF28460321002220F054FF7E
:1025B00028460321002220F03DFF28460321002267
:1025C00020F03EFF28460321002220F03FFF4EF27C
:1025D0008A71C0F6020128461BF070F828460421D3
:1025E000002200231BF0CCFEC9F80C50D9F80800DB
:1025F00023F028FDB0F5967F3FF666AF11B0BDE839
:10260000F08F00BF1E20D9F81810054600298FD181
:1026100098E700BF2575204650530A2575252520CB
:102620004350550025752E2575206B422075736526
:102630006420282564202525290A2564252520666F
:102640007261672E0000000010B540F28C24C2F2C7
:1026500000042068002818BF16F098FD20460021CD
:102660001C221BF083FCE069002818BF16F08EFDC9
:1026700004F11C0000211C221BF078FCA06B002838
:1026800018BF16F083FD04F1380000211C221BF056
:102690006DFC606D002818BF16F078FD04F1540041
:1026A00000211C22BDE810401BF060BC40F29841A4
:1026B000C2F20001096804E00A7E42F001020A76D3
:1026C0004969002908BF70474A688242F4D00A6805
:1026D0008242F5D1F0E700007047000040F20010A0
:1026E000C2F20000042100F031BE000040F21810D8
:1026F000C2F200001C2100F029BE00002DE9F04FBD
:1027000085B00E9E1D46002B834608BFB6F5807F20
:1027100072D0DDF83C800023019301A8ADF80810C9
:10272000CDF80A30ADF80E20ADF81010ADF812203B
:10273000294632464346071D00F1080900F10C0AFC
:1027400020F080FF384629463246434620F07AFF83
:10275000484629463246434620F074FF50462946F3
:102760003246434620F06EFFBDF90420BDF9083023
:10277000BDF90C60BDF910409A421F46BDF9061024
:10278000BDF90A00B8BF1746A6422546B8BF354670
:10279000AF42B8BF3D46AF1E9A42ABF80070C8BF0B
:1027A0001346A642C8BF3446A342C8BF1C46BDF963
:1027B0000E70BDF9125081420246B8BF0A46AF42C0
:1027C0002E46B8BF3E46B242B8BF1646B21E814240
:1027D000ABF80220C8BF0846AF42C8BF3D46A31CA5
:1027E000A842C8BF0546A81CABF80430ABF80600E9
:1027F00005B0BDE8F08F00BF0020CBF800004B1EF5
:10280000501EABF80430ABF8060005B0BDE8F08F01
:10281000F0B581B016460C46074623F019FCA2B26B
:1028200040F26024C2F20004054620463946334691
:1028300018F04CFA30B1E0690021A16270B1204675
:1028400001B0F0BD204600212C221BF08FFB4FF081
:102850000040A0620024204601B0F0BD284623F0CD
:10286000F1FB0146002808BF01212046E16101B0CB
:10287000F0BD000010B540F22414C2F2000420465E
:10288000102100F063FD204600F068FDB0B100218A
:10289000102204461BF06AFB4AF2B920C0F6010080
:1028A0004AF2B5314AF2C1524AF28123C0F601011F
:1028B000C0F60102C0F601030FC410BDFEE7000020
:1028C000B0B50C4605460846002110221BF04EFB11
:1028D00028680178042909D0022909D0012909D1E1
:1028E000298A2180698A618004E000BF0A2100E012
:1028F000E96861604268002A08BFB0BD2146BDE8B2
:10290000B04010472DE9F04F89B0D0F828B080468C
:10291000BBF1000F28D0B8F8100020B9B8F81200A9
:10292000002800F09B8298F83C0000F00F0003287C
:1029300040F03C8158461DF0D5FA064658461DF039
:1029400051FAB8F91010024603275846334600974B
:1029500005F090F80746002658461DF03BFA012F77
:1029600080F23B8140E100BFB8F81000B8F81410C5
:10297000B8F816200844B8F81210A8F81400501837
:10298000A8F8160018F0D4FEB8F91410B8F91620FB
:1029900001EBE13383EAE1318DB202EBE23181EA0E
:1029A000E231D8F820608CB2A5424FF0000998BF00
:1029B0004FF00109002E4FF0000B00F04F8200682D
:1029C0004FF0000A007D089040420790A54219D9B7
:1029D000304610211EF062F970BB30464FF4807112
:1029E0001EF05CF9002800F0588130464FF4007169
:1029F0001EF054F930461DF06DF906460028E7D167
:102A00004BE100BF304610211EF048F9A0B9304616
:102A10004FF480711EF042F930464FF400711EF001
:102A20003DF9002800F0398130461DF053F9064683
:102A30000028E7D131E100BFCDF814A04FF0000A23
:102A40003046CDE90145A54288BF4FF0010A1DF08F
:102A5000C1F9074609EA9000069009EAD7000390F9
:102A600030461DF0C3FA044630461DF04FF90546C6
:102A700030461DF0B7F9049030461DF033FA224677
:102A8000002CD8BF012D15DB0699DDF80CE01446AB
:102A900021B1B8F91610089A914207DABEF1000F79
:102AA0000BD0B8F91610079A914206DC0C21B346F8
:102AB000059102E0DDF80CE0144607EA0A0207F08F
:102AC0000201049F0AEA510C002FD8BF012813DB32
:102AD000DDF814A022B1B8F9143008998B4207DA56
:102AE000BCF1000F0AD0B8F9143007998B4205DC0D
:102AF0004FF0030AB34601E0DDF814A000284FF0C0
:102B00000003C8BF0123012F4FF00001B8BF01210E
:102B1000002D4FF00000C8BF0120002C4FF000072F
:102B200082F00102C8BF0127114305D1B8F9141082
:102B3000089A914280F2A4801CEA030105D0B8F9FA
:102B40001410079A914240F39B800699394005D0B2
:102B5000B8F91610089A914280F2928010EA0E009D
:102B600005D0B8F916000799884240F389803046AD
:102B70004FF480711EF092F840EA0900012840F0FD
:102B80008C8030464FF400711EF088F8DDE9014575
:102B9000A54202D8002800F0808030461DF09AF847
:102BA000064600287FF412AF77E000BF58461DF0BC
:102BB0001DFA064658461DF0A9F8B8F9121003464A
:102BC0000C2758463246009704F054FF064600276B
:102BD00058461DF0FFF8012F06DB10F0010103D16C
:102BE0000027012E07DA0BE08107002F48BF07EA14
:102BF000E177012E04DB10F0040101D1002604E08E
:102C00000007002E48BF06EAE076B8F9162030B279
:102C1000B8F932501044B8F91410B8F93030AC1A81
:102C2000A842B8BF2646B8F936500FFA84FCB8BFA0
:102C30000CEB0200A84238B2C8BFAE1A08445A1AB8
:102C400015B29842B8BF1746B8F93420B8BF681813
:102C50009042C8BF571A39B232B2584600F00CFC45
:102C600098F80100800700F1F980B8F81400B8F86E
:102C700016103844A8F814008819A8F81600EDE0DA
:102C8000DDE901210C20914298F83C1088BF032017
:102C900001F0F001084488F83C00BBF1000F00F09F
:102CA000DD8098F83C000AF00F0100F0F0000844C5
:102CB00088F83C000020C8F81400584680214EF2E5
:102CC0000106C8F828B01DF0E9FFD8B158461DF03C
:102CD00085F9032822D002283AD001284AD1BBF82E
:102CE000120041F6FF72013001B25846002305F090
:102CF00039F9A8F83200BBF8120031B2013802B23B
:102D000033E000BF31B208F1300041F6FF770A46E8
:102D100041F6FF73009707F05FF879E0BBF8120007
:102D2000BBF816100023091A01318AB201EBD23127
:102D300009B200EB6107781C01B2584641F6FF72F8
:102D400005F010F9A8F83200781E02B20CE000BFBE
:102D5000BBF91610584641F6FF72002305F002F940
:102D6000A8F83200BBF9162031B25846002305F00E
:102D7000F9F803E041F6FF70A8F83260A8F83600D1
:102D800058461DF023F9032810D0022828D0012826
:102D900038D1BBF91010584641F6FF72002305F0F8
:102DA00011F8A8F83000BBF9102025E0BBF810009E
:102DB000BBF814100023091A01318AB201EBD23199
:102DC00009B200EB6107781C01B2584641F6FF7268
:102DD00004F0F8FFA8F83000781E02B20CE000BF43
:102DE000BBF91410584641F6FF72002304F0EAFFC5
:102DF000A8F83000BBF9142031B25846002304F083
:102E0000E1FF03E041F6FF70A8F83060A8F8340055
:102E1000B8F830000921002808BFA8F83060B8F8D9
:102E200034000022002804BF41F6FF70A8F83400E7
:102E3000B8F83200002808BFA8F83260B8F83600A9
:102E4000002804BF41F6FF70A8F83600584616F077
:102E500005F898F8010080077FF55DAD09B0BDE881
:102E6000F08F00002DE9F04782B0856A002D00F058
:102E70004281044690F83C00000700F03C8118F0C5
:102E800057FC824600684021477D28461DF006FF1A
:102E9000002804BF0020A06128461DF097F8804656
:102EA00028461DF09BF894F83C10814601F00F0174
:102EB000032945D00C2940F01C81668B0020B9F114
:102EC000000F208300F07E8018F032FC002E4FF0BF
:102ED000000C00F0C180006848F21F52407D0027BE
:102EE000C0F16400C5F2EB1233B2434383FB0231FD
:102EF0004B1103EBD1731904374400F0AE8019B2C3
:102F0000414381FB0216711101EBD67631041F4457
:102F100000F0A38031B2414381FB0213591101EB50
:102F2000D3731904374400F0988019B2414381FBF0
:102F30000216711101EBD67631041F44D4D18CE016
:102F40000020B8F1000F608360D0268B18F0F0FBF2
:102F5000002E4FF0000C00F0A580006848F21F52D0
:102F6000407D0027C0F16400C5F2EB1233B2434349
:102F700083FB02314B1103EBD1731904374400F08A
:102F8000928019B2414381FB0216711101EBD67692
:102F900031041F4400F0878031B2414381FB0213AA
:102FA000591101EBD373190437447CD019B2414352
:102FB00081FB0216711101EBD67631041F44D5D185
:102FC00071E000BF30B2C7F16401484348F21F51BD
:102FD000C5F2EB1180FB0101480900EBD170608361
:102FE00028461CF093FE074628461CF0FFFFB4F964
:102FF0001A1002460C2628463B46009604F03AFD7D
:103000000246608328460021002370E0B4F91800CE
:10301000C7F16401484348F21F51C5F2EB1180FB30
:103020000101480900EBD170208328461CF0DAFE2C
:10303000074628461CF056FFB4F91810034603262D
:1030400028463A46009604F015FD0146208328469E
:10305000002200234BE000BF0027B4F91610B4F99A
:10306000322038B2B4F936300844561AA4F81AC0DF
:103070000FFA86FC9042BCBF37460CEB0100984229
:10308000C8BF5F1A4EF201013BB2CFF6FF7128466E
:1030900041F6FF7204F066FF384402B22846002170
:1030A00024E000BF0027B4F91410B4F9302038B27E
:1030B000B4F934300844561AA4F818C00FFA86FC44
:1030C0009042BCBF37460CEB01009842C8BF5F1A64
:1030D0004EF201013BB2CFF6FF71284641F6FF7276
:1030E00004F070FE384401B22846002201231FF08C
:1030F000E3FC208B10B102B0BDE8F087608B0028A4
:10310000F9D1B9F1000F1BD128461CF06FFF07461B
:1031100028461CF0FBFD002FD8BF012810DBB7F1BB
:10312000FF3F07DDB0F1FF3F0ADC404202B2284614
:10313000002102E0284600213A4601231FF0BCFC92
:10314000B8F1000F1AD128461CF04CFE074628465D
:103150001CF0C8FE002FD8BF01280FDBB7F1FF3FDE
:1031600006DDB0F1FF3F09DC404201B2284601E034
:1031700028463946002201231FF09EFC28460A21DA
:10318000524615F06BFE60788007B4D494F83C008A
:1031900000F0F00084F83C000020A06202B0BDE81E
:1031A000F0870000F0B585B004460D4620B90AF05E
:1031B000A1FF0446002854D020460BF029F800282F
:1031C0004FD094F8280040074BD40020D5B302908C
:1031D00020460AF0ABFF0138ADF80C0020460AF09B
:1031E000FDFF0138ADF80E00684602AA2946FEF739
:1031F000E5FCB0B32068018A890727D482690AB147
:1032000069469047B4F8500170B304F130050027C7
:103210006E4600BF304629460022FEF7FDFC00BB8B
:10322000B4F8501101378F4205F10805F2D31F2978
:103230001BD9DDE902020021A4F85011206362636A
:1032400019E000BFA4F8500105B0F0BD0298039941
:1032500020630120A4F850016068616308B122F086
:10326000FFFF05B0F0BD00BF0021DDE9002304EB46
:10327000C10002634363606801310028A4F8501163
:1032800018BF22F0EDFF05B0F0BD0000F0B581B031
:1032900010B345680446FDB1002707E0002BA3608A
:1032A00014BF9F50676015F071FFADB1D4E90013F2
:1032B00028460A1DAD5883420AD0A6684358864264
:1032C000ECD0002B18BF9D5055B16B50EBE700BF01
:1032D00065601DB16F50E6E701B0F0BD0021A1604F
:1032E00001B0BDE8F04015F051BF0000002814BF48
:1032F0004068002070470000C0B14268B2B1006869
:10330000011D01205258002A08BF70475258002A58
:1033100004BF013070475258002A04BF0230704782
:1033200052580430002AEDD1013870470020704710
:1033300000680844406870470068085870470000FB
:10334000002814BF8068002070470000033100226D
:1033500021F00301C0E900128260704710B50446F5
:10336000006808301AF038FA002808BF10BD21683C
:1033700000224250626843185A606268002A18BFEF
:103380005050A1686060002908BFA06010BD000017
:1033900010B50446006808301AF01EFA002808BF6D
:1033A00010BD22680023111D4350A3688350A268FA
:1033B000002A18BF50506168A060002908BF6060F3
:1033C00010BD000030B1416809B9806810B100201B
:1033D000704700BF0120704780B5002808BF80BD3E
:1033E00042688A4214D0D0F800E0826851F80E306A
:1033F0008A4219D00EF1040C51F80C00002B18BFB2
:1034000043F80C00002818BF40F80E3080BD00BF04
:103410000268114449680029416007BF00218160AA
:103420000020885080BD00BF0021002B836018BFA2
:103430000EEB0300416080BD10B50446006804E057
:103440000068002808BF10BD20608268002AF7D0FD
:10345000214690472068F3E78068002814BFC08A9F
:10346000002000B270470000806800280EBF0020D6
:10347000807E80097047000070B50E4611431BD056
:10348000154604461BF0D6FAA0680123018A428A39
:103490003144018251194182204631462A461EF0AC
:1034A00035F820460B21002215F0D8FC012818BF62
:1034B00070BD20461DF06CFF012070BDF0B581B0DD
:1034C0001446C8B1612206460F461DF0D5F998B1E1
:1034D0000546006880B13046394662221DF0CCF9BD
:1034E000010609D02B68A1B2C2B22846984760F302
:1034F0000F04204601B0F0BD204660F30F042046C3
:1035000001B0F0BD2DE9F04F91B00446C08BDDF85D
:1035100068B040F00400E083A2831646BBF80820A0
:1035200020461F468A461DF0A7F9A783BBF808204E
:103530000546204651461DF09FF9E18B814621F05A
:1035400004004D45E08303D102D111B0BDE8F08FF6
:10355000A683BBF80820204651461DF08DF9804611
:1035600020465146A78305F0AFF80068BBF8081065
:10357000424621F061FDBBF808000B2828D147F630
:10358000FF76B14518BFB04522D120461DF034FB6F
:1035900081B200EBD13000B2451020461CF04CFB4C
:1035A00081B200EBD13000B2B0454FEA600005D1E6
:1035B000691C00F101084145B8BF884647F6FF7114
:1035C000894505D1691C00F101094945B8BF894603
:1035D00040F23010C2F20000FFF7C0FEC0B3C0E9F5
:1035E000038904600646BBF8080001ACB0802046A1
:1035F000C6F808A005F0EEFE4AF6FD70C0F602001F
:1036000002904BF24120C0F6020003904BF27D1075
:10361000C0F6020004900020CDE90800FF200A90C7
:10362000BBF80000BBF802100B9048420C90DBF88E
:103630000C009DF84210079001F0FE008DF842004A
:103640002046019605F02AFF11B0BDE8F08F00BFBB
:10365000FEE7000040F23010C2F200001421FFF734
:1036600075BE00002DE9F04782B00446C08B10F40F
:10367000FC7F00F02B816FEA01086FEA02094FF02E
:10368000000A01AD002709E04FF0020AE08B00BFFD
:103690000137C0F3C5018F4280F01281E16801EB70
:1036A000C70252689301F3D492B212EA080302EA05
:1036B0000902B2FA82F24FEA521218BF01235340B4
:1036C000E6D151F83760102130462A4621F068FAD9
:1036D000002840F0F380304611212A4621F060FA9C
:1036E000002840F0EB80304612212A4621F058FA9B
:1036F000002840F0E380304613212A4621F050FA9A
:10370000002840F0DB80304615212A4621F048FA97
:10371000002840F0D380304614212A4621F040FA98
:10372000002840F0CB8030460A212A4621F038FAA2
:10373000002840F0C38030466A212A4621F030FA42
:10374000002840F0BB8030466B212A4621F028FA41
:10375000002840F0B380304601212A4621F020FAAB
:10376000002840F0AB80304604212A4621F018FAA8
:10377000002840F0A380304602212A4621F010FAAA
:10378000002840F09B80304603212A4621F008FAA9
:10379000002840F09380304605212A4621F000FAA7
:1037A000002840F08B80304606212A4621F0F8F9A7
:1037B000002840F08380304632212A4621F0F0F97B
:1037C00000287BD130466D212A4621F0E9F90028F6
:1037D00074D130466C212A4621F0E2F900286DD1DF
:1037E000304668212A4621F0DBF900287FF44CAFEF
:1037F000304669212A4621F0D3F900287FF444AFEE
:1038000030466D212A4621F0CBF900287FF43CAFE9
:1038100030466C212A4621F0C3F900287FF434AFEA
:10382000304637212A4621F0BBF900287FF42CAF1F
:10383000304638212A4621F0B3F900287FF424AF1E
:10384000304635212A4621F0ABF900287FF41CAF21
:10385000304640212A4621F0A3F900287FF414AF16
:10386000304645212A4621F09BF900287FF40CAF11
:10387000304641212A4621F093F900287FF404AF15
:10388000304642212A4621F08BF900287FF4FCAE15
:10389000304643212A4621F083F900287FF4F4AE14
:1038A000304649212A4621F07BF900287FF4ECAE0E
:1038B000BAF1000F08BF4FF0010AE7E64FF0030A24
:1038C0005FFA8AF002B0BDE8F08700BF4FF0000A4F
:1038D0005FFA8AF002B0BDE8F087000040F26000B5
:1038E000C2F200000068704740F26000C2F20000BF
:1038F0000021C0E90211C0E90411C0E90611C0E9C4
:1039000008117047C0F30410072828BF072070472C
:103910004FF6FF71884204BF1F207047002804BF84
:10392000002070476F2805D84BF28A61C0F602016B
:10393000085C704740F2D801C2F20001096851B139
:1039400040F27C32C2F200027038126880B28242C9
:1039500084BF085C704700207047000080B540F2CB
:10396000DC00C2F200001821FFF7F0FC40F2481022
:10397000C2F200000121417080BD00002DE9F0413C
:1039800090B3164604460D46FCF731FC40F214088D
:10399000C2F20008D8F80020074620462946904782
:1039A000D8F800200546204431469047391A8D4208
:1039B0001AD820440CE000BF9F78EE1C8E4297700E
:1039C00088BFBDE8F081DB7804358D42D3700BD819
:1039D000425D6B1C8B42625506D843195F78AE1C62
:1039E00062198E425770E7D9BDE8F0812DE9F041A8
:1039F00040F20808C2F200081446D8F804200F4626
:103A000019461D4606469047386048B12868D8F8E0
:103A100004203044002190472060BDE8F08100BFC1
:103A200000202060BDE8F0812DE9F04F8FB0189C98
:103A30008146002C1F460E461CBF00202080B9F195
:103A4000000F37D0002E4FF0000000F0038299F8ED
:103A50000010002900F0FE81199810F0060F2DD0FB
:103A60000020012242F2014302E000BF3979043014
:103A70000D2904D802FA01F71F4240F0C48109EB76
:103A8000000779780D2904D802FA01F61E4240F0A9
:103A9000B781B9780D2904D802FA01F61E4240F028
:103AA000B181F9780D29E1D802FA01F61E42DDD084
:103AB0000330A8E100200FB0BDE8F08F0021012FF6
:103AC0000C91C0F2B58100F001004C464FF00008A7
:103AD0004FF0000B0025CDE908260390CDF80890A3
:103AE00040F20800C2F20000002142680E910D91E0
:103AF00020460EA99047824619F805000E99002825
:103B00000D9100F095800398CDE906870028B8B2A2
:103B10000A904FF00000049540F08E800B904FF01B
:103B2000FF304FF000090025574600260FE000BF88
:103B3000411C0B9908BF19460B91DDE90D1609F1DF
:103B400001090E91A15D5746002900F0538140F212
:103B50000801C2F200014A68804620460DA990473C
:103B6000824609983946524615F0C0FA01B205441A
:103B700008980029C8BF05442BB20A99181A884230
:103B80004FF0FF30C8BF304618F1010118BF404662
:103B90000A2F00F033800D2F00F03080A7F59C41F4
:103BA00045F2A6129142C0F02980A7F120013F29D9
:103BB000BED8DFE801F0232121212121212121216B
:103BC00021212323232121212121212121212121DF
:103BD00023232121212121212121212121212121D1
:103BE00021212121212121212121212121212121C5
:103BF00021212121212300BF9AE700BF002E08BF09
:103C000010F1010100F0D0800246501C00F0BC8091
:103C100004980B9900284FF000001CBF0146024693
:103C20000B461646DDE90687DDF80890C6E000BFC2
:103C30000E9E0023C2E000BF0B904FF0FF304FF00C
:103C40000008002100260DAD0191C146059009E054
:103C50004FF0010BDDE90D06C146A15D0E90002974
:103C600000F08C8040F20800C2F20000426820465A
:103C70002946574690478246232F09F101085FFAEB
:103C80008BF007D10028E3D002280DD14FF0000BB4
:103C9000E0E700BF01280CD14FF0010B202F08BF37
:103CA0004FF0020BD6E700BF2327012808BF4FF0D3
:103CB000000B0998019D3946524615F017FA01B2DA
:103CC000054408980029C8BF05442BB20A99181A60
:103CD00088424FF0FF30C8BF3046059A511C18BFCC
:103CE00010460A2F3FF48AAF0D2F3FF487AFA7F598
:103CF0009C4145F2A6129142FFF480AFA7F120014A
:103D00003F2900F22580DFE801F02123232323232C
:103D10002323232323232121212323232323232379
:103D20002323232321212323232323232323232367
:103D30002323232323232323232323232323232353
:103D40002323232323232323232100BF56E700BF5C
:103D5000411C0E9E0B99019508BF19460B91A15D60
:103D60000D9A00290DAD0E927FF46FAF5746C146F4
:103D70000246501C7FF44CAF06E000BF059A574640
:103D8000C146501C7FF444AF0B9BB9F1000F0FD01C
:103D90000D2F7FF447AFDDE90687DDF80890BAF113
:103DA0000A0F08BF0E9E09E00026B9F1000FEFD1FF
:103DB000DDE90687DDF808900E9E00BF0C9D984453
:103DC00076B399F8000035440A280C9528D00D28C0
:103DD00026D019F805000D2820D00A281ED0F91A7F
:103DE0000FB2012F1CDB002809EB05047FF478AE2D
:103DF00016E000BF57460246501C7FF409AFC3E7E8
:103E0000013000E00230002918BF013014B34FF632
:103E1000FF7121800FB0BDE8F08F00BF01350C9518
:103E2000189C099E25B1002C18BFA4F8008010E052
:103E300040F20800C2F2000042680CA948469047D0
:103E40003CB101463046002215F050F98046A4F8F6
:103E500000800C980FB0BDE8F08F00002DE9F04F06
:103E600083B028B315461AB3824628460C46FCF7A1
:103E7000BEF9E8B1064650460195FCF7B8F981460F
:103E800040F21400C2F2000002685046214609EBDD
:103E90000605904700EB060C654502960CD2DDE95D
:103EA0000112504403B0BDE8F04F19F02DBD00BF22
:103EB00003B0BDE8F08F00BF029DAAF1010205EB3F
:103EC0000A01A5F1030E4C1EAE1E00BF02EB090154
:103ED00009EB050891F801B0A8F1010704EB09030B
:103EE000674583F801B0DAD312F8098009EB0607B9
:103EF000674504F80980D2D311F8018C09EB0E074D
:103F0000674503F8018CCAD311F8021C043D03F87D
:103F1000021C09EB0501043AAEF1040E043C6145B4
:103F2000A6F10406D2D2BAE70378024623290BD1C0
:103F3000022B4FF0000010D0012B11D0002B02BF3C
:103F40000120107070477047012B1CBF0020704784
:103F500020291CBF012070470220107001207047EB
:103F600000201070704700002DE9F04182B0044637
:103F70000B46CDE900110020002122464FF0000839
:103F800022F0BAFE451C0746284619F025FC58B118
:103F900000F80780019B29462246064622F0ACFE27
:103FA000304602B0BDE8F081FEE700002DE9F047A1
:103FB00002B3DDF820909A4614460F46804606E08C
:103FC00064F001003044441C05EB0A0774B1660834
:103FD00006FB0A7540462946C8470128F0DAB0F1C9
:103FE000FF3F3446F2DD2846BDE8F087002528462D
:103FF000BDE8F0870020BDE8F08700002DE9F04F14
:1040000083B0129C0DF1300C8146DDE910E09CE894
:1040100000191E468A4614F00201154601910290CD
:1040200060D158B1E0070BD014F00C0018BF01208C
:10403000119940EA0C00081A01E000BF002002902C
:10404000F3451CD2BBF11F0F19D86FEA0B01714465
:104050002F46CBF11F0508EB0B00A94238BF0D46D8
:10406000691C3022E046FCF7B0F8DDF840E0C446B9
:10407000DDF8308005EB0B003D4600F1010BE00759
:1040800030D0029883452DD2BBF11F0F2AD83020A3
:10409000029A0BF10101914208F80B0038BFBBF105
:1040A0001F0F80F0B780029B0BF1020208EB0B019F
:1040B0009A42487015D2BBF11D0F12D8029B0BF12A
:1040C00003029A4288700CD2BBF11C0F09D8029BE4
:1040D0000BF104029A42C87003D2BBF11C0F934645
:1040E000D6D39346E0063AD50F98610507D4BBF1C5
:1040F000000F04D0F3450DD002998B450AD010284B
:1041000014D114F0200019D1BBF11F0F16D878205C
:1041100019E000BFBBF101010A4618BFABF1020272
:10412000102818BF0A4693461028EAD002280ED15C
:10413000BBF11F0F0BD8622005E000BF38B1BBF107
:104140001F0F04D8582008F80B000BF1010BBBF12E
:104150001F0F18D8302008F80B000BF1010BBBF132
:104160001F0F10D8BCF1000F02D02D2007E000BFB8
:10417000600703D4200706D5202000E02B2008F894
:104180000B000BF1010BA0072C460FD102982C4617
:1041900083450BD202982A46A0EB0B0720205146FC
:1041A0003346541CC847013F2246F7D1BBF1000FEC
:1041B000009511D0A8F1010818F80B0051462246CD
:1041C0003346ABF10105671CC847002D3C46AB46A2
:1041D000F2D1019818B917E027460198A0B10099CB
:1041E000DDF80880781A40450ED24D422020514615
:1041F0003A4633467C1CC847281940452746F5D324
:10420000204603B0BDE8F08F3C46204603B0BDE831
:10421000F08F00BF8B46E0063FF566AF9FE70000DA
:104220009A4238BF88547047704700002DE9F04F1C
:1042300097B08846209944F229271C461646C0F6B6
:1042400000074FF0000A0E91B8F1000F18BF0746A3
:104250000025605D0AEB0509002800F0058500BF18
:1042600025280BD041464A463346B8470135605DA4
:104270000AEB05090028F3D100F0F6BCCDE90A8766
:104280000E9F62194FF000080C9650781146A0F16D
:104290002003102B00F274800122DFE803F0097183
:1042A000710B717171717171710D710F71711100FB
:1042B000082205E0102203E0042201E0022200BFF0
:1042C000887848EA0208A0F12003102B00F2A280AF
:1042D0000122DFE803F0099F9F0B9F9F9F9F9F9FF5
:1042E0009F0D9F0F9F9F1100082205E0102203E001
:1042F000042201E0022200BFC87848EA0208A0F1C7
:104300002004102C00F2A2800123DFE804F0099FB2
:104310009F0B9F9F9F9F9F9F9F0D9F0F9F9F110090
:10432000082305E0102303E0042301E0022300BF7B
:104330000A4612F8040F48EA0308A0F12004102CE2
:1043400000F294800123DFE804F00F919113919122
:10435000919191919117910D9191090048EA03086B
:1043600093E700BF0223F9E7082348EA03088CE734
:10437000102348EA030888E7042348EA030884E78F
:1043800001F1010BA0F13002D2B2092A4AD80BF197
:10439000020B4FF0000E00BFC2B21BF8010C0EEB77
:1043A0008E0102EB4101A0F13002D2B20A2AA1F142
:1043B000300E65D20EEB8E0100EB41019BF8000040
:1043C000A1F1300EA0F13002D2B2092A5AD80EEB78
:1043D0008E0100EB41019BF80100A1F1300EA0F12C
:1043E0003002D2B2092A00F2A5800EEB8E0100EB5A
:1043F00041019BF80200A1F1300EA0F13001C9B2D9
:104400000A290BF1040BC7D3ABF1020B2E283BD0CA
:104410002AE000BF01F1020B0131A0F13002D2B25B
:10442000092AB4D92A281BD157F8040B002886463C
:1044300048BFC0F1000E002811F8020F48BF48F035
:1044400002088B462E281FD00EE000BF01F1030B9F
:104450000231A0F13002D2B2092AE3D897E700BFB7
:104460004FF0000E2E280FD000266FE001F1040B54
:104470000331A0F13002D2B2092A7FF688AFD1E72A
:10448000ABF1010B2E28EFD1594611F8010F48F47A
:104490008068A0F13002D2B2092A3DD80BF1020B9C
:1044A000002600BFC2B29BF8000006EB860102EBBB
:1044B0004101A0F13002D2B20A2AA1F1300645D260
:1044C00006EB860100EB41019BF80100A1F13006EB
:1044D000A0F13002D2B2092A32D806EB860100EBF5
:1044E00041019BF80200A1F13006A0F13002D2B2E6
:1044F000092A29D806EB860100EB41019BF803004D
:10450000A1F13006A0F13001C9B20A290BF1040B68
:10451000C8D3ABF1010B19E02A2807D157F8041BC7
:104520001BF8020F21EAE17610E000BF00268B465F
:104530000CE000BF0BF1010B2E28A5D094E700BFC3
:104540000BF1010B02E000BF0BF1020BA0F16801BF
:104550004FEA7103092B26D801214FF48072DFE85E
:1045600003F0050F132222221D22221D594611F8A5
:10457000010F682840F088800221C0220EE000BFB1
:1045800001214FF4007209E0594611F8010F6C281F
:1045900040F07E8002214FF4407200BF1BF8010002
:1045A00048EA02088B44A0F12503532B00F27A80DD
:1045B0004FF0080C6F221024DFE813F06E00740037
:1045C000740074007400740074007400740074004B
:1045D000740074007400740074007400740074003B
:1045E000740074007400740074007400740074002B
:1045F000740074007400740074007400740074001B
:10460000740074007400740074007400740074000A
:104610007400580074007400740074007400740016
:104620007400E0007400740074007400740074007E
:1046300074007400740082008600540074007400DA
:1046400074007400540074007400740074007400EA
:10465000EC00580074007400A8007400540074004A
:104660007400E00028F010080A2487E05B4613F885
:10467000011F48F4887856294FF0100C40F07C80D8
:1046800056229B4686E000BF48F080088B468AE7AA
:1046900048F480788B4686E70E9709F1010A2520B9
:1046A00003E000BF09F1010A0E97DDF828800C9E97
:1046B0000B9F41464A463346B8470BF10104C7E514
:1046C0004FF0020C622265E018F00204CDF824E0FD
:1046D00040F0D681BEF1020FC0F02682BA460C9E91
:1046E000DDE90A750E940EF10108CEF1000400BF59
:1046F0004A4620203946334609F10109A8470134CA
:10470000601CF5D10E9C574611E200BF57F804AB70
:1047100008969AF800005146002800F03182314690
:10472000002E08BF4FF0FF31A1F1030C8A1E4B1E73
:104730000E1F0025AB420AEB050400F01B826178D6
:10474000002900F01782AA4200F01682A178002901
:1047500000F01282AC4500F01182E178002900F0EF
:104760000D82AE4205F1040103D02579002D0D46DE
:10477000E0D1514403E200BF102400BF40F0080123
:10478000582908BF48F02008642807D06928024645
:10479000A44603D028F00C08104664465FEA48514E
:1047A00048BF28F00108562818D0692801D064288D
:1047B00030D15FEA8850CDF824E03DD45FEAC8509C
:1047C00050D45FEA486000F1A980D7F800C0B24633
:1047D0005FEA086048BF0FFA8CFCA2E057F8040BB0
:1047E000DDF8288041680C9E0C680E970F940B9F93
:1047F00008EB0A01A6EB0A0203682944521B38465B
:104800000094FFF713FD504400EB050A0BF101047F
:10481000FFF71EBD5FEA885034D45FEAC85000F14C
:104820008D80B2465FEA486000F12E8138685FEA09
:10483000086148BF80B228E1F81D20F00700034658
:10484000426853F8080B50EA020108BF28F010082C
:104850000E93CDE9072669BB18F480612AD00022A7
:1048600056E000BF57F804CBBCF1000F08BF28F09A
:104870001008BCF1000F71D118F480606ED0B24600
:104880000022E2E0F81D20F0070001460896466885
:1048900051F8085B55EA060008BF28F01008002808
:1048A0000E91CDF824E040F07D8018F4806079D03E
:1048B00000229DE010EBE27080EAE27542EBE270CC
:1048C00080EAE27608F0200080F06100F6300022F5
:1048D0000D9000BF92462846314622460023FBF742
:1048E00043FC00FB14520FAF02F0FE030A2B0D9B9A
:1048F00038BF302313440AF10102BAF11E0F07F842
:104900000A3005D82B1B76F1000305460E46E1D28E
:1049100007980FA9C00FCDE900126DE097F800C00D
:10492000B246BCF1000F08BF28F01008BCF1000F20
:1049300068D118F4806065D0002285E057F8040B38
:10494000002808BF28F01008002840F0A98018F4BB
:10495000806100F0A580B2460021DCE008F0200173
:1049600081F06101B246604601F1F60E0022BCF111
:10497000000F48BFCCF10000B0FBF4F1734601FB1F
:10498000140505F0FE060A2E38BF30232B440FAD68
:10499000AB541E2A02F1010257D8A0420846EBD2BE
:1049A00053E000BF08F0200080F06100F6300022E4
:1049B0000D9000BF92462846314622460023FBF761
:1049C000D3FB00FB14520FAF02F0FE030A2B0D9B2A
:1049D00038BF302313440AF10102BAF11E0F07F861
:1049E0000A3005D82B1B76F1000305460E46E1D2AE
:1049F0000FA8CDE900020020CDE902040898049038
:104A00002CE000BF08F0200181F06101604601F157
:104A1000F60E0022BCF1000F48BFCCF1000000BF31
:104A2000B0FBF4F1734601FB140505F0FE060A2EF7
:104A300038BF30232B440FADAB541E2A02F10102C4
:104A400002D8A0420846EBD204370FA94FEADC7027
:104A5000CDE9001202A90E9781E81104099805908A
:104A60000B9F0C9E0A9938464A463346CDF818806B
:104A70008846FFF7C3FA82460BF10104FFF7E8BB53
:104A80000C9E4FF0010852E03878002808BF28F04B
:104A9000100818BB18F4806120D000213AE000BF54
:104AA00008F0200181F06101B24601F1F60C00210D
:104AB000B0FBF4F3624603FB140606F0FE050A2D74
:104AC00038BF302232440FAE72541E2901F1010169
:104AD00021D8A0421846EBD21DE000BF08F020010B
:104AE00081F0610101F1F60C002100BFB0FBF4F38D
:104AF000624603FB140606F0FE050A2D38BF30227D
:104B000032440FAE72541E2901F1010102D8A042B5
:104B10001846EBD204370FA8CDE90001002002A906
:104B20000E9781E811449BE70C9E4FF0020817F89E
:104B3000040B0A990B9D4A46334609F1010AA8471E
:104B40000E978CB1099880450ED2A0EB0804DDE9E0
:104B50000A8700BF52462020414633460AF1010A27
:104B6000B847013CF6D1A8E5DDE90A870BF101045D
:104B7000FFF76EBB611C02E0A11C00E0E11C089E77
:104B8000A1EB0A02314608F480668A4238BF11461A
:104B9000002E08BF114618F00202CDE90D271ED1E4
:104BA00071451BD20DF1280898E8A0010EF1010013
:104BB000AEEB01040790CDF824E000BF4A46202068
:104BC0002946434609F10109B847013CF6D19AF854
:104BD0000000DDF824E0A84604E000BF0131DDE973
:104BE0000A870791754628B386B90C9EAAF101047D
:104BF000C0B241464A46334609F1010AB847A07897
:104C000001340028D146F3D115E000BF089E0AF117
:104C1000010400BF76B10C9BC0B241464A46013E3A
:104C200009F1010AB84714F8010BD1460028F1D167
:104C300001E000BFCA460D9880B107980C9EA842BB
:104C4000BFF43BAD2C1A00BF5246202041463346EC
:104C50000AF1010AB847013CF6D12EE50C9E0BF192
:104C60000104FFF7F5BA00BF4A460020414633462B
:104C7000B14528BF721EB847484617B0BDE8F08F4F
:104C80002DE9F04F81B040F2B007C2F20007B868DA
:104C900021F0D8F97978044681F00100787040F26B
:104CA0000C10C2F20000FEF721FB002800F0B280D9
:104CB00040F20C1B06464FF00008C2F2000B4FF604
:104CC000FF794FF0010A07E058463146FEF730FB06
:104CD0000646002800F09E8096F83E007978C0F3E2
:104CE00080028A4287F800805CD000F0FB0242EA32
:104CF0008102F16A030786F83E201AD4002918DCE5
:104D00000A1916D4C00709D1716939B130468847EC
:104D1000F169726A01441044F1617062B16809B1CD
:104D20003046884796F83E00F16A40F0080086F861
:104D30003E000819F06235D4B16A8842C8BFF162FA
:104D4000B16930468847326A904205D072680146A0
:104D500030620AB130689047D6E90A01814221DB0E
:104D600096F83E10B58F11F0020204D11DB14D45E9
:104D70001CBF013DB587736B2D041FD0B56BC5F10A
:104D80000005F56273B112B9326B5242F26281F0E2
:104D9000020186F83E10716AF269F161C6E90923E1
:104DA000706300BF387801287FF48EAF5846FEF755
:104DB0009DFA064600287FF48FAF2BE032B92BB165
:104DC000B56B6D42F562002ADED0E0E75846314609
:104DD000FEF702FB584687F800A0FEF787FA014667
:104DE000786889B121F03CFAF16809B1304688470A
:104DF000316909B130468847304614F0C7F9387830
:104E000001287FF461AFD1E721F01AFAF168002997
:104E1000ECD1EDE721F01CF9B86001B0BDE8F08FEE
:104E2000B0B5044640680D4610B12946FFF7F8FFBB
:104E30002268002A08BFB0BD20462946BDE8B04020
:104E400010470000B0B5002942D080290B460BD393
:104E5000B1FA81F2C2F11A024FF0FF3303FA02F203
:104E6000D24353187F2B35D89A08002300EB8305D3
:104E7000D5F814C04FF0FF3505FA02F212EA0C0221
:104E800012D092FAA2F2B2FA82FE00EBC31202EB47
:104E90008E0454F8342FDAB1556825F003058D429D
:104EA00028D200BFFEE700BF0269013305FA03F311
:104EB0001A400DD092FAA2F2B2FA82F300EB83020A
:104EC000D2F814C0BCF1000F6246DAD1FEE700BF91
:104ED0000020B0BD0022B2EB933F25D1B3FA83F599
:104EE000C5F11A0223FA02F282F02002C5F1190379
:104EF000BCE700BFD568CDB19168C9B1CD60A960EC
:104F00002568954210D1814221600DD1012101FA1D
:104F10000EF52CEA050500EB8304656125B90569EA
:104F2000994025EA010101611046B0BDFEE700BFCE
:104F3000FEE70000F0B54A68032A0BD9043A22F0D4
:104F4000030301F108029B1806D05D68EC0705D148
:104F50000846F0BDFEE700BFFEE700BF25F00304F2
:104F60007F2C3BD84FEA950E4FF0000CDD68002DEA
:104F700042D09C6864B3E560AC6000EBCC1505EBF7
:104F80008E0555F8346F9E4211D184422C600ED1AB
:104F900000EB8C0501276E6907FA0EF4A6436E61DB
:104FA0002EB9066907FA0CF726EA07070761486871
:104FB00003280FD95B68043323F003031844032844
:104FC000486009D9043820F0030081500846F0BD3C
:104FD000FEE700BFFEE700BFFEE700BFB4FA84FCB7
:104FE000CCF11A0524FA05F585F0200ECCF1190C48
:104FF000DD68002DBDD100BFFEE7000070B539B1FE
:1050000022B14B68DD0705D1FEE700BFFEE700BF18
:10501000002070BD23F0030402F11005AC4211D250
:10502000032B40F28380181F20F0030201F10800D7
:105030000244536823F0020353604A6822F00102DD
:105040004A6070BD01F1080E02EB0E03DD1D1E1D4E
:1050500025F00305AE4201D0FEE700BFA3F1040C2A
:10506000A31ADCF80440043B04F003041C430B2B9C
:10507000CCF804402CD94B6803F003031A434A6070
:10508000DCF80420032A25D9043A22F00304A219EB
:10509000536844F806C043F002035360DCF8042070
:1050A00042F00103CCF804304B68032B14D9043BC5
:1050B00023F0030343F80E1022F0030342F003062B
:1050C0007F2BCCF8046009D84FEA920E00230EE043
:1050D000FEE700BFFEE700BFFEE700BFB3FA83F2C2
:1050E000C2F11A06F34083F0200EC2F1190300EB5F
:1050F000C31202EB8E0252F8344FCCB1CCE902401D
:10510000C4F80CC00124056904FA03F635430561AF
:1051100000EB8300436904FA0EF6334343614B68A6
:10512000C2F800C0032B3FF67EAF00BFFEE700BF12
:10513000FEE7000010B5044613F08EFE217A072921
:1051400018BF10BD40F28034C2F200042178013152
:10515000217000211AF07AFC227802A1BDE81040EB
:1051600018F0EEBA427574746F6E3A202564000030
:10517000B0B582B0044616F0DBFA054616F018FB0F
:1051800040B1A08E608620461CF002F9012002B0DA
:10519000B0BD00BF206A01211BF080FD30B1204668
:1051A00013F014FD012002B0B0BD00BF2046012164
:1051B00019F0A2FE4FF6FF71206AE186012118F076
:1051C000A1FF20462021002213F048FEA18E608E10
:1051D00081420BD0A086019001AA20461C2113F029
:1051E0003DFE0128D3D120461CF0D2F8284616F007
:1051F000EBFA0428D6D120461AF018FD002114F04D
:1052000095FF012002B0B0BD10B540F600000C467D
:10521000C4F201000121FBF709FA0138B0FA80F06D
:105220004009A0730020A06010BD000010B5022A44
:105230003DD9C1F3C42CC0F3C4239C4400F01F0E1D
:10524000C1F34514C0F34510BCF11F0F204401F019
:105250001F044FF01F0328BF9C463F28744428BFFB
:105260003F201F2C38BF234600F03F0043EACC23E9
:10527000FF2A43EA401008BF10BD4FF61F0301EAA2
:10528000030401F4FC6144EA01410340043200F4E8
:10529000FC605B1AD20803EB0040504301EB501056
:1052A0004FF61F01C0F2E071084040EA1041084685
:1052B00010BD0000022A3AD980B5C0F3C42CC1F356
:1052C000C42303FB0CFC00F01F0E01F01F0303FBC3
:1052D0000EFEC0F34510C1F3451358436FF01F0392
:1052E00003EA50002CF01F039B0143EA5E131844AD
:1052F000FF2ABDE8804008BF70474FF61F030B40F0
:1053000001F4FC6143EA014120F4FC63043200F43F
:10531000FC605B1AD20803EB0040504301EB5010D5
:105320004FF61F01C0F2E071084040EA1041084604
:1053300070470000022A3DD980B5C1F3C42CC0F3E8
:10534000C423ACEB030323EAE37C00F01F0EC1F39C
:105350004513C0F34510181A01F01F03A3EB0E0309
:1053600020EAE07023EAE37300F03F0043EACC2335
:1053700043EA4010FF2ABDE8804008BF70474FF65F
:105380001F0C01EA0C0301F4FC6143EA014100EA4D
:105390000C03043200F4FC605B1AD20803EB0040FB
:1053A000504301EB50104FF61F01C0F2E07108406E
:1053B00040EA10410846704710B582B090F850207E
:1053C00002F001038B4222D0002918BF012102F014
:1053D000FE021144026A80F85010B0F844C0118AED
:1053E000B0F848E001EB0C03ADF80030528AB0F899
:1053F0004A30B0F846407144ADF80410D118144456
:10540000ADF806106946ADF802401BF0F1FF02B09E
:1054100010BD000088B2114607F02CBE7047000096
:105420002DE9F04F81B0154640F22902C2F2000288
:105430001278814612B340F60048C4F201080E46C5
:1054400040464FF400710022FBF7F6F83078B1784F
:105450003279B379FCF7A4FA40464FF48071012207
:10546000FBF7EAF8B6F902A0B6F906108A450BDD9B
:1054700040464FF400710122FBF7DEF8484608F081
:1054800033FE01B0BDE8F08FB08840F29C4BC2F211
:10549000000B0DF1020404E00AB292450AF1010A80
:1054A000E6DAB6F9002003B29A42F5DC571E00BFD7
:1054B00035F8020B214600BA000CADF80200584640
:1054C00002224FF0FF33FBF7E5FCB088013701B251
:1054D0008F42EDDBF188DFE72DE9F04F9BB00E4600
:1054E000C9780329C0F0A982B6F9207083461388D1
:1054F00051889088D288022FADF86430ADF86610DC
:10550000ADF86800ADF86A201BDB96F82270FD2F1D
:1055100017D33788AFB196F82370C7F3C0052B4473
:10552000ADF86430C7F380031944ADF86610C7F3D3
:105530000011401AADF86800C7F34000101AADF82A
:105540006A00DBF8082017A819A9FCF737FB002828
:1055500000F07382F07B062110F0070008BF0421E1
:10556000775A71890DF164087C1A18BF04464046C9
:105570000AF032F98246B0780025CDE915558DF84C
:1055800059003088BAF1000FCDE91355CDE9115516
:105590001095ADF8487008BF5FEA046100F00E8115
:1055A000F2780FFA80F8BDF86400BDF86810039433
:1055B000FC2A88BF4FF0FF320292081ABDF866102D
:1055C000BDF86A200130511A01310CB207B22046F1
:1055D000A742B8BF3846BDF85C10BDF86020B8EBF4
:1055E000600FA8BF4FEA6008501A06F1060C0130A0
:1055F000B8F1010F4FF000036FEA0A064FF6FF798A
:10560000B8BF01231E4206B218D13046E14618F059
:10561000E3F805460FFA88F20AA819A900230AF050
:1056200073FE0AA8002109F03BFEBDF85C10BDF82E
:105630006020CC464FF6FF7902E000BF4FF6FF70C6
:10564000019008A810901590FF20ADF82010ADF83B
:1056500024208DF85800604639462246139514F0F0
:1056600061F80399C9B2022904910AD148B183684B
:10567000BDF95C10BDF9642003EB4101A1EB4201CF
:105680001191BAF1000F059038D0BDF95E70BDF9E7
:105690006200874200F3BE810498012840F05A81DD
:1056A00002980DF14008C4B2284621463246ADF8B2
:1056B0002270ADF8267018F059FCBDF95C103AB2B2
:1056C000284633460AF03CF8012808BF02208DF82E
:1056D00050000598BDF966108068A0EB410030F8D5
:1056E00017004146ADF8480058460CF007F8BDF9E0
:1056F0006200874207F10107D6DB8BE1B8F1010FA9
:10570000C0F2B08004984FF0000A012866D10298D8
:10571000C7B204E00AF1010AD04500F0A380BDF849
:105720006600BDF95E10504404B2BDF86A008C42B8
:10573000A0EB0A000FFA80F903DABDF96200814597
:10574000E8DC28463946324618F010FCBDF9201036
:1057500028462246334609F0F3FFBDF95E100128C2
:1057600008BF02208C428DF8500010DB0599BDF96E
:1057700066008968ADF82240ADF82640201A31F85D
:10578000100010A9ADF8480058460BF0B7FFBDF95E
:1057900062008145BEDC0599BDF966008968ADF8F7
:1057A0002290ADF82690A9EB000031F8100010A966
:1057B000ADF8480058460BF0A1FFABE700287FF496
:1057C000EFAEF07810A98DF858005846CDF840801B
:1057D0000BF094FF1BB0BDE8F08F00BF02985FFA9A
:1057E00080F903E00AF1010AD0453BD0BDF866001C
:1057F000BDF95E10504407B2BDF86A008F42A0EBBD
:105800000A0004B203DABDF962008442EADC2846E9
:105810004946324618F0AAFBBDF9201028463A4600
:10582000334609F08DFFBDF95E10012808BF022044
:105830008F428DF8500007DB584610A9ADF8227052
:10584000ADF826700BF05AFFBDF962008442C9DC46
:10585000584610A9ADF82240ADF826400BF04EFF97
:10586000C0E700BFBDF86400BDF86610ADF81800D1
:10587000BDF86800ADF81C0001EB0800BDF86A1027
:10588000ADF81A00A1EB0800ADF81E0006A809F05B
:10589000A3FF0399090608BF002843D001218DF812
:1058A0005010BDF96A20BDF96610A2EB080A08EB9A
:1058B0000107029A57454FF6FF798DF8582000F3FB
:1058C000A98000286AD002980DF14008C4B208E00F
:1058D000584641460BF012FF574507F1010780F289
:1058E000998028462146324618F040FBBDF95C10ED
:1058F0003AB22846334609F023FF8DF85000049849
:10590000ADF822700128ADF82670E1D10598BDF9F7
:1059100066108068A0EB410030F81700ADF8480031
:10592000D6E700BFBDF86600BDF86A104044ADF888
:105930002200A1EB0800ADF82600029810A98DF80E
:1059400058000020139058460BF0D8FE4FF6FF7910
:1059500060E000BF02980DF14008C4B2284621461D
:105960003246ADF82270ADF8267018F0FFFABDF996
:105970005C103AB22846334609F0E2FE012808BF1F
:1059800002208DF85000584641460BF0B7FEBDF995
:105990006200874207F10107E0DB3BE00498012841
:1059A0002AD10598ADF822708068ADF82670791A72
:1059B00030F8110010A9ADF8480058460BF09EFED3
:1059C000574527DA7E1C10AC0599BDF96600896839
:1059D000ADF82260ADF82660A1EB400030F816006B
:1059E0002146ADF8480058460BF088FE564506F1B2
:1059F0000106E9DB0EE000BF10AC00BF58462146AF
:105A0000ADF82270ADF826700BF078FE574507F11F
:105A10000107F3DB15B1284613F0B8FB0199059C8B
:105A200088B2484505D008B20BF00AF80AA809F078
:105A3000B1FE14B1204613F06DFE1BB0BDE8F08F2F
:105A40002DE9F04F93B00D460969002900F0D78089
:105A50008046A87E0328C0F0D2801646D8F80820D9
:105A600011AC20463146FCF7A9F8002800F0C780A9
:105A7000D8F80890C8F80840286915F009FE0228EF
:105A80004ED1D5E90412002741F6FF70CDE9007030
:105A900010A80023029720F0EDFE3088B18806ACF4
:105AA000091A01318AB201EBD231BDF8402009B2A6
:105AB00000EB610002EBD23109B2A0EB6100ADF85E
:105AC000380010447188F2880138ADF83C00501A53
:105AD000013082B200EBD230BDF8422000B201EBBF
